{
  "contractName": "DePINManager",
  "abi": [
    {
      "inputs": [
        {
          "internalType": "address",
          "name": "initialOwner",
          "type": "address"
        }
      ],
      "stateMutability": "nonpayable",
      "type": "constructor"
    },
    {
      "inputs": [],
      "name": "AssetAlreadyActive",
      "type": "error"
    },
    {
      "inputs": [],
      "name": "AssetAlreadyDeactivated",
      "type": "error"
    },
    {
      "inputs": [],
      "name": "AssetDoesNotExist",
      "type": "error"
    },
    {
      "inputs": [],
      "name": "CallerNotAssetOwner",
      "type": "error"
    },
    {
      "inputs": [],
      "name": "CallerNotOwnerNorApproved",
      "type": "error"
    },
    {
      "inputs": [],
      "name": "InvalidRecipientAddress",
      "type": "error"
    },
    {
      "anonymous": false,
      "inputs": [
        {
          "indexed": true,
          "internalType": "address",
          "name": "owner",
          "type": "address"
        },
        {
          "indexed": true,
          "internalType": "address",
          "name": "approved",
          "type": "address"
        },
        {
          "indexed": true,
          "internalType": "uint256",
          "name": "assetId",
          "type": "uint256"
        }
      ],
      "name": "Approval",
      "type": "event"
    },
    {
      "anonymous": false,
      "inputs": [
        {
          "indexed": true,
          "internalType": "uint256",
          "name": "assetId",
          "type": "uint256"
        },
        {
          "indexed": false,
          "internalType": "string",
          "name": "name",
          "type": "string"
        },
        {
          "indexed": true,
          "internalType": "address",
          "name": "owner",
          "type": "address"
        }
      ],
      "name": "AssetCreated",
      "type": "event"
    },
    {
      "anonymous": false,
      "inputs": [
        {
          "indexed": true,
          "internalType": "uint256",
          "name": "assetId",
          "type": "uint256"
        },
        {
          "indexed": true,
          "internalType": "address",
          "name": "owner",
          "type": "address"
        }
      ],
      "name": "AssetDeactivated",
      "type": "event"
    },
    {
      "anonymous": false,
      "inputs": [
        {
          "indexed": true,
          "internalType": "uint256",
          "name": "assetId",
          "type": "uint256"
        },
        {
          "indexed": true,
          "internalType": "address",
          "name": "owner",
          "type": "address"
        }
      ],
      "name": "AssetReactivated",
      "type": "event"
    },
    {
      "anonymous": false,
      "inputs": [
        {
          "indexed": true,
          "internalType": "uint256",
          "name": "assetId",
          "type": "uint256"
        },
        {
          "indexed": true,
          "internalType": "address",
          "name": "from",
          "type": "address"
        },
        {
          "indexed": true,
          "internalType": "address",
          "name": "to",
          "type": "address"
        }
      ],
      "name": "AssetTransferred",
      "type": "event"
    },
    {
      "anonymous": false,
      "inputs": [
        {
          "indexed": true,
          "internalType": "uint256",
          "name": "assetId",
          "type": "uint256"
        },
        {
          "indexed": false,
          "internalType": "string",
          "name": "metadataURI",
          "type": "string"
        },
        {
          "indexed": true,
          "internalType": "address",
          "name": "owner",
          "type": "address"
        }
      ],
      "name": "AssetUpdated",
      "type": "event"
    },
    {
      "anonymous": false,
      "inputs": [
        {
          "indexed": true,
          "internalType": "address",
          "name": "previousOwner",
          "type": "address"
        },
        {
          "indexed": true,
          "internalType": "address",
          "name": "newOwner",
          "type": "address"
        }
      ],
      "name": "OwnershipTransferred",
      "type": "event"
    },
    {
      "anonymous": false,
      "inputs": [
        {
          "indexed": false,
          "internalType": "address",
          "name": "account",
          "type": "address"
        }
      ],
      "name": "Paused",
      "type": "event"
    },
    {
      "anonymous": false,
      "inputs": [
        {
          "indexed": false,
          "internalType": "address",
          "name": "account",
          "type": "address"
        }
      ],
      "name": "Unpaused",
      "type": "event"
    },
    {
      "inputs": [],
      "name": "owner",
      "outputs": [
        {
          "internalType": "address",
          "name": "",
          "type": "address"
        }
      ],
      "stateMutability": "view",
      "type": "function"
    },
    {
      "inputs": [],
      "name": "paused",
      "outputs": [
        {
          "internalType": "bool",
          "name": "",
          "type": "bool"
        }
      ],
      "stateMutability": "view",
      "type": "function"
    },
    {
      "inputs": [],
      "name": "renounceOwnership",
      "outputs": [],
      "stateMutability": "nonpayable",
      "type": "function"
    },
    {
      "inputs": [
        {
          "internalType": "address",
          "name": "newOwner",
          "type": "address"
        }
      ],
      "name": "transferOwnership",
      "outputs": [],
      "stateMutability": "nonpayable",
      "type": "function"
    },
    {
      "inputs": [
        {
          "internalType": "string",
          "name": "name",
          "type": "string"
        },
        {
          "internalType": "string",
          "name": "metadataURI",
          "type": "string"
        }
      ],
      "name": "createAsset",
      "outputs": [
        {
          "internalType": "uint256",
          "name": "",
          "type": "uint256"
        }
      ],
      "stateMutability": "nonpayable",
      "type": "function"
    },
    {
      "inputs": [
        {
          "internalType": "uint256",
          "name": "assetId",
          "type": "uint256"
        },
        {
          "internalType": "string",
          "name": "metadataURI",
          "type": "string"
        }
      ],
      "name": "updateAsset",
      "outputs": [],
      "stateMutability": "nonpayable",
      "type": "function"
    },
    {
      "inputs": [
        {
          "internalType": "uint256",
          "name": "assetId",
          "type": "uint256"
        },
        {
          "internalType": "address",
          "name": "to",
          "type": "address"
        }
      ],
      "name": "transferAsset",
      "outputs": [],
      "stateMutability": "nonpayable",
      "type": "function"
    },
    {
      "inputs": [
        {
          "internalType": "address",
          "name": "to",
          "type": "address"
        },
        {
          "internalType": "uint256",
          "name": "assetId",
          "type": "uint256"
        }
      ],
      "name": "approve",
      "outputs": [],
      "stateMutability": "nonpayable",
      "type": "function"
    },
    {
      "inputs": [
        {
          "internalType": "uint256",
          "name": "assetId",
          "type": "uint256"
        }
      ],
      "name": "getApproved",
      "outputs": [
        {
          "internalType": "address",
          "name": "",
          "type": "address"
        }
      ],
      "stateMutability": "view",
      "type": "function"
    },
    {
      "inputs": [
        {
          "internalType": "uint256",
          "name": "assetId",
          "type": "uint256"
        }
      ],
      "name": "deactivateAsset",
      "outputs": [],
      "stateMutability": "nonpayable",
      "type": "function"
    },
    {
      "inputs": [
        {
          "internalType": "uint256",
          "name": "assetId",
          "type": "uint256"
        }
      ],
      "name": "reactivateAsset",
      "outputs": [],
      "stateMutability": "nonpayable",
      "type": "function"
    },
    {
      "inputs": [
        {
          "internalType": "uint256",
          "name": "assetId",
          "type": "uint256"
        }
      ],
      "name": "getAsset",
      "outputs": [
        {
          "components": [
            {
              "internalType": "uint256",
              "name": "id",
              "type": "uint256"
            },
            {
              "internalType": "string",
              "name": "name",
              "type": "string"
            },
            {
              "internalType": "string",
              "name": "metadataURI",
              "type": "string"
            },
            {
              "internalType": "uint256",
              "name": "createdAt",
              "type": "uint256"
            },
            {
              "internalType": "uint256",
              "name": "updatedAt",
              "type": "uint256"
            },
            {
              "internalType": "address",
              "name": "owner",
              "type": "address"
            },
            {
              "internalType": "bool",
              "name": "active",
              "type": "bool"
            }
          ],
          "internalType": "struct DePINManager.Asset",
          "name": "",
          "type": "tuple"
        }
      ],
      "stateMutability": "view",
      "type": "function"
    },
    {
      "inputs": [
        {
          "internalType": "address",
          "name": "owner",
          "type": "address"
        }
      ],
      "name": "getAssetsByOwner",
      "outputs": [
        {
          "internalType": "uint256[]",
          "name": "",
          "type": "uint256[]"
        }
      ],
      "stateMutability": "view",
      "type": "function"
    },
    {
      "inputs": [],
      "name": "getAssetOwners",
      "outputs": [
        {
          "internalType": "address[]",
          "name": "",
          "type": "address[]"
        }
      ],
      "stateMutability": "view",
      "type": "function"
    },
    {
      "inputs": [],
      "name": "pause",
      "outputs": [],
      "stateMutability": "nonpayable",
      "type": "function"
    },
    {
      "inputs": [],
      "name": "unpause",
      "outputs": [],
      "stateMutability": "nonpayable",
      "type": "function"
    }
  ],
  "bytecode": "0x60806040523480156200001157600080fd5b506040516200302a3803806200302a83398181016040528101906200003791906200031e565b620000576200004b6200009860201b60201c565b620000a060201b60201c565b60008060146101000a81548160ff0219169083151502179055506001808190555062000089816200016460201b60201c565b6000600281905550506200046b565b600033905090565b60008060009054906101000a900473ffffffffffffffffffffffffffffffffffffffff169050816000806101000a81548173ffffffffffffffffffffffffffffffffffffffff021916908373ffffffffffffffffffffffffffffffffffffffff1602179055508173ffffffffffffffffffffffffffffffffffffffff168173ffffffffffffffffffffffffffffffffffffffff167f8be0079c531659141344cd1fd0a4f28419497f9722a3daafe3b4186f6b6457e060405160405180910390a35050565b62000174620001fa60201b60201c565b600073ffffffffffffffffffffffffffffffffffffffff168173ffffffffffffffffffffffffffffffffffffffff1603620001e6576040517f08c379a0000000000000000000000000000000000000000000000000000000008152600401620001dd90620003d7565b60405180910390fd5b620001f781620000a060201b60201c565b50565b6200020a6200009860201b60201c565b73ffffffffffffffffffffffffffffffffffffffff16620002306200028b60201b60201c565b73ffffffffffffffffffffffffffffffffffffffff161462000289576040517f08c379a0000000000000000000000000000000000000000000000000000000008152600401620002809062000449565b60405180910390fd5b565b60008060009054906101000a900473ffffffffffffffffffffffffffffffffffffffff16905090565b600080fd5b600073ffffffffffffffffffffffffffffffffffffffff82169050919050565b6000620002e682620002b9565b9050919050565b620002f881620002d9565b81146200030457600080fd5b50565b6000815190506200031881620002ed565b92915050565b600060208284031215620003375762000336620002b4565b5b6000620003478482850162000307565b91505092915050565b600082825260208201905092915050565b7f4f776e61626c653a206e6577206f776e657220697320746865207a65726f206160008201527f6464726573730000000000000000000000000000000000000000000000000000602082015250565b6000620003bf60268362000350565b9150620003cc8262000361565b604082019050919050565b60006020820190508181036000830152620003f281620003b0565b9050919050565b7f4f776e61626c653a2063616c6c6572206973206e6f7420746865206f776e6572600082015250565b60006200043160208362000350565b91506200043e82620003f9565b602082019050919050565b60006020820190508181036000830152620004648162000422565b9050919050565b612baf806200047b6000396000f3fe608060405234801561001057600080fd5b50600436106101005760003560e01c8063715018a611610097578063a6d2d2eb11610066578063a6d2d2eb14610261578063eac8f5b81461027d578063f2fde38b146102ad578063fa62ee8d146102c957610100565b8063715018a6146101ff5780638456cb59146102095780638da5cb5b14610213578063a2a55b681461023157610100565b8063319af5e0116100d3578063319af5e01461019f5780633f4ba83a146101bb57806345de17ad146101c55780635c975abb146101e157610100565b8063081812fc14610105578063095ea7b314610135578063252203b314610151578063276f09341461016f575b600080fd5b61011f600480360381019061011a9190611dc1565b6102e5565b60405161012c9190611e2f565b60405180910390f35b61014f600480360381019061014a9190611e76565b6103c0565b005b6101596105b4565b6040516101669190611f74565b60405180910390f35b61018960048036038101906101849190611f96565b610699565b6040516101969190612081565b60405180910390f35b6101b960048036038101906101b49190611dc1565b6107cc565b005b6101c36109d3565b005b6101df60048036038101906101da91906121e9565b6109e5565b005b6101e9610bae565b6040516101f69190612260565b60405180910390f35b610207610bc4565b005b610211610bd8565b005b61021b610bea565b6040516102289190611e2f565b60405180910390f35b61024b6004803603810190610246919061227b565b610c13565b6040516102589190612302565b60405180910390f35b61027b60048036038101906102769190611dc1565b610e17565b005b61029760048036038101906102929190611dc1565b61101f565b6040516102a4919061244e565b60405180910390f35b6102c760048036038101906102c29190611f96565b61129d565b005b6102e360048036038101906102de9190612470565b611320565b005b600081600073ffffffffffffffffffffffffffffffffffffffff166003600083815260200190815260200160002060050160009054906101000a900473ffffffffffffffffffffffffffffffffffffffff1673ffffffffffffffffffffffffffffffffffffffff1603610384576040517f67fa94e700000000000000000000000000000000000000000000000000000000815260040160405180910390fd5b6004600084815260200190815260200160002060009054906101000a900473ffffffffffffffffffffffffffffffffffffffff16915050919050565b6103c861152e565b80600073ffffffffffffffffffffffffffffffffffffffff166003600083815260200190815260200160002060050160009054906101000a900473ffffffffffffffffffffffffffffffffffffffff1673ffffffffffffffffffffffffffffffffffffffff1603610465576040517f67fa94e700000000000000000000000000000000000000000000000000000000815260040160405180910390fd5b813373ffffffffffffffffffffffffffffffffffffffff166003600083815260200190815260200160002060050160009054906101000a900473ffffffffffffffffffffffffffffffffffffffff1673ffffffffffffffffffffffffffffffffffffffff1614610501576040517f0bff198700000000000000000000000000000000000000000000000000000000815260040160405180910390fd5b836004600085815260200190815260200160002060006101000a81548173ffffffffffffffffffffffffffffffffffffffff021916908373ffffffffffffffffffffffffffffffffffffffff160217905550828473ffffffffffffffffffffffffffffffffffffffff163373ffffffffffffffffffffffffffffffffffffffff167f8c5be1e5ebec7d5bd14f71427d1e84f3dd0314c0f7b2291e5b200ac8c7c3b92560405160405180910390a450505050565b606060006105c26005611578565b905060008167ffffffffffffffff8111156105e0576105df6120be565b5b60405190808252806020026020018201604052801561060e5781602001602082028036833780820191505090505b50905060005b828110156106905761063081600561158d90919063ffffffff16565b828281518110610643576106426124b0565b5b602002602001019073ffffffffffffffffffffffffffffffffffffffff16908173ffffffffffffffffffffffffffffffffffffffff168152505080806106889061250e565b915050610614565b50809250505090565b606060006106e4600760008573ffffffffffffffffffffffffffffffffffffffff1673ffffffffffffffffffffffffffffffffffffffff1681526020019081526020016000206115a7565b905060008167ffffffffffffffff811115610702576107016120be565b5b6040519080825280602002602001820160405280156107305781602001602082028036833780820191505090505b50905060005b828110156107c15761078f81600760008873ffffffffffffffffffffffffffffffffffffffff1673ffffffffffffffffffffffffffffffffffffffff1681526020019081526020016000206115bc90919063ffffffff16565b8282815181106107a2576107a16124b0565b5b60200260200101818152505080806107b99061250e565b915050610736565b508092505050919050565b6107d461152e565b80600073ffffffffffffffffffffffffffffffffffffffff166003600083815260200190815260200160002060050160009054906101000a900473ffffffffffffffffffffffffffffffffffffffff1673ffffffffffffffffffffffffffffffffffffffff1603610871576040517f67fa94e700000000000000000000000000000000000000000000000000000000815260040160405180910390fd5b813373ffffffffffffffffffffffffffffffffffffffff166003600083815260200190815260200160002060050160009054906101000a900473ffffffffffffffffffffffffffffffffffffffff1673ffffffffffffffffffffffffffffffffffffffff161461090d576040517f0bff198700000000000000000000000000000000000000000000000000000000815260040160405180910390fd5b60006003600085815260200190815260200160002090508060050160149054906101000a900460ff1661096c576040517ff4d1313a00000000000000000000000000000000000000000000000000000000815260040160405180910390fd5b60008160050160146101000a81548160ff0219169083151502179055503373ffffffffffffffffffffffffffffffffffffffff16847f859dd3e79827129b9ab4c4a80bf356e65c5cae291aa20e4dc9e7896cec9ab1cb60405160405180910390a350505050565b6109db6115d6565b6109e3611654565b565b6109ed61152e565b81600073ffffffffffffffffffffffffffffffffffffffff166003600083815260200190815260200160002060050160009054906101000a900473ffffffffffffffffffffffffffffffffffffffff1673ffffffffffffffffffffffffffffffffffffffff1603610a8a576040517f67fa94e700000000000000000000000000000000000000000000000000000000815260040160405180910390fd5b823373ffffffffffffffffffffffffffffffffffffffff166003600083815260200190815260200160002060050160009054906101000a900473ffffffffffffffffffffffffffffffffffffffff1673ffffffffffffffffffffffffffffffffffffffff1614610b26576040517f0bff198700000000000000000000000000000000000000000000000000000000815260040160405180910390fd5b600060036000868152602001908152602001600020905083816002019081610b4e9190612762565b504281600401819055503373ffffffffffffffffffffffffffffffffffffffff16857f5ffa78781a3b8ae32f341a9b0b9df37b3a6fe5d5748a61f0242bac7922e36db486604051610b9f919061287e565b60405180910390a35050505050565b60008060149054906101000a900460ff16905090565b610bcc6115d6565b610bd660006116b6565b565b610be06115d6565b610be861177a565b565b60008060009054906101000a900473ffffffffffffffffffffffffffffffffffffffff16905090565b6000610c1d61152e565b600160026000828254610c3091906128a0565b925050819055506000600254905060006040518060e001604052808381526020018681526020018581526020014281526020014281526020013373ffffffffffffffffffffffffffffffffffffffff1681526020016001151581525090508060036000848152602001908152602001600020600082015181600001556020820151816001019081610cc19190612762565b506040820151816002019081610cd79190612762565b50606082015181600301556080820151816004015560a08201518160050160006101000a81548173ffffffffffffffffffffffffffffffffffffffff021916908373ffffffffffffffffffffffffffffffffffffffff16021790555060c08201518160050160146101000a81548160ff021916908315150217905550905050610d6a3360056117dd90919063ffffffff16565b50610dbc82600760003373ffffffffffffffffffffffffffffffffffffffff1673ffffffffffffffffffffffffffffffffffffffff16815260200190815260200160002061180d90919063ffffffff16565b503373ffffffffffffffffffffffffffffffffffffffff16827f40ac6d0abd196f71067fd5f01713f04a69e6b1e602e26ebca127dc6793afd7b387604051610e04919061287e565b60405180910390a3819250505092915050565b610e1f61152e565b80600073ffffffffffffffffffffffffffffffffffffffff166003600083815260200190815260200160002060050160009054906101000a900473ffffffffffffffffffffffffffffffffffffffff1673ffffffffffffffffffffffffffffffffffffffff1603610ebc576040517f67fa94e700000000000000000000000000000000000000000000000000000000815260040160405180910390fd5b813373ffffffffffffffffffffffffffffffffffffffff166003600083815260200190815260200160002060050160009054906101000a900473ffffffffffffffffffffffffffffffffffffffff1673ffffffffffffffffffffffffffffffffffffffff1614610f58576040517f0bff198700000000000000000000000000000000000000000000000000000000815260040160405180910390fd5b60006003600085815260200190815260200160002090508060050160149054906101000a900460ff1615610fb8576040517f325d19a400000000000000000000000000000000000000000000000000000000815260040160405180910390fd5b60018160050160146101000a81548160ff0219169083151502179055503373ffffffffffffffffffffffffffffffffffffffff16847f81147d919d7f271ff0703bdc67efc0e5679c770479cbb79505a97e967fc012a060405160405180910390a350505050565b611027611d22565b81600073ffffffffffffffffffffffffffffffffffffffff166003600083815260200190815260200160002060050160009054906101000a900473ffffffffffffffffffffffffffffffffffffffff1673ffffffffffffffffffffffffffffffffffffffff16036110c4576040517f67fa94e700000000000000000000000000000000000000000000000000000000815260040160405180910390fd5b600360008481526020019081526020016000206040518060e0016040529081600082015481526020016001820180546110fc90612585565b80601f016020809104026020016040519081016040528092919081815260200182805461112890612585565b80156111755780601f1061114a57610100808354040283529160200191611175565b820191906000526020600020905b81548152906001019060200180831161115857829003601f168201915b5050505050815260200160028201805461118e90612585565b80601f01602080910402602001604051908101604052809291908181526020018280546111ba90612585565b80156112075780601f106111dc57610100808354040283529160200191611207565b820191906000526020600020905b8154815290600101906020018083116111ea57829003601f168201915b5050505050815260200160038201548152602001600482015481526020016005820160009054906101000a900473ffffffffffffffffffffffffffffffffffffffff1673ffffffffffffffffffffffffffffffffffffffff1673ffffffffffffffffffffffffffffffffffffffff1681526020016005820160149054906101000a900460ff161515151581525050915050919050565b6112a56115d6565b600073ffffffffffffffffffffffffffffffffffffffff168173ffffffffffffffffffffffffffffffffffffffff1603611314576040517f08c379a000000000000000000000000000000000000000000000000000000000815260040161130b90612946565b60405180910390fd5b61131d816116b6565b50565b61132861152e565b81600073ffffffffffffffffffffffffffffffffffffffff166003600083815260200190815260200160002060050160009054906101000a900473ffffffffffffffffffffffffffffffffffffffff1673ffffffffffffffffffffffffffffffffffffffff16036113c5576040517f67fa94e700000000000000000000000000000000000000000000000000000000815260040160405180910390fd5b6113cd611827565b600073ffffffffffffffffffffffffffffffffffffffff168273ffffffffffffffffffffffffffffffffffffffff1603611433576040517f44d99fea00000000000000000000000000000000000000000000000000000000815260040160405180910390fd5b60006003600085815260200190815260200160002060050160009054906101000a900473ffffffffffffffffffffffffffffffffffffffff1690508073ffffffffffffffffffffffffffffffffffffffff163373ffffffffffffffffffffffffffffffffffffffff16141580156114de57503373ffffffffffffffffffffffffffffffffffffffff166114c5856102e5565b73ffffffffffffffffffffffffffffffffffffffff1614155b15611515576040517f4fb505aa00000000000000000000000000000000000000000000000000000000815260040160405180910390fd5b611520848285611876565b50611529611a9b565b505050565b611536610bae565b15611576576040517f08c379a000000000000000000000000000000000000000000000000000000000815260040161156d906129b2565b60405180910390fd5b565b600061158682600001611aa4565b9050919050565b600061159c8360000183611ab5565b60001c905092915050565b60006115b582600001611aa4565b9050919050565b60006115cb8360000183611ab5565b60001c905092915050565b6115de611ae0565b73ffffffffffffffffffffffffffffffffffffffff166115fc610bea565b73ffffffffffffffffffffffffffffffffffffffff1614611652576040517f08c379a000000000000000000000000000000000000000000000000000000000815260040161164990612a1e565b60405180910390fd5b565b61165c611ae8565b60008060146101000a81548160ff0219169083151502179055507f5db9ee0a495bf2e6ff9c91a7834c1ba4fdd244a5e8aa4e537bd38aeae4b073aa61169f611ae0565b6040516116ac9190611e2f565b60405180910390a1565b60008060009054906101000a900473ffffffffffffffffffffffffffffffffffffffff169050816000806101000a81548173ffffffffffffffffffffffffffffffffffffffff021916908373ffffffffffffffffffffffffffffffffffffffff1602179055508173ffffffffffffffffffffffffffffffffffffffff168173ffffffffffffffffffffffffffffffffffffffff167f8be0079c531659141344cd1fd0a4f28419497f9722a3daafe3b4186f6b6457e060405160405180910390a35050565b61178261152e565b6001600060146101000a81548160ff0219169083151502179055507f62e78cea01bee320cd4e420270b5ea74000d11b0c9f74754ebdbfc544b05a2586117c6611ae0565b6040516117d39190611e2f565b60405180910390a1565b6000611805836000018373ffffffffffffffffffffffffffffffffffffffff1660001b611b31565b905092915050565b600061181f836000018360001b611b31565b905092915050565b60026001540361186c576040517f08c379a000000000000000000000000000000000000000000000000000000000815260040161186390612a8a565b60405180910390fd5b6002600181905550565b806003600085815260200190815260200160002060050160006101000a81548173ffffffffffffffffffffffffffffffffffffffff021916908373ffffffffffffffffffffffffffffffffffffffff16021790555061191c83600760008573ffffffffffffffffffffffffffffffffffffffff1673ffffffffffffffffffffffffffffffffffffffff168152602001908152602001600020611ba190919063ffffffff16565b5061196e83600760008473ffffffffffffffffffffffffffffffffffffffff1673ffffffffffffffffffffffffffffffffffffffff16815260200190815260200160002061180d90919063ffffffff16565b5060006119b8600760008573ffffffffffffffffffffffffffffffffffffffff1673ffffffffffffffffffffffffffffffffffffffff1681526020019081526020016000206115a7565b036119d3576119d1826005611bbb90919063ffffffff16565b505b6119e78160056117dd90919063ffffffff16565b5060006004600085815260200190815260200160002060006101000a81548173ffffffffffffffffffffffffffffffffffffffff021916908373ffffffffffffffffffffffffffffffffffffffff1602179055508073ffffffffffffffffffffffffffffffffffffffff168273ffffffffffffffffffffffffffffffffffffffff16847fa993eb3a10693085bc7afc1de0202310fbd5992b9e51edd263b198f62f20cdae60405160405180910390a4505050565b60018081905550565b600081600001805490509050919050565b6000826000018281548110611acd57611acc6124b0565b5b9060005260206000200154905092915050565b600033905090565b611af0610bae565b611b2f576040517f08c379a0000000000000000000000000000000000000000000000000000000008152600401611b2690612af6565b60405180910390fd5b565b6000611b3d8383611beb565b611b96578260000182908060018154018082558091505060019003906000526020600020016000909190919091505582600001805490508360010160008481526020019081526020016000208190555060019050611b9b565b600090505b92915050565b6000611bb3836000018360001b611c0e565b905092915050565b6000611be3836000018373ffffffffffffffffffffffffffffffffffffffff1660001b611c0e565b905092915050565b600080836001016000848152602001908152602001600020541415905092915050565b60008083600101600084815260200190815260200160002054905060008114611d16576000600182611c409190612b16565b9050600060018660000180549050611c589190612b16565b9050818114611cc7576000866000018281548110611c7957611c786124b0565b5b9060005260206000200154905080876000018481548110611c9d57611c9c6124b0565b5b90600052602060002001819055508387600101600083815260200190815260200160002081905550505b85600001805480611cdb57611cda612b4a565b5b600190038181906000526020600020016000905590558560010160008681526020019081526020016000206000905560019350505050611d1c565b60009150505b92915050565b6040518060e001604052806000815260200160608152602001606081526020016000815260200160008152602001600073ffffffffffffffffffffffffffffffffffffffff1681526020016000151581525090565b6000604051905090565b600080fd5b600080fd5b6000819050919050565b611d9e81611d8b565b8114611da957600080fd5b50565b600081359050611dbb81611d95565b92915050565b600060208284031215611dd757611dd6611d81565b5b6000611de584828501611dac565b91505092915050565b600073ffffffffffffffffffffffffffffffffffffffff82169050919050565b6000611e1982611dee565b9050919050565b611e2981611e0e565b82525050565b6000602082019050611e446000830184611e20565b92915050565b611e5381611e0e565b8114611e5e57600080fd5b50565b600081359050611e7081611e4a565b92915050565b60008060408385031215611e8d57611e8c611d81565b5b6000611e9b85828601611e61565b9250506020611eac85828601611dac565b9150509250929050565b600081519050919050565b600082825260208201905092915050565b6000819050602082019050919050565b611eeb81611e0e565b82525050565b6000611efd8383611ee2565b60208301905092915050565b6000602082019050919050565b6000611f2182611eb6565b611f2b8185611ec1565b9350611f3683611ed2565b8060005b83811015611f67578151611f4e8882611ef1565b9750611f5983611f09565b925050600181019050611f3a565b5085935050505092915050565b60006020820190508181036000830152611f8e8184611f16565b905092915050565b600060208284031215611fac57611fab611d81565b5b6000611fba84828501611e61565b91505092915050565b600081519050919050565b600082825260208201905092915050565b6000819050602082019050919050565b611ff881611d8b565b82525050565b600061200a8383611fef565b60208301905092915050565b6000602082019050919050565b600061202e82611fc3565b6120388185611fce565b935061204383611fdf565b8060005b8381101561207457815161205b8882611ffe565b975061206683612016565b925050600181019050612047565b5085935050505092915050565b6000602082019050818103600083015261209b8184612023565b905092915050565b600080fd5b600080fd5b6000601f19601f8301169050919050565b7f4e487b7100000000000000000000000000000000000000000000000000000000600052604160045260246000fd5b6120f6826120ad565b810181811067ffffffffffffffff82111715612115576121146120be565b5b80604052505050565b6000612128611d77565b905061213482826120ed565b919050565b600067ffffffffffffffff821115612154576121536120be565b5b61215d826120ad565b9050602081019050919050565b82818337600083830152505050565b600061218c61218784612139565b61211e565b9050828152602081018484840111156121a8576121a76120a8565b5b6121b384828561216a565b509392505050565b600082601f8301126121d0576121cf6120a3565b5b81356121e0848260208601612179565b91505092915050565b60008060408385031215612200576121ff611d81565b5b600061220e85828601611dac565b925050602083013567ffffffffffffffff81111561222f5761222e611d86565b5b61223b858286016121bb565b9150509250929050565b60008115159050919050565b61225a81612245565b82525050565b60006020820190506122756000830184612251565b92915050565b6000806040838503121561229257612291611d81565b5b600083013567ffffffffffffffff8111156122b0576122af611d86565b5b6122bc858286016121bb565b925050602083013567ffffffffffffffff8111156122dd576122dc611d86565b5b6122e9858286016121bb565b9150509250929050565b6122fc81611d8b565b82525050565b600060208201905061231760008301846122f3565b92915050565b600081519050919050565b600082825260208201905092915050565b60005b8381101561235757808201518184015260208101905061233c565b60008484015250505050565b600061236e8261231d565b6123788185612328565b9350612388818560208601612339565b612391816120ad565b840191505092915050565b6123a581612245565b82525050565b600060e0830160008301516123c36000860182611fef565b50602083015184820360208601526123db8282612363565b915050604083015184820360408601526123f58282612363565b915050606083015161240a6060860182611fef565b50608083015161241d6080860182611fef565b5060a083015161243060a0860182611ee2565b5060c083015161244360c086018261239c565b508091505092915050565b6000602082019050818103600083015261246881846123ab565b905092915050565b6000806040838503121561248757612486611d81565b5b600061249585828601611dac565b92505060206124a685828601611e61565b9150509250929050565b7f4e487b7100000000000000000000000000000000000000000000000000000000600052603260045260246000fd5b7f4e487b7100000000000000000000000000000000000000000000000000000000600052601160045260246000fd5b600061251982611d8b565b91507fffffffffffffffffffffffffffffffffffffffffffffffffffffffffffffffff820361254b5761254a6124df565b5b600182019050919050565b7f4e487b7100000000000000000000000000000000000000000000000000000000600052602260045260246000fd5b6000600282049050600182168061259d57607f821691505b6020821081036125b0576125af612556565b5b50919050565b60008190508160005260206000209050919050565b60006020601f8301049050919050565b600082821b905092915050565b6000600883026126187fffffffffffffffffffffffffffffffffffffffffffffffffffffffffffffffff826125db565b61262286836125db565b95508019841693508086168417925050509392505050565b6000819050919050565b600061265f61265a61265584611d8b565b61263a565b611d8b565b9050919050565b6000819050919050565b61267983612644565b61268d61268582612666565b8484546125e8565b825550505050565b600090565b6126a2612695565b6126ad818484612670565b505050565b5b818110156126d1576126c660008261269a565b6001810190506126b3565b5050565b601f821115612716576126e7816125b6565b6126f0846125cb565b810160208510156126ff578190505b61271361270b856125cb565b8301826126b2565b50505b505050565b600082821c905092915050565b60006127396000198460080261271b565b1980831691505092915050565b60006127528383612728565b9150826002028217905092915050565b61276b8261231d565b67ffffffffffffffff811115612784576127836120be565b5b61278e8254612585565b6127998282856126d5565b600060209050601f8311600181146127cc57600084156127ba578287015190505b6127c48582612746565b86555061282c565b601f1984166127da866125b6565b60005b82811015612802578489015182556001820191506020850194506020810190506127dd565b8683101561281f578489015161281b601f891682612728565b8355505b6001600288020188555050505b505050505050565b600082825260208201905092915050565b60006128508261231d565b61285a8185612834565b935061286a818560208601612339565b612873816120ad565b840191505092915050565b600060208201905081810360008301526128988184612845565b905092915050565b60006128ab82611d8b565b91506128b683611d8b565b92508282019050808211156128ce576128cd6124df565b5b92915050565b7f4f776e61626c653a206e6577206f776e657220697320746865207a65726f206160008201527f6464726573730000000000000000000000000000000000000000000000000000602082015250565b6000612930602683612834565b915061293b826128d4565b604082019050919050565b6000602082019050818103600083015261295f81612923565b9050919050565b7f5061757361626c653a2070617573656400000000000000000000000000000000600082015250565b600061299c601083612834565b91506129a782612966565b602082019050919050565b600060208201905081810360008301526129cb8161298f565b9050919050565b7f4f776e61626c653a2063616c6c6572206973206e6f7420746865206f776e6572600082015250565b6000612a08602083612834565b9150612a13826129d2565b602082019050919050565b60006020820190508181036000830152612a37816129fb565b9050919050565b7f5265656e7472616e637947756172643a207265656e7472616e742063616c6c00600082015250565b6000612a74601f83612834565b9150612a7f82612a3e565b602082019050919050565b60006020820190508181036000830152612aa381612a67565b9050919050565b7f5061757361626c653a206e6f7420706175736564000000000000000000000000600082015250565b6000612ae0601483612834565b9150612aeb82612aaa565b602082019050919050565b60006020820190508181036000830152612b0f81612ad3565b9050919050565b6000612b2182611d8b565b9150612b2c83611d8b565b9250828203905081811115612b4457612b436124df565b5b92915050565b7f4e487b7100000000000000000000000000000000000000000000000000000000600052603160045260246000fdfea26469706673582212200bf0ff08e3e7c16925c9b75c60905073ac3a77ed65716e10051241664b416cfa64736f6c63430008130033",
  "immutableReferences": {},
  "source": "// SPDX-License-Identifier: MIT\npragma solidity ^0.8.17;\n\nimport \"@openzeppelin/contracts/access/Ownable.sol\";\nimport \"@openzeppelin/contracts/security/Pausable.sol\";\nimport \"@openzeppelin/contracts/security/ReentrancyGuard.sol\";\nimport \"@openzeppelin/contracts/utils/structs/EnumerableSet.sol\";\n\ncontract DePINManager is Ownable, Pausable, ReentrancyGuard {\n    using EnumerableSet for EnumerableSet.AddressSet;\n    using EnumerableSet for EnumerableSet.UintSet;\n\n    error CallerNotAssetOwner();\n    error AssetDoesNotExist();\n    error InvalidRecipientAddress();\n    error AssetAlreadyDeactivated();\n    error AssetAlreadyActive();\n    error CallerNotOwnerNorApproved();\n\n    struct Asset {\n        uint256 id;\n        string name;\n        string metadataURI;\n        uint256 createdAt;\n        uint256 updatedAt;\n        address owner;\n        bool active;\n    }\n\n    uint256 private _assetCounter;\n    mapping(uint256 => Asset) private _assets;\n    mapping(uint256 => address) private _assetApprovals;\n    EnumerableSet.AddressSet private _assetOwners;\n    mapping(address => EnumerableSet.UintSet) private _ownerAssets;\n\n    event AssetCreated(uint256 indexed assetId, string name, address indexed owner);\n    event AssetUpdated(uint256 indexed assetId, string metadataURI, address indexed owner);\n    event AssetTransferred(uint256 indexed assetId, address indexed from, address indexed to);\n    event AssetDeactivated(uint256 indexed assetId, address indexed owner);\n    event AssetReactivated(uint256 indexed assetId, address indexed owner);\n    event Approval(address indexed owner, address indexed approved, uint256 indexed assetId);\n\n    modifier onlyAssetOwner(uint256 assetId) {\n        if (_assets[assetId].owner != msg.sender) revert CallerNotAssetOwner();\n        _;\n    }\n\n    modifier assetExists(uint256 assetId) {\n        if (_assets[assetId].owner == address(0)) revert AssetDoesNotExist();\n        _;\n    }\n\n    constructor(address initialOwner) Ownable() {\n        transferOwnership(initialOwner);\n        _assetCounter = 0;\n    }\n\n    function createAsset(string memory name, string memory metadataURI) external whenNotPaused returns (uint256) {\n        _assetCounter += 1;\n        uint256 newAssetId = _assetCounter;\n\n        Asset memory newAsset = Asset({\n            id: newAssetId,\n            name: name,\n            metadataURI: metadataURI,\n            createdAt: block.timestamp,\n            updatedAt: block.timestamp,\n            owner: msg.sender,\n            active: true\n        });\n\n        _assets[newAssetId] = newAsset;\n        _assetOwners.add(msg.sender);\n        _ownerAssets[msg.sender].add(newAssetId);\n\n        emit AssetCreated(newAssetId, name, msg.sender);\n\n        return newAssetId;\n    }\n\n    function updateAsset(uint256 assetId, string memory metadataURI) external whenNotPaused assetExists(assetId) onlyAssetOwner(assetId) {\n        Asset storage asset = _assets[assetId];\n        asset.metadataURI = metadataURI;\n        asset.updatedAt = block.timestamp;\n\n        emit AssetUpdated(assetId, metadataURI, msg.sender);\n    }\n\n    function transferAsset(uint256 assetId, address to) external whenNotPaused assetExists(assetId) nonReentrant {\n        if (to == address(0)) revert InvalidRecipientAddress();\n        address owner = _assets[assetId].owner;\n        if (msg.sender != owner && getApproved(assetId) != msg.sender) revert CallerNotOwnerNorApproved();\n        _transferAsset(assetId, owner, to);\n    }\n\n    function _transferAsset(uint256 assetId, address from, address to) internal {\n        _assets[assetId].owner = to;\n        _ownerAssets[from].remove(assetId);\n        _ownerAssets[to].add(assetId);\n\n        if (_ownerAssets[from].length() == 0) {\n            _assetOwners.remove(from);\n        }\n\n        _assetOwners.add(to);\n\n        _assetApprovals[assetId] = address(0);\n\n        emit AssetTransferred(assetId, from, to);\n    }\n\n    function approve(address to, uint256 assetId) external whenNotPaused assetExists(assetId) onlyAssetOwner(assetId) {\n        _assetApprovals[assetId] = to;\n        emit Approval(msg.sender, to, assetId);\n    }\n\n    function getApproved(uint256 assetId) public view assetExists(assetId) returns (address) {\n        return _assetApprovals[assetId];\n    }\n\n    function deactivateAsset(uint256 assetId) external whenNotPaused assetExists(assetId) onlyAssetOwner(assetId) {\n        Asset storage asset = _assets[assetId];\n        if (!asset.active) revert AssetAlreadyDeactivated();\n        asset.active = false;\n\n        emit AssetDeactivated(assetId, msg.sender);\n    }\n\n    function reactivateAsset(uint256 assetId) external whenNotPaused assetExists(assetId) onlyAssetOwner(assetId) {\n        Asset storage asset = _assets[assetId];\n        if (asset.active) revert AssetAlreadyActive();\n        asset.active = true;\n\n        emit AssetReactivated(assetId, msg.sender);\n    }\n\n    function getAsset(uint256 assetId) external view assetExists(assetId) returns (Asset memory) {\n        return _assets[assetId];\n    }\n\n    function getAssetsByOwner(address owner) external view returns (uint256[] memory) {\n        uint256 length = _ownerAssets[owner].length();\n        uint256[] memory assetIds = new uint256[](length);\n        for (uint256 i = 0; i < length; i++) {\n            assetIds[i] = _ownerAssets[owner].at(i);\n        }\n        return assetIds;\n    }\n\n    function getAssetOwners() external view returns (address[] memory) {\n        uint256 length = _assetOwners.length();\n        address[] memory owners = new address[](length);\n        for (uint256 i = 0; i < length; i++) {\n            owners[i] = _assetOwners.at(i);\n        }\n        return owners;\n    }\n\n    function pause() external onlyOwner {\n        _pause();\n    }\n\n    function unpause() external onlyOwner {\n        _unpause();\n    }\n}\n",
  "sourcePath": "/Users/elvin3block/Documents/Evire/Evire-DePin/contracts/DePINManager.sol",
  "compiler": {
    "name": "solc",
    "version": "0.8.19+commit.7dd6d404.Emscripten.clang"
  },
  "schemaVersion": "3.4.16",
  "updatedAt": "2024-10-22T11:36:30.716Z",
  "devdoc": {
    "events": {
      "Paused(address)": {
        "details": "Emitted when the pause is triggered by `account`."
      },
      "Unpaused(address)": {
        "details": "Emitted when the pause is lifted by `account`."
      }
    },
    "kind": "dev",
    "methods": {
      "owner()": {
        "details": "Returns the address of the current owner."
      },
      "paused()": {
        "details": "Returns true if the contract is paused, and false otherwise."
      },
      "renounceOwnership()": {
        "details": "Leaves the contract without owner. It will not be possible to call `onlyOwner` functions. Can only be called by the current owner. NOTE: Renouncing ownership will leave the contract without an owner, thereby disabling any functionality that is only available to the owner."
      },
      "transferOwnership(address)": {
        "details": "Transfers ownership of the contract to a new account (`newOwner`). Can only be called by the current owner."
      }
    },
    "version": 1
  },
  "userdoc": {
    "kind": "user",
    "methods": {},
    "version": 1
  }
}