{
  "contractName": "DePINManager",
  "abi": [
    {
      "inputs": [
        {
          "internalType": "address",
          "name": "initialOwner",
          "type": "address"
        }
      ],
      "stateMutability": "nonpayable",
      "type": "constructor"
    },
    {
      "inputs": [],
      "name": "AssetAlreadyActive",
      "type": "error"
    },
    {
      "inputs": [],
      "name": "AssetAlreadyDeactivated",
      "type": "error"
    },
    {
      "inputs": [],
      "name": "AssetDoesNotExist",
      "type": "error"
    },
    {
      "inputs": [],
      "name": "CallerNotAssetOwner",
      "type": "error"
    },
    {
      "inputs": [],
      "name": "CallerNotOwnerNorApproved",
      "type": "error"
    },
    {
      "inputs": [],
      "name": "InvalidRecipientAddress",
      "type": "error"
    },
    {
      "anonymous": false,
      "inputs": [
        {
          "indexed": true,
          "internalType": "address",
          "name": "owner",
          "type": "address"
        },
        {
          "indexed": true,
          "internalType": "address",
          "name": "approved",
          "type": "address"
        },
        {
          "indexed": true,
          "internalType": "uint256",
          "name": "assetId",
          "type": "uint256"
        }
      ],
      "name": "Approval",
      "type": "event"
    },
    {
      "anonymous": false,
      "inputs": [
        {
          "indexed": true,
          "internalType": "uint256",
          "name": "assetId",
          "type": "uint256"
        },
        {
          "indexed": false,
          "internalType": "string",
          "name": "name",
          "type": "string"
        },
        {
          "indexed": true,
          "internalType": "address",
          "name": "owner",
          "type": "address"
        }
      ],
      "name": "AssetCreated",
      "type": "event"
    },
    {
      "anonymous": false,
      "inputs": [
        {
          "indexed": true,
          "internalType": "uint256",
          "name": "assetId",
          "type": "uint256"
        },
        {
          "indexed": true,
          "internalType": "address",
          "name": "owner",
          "type": "address"
        }
      ],
      "name": "AssetDeactivated",
      "type": "event"
    },
    {
      "anonymous": false,
      "inputs": [
        {
          "indexed": true,
          "internalType": "uint256",
          "name": "assetId",
          "type": "uint256"
        },
        {
          "indexed": true,
          "internalType": "address",
          "name": "owner",
          "type": "address"
        }
      ],
      "name": "AssetReactivated",
      "type": "event"
    },
    {
      "anonymous": false,
      "inputs": [
        {
          "indexed": true,
          "internalType": "uint256",
          "name": "assetId",
          "type": "uint256"
        },
        {
          "indexed": true,
          "internalType": "address",
          "name": "from",
          "type": "address"
        },
        {
          "indexed": true,
          "internalType": "address",
          "name": "to",
          "type": "address"
        }
      ],
      "name": "AssetTransferred",
      "type": "event"
    },
    {
      "anonymous": false,
      "inputs": [
        {
          "indexed": true,
          "internalType": "uint256",
          "name": "assetId",
          "type": "uint256"
        },
        {
          "indexed": false,
          "internalType": "string",
          "name": "metadataURI",
          "type": "string"
        },
        {
          "indexed": true,
          "internalType": "address",
          "name": "owner",
          "type": "address"
        }
      ],
      "name": "AssetUpdated",
      "type": "event"
    },
    {
      "anonymous": false,
      "inputs": [
        {
          "indexed": true,
          "internalType": "address",
          "name": "previousOwner",
          "type": "address"
        },
        {
          "indexed": true,
          "internalType": "address",
          "name": "newOwner",
          "type": "address"
        }
      ],
      "name": "OwnershipTransferred",
      "type": "event"
    },
    {
      "inputs": [],
      "name": "owner",
      "outputs": [
        {
          "internalType": "address",
          "name": "",
          "type": "address"
        }
      ],
      "stateMutability": "view",
      "type": "function"
    },
    {
      "inputs": [],
      "name": "renounceOwnership",
      "outputs": [],
      "stateMutability": "nonpayable",
      "type": "function"
    },
    {
      "inputs": [
        {
          "internalType": "address",
          "name": "newOwner",
          "type": "address"
        }
      ],
      "name": "transferOwnership",
      "outputs": [],
      "stateMutability": "nonpayable",
      "type": "function"
    },
    {
      "inputs": [
        {
          "internalType": "string",
          "name": "name",
          "type": "string"
        },
        {
          "internalType": "string",
          "name": "metadataURI",
          "type": "string"
        }
      ],
      "name": "createAsset",
      "outputs": [
        {
          "internalType": "uint256",
          "name": "",
          "type": "uint256"
        }
      ],
      "stateMutability": "nonpayable",
      "type": "function"
    },
    {
      "inputs": [
        {
          "internalType": "uint256",
          "name": "assetId",
          "type": "uint256"
        },
        {
          "internalType": "string",
          "name": "metadataURI",
          "type": "string"
        }
      ],
      "name": "updateAsset",
      "outputs": [],
      "stateMutability": "nonpayable",
      "type": "function"
    },
    {
      "inputs": [
        {
          "internalType": "uint256",
          "name": "assetId",
          "type": "uint256"
        },
        {
          "internalType": "address",
          "name": "to",
          "type": "address"
        }
      ],
      "name": "transferAsset",
      "outputs": [],
      "stateMutability": "nonpayable",
      "type": "function"
    },
    {
      "inputs": [
        {
          "internalType": "address",
          "name": "to",
          "type": "address"
        },
        {
          "internalType": "uint256",
          "name": "assetId",
          "type": "uint256"
        }
      ],
      "name": "approve",
      "outputs": [],
      "stateMutability": "nonpayable",
      "type": "function"
    },
    {
      "inputs": [
        {
          "internalType": "uint256",
          "name": "assetId",
          "type": "uint256"
        }
      ],
      "name": "getApproved",
      "outputs": [
        {
          "internalType": "address",
          "name": "",
          "type": "address"
        }
      ],
      "stateMutability": "view",
      "type": "function"
    },
    {
      "inputs": [
        {
          "internalType": "uint256",
          "name": "assetId",
          "type": "uint256"
        }
      ],
      "name": "deactivateAsset",
      "outputs": [],
      "stateMutability": "nonpayable",
      "type": "function"
    },
    {
      "inputs": [
        {
          "internalType": "uint256",
          "name": "assetId",
          "type": "uint256"
        }
      ],
      "name": "reactivateAsset",
      "outputs": [],
      "stateMutability": "nonpayable",
      "type": "function"
    },
    {
      "inputs": [
        {
          "internalType": "uint256",
          "name": "assetId",
          "type": "uint256"
        }
      ],
      "name": "getAsset",
      "outputs": [
        {
          "components": [
            {
              "internalType": "uint256",
              "name": "id",
              "type": "uint256"
            },
            {
              "internalType": "string",
              "name": "name",
              "type": "string"
            },
            {
              "internalType": "string",
              "name": "metadataURI",
              "type": "string"
            },
            {
              "internalType": "uint256",
              "name": "createdAt",
              "type": "uint256"
            },
            {
              "internalType": "uint256",
              "name": "updatedAt",
              "type": "uint256"
            },
            {
              "internalType": "address",
              "name": "owner",
              "type": "address"
            },
            {
              "internalType": "bool",
              "name": "active",
              "type": "bool"
            }
          ],
          "internalType": "struct DePINManager.Asset",
          "name": "",
          "type": "tuple"
        }
      ],
      "stateMutability": "view",
      "type": "function"
    },
    {
      "inputs": [
        {
          "internalType": "address",
          "name": "owner",
          "type": "address"
        }
      ],
      "name": "getAssetsByOwner",
      "outputs": [
        {
          "internalType": "uint256[]",
          "name": "",
          "type": "uint256[]"
        }
      ],
      "stateMutability": "view",
      "type": "function"
    },
    {
      "inputs": [],
      "name": "getAssetOwners",
      "outputs": [
        {
          "internalType": "address[]",
          "name": "",
          "type": "address[]"
        }
      ],
      "stateMutability": "view",
      "type": "function"
    }
  ],
  "bytecode": "0x60806040523480156200001157600080fd5b5060405162002e4838038062002e48833981810160405281019062000037919062000304565b620000576200004b6200007e60201b60201c565b6200008660201b60201c565b600180819055506200006f816200014a60201b60201c565b60006002819055505062000451565b600033905090565b60008060009054906101000a900473ffffffffffffffffffffffffffffffffffffffff169050816000806101000a81548173ffffffffffffffffffffffffffffffffffffffff021916908373ffffffffffffffffffffffffffffffffffffffff1602179055508173ffffffffffffffffffffffffffffffffffffffff168173ffffffffffffffffffffffffffffffffffffffff167f8be0079c531659141344cd1fd0a4f28419497f9722a3daafe3b4186f6b6457e060405160405180910390a35050565b6200015a620001e060201b60201c565b600073ffffffffffffffffffffffffffffffffffffffff168173ffffffffffffffffffffffffffffffffffffffff1603620001cc576040517f08c379a0000000000000000000000000000000000000000000000000000000008152600401620001c390620003bd565b60405180910390fd5b620001dd816200008660201b60201c565b50565b620001f06200007e60201b60201c565b73ffffffffffffffffffffffffffffffffffffffff16620002166200027160201b60201c565b73ffffffffffffffffffffffffffffffffffffffff16146200026f576040517f08c379a000000000000000000000000000000000000000000000000000000000815260040162000266906200042f565b60405180910390fd5b565b60008060009054906101000a900473ffffffffffffffffffffffffffffffffffffffff16905090565b600080fd5b600073ffffffffffffffffffffffffffffffffffffffff82169050919050565b6000620002cc826200029f565b9050919050565b620002de81620002bf565b8114620002ea57600080fd5b50565b600081519050620002fe81620002d3565b92915050565b6000602082840312156200031d576200031c6200029a565b5b60006200032d84828501620002ed565b91505092915050565b600082825260208201905092915050565b7f4f776e61626c653a206e6577206f776e657220697320746865207a65726f206160008201527f6464726573730000000000000000000000000000000000000000000000000000602082015250565b6000620003a560268362000336565b9150620003b28262000347565b604082019050919050565b60006020820190508181036000830152620003d88162000396565b9050919050565b7f4f776e61626c653a2063616c6c6572206973206e6f7420746865206f776e6572600082015250565b60006200041760208362000336565b91506200042482620003df565b602082019050919050565b600060208201905081810360008301526200044a8162000408565b9050919050565b6129e780620004616000396000f3fe608060405234801561001057600080fd5b50600436106100cf5760003560e01c8063715018a61161008c578063a6d2d2eb11610066578063a6d2d2eb146101fe578063eac8f5b81461021a578063f2fde38b1461024a578063fa62ee8d14610266576100cf565b8063715018a6146101a65780638da5cb5b146101b0578063a2a55b68146101ce576100cf565b8063081812fc146100d4578063095ea7b314610104578063252203b314610120578063276f09341461013e578063319af5e01461016e57806345de17ad1461018a575b600080fd5b6100ee60048036038101906100e99190611c23565b610282565b6040516100fb9190611c91565b60405180910390f35b61011e60048036038101906101199190611cd8565b61035d565b005b610128610549565b6040516101359190611dd6565b60405180910390f35b61015860048036038101906101539190611df8565b61062e565b6040516101659190611ee3565b60405180910390f35b61018860048036038101906101839190611c23565b610761565b005b6101a4600480360381019061019f919061204b565b610960565b005b6101ae610b21565b005b6101b8610b35565b6040516101c59190611c91565b60405180910390f35b6101e860048036038101906101e391906120a7565b610b5e565b6040516101f5919061212e565b60405180910390f35b61021860048036038101906102139190611c23565b610de1565b005b610234600480360381019061022f9190611c23565b610fe1565b6040516102419190612286565b60405180910390f35b610264600480360381019061025f9190611df8565b61125f565b005b610280600480360381019061027b91906122a8565b6112e2565b005b600081600073ffffffffffffffffffffffffffffffffffffffff166003600083815260200190815260200160002060050160009054906101000a900473ffffffffffffffffffffffffffffffffffffffff1673ffffffffffffffffffffffffffffffffffffffff1603610321576040517f67fa94e700000000000000000000000000000000000000000000000000000000815260040160405180910390fd5b6004600084815260200190815260200160002060009054906101000a900473ffffffffffffffffffffffffffffffffffffffff16915050919050565b80600073ffffffffffffffffffffffffffffffffffffffff166003600083815260200190815260200160002060050160009054906101000a900473ffffffffffffffffffffffffffffffffffffffff1673ffffffffffffffffffffffffffffffffffffffff16036103fa576040517f67fa94e700000000000000000000000000000000000000000000000000000000815260040160405180910390fd5b813373ffffffffffffffffffffffffffffffffffffffff166003600083815260200190815260200160002060050160009054906101000a900473ffffffffffffffffffffffffffffffffffffffff1673ffffffffffffffffffffffffffffffffffffffff1614610496576040517f0bff198700000000000000000000000000000000000000000000000000000000815260040160405180910390fd5b836004600085815260200190815260200160002060006101000a81548173ffffffffffffffffffffffffffffffffffffffff021916908373ffffffffffffffffffffffffffffffffffffffff160217905550828473ffffffffffffffffffffffffffffffffffffffff163373ffffffffffffffffffffffffffffffffffffffff167f8c5be1e5ebec7d5bd14f71427d1e84f3dd0314c0f7b2291e5b200ac8c7c3b92560405160405180910390a450505050565b6060600061055760056114e8565b905060008167ffffffffffffffff81111561057557610574611f20565b5b6040519080825280602002602001820160405280156105a35781602001602082028036833780820191505090505b50905060005b82811015610625576105c58160056114fd90919063ffffffff16565b8282815181106105d8576105d76122e8565b5b602002602001019073ffffffffffffffffffffffffffffffffffffffff16908173ffffffffffffffffffffffffffffffffffffffff1681525050808061061d90612346565b9150506105a9565b50809250505090565b60606000610679600760008573ffffffffffffffffffffffffffffffffffffffff1673ffffffffffffffffffffffffffffffffffffffff168152602001908152602001600020611517565b905060008167ffffffffffffffff81111561069757610696611f20565b5b6040519080825280602002602001820160405280156106c55781602001602082028036833780820191505090505b50905060005b828110156107565761072481600760008873ffffffffffffffffffffffffffffffffffffffff1673ffffffffffffffffffffffffffffffffffffffff16815260200190815260200160002061152c90919063ffffffff16565b828281518110610737576107366122e8565b5b602002602001018181525050808061074e90612346565b9150506106cb565b508092505050919050565b80600073ffffffffffffffffffffffffffffffffffffffff166003600083815260200190815260200160002060050160009054906101000a900473ffffffffffffffffffffffffffffffffffffffff1673ffffffffffffffffffffffffffffffffffffffff16036107fe576040517f67fa94e700000000000000000000000000000000000000000000000000000000815260040160405180910390fd5b813373ffffffffffffffffffffffffffffffffffffffff166003600083815260200190815260200160002060050160009054906101000a900473ffffffffffffffffffffffffffffffffffffffff1673ffffffffffffffffffffffffffffffffffffffff161461089a576040517f0bff198700000000000000000000000000000000000000000000000000000000815260040160405180910390fd5b60006003600085815260200190815260200160002090508060050160149054906101000a900460ff166108f9576040517ff4d1313a00000000000000000000000000000000000000000000000000000000815260040160405180910390fd5b60008160050160146101000a81548160ff0219169083151502179055503373ffffffffffffffffffffffffffffffffffffffff16847f859dd3e79827129b9ab4c4a80bf356e65c5cae291aa20e4dc9e7896cec9ab1cb60405160405180910390a350505050565b81600073ffffffffffffffffffffffffffffffffffffffff166003600083815260200190815260200160002060050160009054906101000a900473ffffffffffffffffffffffffffffffffffffffff1673ffffffffffffffffffffffffffffffffffffffff16036109fd576040517f67fa94e700000000000000000000000000000000000000000000000000000000815260040160405180910390fd5b823373ffffffffffffffffffffffffffffffffffffffff166003600083815260200190815260200160002060050160009054906101000a900473ffffffffffffffffffffffffffffffffffffffff1673ffffffffffffffffffffffffffffffffffffffff1614610a99576040517f0bff198700000000000000000000000000000000000000000000000000000000815260040160405180910390fd5b600060036000868152602001908152602001600020905083816002019081610ac1919061259a565b504281600401819055503373ffffffffffffffffffffffffffffffffffffffff16857f5ffa78781a3b8ae32f341a9b0b9df37b3a6fe5d5748a61f0242bac7922e36db486604051610b1291906126b6565b60405180910390a35050505050565b610b29611546565b610b3360006115c4565b565b60008060009054906101000a900473ffffffffffffffffffffffffffffffffffffffff16905090565b600080835111610ba3576040517f08c379a0000000000000000000000000000000000000000000000000000000008152600401610b9a90612724565b60405180910390fd5b6000825111610be7576040517f08c379a0000000000000000000000000000000000000000000000000000000008152600401610bde90612790565b60405180910390fd5b600160026000828254610bfa91906127b0565b925050819055506000600254905060006040518060e001604052808381526020018681526020018581526020014281526020014281526020013373ffffffffffffffffffffffffffffffffffffffff1681526020016001151581525090508060036000848152602001908152602001600020600082015181600001556020820151816001019081610c8b919061259a565b506040820151816002019081610ca1919061259a565b50606082015181600301556080820151816004015560a08201518160050160006101000a81548173ffffffffffffffffffffffffffffffffffffffff021916908373ffffffffffffffffffffffffffffffffffffffff16021790555060c08201518160050160146101000a81548160ff021916908315150217905550905050610d3433600561168890919063ffffffff16565b50610d8682600760003373ffffffffffffffffffffffffffffffffffffffff1673ffffffffffffffffffffffffffffffffffffffff1681526020019081526020016000206116b890919063ffffffff16565b503373ffffffffffffffffffffffffffffffffffffffff16827f40ac6d0abd196f71067fd5f01713f04a69e6b1e602e26ebca127dc6793afd7b387604051610dce91906126b6565b60405180910390a3819250505092915050565b80600073ffffffffffffffffffffffffffffffffffffffff166003600083815260200190815260200160002060050160009054906101000a900473ffffffffffffffffffffffffffffffffffffffff1673ffffffffffffffffffffffffffffffffffffffff1603610e7e576040517f67fa94e700000000000000000000000000000000000000000000000000000000815260040160405180910390fd5b813373ffffffffffffffffffffffffffffffffffffffff166003600083815260200190815260200160002060050160009054906101000a900473ffffffffffffffffffffffffffffffffffffffff1673ffffffffffffffffffffffffffffffffffffffff1614610f1a576040517f0bff198700000000000000000000000000000000000000000000000000000000815260040160405180910390fd5b60006003600085815260200190815260200160002090508060050160149054906101000a900460ff1615610f7a576040517f325d19a400000000000000000000000000000000000000000000000000000000815260040160405180910390fd5b60018160050160146101000a81548160ff0219169083151502179055503373ffffffffffffffffffffffffffffffffffffffff16847f81147d919d7f271ff0703bdc67efc0e5679c770479cbb79505a97e967fc012a060405160405180910390a350505050565b610fe9611b84565b81600073ffffffffffffffffffffffffffffffffffffffff166003600083815260200190815260200160002060050160009054906101000a900473ffffffffffffffffffffffffffffffffffffffff1673ffffffffffffffffffffffffffffffffffffffff1603611086576040517f67fa94e700000000000000000000000000000000000000000000000000000000815260040160405180910390fd5b600360008481526020019081526020016000206040518060e0016040529081600082015481526020016001820180546110be906123bd565b80601f01602080910402602001604051908101604052809291908181526020018280546110ea906123bd565b80156111375780601f1061110c57610100808354040283529160200191611137565b820191906000526020600020905b81548152906001019060200180831161111a57829003601f168201915b50505050508152602001600282018054611150906123bd565b80601f016020809104026020016040519081016040528092919081815260200182805461117c906123bd565b80156111c95780601f1061119e576101008083540402835291602001916111c9565b820191906000526020600020905b8154815290600101906020018083116111ac57829003601f168201915b5050505050815260200160038201548152602001600482015481526020016005820160009054906101000a900473ffffffffffffffffffffffffffffffffffffffff1673ffffffffffffffffffffffffffffffffffffffff1673ffffffffffffffffffffffffffffffffffffffff1681526020016005820160149054906101000a900460ff161515151581525050915050919050565b611267611546565b600073ffffffffffffffffffffffffffffffffffffffff168173ffffffffffffffffffffffffffffffffffffffff16036112d6576040517f08c379a00000000000000000000000000000000000000000000000000000000081526004016112cd90612856565b60405180910390fd5b6112df816115c4565b50565b81600073ffffffffffffffffffffffffffffffffffffffff166003600083815260200190815260200160002060050160009054906101000a900473ffffffffffffffffffffffffffffffffffffffff1673ffffffffffffffffffffffffffffffffffffffff160361137f576040517f67fa94e700000000000000000000000000000000000000000000000000000000815260040160405180910390fd5b6113876116d2565b600073ffffffffffffffffffffffffffffffffffffffff168273ffffffffffffffffffffffffffffffffffffffff16036113ed576040517f44d99fea00000000000000000000000000000000000000000000000000000000815260040160405180910390fd5b60006003600085815260200190815260200160002060050160009054906101000a900473ffffffffffffffffffffffffffffffffffffffff1690508073ffffffffffffffffffffffffffffffffffffffff163373ffffffffffffffffffffffffffffffffffffffff161415801561149857503373ffffffffffffffffffffffffffffffffffffffff1661147f85610282565b73ffffffffffffffffffffffffffffffffffffffff1614155b156114cf576040517f4fb505aa00000000000000000000000000000000000000000000000000000000815260040160405180910390fd5b6114da848285611721565b506114e3611946565b505050565b60006114f68260000161194f565b9050919050565b600061150c8360000183611960565b60001c905092915050565b60006115258260000161194f565b9050919050565b600061153b8360000183611960565b60001c905092915050565b61154e61198b565b73ffffffffffffffffffffffffffffffffffffffff1661156c610b35565b73ffffffffffffffffffffffffffffffffffffffff16146115c2576040517f08c379a00000000000000000000000000000000000000000000000000000000081526004016115b9906128c2565b60405180910390fd5b565b60008060009054906101000a900473ffffffffffffffffffffffffffffffffffffffff169050816000806101000a81548173ffffffffffffffffffffffffffffffffffffffff021916908373ffffffffffffffffffffffffffffffffffffffff1602179055508173ffffffffffffffffffffffffffffffffffffffff168173ffffffffffffffffffffffffffffffffffffffff167f8be0079c531659141344cd1fd0a4f28419497f9722a3daafe3b4186f6b6457e060405160405180910390a35050565b60006116b0836000018373ffffffffffffffffffffffffffffffffffffffff1660001b611993565b905092915050565b60006116ca836000018360001b611993565b905092915050565b600260015403611717576040517f08c379a000000000000000000000000000000000000000000000000000000000815260040161170e9061292e565b60405180910390fd5b6002600181905550565b806003600085815260200190815260200160002060050160006101000a81548173ffffffffffffffffffffffffffffffffffffffff021916908373ffffffffffffffffffffffffffffffffffffffff1602179055506117c783600760008573ffffffffffffffffffffffffffffffffffffffff1673ffffffffffffffffffffffffffffffffffffffff168152602001908152602001600020611a0390919063ffffffff16565b5061181983600760008473ffffffffffffffffffffffffffffffffffffffff1673ffffffffffffffffffffffffffffffffffffffff1681526020019081526020016000206116b890919063ffffffff16565b506000611863600760008573ffffffffffffffffffffffffffffffffffffffff1673ffffffffffffffffffffffffffffffffffffffff168152602001908152602001600020611517565b0361187e5761187c826005611a1d90919063ffffffff16565b505b61189281600561168890919063ffffffff16565b5060006004600085815260200190815260200160002060006101000a81548173ffffffffffffffffffffffffffffffffffffffff021916908373ffffffffffffffffffffffffffffffffffffffff1602179055508073ffffffffffffffffffffffffffffffffffffffff168273ffffffffffffffffffffffffffffffffffffffff16847fa993eb3a10693085bc7afc1de0202310fbd5992b9e51edd263b198f62f20cdae60405160405180910390a4505050565b60018081905550565b600081600001805490509050919050565b6000826000018281548110611978576119776122e8565b5b9060005260206000200154905092915050565b600033905090565b600061199f8383611a4d565b6119f85782600001829080600181540180825580915050600190039060005260206000200160009091909190915055826000018054905083600101600084815260200190815260200160002081905550600190506119fd565b600090505b92915050565b6000611a15836000018360001b611a70565b905092915050565b6000611a45836000018373ffffffffffffffffffffffffffffffffffffffff1660001b611a70565b905092915050565b600080836001016000848152602001908152602001600020541415905092915050565b60008083600101600084815260200190815260200160002054905060008114611b78576000600182611aa2919061294e565b9050600060018660000180549050611aba919061294e565b9050818114611b29576000866000018281548110611adb57611ada6122e8565b5b9060005260206000200154905080876000018481548110611aff57611afe6122e8565b5b90600052602060002001819055508387600101600083815260200190815260200160002081905550505b85600001805480611b3d57611b3c612982565b5b600190038181906000526020600020016000905590558560010160008681526020019081526020016000206000905560019350505050611b7e565b60009150505b92915050565b6040518060e001604052806000815260200160608152602001606081526020016000815260200160008152602001600073ffffffffffffffffffffffffffffffffffffffff1681526020016000151581525090565b6000604051905090565b600080fd5b600080fd5b6000819050919050565b611c0081611bed565b8114611c0b57600080fd5b50565b600081359050611c1d81611bf7565b92915050565b600060208284031215611c3957611c38611be3565b5b6000611c4784828501611c0e565b91505092915050565b600073ffffffffffffffffffffffffffffffffffffffff82169050919050565b6000611c7b82611c50565b9050919050565b611c8b81611c70565b82525050565b6000602082019050611ca66000830184611c82565b92915050565b611cb581611c70565b8114611cc057600080fd5b50565b600081359050611cd281611cac565b92915050565b60008060408385031215611cef57611cee611be3565b5b6000611cfd85828601611cc3565b9250506020611d0e85828601611c0e565b9150509250929050565b600081519050919050565b600082825260208201905092915050565b6000819050602082019050919050565b611d4d81611c70565b82525050565b6000611d5f8383611d44565b60208301905092915050565b6000602082019050919050565b6000611d8382611d18565b611d8d8185611d23565b9350611d9883611d34565b8060005b83811015611dc9578151611db08882611d53565b9750611dbb83611d6b565b925050600181019050611d9c565b5085935050505092915050565b60006020820190508181036000830152611df08184611d78565b905092915050565b600060208284031215611e0e57611e0d611be3565b5b6000611e1c84828501611cc3565b91505092915050565b600081519050919050565b600082825260208201905092915050565b6000819050602082019050919050565b611e5a81611bed565b82525050565b6000611e6c8383611e51565b60208301905092915050565b6000602082019050919050565b6000611e9082611e25565b611e9a8185611e30565b9350611ea583611e41565b8060005b83811015611ed6578151611ebd8882611e60565b9750611ec883611e78565b925050600181019050611ea9565b5085935050505092915050565b60006020820190508181036000830152611efd8184611e85565b905092915050565b600080fd5b600080fd5b6000601f19601f8301169050919050565b7f4e487b7100000000000000000000000000000000000000000000000000000000600052604160045260246000fd5b611f5882611f0f565b810181811067ffffffffffffffff82111715611f7757611f76611f20565b5b80604052505050565b6000611f8a611bd9565b9050611f968282611f4f565b919050565b600067ffffffffffffffff821115611fb657611fb5611f20565b5b611fbf82611f0f565b9050602081019050919050565b82818337600083830152505050565b6000611fee611fe984611f9b565b611f80565b90508281526020810184848401111561200a57612009611f0a565b5b612015848285611fcc565b509392505050565b600082601f83011261203257612031611f05565b5b8135612042848260208601611fdb565b91505092915050565b6000806040838503121561206257612061611be3565b5b600061207085828601611c0e565b925050602083013567ffffffffffffffff81111561209157612090611be8565b5b61209d8582860161201d565b9150509250929050565b600080604083850312156120be576120bd611be3565b5b600083013567ffffffffffffffff8111156120dc576120db611be8565b5b6120e88582860161201d565b925050602083013567ffffffffffffffff81111561210957612108611be8565b5b6121158582860161201d565b9150509250929050565b61212881611bed565b82525050565b6000602082019050612143600083018461211f565b92915050565b600081519050919050565b600082825260208201905092915050565b60005b83811015612183578082015181840152602081019050612168565b60008484015250505050565b600061219a82612149565b6121a48185612154565b93506121b4818560208601612165565b6121bd81611f0f565b840191505092915050565b60008115159050919050565b6121dd816121c8565b82525050565b600060e0830160008301516121fb6000860182611e51565b5060208301518482036020860152612213828261218f565b9150506040830151848203604086015261222d828261218f565b91505060608301516122426060860182611e51565b5060808301516122556080860182611e51565b5060a083015161226860a0860182611d44565b5060c083015161227b60c08601826121d4565b508091505092915050565b600060208201905081810360008301526122a081846121e3565b905092915050565b600080604083850312156122bf576122be611be3565b5b60006122cd85828601611c0e565b92505060206122de85828601611cc3565b9150509250929050565b7f4e487b7100000000000000000000000000000000000000000000000000000000600052603260045260246000fd5b7f4e487b7100000000000000000000000000000000000000000000000000000000600052601160045260246000fd5b600061235182611bed565b91507fffffffffffffffffffffffffffffffffffffffffffffffffffffffffffffffff820361238357612382612317565b5b600182019050919050565b7f4e487b7100000000000000000000000000000000000000000000000000000000600052602260045260246000fd5b600060028204905060018216806123d557607f821691505b6020821081036123e8576123e761238e565b5b50919050565b60008190508160005260206000209050919050565b60006020601f8301049050919050565b600082821b905092915050565b6000600883026124507fffffffffffffffffffffffffffffffffffffffffffffffffffffffffffffffff82612413565b61245a8683612413565b95508019841693508086168417925050509392505050565b6000819050919050565b600061249761249261248d84611bed565b612472565b611bed565b9050919050565b6000819050919050565b6124b18361247c565b6124c56124bd8261249e565b848454612420565b825550505050565b600090565b6124da6124cd565b6124e58184846124a8565b505050565b5b81811015612509576124fe6000826124d2565b6001810190506124eb565b5050565b601f82111561254e5761251f816123ee565b61252884612403565b81016020851015612537578190505b61254b61254385612403565b8301826124ea565b50505b505050565b600082821c905092915050565b600061257160001984600802612553565b1980831691505092915050565b600061258a8383612560565b9150826002028217905092915050565b6125a382612149565b67ffffffffffffffff8111156125bc576125bb611f20565b5b6125c682546123bd565b6125d182828561250d565b600060209050601f83116001811461260457600084156125f2578287015190505b6125fc858261257e565b865550612664565b601f198416612612866123ee565b60005b8281101561263a57848901518255600182019150602085019450602081019050612615565b868310156126575784890151612653601f891682612560565b8355505b6001600288020188555050505b505050505050565b600082825260208201905092915050565b600061268882612149565b612692818561266c565b93506126a2818560208601612165565b6126ab81611f0f565b840191505092915050565b600060208201905081810360008301526126d0818461267d565b905092915050565b7f4e616d652063616e6e6f7420626520656d707479000000000000000000000000600082015250565b600061270e60148361266c565b9150612719826126d8565b602082019050919050565b6000602082019050818103600083015261273d81612701565b9050919050565b7f4d657461646174615552492063616e6e6f7420626520656d7074790000000000600082015250565b600061277a601b8361266c565b915061278582612744565b602082019050919050565b600060208201905081810360008301526127a98161276d565b9050919050565b60006127bb82611bed565b91506127c683611bed565b92508282019050808211156127de576127dd612317565b5b92915050565b7f4f776e61626c653a206e6577206f776e657220697320746865207a65726f206160008201527f6464726573730000000000000000000000000000000000000000000000000000602082015250565b600061284060268361266c565b915061284b826127e4565b604082019050919050565b6000602082019050818103600083015261286f81612833565b9050919050565b7f4f776e61626c653a2063616c6c6572206973206e6f7420746865206f776e6572600082015250565b60006128ac60208361266c565b91506128b782612876565b602082019050919050565b600060208201905081810360008301526128db8161289f565b9050919050565b7f5265656e7472616e637947756172643a207265656e7472616e742063616c6c00600082015250565b6000612918601f8361266c565b9150612923826128e2565b602082019050919050565b600060208201905081810360008301526129478161290b565b9050919050565b600061295982611bed565b915061296483611bed565b925082820390508181111561297c5761297b612317565b5b92915050565b7f4e487b7100000000000000000000000000000000000000000000000000000000600052603160045260246000fdfea2646970667358221220f66d9d0622a62356759fc8c632007f9c4d76c0ef1b33d64a52b5b106a69af33b64736f6c63430008130033",
  "immutableReferences": {},
  "source": "// SPDX-License-Identifier: MIT\npragma solidity ^0.8.17;\n\nimport \"@openzeppelin/contracts/access/Ownable.sol\";\nimport \"@openzeppelin/contracts/security/ReentrancyGuard.sol\";\nimport \"@openzeppelin/contracts/utils/structs/EnumerableSet.sol\";\n\ncontract DePINManager is Ownable, ReentrancyGuard {\n    using EnumerableSet for EnumerableSet.AddressSet;\n    using EnumerableSet for EnumerableSet.UintSet;\n\n    error CallerNotAssetOwner();\n    error AssetDoesNotExist();\n    error InvalidRecipientAddress();\n    error AssetAlreadyDeactivated();\n    error AssetAlreadyActive();\n    error CallerNotOwnerNorApproved();\n\n    struct Asset {\n        uint256 id;\n        string name;\n        string metadataURI;\n        uint256 createdAt;\n        uint256 updatedAt;\n        address owner;\n        bool active;\n    }\n\n    uint256 private _assetCounter;\n    mapping(uint256 => Asset) private _assets;\n    mapping(uint256 => address) private _assetApprovals;\n    EnumerableSet.AddressSet private _assetOwners;\n    mapping(address => EnumerableSet.UintSet) private _ownerAssets;\n\n    event AssetCreated(uint256 indexed assetId, string name, address indexed owner);\n    event AssetUpdated(uint256 indexed assetId, string metadataURI, address indexed owner);\n    event AssetTransferred(uint256 indexed assetId, address indexed from, address indexed to);\n    event AssetDeactivated(uint256 indexed assetId, address indexed owner);\n    event AssetReactivated(uint256 indexed assetId, address indexed owner);\n    event Approval(address indexed owner, address indexed approved, uint256 indexed assetId);\n\n    modifier onlyAssetOwner(uint256 assetId) {\n        if (_assets[assetId].owner != msg.sender) revert CallerNotAssetOwner();\n        _;\n    }\n\n    modifier assetExists(uint256 assetId) {\n        if (_assets[assetId].owner == address(0)) revert AssetDoesNotExist();\n        _;\n    }\n\n    constructor(address initialOwner) Ownable() {\n        transferOwnership(initialOwner);\n        _assetCounter = 0;\n    }\n\n    function createAsset(string memory name, string memory metadataURI) external returns (uint256) {\n        require(bytes(name).length > 0, \"Name cannot be empty\");\n        require(bytes(metadataURI).length > 0, \"MetadataURI cannot be empty\");\n\n        _assetCounter += 1;\n        uint256 newAssetId = _assetCounter;\n\n        Asset memory newAsset = Asset({\n            id: newAssetId,\n            name: name,\n            metadataURI: metadataURI,\n            createdAt: block.timestamp,\n            updatedAt: block.timestamp,\n            owner: msg.sender,\n            active: true\n        });\n\n        _assets[newAssetId] = newAsset;\n        _assetOwners.add(msg.sender);\n        _ownerAssets[msg.sender].add(newAssetId);\n\n        emit AssetCreated(newAssetId, name, msg.sender);\n\n        return newAssetId;\n    }\n\n    function updateAsset(uint256 assetId, string memory metadataURI) external assetExists(assetId) onlyAssetOwner(assetId) {\n        Asset storage asset = _assets[assetId];\n        asset.metadataURI = metadataURI;\n        asset.updatedAt = block.timestamp;\n\n        emit AssetUpdated(assetId, metadataURI, msg.sender);\n    }\n\n    function transferAsset(uint256 assetId, address to) external assetExists(assetId) nonReentrant {\n        if (to == address(0)) revert InvalidRecipientAddress();\n        address owner = _assets[assetId].owner;\n        if (msg.sender != owner && getApproved(assetId) != msg.sender) revert CallerNotOwnerNorApproved();\n        _transferAsset(assetId, owner, to);\n    }\n\n    function _transferAsset(uint256 assetId, address from, address to) internal {\n        _assets[assetId].owner = to;\n        _ownerAssets[from].remove(assetId);\n        _ownerAssets[to].add(assetId);\n\n        if (_ownerAssets[from].length() == 0) {\n            _assetOwners.remove(from);\n        }\n\n        _assetOwners.add(to);\n\n        _assetApprovals[assetId] = address(0);\n\n        emit AssetTransferred(assetId, from, to);\n    }\n\n    function approve(address to, uint256 assetId) external assetExists(assetId) onlyAssetOwner(assetId) {\n        _assetApprovals[assetId] = to;\n        emit Approval(msg.sender, to, assetId);\n    }\n\n    function getApproved(uint256 assetId) public view assetExists(assetId) returns (address) {\n        return _assetApprovals[assetId];\n    }\n\n    function deactivateAsset(uint256 assetId) external assetExists(assetId) onlyAssetOwner(assetId) {\n        Asset storage asset = _assets[assetId];\n        if (!asset.active) revert AssetAlreadyDeactivated();\n        asset.active = false;\n\n        emit AssetDeactivated(assetId, msg.sender);\n    }\n\n    function reactivateAsset(uint256 assetId) external assetExists(assetId) onlyAssetOwner(assetId) {\n        Asset storage asset = _assets[assetId];\n        if (asset.active) revert AssetAlreadyActive();\n        asset.active = true;\n\n        emit AssetReactivated(assetId, msg.sender);\n    }\n\n    function getAsset(uint256 assetId) external view assetExists(assetId) returns (Asset memory) {\n        return _assets[assetId];\n    }\n\n    function getAssetsByOwner(address owner) external view returns (uint256[] memory) {\n        uint256 length = _ownerAssets[owner].length();\n        uint256[] memory assetIds = new uint256[](length);\n        for (uint256 i = 0; i < length; i++) {\n            assetIds[i] = _ownerAssets[owner].at(i);\n        }\n        return assetIds;\n    }\n\n    function getAssetOwners() external view returns (address[] memory) {\n        uint256 length = _assetOwners.length();\n        address[] memory owners = new address[](length);\n        for (uint256 i = 0; i < length; i++) {\n            owners[i] = _assetOwners.at(i);\n        }\n        return owners;\n    }\n}\n",
  "sourcePath": "/Users/elvin3block/Documents/Evire/Evire-DePin/contracts/DePINManager.sol",
  "compiler": {
    "name": "solc",
    "version": "0.8.19+commit.7dd6d404.Emscripten.clang"
  },
  "schemaVersion": "3.4.16",
  "updatedAt": "2024-10-22T13:18:42.394Z",
  "devdoc": {
    "kind": "dev",
    "methods": {
      "owner()": {
        "details": "Returns the address of the current owner."
      },
      "renounceOwnership()": {
        "details": "Leaves the contract without owner. It will not be possible to call `onlyOwner` functions. Can only be called by the current owner. NOTE: Renouncing ownership will leave the contract without an owner, thereby disabling any functionality that is only available to the owner."
      },
      "transferOwnership(address)": {
        "details": "Transfers ownership of the contract to a new account (`newOwner`). Can only be called by the current owner."
      }
    },
    "version": 1
  },
  "userdoc": {
    "kind": "user",
    "methods": {},
    "version": 1
  }
}