{
  "contractName": "DePINManager",
  "abi": [
    {
      "inputs": [
        {
          "internalType": "address",
          "name": "initialOwner",
          "type": "address"
        }
      ],
      "stateMutability": "nonpayable",
      "type": "constructor"
    },
    {
      "inputs": [],
      "name": "ApprovalToCurrentOwner",
      "type": "error"
    },
    {
      "inputs": [],
      "name": "AssetAlreadyActive",
      "type": "error"
    },
    {
      "inputs": [],
      "name": "AssetAlreadyDeactivated",
      "type": "error"
    },
    {
      "inputs": [],
      "name": "AssetDoesNotExist",
      "type": "error"
    },
    {
      "inputs": [],
      "name": "AssetIsDeactivated",
      "type": "error"
    },
    {
      "inputs": [],
      "name": "CallerNotAssetOwner",
      "type": "error"
    },
    {
      "inputs": [],
      "name": "CallerNotOwnerNorApproved",
      "type": "error"
    },
    {
      "inputs": [],
      "name": "EnforcedPause",
      "type": "error"
    },
    {
      "inputs": [],
      "name": "ExpectedPause",
      "type": "error"
    },
    {
      "inputs": [],
      "name": "InvalidRecipientAddress",
      "type": "error"
    },
    {
      "inputs": [
        {
          "internalType": "address",
          "name": "owner",
          "type": "address"
        }
      ],
      "name": "OwnableInvalidOwner",
      "type": "error"
    },
    {
      "inputs": [
        {
          "internalType": "address",
          "name": "account",
          "type": "address"
        }
      ],
      "name": "OwnableUnauthorizedAccount",
      "type": "error"
    },
    {
      "inputs": [],
      "name": "ReentrancyGuardReentrantCall",
      "type": "error"
    },
    {
      "anonymous": false,
      "inputs": [
        {
          "indexed": true,
          "internalType": "address",
          "name": "owner",
          "type": "address"
        },
        {
          "indexed": true,
          "internalType": "address",
          "name": "approved",
          "type": "address"
        },
        {
          "indexed": true,
          "internalType": "uint256",
          "name": "assetId",
          "type": "uint256"
        }
      ],
      "name": "Approval",
      "type": "event"
    },
    {
      "anonymous": false,
      "inputs": [
        {
          "indexed": true,
          "internalType": "uint256",
          "name": "assetId",
          "type": "uint256"
        },
        {
          "indexed": false,
          "internalType": "string",
          "name": "name",
          "type": "string"
        },
        {
          "indexed": true,
          "internalType": "address",
          "name": "owner",
          "type": "address"
        }
      ],
      "name": "AssetCreated",
      "type": "event"
    },
    {
      "anonymous": false,
      "inputs": [
        {
          "indexed": true,
          "internalType": "uint256",
          "name": "assetId",
          "type": "uint256"
        },
        {
          "indexed": true,
          "internalType": "address",
          "name": "owner",
          "type": "address"
        }
      ],
      "name": "AssetDeactivated",
      "type": "event"
    },
    {
      "anonymous": false,
      "inputs": [
        {
          "indexed": true,
          "internalType": "uint256",
          "name": "assetId",
          "type": "uint256"
        },
        {
          "indexed": true,
          "internalType": "address",
          "name": "owner",
          "type": "address"
        }
      ],
      "name": "AssetReactivated",
      "type": "event"
    },
    {
      "anonymous": false,
      "inputs": [
        {
          "indexed": true,
          "internalType": "uint256",
          "name": "assetId",
          "type": "uint256"
        },
        {
          "indexed": true,
          "internalType": "address",
          "name": "from",
          "type": "address"
        },
        {
          "indexed": true,
          "internalType": "address",
          "name": "to",
          "type": "address"
        }
      ],
      "name": "AssetTransferred",
      "type": "event"
    },
    {
      "anonymous": false,
      "inputs": [
        {
          "indexed": true,
          "internalType": "uint256",
          "name": "assetId",
          "type": "uint256"
        },
        {
          "indexed": false,
          "internalType": "string",
          "name": "metadataURI",
          "type": "string"
        },
        {
          "indexed": true,
          "internalType": "address",
          "name": "owner",
          "type": "address"
        }
      ],
      "name": "AssetUpdated",
      "type": "event"
    },
    {
      "anonymous": false,
      "inputs": [
        {
          "indexed": true,
          "internalType": "address",
          "name": "previousOwner",
          "type": "address"
        },
        {
          "indexed": true,
          "internalType": "address",
          "name": "newOwner",
          "type": "address"
        }
      ],
      "name": "OwnershipTransferred",
      "type": "event"
    },
    {
      "anonymous": false,
      "inputs": [
        {
          "indexed": false,
          "internalType": "address",
          "name": "account",
          "type": "address"
        }
      ],
      "name": "Paused",
      "type": "event"
    },
    {
      "anonymous": false,
      "inputs": [
        {
          "indexed": false,
          "internalType": "address",
          "name": "account",
          "type": "address"
        }
      ],
      "name": "Unpaused",
      "type": "event"
    },
    {
      "inputs": [],
      "name": "owner",
      "outputs": [
        {
          "internalType": "address",
          "name": "",
          "type": "address"
        }
      ],
      "stateMutability": "view",
      "type": "function"
    },
    {
      "inputs": [],
      "name": "paused",
      "outputs": [
        {
          "internalType": "bool",
          "name": "",
          "type": "bool"
        }
      ],
      "stateMutability": "view",
      "type": "function"
    },
    {
      "inputs": [],
      "name": "renounceOwnership",
      "outputs": [],
      "stateMutability": "nonpayable",
      "type": "function"
    },
    {
      "inputs": [
        {
          "internalType": "address",
          "name": "newOwner",
          "type": "address"
        }
      ],
      "name": "transferOwnership",
      "outputs": [],
      "stateMutability": "nonpayable",
      "type": "function"
    },
    {
      "inputs": [],
      "name": "pause",
      "outputs": [],
      "stateMutability": "nonpayable",
      "type": "function"
    },
    {
      "inputs": [],
      "name": "unpause",
      "outputs": [],
      "stateMutability": "nonpayable",
      "type": "function"
    },
    {
      "inputs": [
        {
          "internalType": "string",
          "name": "name",
          "type": "string"
        },
        {
          "internalType": "string",
          "name": "metadataURI",
          "type": "string"
        }
      ],
      "name": "createAsset",
      "outputs": [
        {
          "internalType": "uint256",
          "name": "",
          "type": "uint256"
        }
      ],
      "stateMutability": "nonpayable",
      "type": "function"
    },
    {
      "inputs": [
        {
          "internalType": "uint256",
          "name": "assetId",
          "type": "uint256"
        },
        {
          "internalType": "string",
          "name": "metadataURI",
          "type": "string"
        }
      ],
      "name": "updateAsset",
      "outputs": [],
      "stateMutability": "nonpayable",
      "type": "function"
    },
    {
      "inputs": [
        {
          "internalType": "uint256",
          "name": "assetId",
          "type": "uint256"
        },
        {
          "internalType": "address",
          "name": "to",
          "type": "address"
        }
      ],
      "name": "transferAsset",
      "outputs": [],
      "stateMutability": "nonpayable",
      "type": "function"
    },
    {
      "inputs": [
        {
          "internalType": "address",
          "name": "to",
          "type": "address"
        },
        {
          "internalType": "uint256",
          "name": "assetId",
          "type": "uint256"
        }
      ],
      "name": "approve",
      "outputs": [],
      "stateMutability": "nonpayable",
      "type": "function"
    },
    {
      "inputs": [
        {
          "internalType": "uint256",
          "name": "assetId",
          "type": "uint256"
        }
      ],
      "name": "getApproved",
      "outputs": [
        {
          "internalType": "address",
          "name": "",
          "type": "address"
        }
      ],
      "stateMutability": "view",
      "type": "function"
    },
    {
      "inputs": [
        {
          "internalType": "uint256",
          "name": "assetId",
          "type": "uint256"
        }
      ],
      "name": "deactivateAsset",
      "outputs": [],
      "stateMutability": "nonpayable",
      "type": "function"
    },
    {
      "inputs": [
        {
          "internalType": "uint256",
          "name": "assetId",
          "type": "uint256"
        }
      ],
      "name": "reactivateAsset",
      "outputs": [],
      "stateMutability": "nonpayable",
      "type": "function"
    },
    {
      "inputs": [
        {
          "internalType": "uint256",
          "name": "assetId",
          "type": "uint256"
        }
      ],
      "name": "getAsset",
      "outputs": [
        {
          "components": [
            {
              "internalType": "string",
              "name": "name",
              "type": "string"
            },
            {
              "internalType": "string",
              "name": "metadataURI",
              "type": "string"
            },
            {
              "internalType": "uint256",
              "name": "createdAt",
              "type": "uint256"
            },
            {
              "internalType": "uint256",
              "name": "updatedAt",
              "type": "uint256"
            },
            {
              "internalType": "address",
              "name": "owner",
              "type": "address"
            },
            {
              "internalType": "bool",
              "name": "active",
              "type": "bool"
            }
          ],
          "internalType": "struct DePINManager.Asset",
          "name": "",
          "type": "tuple"
        }
      ],
      "stateMutability": "view",
      "type": "function"
    },
    {
      "inputs": [
        {
          "internalType": "address",
          "name": "owner",
          "type": "address"
        }
      ],
      "name": "getAssetsByOwner",
      "outputs": [
        {
          "internalType": "uint256[]",
          "name": "",
          "type": "uint256[]"
        }
      ],
      "stateMutability": "view",
      "type": "function"
    },
    {
      "inputs": [],
      "name": "getAssetOwners",
      "outputs": [
        {
          "internalType": "address[]",
          "name": "",
          "type": "address[]"
        }
      ],
      "stateMutability": "view",
      "type": "function"
    }
  ],
  "bytecode": "0x608060405234801562000010575f80fd5b5060405162002d1838038062002d1883398181016040528101906200003691906200021a565b805f73ffffffffffffffffffffffffffffffffffffffff168173ffffffffffffffffffffffffffffffffffffffff1603620000aa575f6040517f1e4fbdf7000000000000000000000000000000000000000000000000000000008152600401620000a191906200025b565b60405180910390fd5b620000bb81620000f460201b60201c565b505f8060146101000a81548160ff02191690831515021790555060018081905550620000ed81620000f460201b60201c565b5062000276565b5f805f9054906101000a900473ffffffffffffffffffffffffffffffffffffffff169050815f806101000a81548173ffffffffffffffffffffffffffffffffffffffff021916908373ffffffffffffffffffffffffffffffffffffffff1602179055508173ffffffffffffffffffffffffffffffffffffffff168173ffffffffffffffffffffffffffffffffffffffff167f8be0079c531659141344cd1fd0a4f28419497f9722a3daafe3b4186f6b6457e060405160405180910390a35050565b5f80fd5b5f73ffffffffffffffffffffffffffffffffffffffff82169050919050565b5f620001e482620001b9565b9050919050565b620001f681620001d8565b811462000201575f80fd5b50565b5f815190506200021481620001eb565b92915050565b5f60208284031215620002325762000231620001b5565b5b5f620002418482850162000204565b91505092915050565b6200025581620001d8565b82525050565b5f602082019050620002705f8301846200024a565b92915050565b612a9480620002845f395ff3fe608060405234801561000f575f80fd5b50600436106100fe575f3560e01c8063715018a611610095578063a6d2d2eb11610064578063a6d2d2eb1461025e578063eac8f5b81461027a578063f2fde38b146102aa578063fa62ee8d146102c6576100fe565b8063715018a6146101fc5780638456cb59146102065780638da5cb5b14610210578063a2a55b681461022e576100fe565b8063319af5e0116100d1578063319af5e01461019c5780633f4ba83a146101b857806345de17ad146101c25780635c975abb146101de576100fe565b8063081812fc14610102578063095ea7b314610132578063252203b31461014e578063276f09341461016c575b5f80fd5b61011c60048036038101906101179190611ebd565b6102e2565b6040516101299190611f27565b60405180910390f35b61014c60048036038101906101479190611f6a565b6103b5565b005b610156610604565b604051610163919061205f565b60405180910390f35b6101866004803603810190610181919061207f565b6106e6565b6040516101939190612161565b60405180910390f35b6101b660048036038101906101b19190611ebd565b610812565b005b6101c0610a17565b005b6101dc60048036038101906101d791906122bd565b610a29565b005b6101e6610c2b565b6040516101f39190612331565b60405180910390f35b610204610c40565b005b61020e610c53565b005b610218610c65565b6040516102259190611f27565b60405180910390f35b6102486004803603810190610243919061234a565b610c8c565b60405161025591906123cf565b60405180910390f35b61027860048036038101906102739190611ebd565b610ef3565b005b610294600480360381019061028f9190611ebd565b6110fa565b6040516102a191906124fe565b60405180910390f35b6102c460048036038101906102bf919061207f565b611362565b005b6102e060048036038101906102db919061251e565b6113e6565b005b5f815f73ffffffffffffffffffffffffffffffffffffffff1660035f8381526020019081526020015f206004015f9054906101000a900473ffffffffffffffffffffffffffffffffffffffff1673ffffffffffffffffffffffffffffffffffffffff160361037c576040517f67fa94e700000000000000000000000000000000000000000000000000000000815260040160405180910390fd5b60045f8481526020019081526020015f205f9054906101000a900473ffffffffffffffffffffffffffffffffffffffff16915050919050565b6103bd611638565b805f73ffffffffffffffffffffffffffffffffffffffff1660035f8381526020019081526020015f206004015f9054906101000a900473ffffffffffffffffffffffffffffffffffffffff1673ffffffffffffffffffffffffffffffffffffffff1603610456576040517f67fa94e700000000000000000000000000000000000000000000000000000000815260040160405180910390fd5b813373ffffffffffffffffffffffffffffffffffffffff1660035f8381526020019081526020015f206004015f9054906101000a900473ffffffffffffffffffffffffffffffffffffffff1673ffffffffffffffffffffffffffffffffffffffff16146104ef576040517f0bff198700000000000000000000000000000000000000000000000000000000815260040160405180910390fd5b3373ffffffffffffffffffffffffffffffffffffffff168473ffffffffffffffffffffffffffffffffffffffff1603610554576040517f943f7b8c00000000000000000000000000000000000000000000000000000000815260040160405180910390fd5b8360045f8581526020019081526020015f205f6101000a81548173ffffffffffffffffffffffffffffffffffffffff021916908373ffffffffffffffffffffffffffffffffffffffff160217905550828473ffffffffffffffffffffffffffffffffffffffff163373ffffffffffffffffffffffffffffffffffffffff167f8c5be1e5ebec7d5bd14f71427d1e84f3dd0314c0f7b2291e5b200ac8c7c3b92560405160405180910390a450505050565b60605f6106116005611679565b90505f8167ffffffffffffffff81111561062e5761062d612199565b5b60405190808252806020026020018201604052801561065c5781602001602082028036833780820191505090505b5090505f5b828110156106dd5761067d81600561168c90919063ffffffff16565b8282815181106106905761068f61255c565b5b602002602001019073ffffffffffffffffffffffffffffffffffffffff16908173ffffffffffffffffffffffffffffffffffffffff168152505080806106d5906125b6565b915050610661565b50809250505090565b60605f61072e60075f8573ffffffffffffffffffffffffffffffffffffffff1673ffffffffffffffffffffffffffffffffffffffff1681526020019081526020015f206116a3565b90505f8167ffffffffffffffff81111561074b5761074a612199565b5b6040519080825280602002602001820160405280156107795781602001602082028036833780820191505090505b5090505f5b82811015610807576107d58160075f8873ffffffffffffffffffffffffffffffffffffffff1673ffffffffffffffffffffffffffffffffffffffff1681526020019081526020015f206116b690919063ffffffff16565b8282815181106107e8576107e761255c565b5b60200260200101818152505080806107ff906125b6565b91505061077e565b508092505050919050565b61081a611638565b805f73ffffffffffffffffffffffffffffffffffffffff1660035f8381526020019081526020015f206004015f9054906101000a900473ffffffffffffffffffffffffffffffffffffffff1673ffffffffffffffffffffffffffffffffffffffff16036108b3576040517f67fa94e700000000000000000000000000000000000000000000000000000000815260040160405180910390fd5b813373ffffffffffffffffffffffffffffffffffffffff1660035f8381526020019081526020015f206004015f9054906101000a900473ffffffffffffffffffffffffffffffffffffffff1673ffffffffffffffffffffffffffffffffffffffff161461094c576040517f0bff198700000000000000000000000000000000000000000000000000000000815260040160405180910390fd5b5f60035f8581526020019081526020015f2090508060040160149054906101000a900460ff166109a8576040517ff4d1313a00000000000000000000000000000000000000000000000000000000815260040160405180910390fd5b5f8160040160146101000a81548160ff0219169083151502179055504281600301819055503373ffffffffffffffffffffffffffffffffffffffff16847f859dd3e79827129b9ab4c4a80bf356e65c5cae291aa20e4dc9e7896cec9ab1cb60405160405180910390a350505050565b610a1f6116cd565b610a27611754565b565b610a31611638565b815f73ffffffffffffffffffffffffffffffffffffffff1660035f8381526020019081526020015f206004015f9054906101000a900473ffffffffffffffffffffffffffffffffffffffff1673ffffffffffffffffffffffffffffffffffffffff1603610aca576040517f67fa94e700000000000000000000000000000000000000000000000000000000815260040160405180910390fd5b823373ffffffffffffffffffffffffffffffffffffffff1660035f8381526020019081526020015f206004015f9054906101000a900473ffffffffffffffffffffffffffffffffffffffff1673ffffffffffffffffffffffffffffffffffffffff1614610b63576040517f0bff198700000000000000000000000000000000000000000000000000000000815260040160405180910390fd5b5f835111610ba6576040517f08c379a0000000000000000000000000000000000000000000000000000000008152600401610b9d90612657565b60405180910390fd5b5f60035f8681526020019081526020015f20905083816001019081610bcb919061286f565b504281600301819055503373ffffffffffffffffffffffffffffffffffffffff16857f5ffa78781a3b8ae32f341a9b0b9df37b3a6fe5d5748a61f0242bac7922e36db486604051610c1c9190612976565b60405180910390a35050505050565b5f8060149054906101000a900460ff16905090565b610c486116cd565b610c515f6117b5565b565b610c5b6116cd565b610c63611876565b565b5f805f9054906101000a900473ffffffffffffffffffffffffffffffffffffffff16905090565b5f610c95611638565b5f835111610cd8576040517f08c379a0000000000000000000000000000000000000000000000000000000008152600401610ccf906129e0565b60405180910390fd5b5f825111610d1b576040517f08c379a0000000000000000000000000000000000000000000000000000000008152600401610d1290612657565b60405180910390fd5b5f60025f8154610d2a906125b6565b91905081905590505f6040518060c001604052808681526020018581526020014281526020014281526020013373ffffffffffffffffffffffffffffffffffffffff1681526020016001151581525090508060035f8481526020019081526020015f205f820151815f019081610da0919061286f565b506020820151816001019081610db6919061286f565b5060408201518160020155606082015181600301556080820151816004015f6101000a81548173ffffffffffffffffffffffffffffffffffffffff021916908373ffffffffffffffffffffffffffffffffffffffff16021790555060a08201518160040160146101000a81548160ff021916908315150217905550905050610e483360056118d890919063ffffffff16565b50610e988260075f3373ffffffffffffffffffffffffffffffffffffffff1673ffffffffffffffffffffffffffffffffffffffff1681526020019081526020015f2061190590919063ffffffff16565b503373ffffffffffffffffffffffffffffffffffffffff16827f40ac6d0abd196f71067fd5f01713f04a69e6b1e602e26ebca127dc6793afd7b387604051610ee09190612976565b60405180910390a3819250505092915050565b610efb611638565b805f73ffffffffffffffffffffffffffffffffffffffff1660035f8381526020019081526020015f206004015f9054906101000a900473ffffffffffffffffffffffffffffffffffffffff1673ffffffffffffffffffffffffffffffffffffffff1603610f94576040517f67fa94e700000000000000000000000000000000000000000000000000000000815260040160405180910390fd5b813373ffffffffffffffffffffffffffffffffffffffff1660035f8381526020019081526020015f206004015f9054906101000a900473ffffffffffffffffffffffffffffffffffffffff1673ffffffffffffffffffffffffffffffffffffffff161461102d576040517f0bff198700000000000000000000000000000000000000000000000000000000815260040160405180910390fd5b5f60035f8581526020019081526020015f2090508060040160149054906101000a900460ff161561108a576040517f325d19a400000000000000000000000000000000000000000000000000000000815260040160405180910390fd5b60018160040160146101000a81548160ff0219169083151502179055504281600301819055503373ffffffffffffffffffffffffffffffffffffffff16847f81147d919d7f271ff0703bdc67efc0e5679c770479cbb79505a97e967fc012a060405160405180910390a350505050565b611102611e2f565b815f73ffffffffffffffffffffffffffffffffffffffff1660035f8381526020019081526020015f206004015f9054906101000a900473ffffffffffffffffffffffffffffffffffffffff1673ffffffffffffffffffffffffffffffffffffffff160361119b576040517f67fa94e700000000000000000000000000000000000000000000000000000000815260040160405180910390fd5b60035f8481526020019081526020015f206040518060c00160405290815f820180546111c6906126a2565b80601f01602080910402602001604051908101604052809291908181526020018280546111f2906126a2565b801561123d5780601f106112145761010080835404028352916020019161123d565b820191905f5260205f20905b81548152906001019060200180831161122057829003601f168201915b50505050508152602001600182018054611256906126a2565b80601f0160208091040260200160405190810160405280929190818152602001828054611282906126a2565b80156112cd5780601f106112a4576101008083540402835291602001916112cd565b820191905f5260205f20905b8154815290600101906020018083116112b057829003601f168201915b505050505081526020016002820154815260200160038201548152602001600482015f9054906101000a900473ffffffffffffffffffffffffffffffffffffffff1673ffffffffffffffffffffffffffffffffffffffff1673ffffffffffffffffffffffffffffffffffffffff1681526020016004820160149054906101000a900460ff161515151581525050915050919050565b61136a6116cd565b5f73ffffffffffffffffffffffffffffffffffffffff168173ffffffffffffffffffffffffffffffffffffffff16036113da575f6040517f1e4fbdf70000000000000000000000000000000000000000000000000000000081526004016113d19190611f27565b60405180910390fd5b6113e3816117b5565b50565b6113ee611638565b815f73ffffffffffffffffffffffffffffffffffffffff1660035f8381526020019081526020015f206004015f9054906101000a900473ffffffffffffffffffffffffffffffffffffffff1673ffffffffffffffffffffffffffffffffffffffff1603611487576040517f67fa94e700000000000000000000000000000000000000000000000000000000815260040160405180910390fd5b61148f61191c565b5f73ffffffffffffffffffffffffffffffffffffffff168273ffffffffffffffffffffffffffffffffffffffff16036114f4576040517f44d99fea00000000000000000000000000000000000000000000000000000000815260040160405180910390fd5b5f60035f8581526020019081526020015f2090508060040160149054906101000a900460ff16611550576040517faae6f10700000000000000000000000000000000000000000000000000000000815260040160405180910390fd5b5f816004015f9054906101000a900473ffffffffffffffffffffffffffffffffffffffff1690508073ffffffffffffffffffffffffffffffffffffffff163373ffffffffffffffffffffffffffffffffffffffff16141580156115e757503373ffffffffffffffffffffffffffffffffffffffff166115ce866102e2565b73ffffffffffffffffffffffffffffffffffffffff1614155b1561161e576040517f4fb505aa00000000000000000000000000000000000000000000000000000000815260040160405180910390fd5b611629858286611962565b5050611633611be2565b505050565b611640610c2b565b15611677576040517fd93c066500000000000000000000000000000000000000000000000000000000815260040160405180910390fd5b565b5f611685825f01611beb565b9050919050565b5f611699835f0183611bfa565b5f1c905092915050565b5f6116af825f01611beb565b9050919050565b5f6116c3835f0183611bfa565b5f1c905092915050565b6116d5611c21565b73ffffffffffffffffffffffffffffffffffffffff166116f3610c65565b73ffffffffffffffffffffffffffffffffffffffff161461175257611716611c21565b6040517f118cdaa70000000000000000000000000000000000000000000000000000000081526004016117499190611f27565b60405180910390fd5b565b61175c611c28565b5f8060146101000a81548160ff0219169083151502179055507f5db9ee0a495bf2e6ff9c91a7834c1ba4fdd244a5e8aa4e537bd38aeae4b073aa61179e611c21565b6040516117ab9190611f27565b60405180910390a1565b5f805f9054906101000a900473ffffffffffffffffffffffffffffffffffffffff169050815f806101000a81548173ffffffffffffffffffffffffffffffffffffffff021916908373ffffffffffffffffffffffffffffffffffffffff1602179055508173ffffffffffffffffffffffffffffffffffffffff168173ffffffffffffffffffffffffffffffffffffffff167f8be0079c531659141344cd1fd0a4f28419497f9722a3daafe3b4186f6b6457e060405160405180910390a35050565b61187e611638565b60015f60146101000a81548160ff0219169083151502179055507f62e78cea01bee320cd4e420270b5ea74000d11b0c9f74754ebdbfc544b05a2586118c1611c21565b6040516118ce9190611f27565b60405180910390a1565b5f6118fd835f018373ffffffffffffffffffffffffffffffffffffffff165f1b611c68565b905092915050565b5f611914835f01835f1b611c68565b905092915050565b600260015403611958576040517f3ee5aeb500000000000000000000000000000000000000000000000000000000815260040160405180910390fd5b6002600181905550565b5f60035f8581526020019081526020015f20905081816004015f6101000a81548173ffffffffffffffffffffffffffffffffffffffff021916908373ffffffffffffffffffffffffffffffffffffffff160217905550428160030181905550611a108460075f8673ffffffffffffffffffffffffffffffffffffffff1673ffffffffffffffffffffffffffffffffffffffff1681526020019081526020015f20611ccf90919063ffffffff16565b50611a608460075f8573ffffffffffffffffffffffffffffffffffffffff1673ffffffffffffffffffffffffffffffffffffffff1681526020019081526020015f2061190590919063ffffffff16565b505f611aa760075f8673ffffffffffffffffffffffffffffffffffffffff1673ffffffffffffffffffffffffffffffffffffffff1681526020019081526020015f206116a3565b03611ac257611ac0836005611ce690919063ffffffff16565b505b611ad68260056118d890919063ffffffff16565b505f60045f8681526020019081526020015f205f6101000a81548173ffffffffffffffffffffffffffffffffffffffff021916908373ffffffffffffffffffffffffffffffffffffffff160217905550835f73ffffffffffffffffffffffffffffffffffffffff168473ffffffffffffffffffffffffffffffffffffffff167f8c5be1e5ebec7d5bd14f71427d1e84f3dd0314c0f7b2291e5b200ac8c7c3b92560405160405180910390a48173ffffffffffffffffffffffffffffffffffffffff168373ffffffffffffffffffffffffffffffffffffffff16857fa993eb3a10693085bc7afc1de0202310fbd5992b9e51edd263b198f62f20cdae60405160405180910390a450505050565b60018081905550565b5f815f01805490509050919050565b5f825f018281548110611c1057611c0f61255c565b5b905f5260205f200154905092915050565b5f33905090565b611c30610c2b565b611c66576040517f8dfc202b00000000000000000000000000000000000000000000000000000000815260040160405180910390fd5b565b5f611c738383611d13565b611cc557825f0182908060018154018082558091505060019003905f5260205f20015f9091909190915055825f0180549050836001015f8481526020019081526020015f208190555060019050611cc9565b5f90505b92915050565b5f611cde835f01835f1b611d33565b905092915050565b5f611d0b835f018373ffffffffffffffffffffffffffffffffffffffff165f1b611d33565b905092915050565b5f80836001015f8481526020019081526020015f20541415905092915050565b5f80836001015f8481526020019081526020015f205490505f8114611e24575f600182611d6091906129fe565b90505f6001865f0180549050611d7691906129fe565b9050808214611ddc575f865f018281548110611d9557611d9461255c565b5b905f5260205f200154905080875f018481548110611db657611db561255c565b5b905f5260205f20018190555083876001015f8381526020019081526020015f2081905550505b855f01805480611def57611dee612a31565b5b600190038181905f5260205f20015f90559055856001015f8681526020019081526020015f205f905560019350505050611e29565b5f9150505b92915050565b6040518060c0016040528060608152602001606081526020015f81526020015f81526020015f73ffffffffffffffffffffffffffffffffffffffff1681526020015f151581525090565b5f604051905090565b5f80fd5b5f80fd5b5f819050919050565b611e9c81611e8a565b8114611ea6575f80fd5b50565b5f81359050611eb781611e93565b92915050565b5f60208284031215611ed257611ed1611e82565b5b5f611edf84828501611ea9565b91505092915050565b5f73ffffffffffffffffffffffffffffffffffffffff82169050919050565b5f611f1182611ee8565b9050919050565b611f2181611f07565b82525050565b5f602082019050611f3a5f830184611f18565b92915050565b611f4981611f07565b8114611f53575f80fd5b50565b5f81359050611f6481611f40565b92915050565b5f8060408385031215611f8057611f7f611e82565b5b5f611f8d85828601611f56565b9250506020611f9e85828601611ea9565b9150509250929050565b5f81519050919050565b5f82825260208201905092915050565b5f819050602082019050919050565b611fda81611f07565b82525050565b5f611feb8383611fd1565b60208301905092915050565b5f602082019050919050565b5f61200d82611fa8565b6120178185611fb2565b935061202283611fc2565b805f5b838110156120525781516120398882611fe0565b975061204483611ff7565b925050600181019050612025565b5085935050505092915050565b5f6020820190508181035f8301526120778184612003565b905092915050565b5f6020828403121561209457612093611e82565b5b5f6120a184828501611f56565b91505092915050565b5f81519050919050565b5f82825260208201905092915050565b5f819050602082019050919050565b6120dc81611e8a565b82525050565b5f6120ed83836120d3565b60208301905092915050565b5f602082019050919050565b5f61210f826120aa565b61211981856120b4565b9350612124836120c4565b805f5b8381101561215457815161213b88826120e2565b9750612146836120f9565b925050600181019050612127565b5085935050505092915050565b5f6020820190508181035f8301526121798184612105565b905092915050565b5f80fd5b5f80fd5b5f601f19601f8301169050919050565b7f4e487b71000000000000000000000000000000000000000000000000000000005f52604160045260245ffd5b6121cf82612189565b810181811067ffffffffffffffff821117156121ee576121ed612199565b5b80604052505050565b5f612200611e79565b905061220c82826121c6565b919050565b5f67ffffffffffffffff82111561222b5761222a612199565b5b61223482612189565b9050602081019050919050565b828183375f83830152505050565b5f61226161225c84612211565b6121f7565b90508281526020810184848401111561227d5761227c612185565b5b612288848285612241565b509392505050565b5f82601f8301126122a4576122a3612181565b5b81356122b484826020860161224f565b91505092915050565b5f80604083850312156122d3576122d2611e82565b5b5f6122e085828601611ea9565b925050602083013567ffffffffffffffff81111561230157612300611e86565b5b61230d85828601612290565b9150509250929050565b5f8115159050919050565b61232b81612317565b82525050565b5f6020820190506123445f830184612322565b92915050565b5f80604083850312156123605761235f611e82565b5b5f83013567ffffffffffffffff81111561237d5761237c611e86565b5b61238985828601612290565b925050602083013567ffffffffffffffff8111156123aa576123a9611e86565b5b6123b685828601612290565b9150509250929050565b6123c981611e8a565b82525050565b5f6020820190506123e25f8301846123c0565b92915050565b5f81519050919050565b5f82825260208201905092915050565b5f5b8381101561241f578082015181840152602081019050612404565b5f8484015250505050565b5f612434826123e8565b61243e81856123f2565b935061244e818560208601612402565b61245781612189565b840191505092915050565b61246b81612317565b82525050565b5f60c083015f8301518482035f86015261248b828261242a565b915050602083015184820360208601526124a5828261242a565b91505060408301516124ba60408601826120d3565b5060608301516124cd60608601826120d3565b5060808301516124e06080860182611fd1565b5060a08301516124f360a0860182612462565b508091505092915050565b5f6020820190508181035f8301526125168184612471565b905092915050565b5f806040838503121561253457612533611e82565b5b5f61254185828601611ea9565b925050602061255285828601611f56565b9150509250929050565b7f4e487b71000000000000000000000000000000000000000000000000000000005f52603260045260245ffd5b7f4e487b71000000000000000000000000000000000000000000000000000000005f52601160045260245ffd5b5f6125c082611e8a565b91507fffffffffffffffffffffffffffffffffffffffffffffffffffffffffffffffff82036125f2576125f1612589565b5b600182019050919050565b5f82825260208201905092915050565b7f4d657461646174615552492063616e6e6f7420626520656d70747900000000005f82015250565b5f612641601b836125fd565b915061264c8261260d565b602082019050919050565b5f6020820190508181035f83015261266e81612635565b9050919050565b7f4e487b71000000000000000000000000000000000000000000000000000000005f52602260045260245ffd5b5f60028204905060018216806126b957607f821691505b6020821081036126cc576126cb612675565b5b50919050565b5f819050815f5260205f209050919050565b5f6020601f8301049050919050565b5f82821b905092915050565b5f6008830261272e7fffffffffffffffffffffffffffffffffffffffffffffffffffffffffffffffff826126f3565b61273886836126f3565b95508019841693508086168417925050509392505050565b5f819050919050565b5f61277361276e61276984611e8a565b612750565b611e8a565b9050919050565b5f819050919050565b61278c83612759565b6127a06127988261277a565b8484546126ff565b825550505050565b5f90565b6127b46127a8565b6127bf818484612783565b505050565b5b818110156127e2576127d75f826127ac565b6001810190506127c5565b5050565b601f821115612827576127f8816126d2565b612801846126e4565b81016020851015612810578190505b61282461281c856126e4565b8301826127c4565b50505b505050565b5f82821c905092915050565b5f6128475f198460080261282c565b1980831691505092915050565b5f61285f8383612838565b9150826002028217905092915050565b612878826123e8565b67ffffffffffffffff81111561289157612890612199565b5b61289b82546126a2565b6128a68282856127e6565b5f60209050601f8311600181146128d7575f84156128c5578287015190505b6128cf8582612854565b865550612936565b601f1984166128e5866126d2565b5f5b8281101561290c578489015182556001820191506020850194506020810190506128e7565b868310156129295784890151612925601f891682612838565b8355505b6001600288020188555050505b505050505050565b5f612948826123e8565b61295281856125fd565b9350612962818560208601612402565b61296b81612189565b840191505092915050565b5f6020820190508181035f83015261298e818461293e565b905092915050565b7f4e616d652063616e6e6f7420626520656d7074790000000000000000000000005f82015250565b5f6129ca6014836125fd565b91506129d582612996565b602082019050919050565b5f6020820190508181035f8301526129f7816129be565b9050919050565b5f612a0882611e8a565b9150612a1383611e8a565b9250828203905081811115612a2b57612a2a612589565b5b92915050565b7f4e487b71000000000000000000000000000000000000000000000000000000005f52603160045260245ffdfea26469706673582212204bd188304cf008b80db3750f751391bd68db9e9263d284bc77ee8816f3ef202364736f6c63430008140033",
  "immutableReferences": {},
  "source": "// SPDX-License-Identifier: MIT\npragma solidity ^0.8.20;\n\nimport \"@openzeppelin/contracts/access/Ownable.sol\";\nimport \"@openzeppelin/contracts/utils/Pausable.sol\";\nimport \"@openzeppelin/contracts/utils/ReentrancyGuard.sol\";\nimport \"@openzeppelin/contracts/utils/structs/EnumerableSet.sol\";\n\ncontract DePINManager is Ownable, Pausable, ReentrancyGuard {\n    using EnumerableSet for EnumerableSet.AddressSet;\n    using EnumerableSet for EnumerableSet.UintSet;\n\n    // Errors\n    error CallerNotAssetOwner();\n    error AssetDoesNotExist();\n    error InvalidRecipientAddress();\n    error AssetAlreadyDeactivated();\n    error AssetAlreadyActive();\n    error CallerNotOwnerNorApproved();\n    error ApprovalToCurrentOwner();\n    error AssetIsDeactivated();\n\n    // Asset Struct and Mappings\n    struct Asset {\n        string name;\n        string metadataURI;\n        uint256 createdAt;\n        uint256 updatedAt;\n        address owner;\n        bool active;\n    }\n\n    uint256 private _assetCounter;\n    mapping(uint256 => Asset) private _assets;\n    mapping(uint256 => address) private _assetApprovals;\n    EnumerableSet.AddressSet private _assetOwners;\n    mapping(address => EnumerableSet.UintSet) private _ownerAssets;\n\n    // Events\n    event AssetCreated(uint256 indexed assetId, string name, address indexed owner);\n    event AssetUpdated(uint256 indexed assetId, string metadataURI, address indexed owner);\n    event AssetTransferred(uint256 indexed assetId, address indexed from, address indexed to);\n    event AssetDeactivated(uint256 indexed assetId, address indexed owner);\n    event AssetReactivated(uint256 indexed assetId, address indexed owner);\n    event Approval(address indexed owner, address indexed approved, uint256 indexed assetId);\n\n    // Modifiers\n    modifier onlyAssetOwner(uint256 assetId) {\n        if (_assets[assetId].owner != msg.sender) revert CallerNotAssetOwner();\n        _;\n    }\n\n    modifier assetExists(uint256 assetId) {\n        if (_assets[assetId].owner == address(0)) revert AssetDoesNotExist();\n        _;\n    }\n\n    constructor(address initialOwner) Ownable(initialOwner) {\n        _transferOwnership(initialOwner);\n    }\n\n    function pause() external onlyOwner {\n        _pause();\n    }\n\n    function unpause() external onlyOwner {\n        _unpause();\n    }\n\n    // Functions for Asset Management\n\n    function createAsset(string memory name, string memory metadataURI) external whenNotPaused returns (uint256) {\n        require(bytes(name).length > 0, \"Name cannot be empty\");\n        require(bytes(metadataURI).length > 0, \"MetadataURI cannot be empty\");\n\n        uint256 newAssetId = ++_assetCounter;\n\n        Asset memory newAsset = Asset({\n            name: name,\n            metadataURI: metadataURI,\n            createdAt: block.timestamp,\n            updatedAt: block.timestamp,\n            owner: msg.sender,\n            active: true\n        });\n\n        _assets[newAssetId] = newAsset;\n        _assetOwners.add(msg.sender);\n        _ownerAssets[msg.sender].add(newAssetId);\n\n        emit AssetCreated(newAssetId, name, msg.sender);\n\n        return newAssetId;\n    }\n\n    function updateAsset(uint256 assetId, string memory metadataURI)\n        external\n        whenNotPaused\n        assetExists(assetId)\n        onlyAssetOwner(assetId)\n    {\n        require(bytes(metadataURI).length > 0, \"MetadataURI cannot be empty\");\n\n        Asset storage asset = _assets[assetId];\n        asset.metadataURI = metadataURI;\n        asset.updatedAt = block.timestamp;\n\n        emit AssetUpdated(assetId, metadataURI, msg.sender);\n    }\n\n    function transferAsset(uint256 assetId, address to)\n        external\n        whenNotPaused\n        assetExists(assetId)\n        nonReentrant\n    {\n        if (to == address(0)) revert InvalidRecipientAddress();\n\n        Asset storage asset = _assets[assetId];\n        if (!asset.active) revert AssetIsDeactivated();\n\n        address owner = asset.owner;\n        if (msg.sender != owner && getApproved(assetId) != msg.sender) revert CallerNotOwnerNorApproved();\n\n        _transferAsset(assetId, owner, to);\n    }\n\n    function _transferAsset(uint256 assetId, address from, address to) internal {\n        Asset storage asset = _assets[assetId];\n        asset.owner = to;\n        asset.updatedAt = block.timestamp;\n\n        _ownerAssets[from].remove(assetId);\n        _ownerAssets[to].add(assetId);\n\n        if (_ownerAssets[from].length() == 0) {\n            _assetOwners.remove(from);\n        }\n\n        _assetOwners.add(to);\n\n        _assetApprovals[assetId] = address(0);\n        emit Approval(from, address(0), assetId);\n\n        emit AssetTransferred(assetId, from, to);\n    }\n\n    function approve(address to, uint256 assetId)\n        external\n        whenNotPaused\n        assetExists(assetId)\n        onlyAssetOwner(assetId)\n    {\n        if (to == msg.sender) revert ApprovalToCurrentOwner();\n\n        _assetApprovals[assetId] = to;\n        emit Approval(msg.sender, to, assetId);\n    }\n\n    function getApproved(uint256 assetId) public view assetExists(assetId) returns (address) {\n        return _assetApprovals[assetId];\n    }\n\n    function deactivateAsset(uint256 assetId)\n        external\n        whenNotPaused\n        assetExists(assetId)\n        onlyAssetOwner(assetId)\n    {\n        Asset storage asset = _assets[assetId];\n        if (!asset.active) revert AssetAlreadyDeactivated();\n        asset.active = false;\n        asset.updatedAt = block.timestamp;\n\n        emit AssetDeactivated(assetId, msg.sender);\n    }\n\n    function reactivateAsset(uint256 assetId)\n        external\n        whenNotPaused\n        assetExists(assetId)\n        onlyAssetOwner(assetId)\n    {\n        Asset storage asset = _assets[assetId];\n        if (asset.active) revert AssetAlreadyActive();\n        asset.active = true;\n        asset.updatedAt = block.timestamp;\n\n        emit AssetReactivated(assetId, msg.sender);\n    }\n\n    function getAsset(uint256 assetId) external view assetExists(assetId) returns (Asset memory) {\n        return _assets[assetId];\n    }\n\n    function getAssetsByOwner(address owner) external view returns (uint256[] memory) {\n        uint256 length = _ownerAssets[owner].length();\n        uint256[] memory assetIds = new uint256[](length);\n        for (uint256 i = 0; i < length; i++) {\n            assetIds[i] = _ownerAssets[owner].at(i);\n        }\n        return assetIds;\n    }\n\n    function getAssetOwners() external view returns (address[] memory) {\n        uint256 length = _assetOwners.length();\n        address[] memory owners = new address[](length);\n        for (uint256 i = 0; i < length; i++) {\n            owners[i] = _assetOwners.at(i);\n        }\n        return owners;\n    }\n\n    // Additional Functions (Optional)\n\n    // If you wish to implement batch operations, you can add them here.\n    // For example, batch transfer assets, batch deactivate assets, etc.\n}",
  "sourcePath": "/Users/elvin3block/Documents/Evire-DePIN-Framework/contracts/DePINManager.sol",
  "compiler": {
    "name": "solc",
    "version": "0.8.20+commit.a1b79de6.Emscripten.clang"
  },
  "schemaVersion": "3.4.16",
  "updatedAt": "2024-11-07T15:02:22.453Z",
  "devdoc": {
    "errors": {
      "EnforcedPause()": [
        {
          "details": "The operation failed because the contract is paused."
        }
      ],
      "ExpectedPause()": [
        {
          "details": "The operation failed because the contract is not paused."
        }
      ],
      "OwnableInvalidOwner(address)": [
        {
          "details": "The owner is not a valid owner account. (eg. `address(0)`)"
        }
      ],
      "OwnableUnauthorizedAccount(address)": [
        {
          "details": "The caller account is not authorized to perform an operation."
        }
      ],
      "ReentrancyGuardReentrantCall()": [
        {
          "details": "Unauthorized reentrant call."
        }
      ]
    },
    "events": {
      "Paused(address)": {
        "details": "Emitted when the pause is triggered by `account`."
      },
      "Unpaused(address)": {
        "details": "Emitted when the pause is lifted by `account`."
      }
    },
    "kind": "dev",
    "methods": {
      "owner()": {
        "details": "Returns the address of the current owner."
      },
      "paused()": {
        "details": "Returns true if the contract is paused, and false otherwise."
      },
      "renounceOwnership()": {
        "details": "Leaves the contract without owner. It will not be possible to call `onlyOwner` functions. Can only be called by the current owner. NOTE: Renouncing ownership will leave the contract without an owner, thereby disabling any functionality that is only available to the owner."
      },
      "transferOwnership(address)": {
        "details": "Transfers ownership of the contract to a new account (`newOwner`). Can only be called by the current owner."
      }
    },
    "version": 1
  },
  "userdoc": {
    "kind": "user",
    "methods": {},
    "version": 1
  }
}