{
  "contractName": "IoTDeviceManager",
  "abi": [
    {
      "inputs": [
        {
          "internalType": "address",
          "name": "initialOwner",
          "type": "address"
        }
      ],
      "stateMutability": "nonpayable",
      "type": "constructor"
    },
    {
      "inputs": [],
      "name": "AccessControlBadConfirmation",
      "type": "error"
    },
    {
      "inputs": [
        {
          "internalType": "address",
          "name": "account",
          "type": "address"
        },
        {
          "internalType": "bytes32",
          "name": "neededRole",
          "type": "bytes32"
        }
      ],
      "name": "AccessControlUnauthorizedAccount",
      "type": "error"
    },
    {
      "inputs": [
        {
          "internalType": "address",
          "name": "owner",
          "type": "address"
        }
      ],
      "name": "OwnableInvalidOwner",
      "type": "error"
    },
    {
      "inputs": [
        {
          "internalType": "address",
          "name": "account",
          "type": "address"
        }
      ],
      "name": "OwnableUnauthorizedAccount",
      "type": "error"
    },
    {
      "inputs": [],
      "name": "ReentrancyGuardReentrantCall",
      "type": "error"
    },
    {
      "anonymous": false,
      "inputs": [
        {
          "indexed": true,
          "internalType": "address",
          "name": "deviceAddress",
          "type": "address"
        },
        {
          "indexed": false,
          "internalType": "string",
          "name": "dataHash",
          "type": "string"
        },
        {
          "indexed": false,
          "internalType": "uint256",
          "name": "timestamp",
          "type": "uint256"
        }
      ],
      "name": "DataSubmitted",
      "type": "event"
    },
    {
      "anonymous": false,
      "inputs": [
        {
          "indexed": true,
          "internalType": "address",
          "name": "deviceAddress",
          "type": "address"
        },
        {
          "indexed": false,
          "internalType": "string",
          "name": "deviceId",
          "type": "string"
        }
      ],
      "name": "DeviceDeactivated",
      "type": "event"
    },
    {
      "anonymous": false,
      "inputs": [
        {
          "indexed": true,
          "internalType": "address",
          "name": "deviceAddress",
          "type": "address"
        },
        {
          "indexed": true,
          "internalType": "address",
          "name": "newOwner",
          "type": "address"
        }
      ],
      "name": "DeviceOwnershipTransferred",
      "type": "event"
    },
    {
      "anonymous": false,
      "inputs": [
        {
          "indexed": true,
          "internalType": "address",
          "name": "deviceAddress",
          "type": "address"
        },
        {
          "indexed": false,
          "internalType": "string",
          "name": "deviceId",
          "type": "string"
        }
      ],
      "name": "DeviceReactivated",
      "type": "event"
    },
    {
      "anonymous": false,
      "inputs": [
        {
          "indexed": true,
          "internalType": "address",
          "name": "deviceAddress",
          "type": "address"
        },
        {
          "indexed": false,
          "internalType": "string",
          "name": "deviceId",
          "type": "string"
        },
        {
          "indexed": false,
          "internalType": "string",
          "name": "metadataURI",
          "type": "string"
        }
      ],
      "name": "DeviceRegistered",
      "type": "event"
    },
    {
      "anonymous": false,
      "inputs": [
        {
          "indexed": true,
          "internalType": "address",
          "name": "previousOwner",
          "type": "address"
        },
        {
          "indexed": true,
          "internalType": "address",
          "name": "newOwner",
          "type": "address"
        }
      ],
      "name": "OwnershipTransferred",
      "type": "event"
    },
    {
      "anonymous": false,
      "inputs": [
        {
          "indexed": true,
          "internalType": "bytes32",
          "name": "role",
          "type": "bytes32"
        },
        {
          "indexed": true,
          "internalType": "bytes32",
          "name": "previousAdminRole",
          "type": "bytes32"
        },
        {
          "indexed": true,
          "internalType": "bytes32",
          "name": "newAdminRole",
          "type": "bytes32"
        }
      ],
      "name": "RoleAdminChanged",
      "type": "event"
    },
    {
      "anonymous": false,
      "inputs": [
        {
          "indexed": true,
          "internalType": "bytes32",
          "name": "role",
          "type": "bytes32"
        },
        {
          "indexed": true,
          "internalType": "address",
          "name": "account",
          "type": "address"
        },
        {
          "indexed": true,
          "internalType": "address",
          "name": "sender",
          "type": "address"
        }
      ],
      "name": "RoleGranted",
      "type": "event"
    },
    {
      "anonymous": false,
      "inputs": [
        {
          "indexed": true,
          "internalType": "bytes32",
          "name": "role",
          "type": "bytes32"
        },
        {
          "indexed": true,
          "internalType": "address",
          "name": "account",
          "type": "address"
        },
        {
          "indexed": true,
          "internalType": "address",
          "name": "sender",
          "type": "address"
        }
      ],
      "name": "RoleRevoked",
      "type": "event"
    },
    {
      "inputs": [],
      "name": "DATA_CONSUMER_ROLE",
      "outputs": [
        {
          "internalType": "bytes32",
          "name": "",
          "type": "bytes32"
        }
      ],
      "stateMutability": "view",
      "type": "function"
    },
    {
      "inputs": [],
      "name": "DEFAULT_ADMIN_ROLE",
      "outputs": [
        {
          "internalType": "bytes32",
          "name": "",
          "type": "bytes32"
        }
      ],
      "stateMutability": "view",
      "type": "function"
    },
    {
      "inputs": [],
      "name": "DEVICE_MANAGER_ROLE",
      "outputs": [
        {
          "internalType": "bytes32",
          "name": "",
          "type": "bytes32"
        }
      ],
      "stateMutability": "view",
      "type": "function"
    },
    {
      "inputs": [
        {
          "internalType": "bytes32",
          "name": "role",
          "type": "bytes32"
        }
      ],
      "name": "getRoleAdmin",
      "outputs": [
        {
          "internalType": "bytes32",
          "name": "",
          "type": "bytes32"
        }
      ],
      "stateMutability": "view",
      "type": "function"
    },
    {
      "inputs": [
        {
          "internalType": "bytes32",
          "name": "role",
          "type": "bytes32"
        },
        {
          "internalType": "address",
          "name": "account",
          "type": "address"
        }
      ],
      "name": "grantRole",
      "outputs": [],
      "stateMutability": "nonpayable",
      "type": "function"
    },
    {
      "inputs": [
        {
          "internalType": "bytes32",
          "name": "role",
          "type": "bytes32"
        },
        {
          "internalType": "address",
          "name": "account",
          "type": "address"
        }
      ],
      "name": "hasRole",
      "outputs": [
        {
          "internalType": "bool",
          "name": "",
          "type": "bool"
        }
      ],
      "stateMutability": "view",
      "type": "function"
    },
    {
      "inputs": [],
      "name": "owner",
      "outputs": [
        {
          "internalType": "address",
          "name": "",
          "type": "address"
        }
      ],
      "stateMutability": "view",
      "type": "function"
    },
    {
      "inputs": [],
      "name": "renounceOwnership",
      "outputs": [],
      "stateMutability": "nonpayable",
      "type": "function"
    },
    {
      "inputs": [
        {
          "internalType": "bytes32",
          "name": "role",
          "type": "bytes32"
        },
        {
          "internalType": "address",
          "name": "callerConfirmation",
          "type": "address"
        }
      ],
      "name": "renounceRole",
      "outputs": [],
      "stateMutability": "nonpayable",
      "type": "function"
    },
    {
      "inputs": [
        {
          "internalType": "bytes32",
          "name": "role",
          "type": "bytes32"
        },
        {
          "internalType": "address",
          "name": "account",
          "type": "address"
        }
      ],
      "name": "revokeRole",
      "outputs": [],
      "stateMutability": "nonpayable",
      "type": "function"
    },
    {
      "inputs": [
        {
          "internalType": "bytes4",
          "name": "interfaceId",
          "type": "bytes4"
        }
      ],
      "name": "supportsInterface",
      "outputs": [
        {
          "internalType": "bool",
          "name": "",
          "type": "bool"
        }
      ],
      "stateMutability": "view",
      "type": "function"
    },
    {
      "inputs": [
        {
          "internalType": "address",
          "name": "newOwner",
          "type": "address"
        }
      ],
      "name": "transferOwnership",
      "outputs": [],
      "stateMutability": "nonpayable",
      "type": "function"
    },
    {
      "inputs": [
        {
          "internalType": "address",
          "name": "_deviceAddress",
          "type": "address"
        },
        {
          "internalType": "string",
          "name": "_deviceId",
          "type": "string"
        },
        {
          "internalType": "string",
          "name": "_metadataURI",
          "type": "string"
        }
      ],
      "name": "registerDevice",
      "outputs": [],
      "stateMutability": "nonpayable",
      "type": "function"
    },
    {
      "inputs": [
        {
          "internalType": "address",
          "name": "_deviceAddress",
          "type": "address"
        }
      ],
      "name": "deactivateDevice",
      "outputs": [],
      "stateMutability": "nonpayable",
      "type": "function"
    },
    {
      "inputs": [
        {
          "internalType": "address",
          "name": "_deviceAddress",
          "type": "address"
        }
      ],
      "name": "reactivateDevice",
      "outputs": [],
      "stateMutability": "nonpayable",
      "type": "function"
    },
    {
      "inputs": [
        {
          "internalType": "string",
          "name": "_dataHash",
          "type": "string"
        }
      ],
      "name": "submitData",
      "outputs": [],
      "stateMutability": "nonpayable",
      "type": "function"
    },
    {
      "inputs": [
        {
          "internalType": "address",
          "name": "_deviceAddress",
          "type": "address"
        },
        {
          "internalType": "uint256",
          "name": "_index",
          "type": "uint256"
        }
      ],
      "name": "getDeviceData",
      "outputs": [
        {
          "internalType": "uint256",
          "name": "",
          "type": "uint256"
        },
        {
          "internalType": "string",
          "name": "",
          "type": "string"
        }
      ],
      "stateMutability": "view",
      "type": "function"
    },
    {
      "inputs": [
        {
          "internalType": "address",
          "name": "_deviceAddress",
          "type": "address"
        }
      ],
      "name": "getDeviceDataLength",
      "outputs": [
        {
          "internalType": "uint256",
          "name": "",
          "type": "uint256"
        }
      ],
      "stateMutability": "view",
      "type": "function"
    },
    {
      "inputs": [
        {
          "internalType": "address",
          "name": "_deviceAddress",
          "type": "address"
        }
      ],
      "name": "getDeviceDetails",
      "outputs": [
        {
          "internalType": "string",
          "name": "",
          "type": "string"
        },
        {
          "internalType": "address",
          "name": "",
          "type": "address"
        },
        {
          "internalType": "bool",
          "name": "",
          "type": "bool"
        },
        {
          "internalType": "string",
          "name": "",
          "type": "string"
        },
        {
          "internalType": "uint256",
          "name": "",
          "type": "uint256"
        }
      ],
      "stateMutability": "view",
      "type": "function"
    },
    {
      "inputs": [
        {
          "internalType": "address",
          "name": "_deviceAddress",
          "type": "address"
        },
        {
          "internalType": "string",
          "name": "_metadataURI",
          "type": "string"
        }
      ],
      "name": "updateDeviceMetadata",
      "outputs": [],
      "stateMutability": "nonpayable",
      "type": "function"
    },
    {
      "inputs": [
        {
          "internalType": "address",
          "name": "_deviceAddress",
          "type": "address"
        },
        {
          "internalType": "address",
          "name": "_newOwner",
          "type": "address"
        }
      ],
      "name": "transferDeviceOwnership",
      "outputs": [],
      "stateMutability": "nonpayable",
      "type": "function"
    },
    {
      "inputs": [],
      "name": "getRegisteredDevices",
      "outputs": [
        {
          "internalType": "address[]",
          "name": "",
          "type": "address[]"
        }
      ],
      "stateMutability": "view",
      "type": "function"
    },
    {
      "inputs": [],
      "name": "totalRegisteredDevices",
      "outputs": [
        {
          "internalType": "uint256",
          "name": "",
          "type": "uint256"
        }
      ],
      "stateMutability": "view",
      "type": "function"
    },
    {
      "inputs": [
        {
          "internalType": "address",
          "name": "_deviceAddress",
          "type": "address"
        }
      ],
      "name": "isDeviceActive",
      "outputs": [
        {
          "internalType": "bool",
          "name": "",
          "type": "bool"
        }
      ],
      "stateMutability": "view",
      "type": "function"
    },
    {
      "inputs": [
        {
          "internalType": "address",
          "name": "_deviceAddress",
          "type": "address"
        }
      ],
      "name": "getLastDataTimestamp",
      "outputs": [
        {
          "internalType": "uint256",
          "name": "",
          "type": "uint256"
        }
      ],
      "stateMutability": "view",
      "type": "function"
    },
    {
      "inputs": [
        {
          "internalType": "address",
          "name": "_token",
          "type": "address"
        },
        {
          "internalType": "address",
          "name": "_to",
          "type": "address"
        },
        {
          "internalType": "uint256",
          "name": "_amount",
          "type": "uint256"
        }
      ],
      "name": "withdrawTokens",
      "outputs": [],
      "stateMutability": "nonpayable",
      "type": "function"
    },
    {
      "inputs": [
        {
          "internalType": "address",
          "name": "_account",
          "type": "address"
        }
      ],
      "name": "grantManagerRole",
      "outputs": [],
      "stateMutability": "nonpayable",
      "type": "function"
    },
    {
      "inputs": [
        {
          "internalType": "address",
          "name": "_account",
          "type": "address"
        }
      ],
      "name": "revokeManagerRole",
      "outputs": [],
      "stateMutability": "nonpayable",
      "type": "function"
    },
    {
      "inputs": [
        {
          "internalType": "address",
          "name": "_account",
          "type": "address"
        }
      ],
      "name": "grantDataConsumerRole",
      "outputs": [],
      "stateMutability": "nonpayable",
      "type": "function"
    },
    {
      "inputs": [
        {
          "internalType": "address",
          "name": "_account",
          "type": "address"
        }
      ],
      "name": "revokeDataConsumerRole",
      "outputs": [],
      "stateMutability": "nonpayable",
      "type": "function"
    }
  ],
  "bytecode": "0x608060405234801562000010575f80fd5b5060405162003e5e38038062003e5e8339818101604052810190620000369190620003d2565b805f73ffffffffffffffffffffffffffffffffffffffff168173ffffffffffffffffffffffffffffffffffffffff1603620000aa575f6040517f1e4fbdf7000000000000000000000000000000000000000000000000000000008152600401620000a1919062000413565b60405180910390fd5b620000bb816200014660201b60201c565b506001600281905550620000d85f801b826200020760201b60201c565b506200010b7f20c605fd0c297c12fdef1ea05fc5e693eeeda1f5ffb147a823a0db69c8bbea9e826200020760201b60201c565b506200013e7fe30821bead834b2370918c87c533bd6da6cced701b312fae3688e53125b9f842826200020760201b60201c565b50506200042e565b5f805f9054906101000a900473ffffffffffffffffffffffffffffffffffffffff169050815f806101000a81548173ffffffffffffffffffffffffffffffffffffffff021916908373ffffffffffffffffffffffffffffffffffffffff1602179055508173ffffffffffffffffffffffffffffffffffffffff168173ffffffffffffffffffffffffffffffffffffffff167f8be0079c531659141344cd1fd0a4f28419497f9722a3daafe3b4186f6b6457e060405160405180910390a35050565b5f6200021a83836200030260201b60201c565b620002f8576001805f8581526020019081526020015f205f015f8473ffffffffffffffffffffffffffffffffffffffff1673ffffffffffffffffffffffffffffffffffffffff1681526020019081526020015f205f6101000a81548160ff021916908315150217905550620002946200036660201b60201c565b73ffffffffffffffffffffffffffffffffffffffff168273ffffffffffffffffffffffffffffffffffffffff16847f2f8788117e7eff1d82e926ec794901d17c78024a50270940304540a733656f0d60405160405180910390a460019050620002fc565b5f90505b92915050565b5f60015f8481526020019081526020015f205f015f8373ffffffffffffffffffffffffffffffffffffffff1673ffffffffffffffffffffffffffffffffffffffff1681526020019081526020015f205f9054906101000a900460ff16905092915050565b5f33905090565b5f80fd5b5f73ffffffffffffffffffffffffffffffffffffffff82169050919050565b5f6200039c8262000371565b9050919050565b620003ae8162000390565b8114620003b9575f80fd5b50565b5f81519050620003cc81620003a3565b92915050565b5f60208284031215620003ea57620003e96200036d565b5b5f620003f984828501620003bc565b91505092915050565b6200040d8162000390565b82525050565b5f602082019050620004285f83018462000402565b92915050565b613a22806200043c5f395ff3fe608060405234801561000f575f80fd5b50600436106101d8575f3560e01c80638da5cb5b11610102578063be4dc94f116100a0578063d547741f1161006f578063d547741f1461054f578063ee80d0631461056b578063f2fde38b14610589578063ff091fda146105a5576101d8565b8063be4dc94f146104dd578063cf65952c146104f9578063d147f95c14610515578063d425b84914610533576101d8565b80639b57a128116100dc5780639b57a12814610457578063a217fddf14610487578063a2aac7ab146104a5578063bc6d7298146104c1576101d8565b80638da5cb5b146103ed5780638ed9f2e51461040b57806391d1485414610427576101d8565b80635e35359e1161017a578063715018a611610149578063715018a61461037957806375ffeb8b146103835780637a9e784a146103b357806383954288146103cf576101d8565b80635e35359e146102dd57806367bdd192146102f9578063682715f11461032d5780636f6dfeb01461035d576101d8565b806326e885e3116101b657806326e885e3146102585780632f2ff15d1461027457806336568abe1461029057806352216d21146102ac576101d8565b806301ffc9a7146101dc578063239407101461020c578063248a9ca314610228575b5f80fd5b6101f660048036038101906101f1919061281b565b6105c3565b6040516102039190612860565b60405180910390f35b610226600480360381019061022191906128d3565b61063c565b005b610242600480360381019061023d9190612944565b610915565b60405161024f919061297e565b60405180910390f35b610272600480360381019061026d9190612997565b610932565b005b61028e600480360381019061028991906129c2565b610967565b005b6102aa60048036038101906102a591906129c2565b610989565b005b6102c660048036038101906102c19190612a33565b610a04565b6040516102d4929190612b0a565b60405180910390f35b6102f760048036038101906102f29190612b38565b610c1e565b005b610313600480360381019061030e9190612997565b610dd5565b604051610324959493929190612b97565b60405180910390f35b61034760048036038101906103429190612997565b6110b9565b6040516103549190612bf6565b60405180910390f35b61037760048036038101906103729190612d3b565b6111cf565b005b610381611458565b005b61039d60048036038101906103989190612997565b61146b565b6040516103aa9190612bf6565b60405180910390f35b6103cd60048036038101906103c89190612997565b611532565b005b6103d7611567565b6040516103e49190612bf6565b60405180910390f35b6103f5611577565b6040516104029190612dc3565b60405180910390f35b61042560048036038101906104209190612997565b61159e565b005b610441600480360381019061043c91906129c2565b6115d3565b60405161044e9190612860565b60405180910390f35b610471600480360381019061046c9190612997565b611637565b60405161047e9190612860565b60405180910390f35b61048f61168d565b60405161049c919061297e565b60405180910390f35b6104bf60048036038101906104ba9190612ddc565b611693565b005b6104db60048036038101906104d69190612e23565b61189a565b005b6104f760048036038101906104f29190612997565b611abe565b005b610513600480360381019061050e9190612997565b611af3565b005b61051d611d40565b60405161052a9190612f34565b60405180910390f35b61054d60048036038101906105489190612997565b611d51565b005b610569600480360381019061056491906129c2565b611fe5565b005b610573612007565b604051610580919061297e565b60405180910390f35b6105a3600480360381019061059e9190612997565b61202b565b005b6105ad6120af565b6040516105ba919061297e565b60405180910390f35b5f7f7965db0b000000000000000000000000000000000000000000000000000000007bffffffffffffffffffffffffffffffffffffffffffffffffffffffff1916827bffffffffffffffffffffffffffffffffffffffffffffffffffffffff191614806106355750610634826120d3565b5b9050919050565b8160035f8273ffffffffffffffffffffffffffffffffffffffff1673ffffffffffffffffffffffffffffffffffffffff1681526020019081526020015f2060010160149054906101000a900460ff166106ca576040517f08c379a00000000000000000000000000000000000000000000000000000000081526004016106c190612f9e565b60405180910390fd5b826106f57f20c605fd0c297c12fdef1ea05fc5e693eeeda1f5ffb147a823a0db69c8bbea9e336115d3565b8061078a57503373ffffffffffffffffffffffffffffffffffffffff1660035f8373ffffffffffffffffffffffffffffffffffffffff1673ffffffffffffffffffffffffffffffffffffffff1681526020019081526020015f206001015f9054906101000a900473ffffffffffffffffffffffffffffffffffffffff1673ffffffffffffffffffffffffffffffffffffffff16145b6107c9576040517f08c379a00000000000000000000000000000000000000000000000000000000081526004016107c09061302c565b60405180910390fd5b5f73ffffffffffffffffffffffffffffffffffffffff168373ffffffffffffffffffffffffffffffffffffffff1603610837576040517f08c379a000000000000000000000000000000000000000000000000000000000815260040161082e90613094565b60405180910390fd5b8260035f8673ffffffffffffffffffffffffffffffffffffffff1673ffffffffffffffffffffffffffffffffffffffff1681526020019081526020015f206001015f6101000a81548173ffffffffffffffffffffffffffffffffffffffff021916908373ffffffffffffffffffffffffffffffffffffffff1602179055508273ffffffffffffffffffffffffffffffffffffffff168473ffffffffffffffffffffffffffffffffffffffff167f62182c6f6abb79a1e33ffb70dca668de3c12716968155fedacc34935df17f08e60405160405180910390a350505050565b5f60015f8381526020019081526020015f20600101549050919050565b61093a61213c565b6109647f20c605fd0c297c12fdef1ea05fc5e693eeeda1f5ffb147a823a0db69c8bbea9e82610967565b50565b61097082610915565b610979816121c3565b61098383836121d7565b50505050565b6109916122c0565b73ffffffffffffffffffffffffffffffffffffffff168173ffffffffffffffffffffffffffffffffffffffff16146109f5576040517f6697b23200000000000000000000000000000000000000000000000000000000815260040160405180910390fd5b6109ff82826122c7565b505050565b5f60607fe30821bead834b2370918c87c533bd6da6cced701b312fae3688e53125b9f842610a31816121c3565b610a458560056123b190919063ffffffff16565b610a84576040517f08c379a0000000000000000000000000000000000000000000000000000000008152600401610a7b906130fc565b60405180910390fd5b60045f8673ffffffffffffffffffffffffffffffffffffffff1673ffffffffffffffffffffffffffffffffffffffff1681526020019081526020015f20805490508410610b06576040517f08c379a0000000000000000000000000000000000000000000000000000000008152600401610afd90613164565b60405180910390fd5b5f60045f8773ffffffffffffffffffffffffffffffffffffffff1673ffffffffffffffffffffffffffffffffffffffff1681526020019081526020015f208581548110610b5657610b55613182565b5b905f5260205f2090600202016040518060400160405290815f8201548152602001600182018054610b86906131dc565b80601f0160208091040260200160405190810160405280929190818152602001828054610bb2906131dc565b8015610bfd5780601f10610bd457610100808354040283529160200191610bfd565b820191905f5260205f20905b815481529060010190602001808311610be057829003601f168201915b5050505050815250509050805f015181602001519350935050509250929050565b610c2661213c565b610c2e6123de565b5f73ffffffffffffffffffffffffffffffffffffffff168373ffffffffffffffffffffffffffffffffffffffff1603610c9c576040517f08c379a0000000000000000000000000000000000000000000000000000000008152600401610c9390613256565b60405180910390fd5b5f73ffffffffffffffffffffffffffffffffffffffff168273ffffffffffffffffffffffffffffffffffffffff1603610d0a576040517f08c379a0000000000000000000000000000000000000000000000000000000008152600401610d01906132be565b60405180910390fd5b5f8111610d4c576040517f08c379a0000000000000000000000000000000000000000000000000000000008152600401610d4390613326565b60405180910390fd5b8273ffffffffffffffffffffffffffffffffffffffff1663a9059cbb83836040518363ffffffff1660e01b8152600401610d87929190613344565b6020604051808303815f875af1158015610da3573d5f803e3d5ffd5b505050506040513d601f19601f82011682018060405250810190610dc79190613395565b50610dd0612422565b505050565b60605f8060605f8073ffffffffffffffffffffffffffffffffffffffff1660035f8873ffffffffffffffffffffffffffffffffffffffff1673ffffffffffffffffffffffffffffffffffffffff1681526020019081526020015f206001015f9054906101000a900473ffffffffffffffffffffffffffffffffffffffff1673ffffffffffffffffffffffffffffffffffffffff1603610ea9576040517f08c379a0000000000000000000000000000000000000000000000000000000008152600401610ea0906130fc565b60405180910390fd5b5f60035f8873ffffffffffffffffffffffffffffffffffffffff1673ffffffffffffffffffffffffffffffffffffffff1681526020019081526020015f206040518060a00160405290815f82018054610f01906131dc565b80601f0160208091040260200160405190810160405280929190818152602001828054610f2d906131dc565b8015610f785780601f10610f4f57610100808354040283529160200191610f78565b820191905f5260205f20905b815481529060010190602001808311610f5b57829003601f168201915b50505050508152602001600182015f9054906101000a900473ffffffffffffffffffffffffffffffffffffffff1673ffffffffffffffffffffffffffffffffffffffff1673ffffffffffffffffffffffffffffffffffffffff1681526020016001820160149054906101000a900460ff16151515158152602001600282018054611001906131dc565b80601f016020809104026020016040519081016040528092919081815260200182805461102d906131dc565b80156110785780601f1061104f57610100808354040283529160200191611078565b820191905f5260205f20905b81548152906001019060200180831161105b57829003601f168201915b505050505081526020016003820154815250509050805f01518160200151826040015183606001518460800151955095509550955095505091939590929450565b5f8073ffffffffffffffffffffffffffffffffffffffff1660035f8473ffffffffffffffffffffffffffffffffffffffff1673ffffffffffffffffffffffffffffffffffffffff1681526020019081526020015f206001015f9054906101000a900473ffffffffffffffffffffffffffffffffffffffff1673ffffffffffffffffffffffffffffffffffffffff1603611187576040517f08c379a000000000000000000000000000000000000000000000000000000000815260040161117e906130fc565b60405180910390fd5b60035f8373ffffffffffffffffffffffffffffffffffffffff1673ffffffffffffffffffffffffffffffffffffffff1681526020019081526020015f20600301549050919050565b7f20c605fd0c297c12fdef1ea05fc5e693eeeda1f5ffb147a823a0db69c8bbea9e6111f9816121c3565b61120d8460056123b190919063ffffffff16565b1561124d576040517f08c379a00000000000000000000000000000000000000000000000000000000081526004016112449061340a565b60405180910390fd5b5f835111611290576040517f08c379a000000000000000000000000000000000000000000000000000000000815260040161128790613472565b60405180910390fd5b5f8251116112d3576040517f08c379a00000000000000000000000000000000000000000000000000000000081526004016112ca906134da565b60405180910390fd5b6040518060a001604052808481526020018573ffffffffffffffffffffffffffffffffffffffff1681526020016001151581526020018381526020014281525060035f8673ffffffffffffffffffffffffffffffffffffffff1673ffffffffffffffffffffffffffffffffffffffff1681526020019081526020015f205f820151815f0190816113639190613695565b506020820151816001015f6101000a81548173ffffffffffffffffffffffffffffffffffffffff021916908373ffffffffffffffffffffffffffffffffffffffff16021790555060408201518160010160146101000a81548160ff02191690831515021790555060608201518160020190816113df9190613695565b506080820151816003015590505061140184600561242c90919063ffffffff16565b508373ffffffffffffffffffffffffffffffffffffffff167f25bec5442671a5d594ede63d811665f791f5152b85d1ca34a8c1630a11af352a848460405161144a929190613764565b60405180910390a250505050565b61146061213c565b6114695f612459565b565b5f7fe30821bead834b2370918c87c533bd6da6cced701b312fae3688e53125b9f842611496816121c3565b6114aa8360056123b190919063ffffffff16565b6114e9576040517f08c379a00000000000000000000000000000000000000000000000000000000081526004016114e0906130fc565b60405180910390fd5b60045f8473ffffffffffffffffffffffffffffffffffffffff1673ffffffffffffffffffffffffffffffffffffffff1681526020019081526020015f2080549050915050919050565b61153a61213c565b6115647fe30821bead834b2370918c87c533bd6da6cced701b312fae3688e53125b9f84282611fe5565b50565b5f611572600561251a565b905090565b5f805f9054906101000a900473ffffffffffffffffffffffffffffffffffffffff16905090565b6115a661213c565b6115d07fe30821bead834b2370918c87c533bd6da6cced701b312fae3688e53125b9f84282610967565b50565b5f60015f8481526020019081526020015f205f015f8373ffffffffffffffffffffffffffffffffffffffff1673ffffffffffffffffffffffffffffffffffffffff1681526020019081526020015f205f9054906101000a900460ff16905092915050565b5f60035f8373ffffffffffffffffffffffffffffffffffffffff1673ffffffffffffffffffffffffffffffffffffffff1681526020019081526020015f2060010160149054906101000a900460ff169050919050565b5f801b81565b3360035f8273ffffffffffffffffffffffffffffffffffffffff1673ffffffffffffffffffffffffffffffffffffffff1681526020019081526020015f2060010160149054906101000a900460ff16611721576040517f08c379a000000000000000000000000000000000000000000000000000000000815260040161171890612f9e565b60405180910390fd5b5f825111611764576040517f08c379a000000000000000000000000000000000000000000000000000000000815260040161175b906137e3565b60405180910390fd5b5f604051806040016040528042815260200184815250905060045f3373ffffffffffffffffffffffffffffffffffffffff1673ffffffffffffffffffffffffffffffffffffffff1681526020019081526020015f2081908060018154018082558091505060019003905f5260205f2090600202015f909190919091505f820151815f015560208201518160010190816117fd9190613695565b5050504260035f3373ffffffffffffffffffffffffffffffffffffffff1673ffffffffffffffffffffffffffffffffffffffff1681526020019081526020015f20600301819055503373ffffffffffffffffffffffffffffffffffffffff167f3971e098c45f3feb712d60efd8340aa0c84f780238bbb556ad318b18c85b99d2844260405161188d929190613801565b60405180910390a2505050565b8160035f8273ffffffffffffffffffffffffffffffffffffffff1673ffffffffffffffffffffffffffffffffffffffff1681526020019081526020015f2060010160149054906101000a900460ff16611928576040517f08c379a000000000000000000000000000000000000000000000000000000000815260040161191f90612f9e565b60405180910390fd5b826119537f20c605fd0c297c12fdef1ea05fc5e693eeeda1f5ffb147a823a0db69c8bbea9e336115d3565b806119e857503373ffffffffffffffffffffffffffffffffffffffff1660035f8373ffffffffffffffffffffffffffffffffffffffff1673ffffffffffffffffffffffffffffffffffffffff1681526020019081526020015f206001015f9054906101000a900473ffffffffffffffffffffffffffffffffffffffff1673ffffffffffffffffffffffffffffffffffffffff16145b611a27576040517f08c379a0000000000000000000000000000000000000000000000000000000008152600401611a1e9061302c565b60405180910390fd5b5f835111611a6a576040517f08c379a0000000000000000000000000000000000000000000000000000000008152600401611a61906134da565b60405180910390fd5b8260035f8673ffffffffffffffffffffffffffffffffffffffff1673ffffffffffffffffffffffffffffffffffffffff1681526020019081526020015f206002019081611ab79190613695565b5050505050565b611ac661213c565b611af07f20c605fd0c297c12fdef1ea05fc5e693eeeda1f5ffb147a823a0db69c8bbea9e82611fe5565b50565b611b078160056123b190919063ffffffff16565b611b46576040517f08c379a0000000000000000000000000000000000000000000000000000000008152600401611b3d906130fc565b60405180910390fd5b611b707f20c605fd0c297c12fdef1ea05fc5e693eeeda1f5ffb147a823a0db69c8bbea9e336115d3565b80611c0557503373ffffffffffffffffffffffffffffffffffffffff1660035f8373ffffffffffffffffffffffffffffffffffffffff1673ffffffffffffffffffffffffffffffffffffffff1681526020019081526020015f206001015f9054906101000a900473ffffffffffffffffffffffffffffffffffffffff1673ffffffffffffffffffffffffffffffffffffffff16145b611c44576040517f08c379a0000000000000000000000000000000000000000000000000000000008152600401611c3b9061302c565b60405180910390fd5b5f60035f8373ffffffffffffffffffffffffffffffffffffffff1673ffffffffffffffffffffffffffffffffffffffff1681526020019081526020015f2060010160146101000a81548160ff021916908315150217905550611cb081600561252d90919063ffffffff16565b508073ffffffffffffffffffffffffffffffffffffffff167f8bab3a93c9d5adf914f8214378b0762d11930b21014266bf194cf9065863dd6b60035f8473ffffffffffffffffffffffffffffffffffffffff1673ffffffffffffffffffffffffffffffffffffffff1681526020019081526020015f205f01604051611d3591906138b0565b60405180910390a250565b6060611d4c600561255a565b905090565b611d658160056123b190919063ffffffff16565b15611da5576040517f08c379a0000000000000000000000000000000000000000000000000000000008152600401611d9c9061391a565b60405180910390fd5b611dcf7f20c605fd0c297c12fdef1ea05fc5e693eeeda1f5ffb147a823a0db69c8bbea9e336115d3565b80611e6457503373ffffffffffffffffffffffffffffffffffffffff1660035f8373ffffffffffffffffffffffffffffffffffffffff1673ffffffffffffffffffffffffffffffffffffffff1681526020019081526020015f206001015f9054906101000a900473ffffffffffffffffffffffffffffffffffffffff1673ffffffffffffffffffffffffffffffffffffffff16145b611ea3576040517f08c379a0000000000000000000000000000000000000000000000000000000008152600401611e9a9061302c565b60405180910390fd5b600160035f8373ffffffffffffffffffffffffffffffffffffffff1673ffffffffffffffffffffffffffffffffffffffff1681526020019081526020015f2060010160146101000a81548160ff0219169083151502179055504260035f8373ffffffffffffffffffffffffffffffffffffffff1673ffffffffffffffffffffffffffffffffffffffff1681526020019081526020015f2060030181905550611f5581600561242c90919063ffffffff16565b508073ffffffffffffffffffffffffffffffffffffffff167f54bd13bdd67b1af23cc23911a813fc81ea6ca6b8cc35f9ced9333907956aa04960035f8473ffffffffffffffffffffffffffffffffffffffff1673ffffffffffffffffffffffffffffffffffffffff1681526020019081526020015f205f01604051611fda91906138b0565b60405180910390a250565b611fee82610915565b611ff7816121c3565b61200183836122c7565b50505050565b7fe30821bead834b2370918c87c533bd6da6cced701b312fae3688e53125b9f84281565b61203361213c565b5f73ffffffffffffffffffffffffffffffffffffffff168173ffffffffffffffffffffffffffffffffffffffff16036120a3575f6040517f1e4fbdf700000000000000000000000000000000000000000000000000000000815260040161209a9190612dc3565b60405180910390fd5b6120ac81612459565b50565b7f20c605fd0c297c12fdef1ea05fc5e693eeeda1f5ffb147a823a0db69c8bbea9e81565b5f7f01ffc9a7000000000000000000000000000000000000000000000000000000007bffffffffffffffffffffffffffffffffffffffffffffffffffffffff1916827bffffffffffffffffffffffffffffffffffffffffffffffffffffffff1916149050919050565b6121446122c0565b73ffffffffffffffffffffffffffffffffffffffff16612162611577565b73ffffffffffffffffffffffffffffffffffffffff16146121c1576121856122c0565b6040517f118cdaa70000000000000000000000000000000000000000000000000000000081526004016121b89190612dc3565b60405180910390fd5b565b6121d4816121cf6122c0565b612579565b50565b5f6121e283836115d3565b6122b6576001805f8581526020019081526020015f205f015f8473ffffffffffffffffffffffffffffffffffffffff1673ffffffffffffffffffffffffffffffffffffffff1681526020019081526020015f205f6101000a81548160ff0219169083151502179055506122536122c0565b73ffffffffffffffffffffffffffffffffffffffff168273ffffffffffffffffffffffffffffffffffffffff16847f2f8788117e7eff1d82e926ec794901d17c78024a50270940304540a733656f0d60405160405180910390a4600190506122ba565b5f90505b92915050565b5f33905090565b5f6122d283836115d3565b156123a7575f60015f8581526020019081526020015f205f015f8473ffffffffffffffffffffffffffffffffffffffff1673ffffffffffffffffffffffffffffffffffffffff1681526020019081526020015f205f6101000a81548160ff0219169083151502179055506123446122c0565b73ffffffffffffffffffffffffffffffffffffffff168273ffffffffffffffffffffffffffffffffffffffff16847ff6391f5c32d9c69d2a47ea670b442974b53935d1edc7fd64eb21e047a839171b60405160405180910390a4600190506123ab565b5f90505b92915050565b5f6123d6835f018373ffffffffffffffffffffffffffffffffffffffff165f1b6125ca565b905092915050565b6002805403612419576040517f3ee5aeb500000000000000000000000000000000000000000000000000000000815260040160405180910390fd5b60028081905550565b6001600281905550565b5f612451835f018373ffffffffffffffffffffffffffffffffffffffff165f1b6125ea565b905092915050565b5f805f9054906101000a900473ffffffffffffffffffffffffffffffffffffffff169050815f806101000a81548173ffffffffffffffffffffffffffffffffffffffff021916908373ffffffffffffffffffffffffffffffffffffffff1602179055508173ffffffffffffffffffffffffffffffffffffffff168173ffffffffffffffffffffffffffffffffffffffff167f8be0079c531659141344cd1fd0a4f28419497f9722a3daafe3b4186f6b6457e060405160405180910390a35050565b5f612526825f01612651565b9050919050565b5f612552835f018373ffffffffffffffffffffffffffffffffffffffff165f1b612660565b905092915050565b60605f612568835f0161275c565b905060608190508092505050919050565b61258382826115d3565b6125c65780826040517fe2517d3f0000000000000000000000000000000000000000000000000000000081526004016125bd929190613938565b60405180910390fd5b5050565b5f80836001015f8481526020019081526020015f20541415905092915050565b5f6125f583836125ca565b61264757825f0182908060018154018082558091505060019003905f5260205f20015f9091909190915055825f0180549050836001015f8481526020019081526020015f20819055506001905061264b565b5f90505b92915050565b5f815f01805490509050919050565b5f80836001015f8481526020019081526020015f205490505f8114612751575f60018261268d919061398c565b90505f6001865f01805490506126a3919061398c565b9050808214612709575f865f0182815481106126c2576126c1613182565b5b905f5260205f200154905080875f0184815481106126e3576126e2613182565b5b905f5260205f20018190555083876001015f8381526020019081526020015f2081905550505b855f0180548061271c5761271b6139bf565b5b600190038181905f5260205f20015f90559055856001015f8681526020019081526020015f205f905560019350505050612756565b5f9150505b92915050565b6060815f018054806020026020016040519081016040528092919081815260200182805480156127a957602002820191905f5260205f20905b815481526020019060010190808311612795575b50505050509050919050565b5f604051905090565b5f80fd5b5f80fd5b5f7fffffffff0000000000000000000000000000000000000000000000000000000082169050919050565b6127fa816127c6565b8114612804575f80fd5b50565b5f81359050612815816127f1565b92915050565b5f602082840312156128305761282f6127be565b5b5f61283d84828501612807565b91505092915050565b5f8115159050919050565b61285a81612846565b82525050565b5f6020820190506128735f830184612851565b92915050565b5f73ffffffffffffffffffffffffffffffffffffffff82169050919050565b5f6128a282612879565b9050919050565b6128b281612898565b81146128bc575f80fd5b50565b5f813590506128cd816128a9565b92915050565b5f80604083850312156128e9576128e86127be565b5b5f6128f6858286016128bf565b9250506020612907858286016128bf565b9150509250929050565b5f819050919050565b61292381612911565b811461292d575f80fd5b50565b5f8135905061293e8161291a565b92915050565b5f60208284031215612959576129586127be565b5b5f61296684828501612930565b91505092915050565b61297881612911565b82525050565b5f6020820190506129915f83018461296f565b92915050565b5f602082840312156129ac576129ab6127be565b5b5f6129b9848285016128bf565b91505092915050565b5f80604083850312156129d8576129d76127be565b5b5f6129e585828601612930565b92505060206129f6858286016128bf565b9150509250929050565b5f819050919050565b612a1281612a00565b8114612a1c575f80fd5b50565b5f81359050612a2d81612a09565b92915050565b5f8060408385031215612a4957612a486127be565b5b5f612a56858286016128bf565b9250506020612a6785828601612a1f565b9150509250929050565b612a7a81612a00565b82525050565b5f81519050919050565b5f82825260208201905092915050565b5f5b83811015612ab7578082015181840152602081019050612a9c565b5f8484015250505050565b5f601f19601f8301169050919050565b5f612adc82612a80565b612ae68185612a8a565b9350612af6818560208601612a9a565b612aff81612ac2565b840191505092915050565b5f604082019050612b1d5f830185612a71565b8181036020830152612b2f8184612ad2565b90509392505050565b5f805f60608486031215612b4f57612b4e6127be565b5b5f612b5c868287016128bf565b9350506020612b6d868287016128bf565b9250506040612b7e86828701612a1f565b9150509250925092565b612b9181612898565b82525050565b5f60a0820190508181035f830152612baf8188612ad2565b9050612bbe6020830187612b88565b612bcb6040830186612851565b8181036060830152612bdd8185612ad2565b9050612bec6080830184612a71565b9695505050505050565b5f602082019050612c095f830184612a71565b92915050565b5f80fd5b5f80fd5b7f4e487b71000000000000000000000000000000000000000000000000000000005f52604160045260245ffd5b612c4d82612ac2565b810181811067ffffffffffffffff82111715612c6c57612c6b612c17565b5b80604052505050565b5f612c7e6127b5565b9050612c8a8282612c44565b919050565b5f67ffffffffffffffff821115612ca957612ca8612c17565b5b612cb282612ac2565b9050602081019050919050565b828183375f83830152505050565b5f612cdf612cda84612c8f565b612c75565b905082815260208101848484011115612cfb57612cfa612c13565b5b612d06848285612cbf565b509392505050565b5f82601f830112612d2257612d21612c0f565b5b8135612d32848260208601612ccd565b91505092915050565b5f805f60608486031215612d5257612d516127be565b5b5f612d5f868287016128bf565b935050602084013567ffffffffffffffff811115612d8057612d7f6127c2565b5b612d8c86828701612d0e565b925050604084013567ffffffffffffffff811115612dad57612dac6127c2565b5b612db986828701612d0e565b9150509250925092565b5f602082019050612dd65f830184612b88565b92915050565b5f60208284031215612df157612df06127be565b5b5f82013567ffffffffffffffff811115612e0e57612e0d6127c2565b5b612e1a84828501612d0e565b91505092915050565b5f8060408385031215612e3957612e386127be565b5b5f612e46858286016128bf565b925050602083013567ffffffffffffffff811115612e6757612e666127c2565b5b612e7385828601612d0e565b9150509250929050565b5f81519050919050565b5f82825260208201905092915050565b5f819050602082019050919050565b612eaf81612898565b82525050565b5f612ec08383612ea6565b60208301905092915050565b5f602082019050919050565b5f612ee282612e7d565b612eec8185612e87565b9350612ef783612e97565b805f5b83811015612f27578151612f0e8882612eb5565b9750612f1983612ecc565b925050600181019050612efa565b5085935050505092915050565b5f6020820190508181035f830152612f4c8184612ed8565b905092915050565b7f446576696365206973206e6f74206163746976650000000000000000000000005f82015250565b5f612f88601483612a8a565b9150612f9382612f54565b602082019050919050565b5f6020820190508181035f830152612fb581612f7c565b9050919050565b7f43616c6c6572206973206e6f7420646576696365206f776e6572206f72206d615f8201527f6e61676572000000000000000000000000000000000000000000000000000000602082015250565b5f613016602583612a8a565b915061302182612fbc565b604082019050919050565b5f6020820190508181035f8301526130438161300a565b9050919050565b7f4e6577206f776e65722063616e6e6f74206265207a65726f20616464726573735f82015250565b5f61307e602083612a8a565b91506130898261304a565b602082019050919050565b5f6020820190508181035f8301526130ab81613072565b9050919050565b7f446576696365206e6f74207265676973746572656400000000000000000000005f82015250565b5f6130e6601583612a8a565b91506130f1826130b2565b602082019050919050565b5f6020820190508181035f830152613113816130da565b9050919050565b7f496e76616c6964206461746120696e64657800000000000000000000000000005f82015250565b5f61314e601283612a8a565b91506131598261311a565b602082019050919050565b5f6020820190508181035f83015261317b81613142565b9050919050565b7f4e487b71000000000000000000000000000000000000000000000000000000005f52603260045260245ffd5b7f4e487b71000000000000000000000000000000000000000000000000000000005f52602260045260245ffd5b5f60028204905060018216806131f357607f821691505b602082108103613206576132056131af565b5b50919050565b7f546f6b656e20616464726573732063616e6e6f74206265207a65726f000000005f82015250565b5f613240601c83612a8a565b915061324b8261320c565b602082019050919050565b5f6020820190508181035f83015261326d81613234565b9050919050565b7f526563697069656e7420616464726573732063616e6e6f74206265207a65726f5f82015250565b5f6132a8602083612a8a565b91506132b382613274565b602082019050919050565b5f6020820190508181035f8301526132d58161329c565b9050919050565b7f416d6f756e74206d7573742062652067726561746572207468616e207a65726f5f82015250565b5f613310602083612a8a565b915061331b826132dc565b602082019050919050565b5f6020820190508181035f83015261333d81613304565b9050919050565b5f6040820190506133575f830185612b88565b6133646020830184612a71565b9392505050565b61337481612846565b811461337e575f80fd5b50565b5f8151905061338f8161336b565b92915050565b5f602082840312156133aa576133a96127be565b5b5f6133b784828501613381565b91505092915050565b7f44657669636520616c72656164792072656769737465726564000000000000005f82015250565b5f6133f4601983612a8a565b91506133ff826133c0565b602082019050919050565b5f6020820190508181035f830152613421816133e8565b9050919050565b7f4465766963652049442063616e6e6f7420626520656d707479000000000000005f82015250565b5f61345c601983612a8a565b915061346782613428565b602082019050919050565b5f6020820190508181035f83015261348981613450565b9050919050565b7f4d65746164617461205552492063616e6e6f7420626520656d707479000000005f82015250565b5f6134c4601c83612a8a565b91506134cf82613490565b602082019050919050565b5f6020820190508181035f8301526134f1816134b8565b9050919050565b5f819050815f5260205f209050919050565b5f6020601f8301049050919050565b5f82821b905092915050565b5f600883026135547fffffffffffffffffffffffffffffffffffffffffffffffffffffffffffffffff82613519565b61355e8683613519565b95508019841693508086168417925050509392505050565b5f819050919050565b5f61359961359461358f84612a00565b613576565b612a00565b9050919050565b5f819050919050565b6135b28361357f565b6135c66135be826135a0565b848454613525565b825550505050565b5f90565b6135da6135ce565b6135e58184846135a9565b505050565b5b81811015613608576135fd5f826135d2565b6001810190506135eb565b5050565b601f82111561364d5761361e816134f8565b6136278461350a565b81016020851015613636578190505b61364a6136428561350a565b8301826135ea565b50505b505050565b5f82821c905092915050565b5f61366d5f1984600802613652565b1980831691505092915050565b5f613685838361365e565b9150826002028217905092915050565b61369e82612a80565b67ffffffffffffffff8111156136b7576136b6612c17565b5b6136c182546131dc565b6136cc82828561360c565b5f60209050601f8311600181146136fd575f84156136eb578287015190505b6136f5858261367a565b86555061375c565b601f19841661370b866134f8565b5f5b828110156137325784890151825560018201915060208501945060208101905061370d565b8683101561374f578489015161374b601f89168261365e565b8355505b6001600288020188555050505b505050505050565b5f6040820190508181035f83015261377c8185612ad2565b905081810360208301526137908184612ad2565b90509392505050565b7f4461746120686173682063616e6e6f7420626520656d707479000000000000005f82015250565b5f6137cd601983612a8a565b91506137d882613799565b602082019050919050565b5f6020820190508181035f8301526137fa816137c1565b9050919050565b5f6040820190508181035f8301526138198185612ad2565b90506138286020830184612a71565b9392505050565b5f815461383b816131dc565b6138458186612a8a565b9450600182165f811461385f5760018114613875576138a7565b60ff1983168652811515602002860193506138a7565b61387e856134f8565b5f5b8381101561389f57815481890152600182019150602081019050613880565b808801955050505b50505092915050565b5f6020820190508181035f8301526138c8818461382f565b905092915050565b7f44657669636520697320616c72656164792061637469766500000000000000005f82015250565b5f613904601883612a8a565b915061390f826138d0565b602082019050919050565b5f6020820190508181035f830152613931816138f8565b9050919050565b5f60408201905061394b5f830185612b88565b613958602083018461296f565b9392505050565b7f4e487b71000000000000000000000000000000000000000000000000000000005f52601160045260245ffd5b5f61399682612a00565b91506139a183612a00565b92508282039050818111156139b9576139b861395f565b5b92915050565b7f4e487b71000000000000000000000000000000000000000000000000000000005f52603160045260245ffdfea264697066735822122007c1d2248c4f46fc38b052992b75f983a2278b8c3a2ad6ea9c1e09d48da6ae5f64736f6c63430008140033",
  "immutableReferences": {},
  "source": "// SPDX-License-Identifier: MIT\npragma solidity ^0.8.20;\n\nimport \"@openzeppelin/contracts/access/Ownable.sol\";\nimport \"@openzeppelin/contracts/access/AccessControl.sol\";\nimport \"@openzeppelin/contracts/utils/structs/EnumerableSet.sol\";\nimport \"@openzeppelin/contracts/token/ERC20/IERC20.sol\";\nimport \"@openzeppelin/contracts/utils/ReentrancyGuard.sol\";\n\ncontract IoTDeviceManager is Ownable, AccessControl, ReentrancyGuard {\n    using EnumerableSet for EnumerableSet.AddressSet;\n\n    // Define role identifiers\n    bytes32 public constant DEVICE_MANAGER_ROLE = keccak256(\"DEVICE_MANAGER_ROLE\");\n    bytes32 public constant DATA_CONSUMER_ROLE = keccak256(\"DATA_CONSUMER_ROLE\");\n\n    struct Device {\n        string deviceId;\n        address owner;\n        bool active;\n        string metadataURI;\n        uint256 lastDataTimestamp;\n    }\n\n    struct DataPoint {\n        uint256 timestamp;\n        string dataHash;\n    }\n\n    mapping(address => Device) private devices;\n    mapping(address => DataPoint[]) private deviceData;\n    EnumerableSet.AddressSet private registeredDevices;\n\n    event DeviceRegistered(address indexed deviceAddress, string deviceId, string metadataURI);\n    event DeviceDeactivated(address indexed deviceAddress, string deviceId);\n    event DeviceReactivated(address indexed deviceAddress, string deviceId);\n    event DataSubmitted(address indexed deviceAddress, string dataHash, uint256 timestamp);\n    event DeviceOwnershipTransferred(address indexed deviceAddress, address indexed newOwner);\n\n    modifier onlyActiveDevice(address _deviceAddress) {\n        require(devices[_deviceAddress].active, \"Device is not active\");\n        _;\n    }\n\n    modifier onlyDeviceOwnerOrManager(address _deviceAddress) {\n        require(\n            hasRole(DEVICE_MANAGER_ROLE, msg.sender) || devices[_deviceAddress].owner == msg.sender,\n            \"Caller is not device owner or manager\"\n        );\n        _;\n    }\n\n    constructor(address initialOwner) Ownable(initialOwner) {\n        // Grant roles to the initial owner\n        _grantRole(DEFAULT_ADMIN_ROLE, initialOwner);\n        _grantRole(DEVICE_MANAGER_ROLE, initialOwner);\n        _grantRole(DATA_CONSUMER_ROLE, initialOwner);\n    }\n\n    // Function to register a new device\n    function registerDevice(\n        address _deviceAddress,\n        string memory _deviceId,\n        string memory _metadataURI\n    ) external onlyRole(DEVICE_MANAGER_ROLE) {\n        require(!registeredDevices.contains(_deviceAddress), \"Device already registered\");\n        require(bytes(_deviceId).length > 0, \"Device ID cannot be empty\");\n        require(bytes(_metadataURI).length > 0, \"Metadata URI cannot be empty\");\n        \n        devices[_deviceAddress] = Device({\n            deviceId: _deviceId,\n            owner: _deviceAddress,\n            active: true,\n            metadataURI: _metadataURI,\n            lastDataTimestamp: block.timestamp\n        });\n\n        registeredDevices.add(_deviceAddress);\n        emit DeviceRegistered(_deviceAddress, _deviceId, _metadataURI);\n    }\n\n    // Function to deactivate a device\n    function deactivateDevice(address _deviceAddress) external {\n        require(registeredDevices.contains(_deviceAddress), \"Device not registered\");\n        require(\n            hasRole(DEVICE_MANAGER_ROLE, msg.sender) || devices[_deviceAddress].owner == msg.sender,\n            \"Caller is not device owner or manager\"\n        );\n\n        devices[_deviceAddress].active = false;\n        registeredDevices.remove(_deviceAddress);\n\n        emit DeviceDeactivated(_deviceAddress, devices[_deviceAddress].deviceId);\n    }\n\n    // Function to reactivate a device\n    function reactivateDevice(address _deviceAddress) external {\n        require(!registeredDevices.contains(_deviceAddress), \"Device is already active\");\n        require(\n            hasRole(DEVICE_MANAGER_ROLE, msg.sender) || devices[_deviceAddress].owner == msg.sender,\n            \"Caller is not device owner or manager\"\n        );\n\n        devices[_deviceAddress].active = true;\n        devices[_deviceAddress].lastDataTimestamp = block.timestamp;\n        registeredDevices.add(_deviceAddress);\n\n        emit DeviceReactivated(_deviceAddress, devices[_deviceAddress].deviceId);\n    }\n\n    // Function for devices to submit data\n    function submitData(string memory _dataHash) external onlyActiveDevice(msg.sender) {\n        require(bytes(_dataHash).length > 0, \"Data hash cannot be empty\");\n\n        DataPoint memory newDataPoint = DataPoint({\n            timestamp: block.timestamp,\n            dataHash: _dataHash\n        });\n\n        deviceData[msg.sender].push(newDataPoint);\n        devices[msg.sender].lastDataTimestamp = block.timestamp;\n\n        emit DataSubmitted(msg.sender, _dataHash, block.timestamp);\n    }\n\n    // Function for data consumers to get device data\n    function getDeviceData(address _deviceAddress, uint256 _index)\n        external\n        view\n        onlyRole(DATA_CONSUMER_ROLE)\n        returns (uint256, string memory)\n    {\n        require(registeredDevices.contains(_deviceAddress), \"Device not registered\");\n        require(_index < deviceData[_deviceAddress].length, \"Invalid data index\");\n\n        DataPoint memory dataPoint = deviceData[_deviceAddress][_index];\n        return (dataPoint.timestamp, dataPoint.dataHash);\n    }\n\n    // Function to get the number of data points for a device\n    function getDeviceDataLength(address _deviceAddress)\n        external\n        view\n        onlyRole(DATA_CONSUMER_ROLE)\n        returns (uint256)\n    {\n        require(registeredDevices.contains(_deviceAddress), \"Device not registered\");\n        return deviceData[_deviceAddress].length;\n    }\n\n    // Function to get device details\n    function getDeviceDetails(address _deviceAddress)\n        external\n        view\n        returns (string memory, address, bool, string memory, uint256)\n    {\n        require(devices[_deviceAddress].owner != address(0), \"Device not registered\");\n\n        Device memory device = devices[_deviceAddress];\n        return (\n            device.deviceId,\n            device.owner,\n            device.active,\n            device.metadataURI,\n            device.lastDataTimestamp\n        );\n    }\n\n    // Function to update device metadata\n    function updateDeviceMetadata(address _deviceAddress, string memory _metadataURI)\n        external\n        onlyActiveDevice(_deviceAddress)\n        onlyDeviceOwnerOrManager(_deviceAddress)\n    {\n        require(bytes(_metadataURI).length > 0, \"Metadata URI cannot be empty\");\n\n        devices[_deviceAddress].metadataURI = _metadataURI;\n    }\n\n    // Function to transfer device ownership\n    function transferDeviceOwnership(address _deviceAddress, address _newOwner)\n        external\n        onlyActiveDevice(_deviceAddress)\n        onlyDeviceOwnerOrManager(_deviceAddress)\n    {\n        require(_newOwner != address(0), \"New owner cannot be zero address\");\n\n        devices[_deviceAddress].owner = _newOwner;\n        emit DeviceOwnershipTransferred(_deviceAddress, _newOwner);\n    }\n\n    // Function to get all registered devices\n    function getRegisteredDevices() external view returns (address[] memory) {\n        return registeredDevices.values();\n    }\n\n    // Function to get the total number of registered devices\n    function totalRegisteredDevices() external view returns (uint256) {\n        return registeredDevices.length();\n    }\n\n    // Function to check if a device is active\n    function isDeviceActive(address _deviceAddress) external view returns (bool) {\n        return devices[_deviceAddress].active;\n    }\n\n    // Function to get the last data submission timestamp for a device\n    function getLastDataTimestamp(address _deviceAddress) external view returns (uint256) {\n        require(devices[_deviceAddress].owner != address(0), \"Device not registered\");\n        return devices[_deviceAddress].lastDataTimestamp;\n    }\n\n    // Function to withdraw tokens (onlyOwner)\n    function withdrawTokens(address _token, address _to, uint256 _amount) external onlyOwner nonReentrant {\n        require(_token != address(0), \"Token address cannot be zero\");\n        require(_to != address(0), \"Recipient address cannot be zero\");\n        require(_amount > 0, \"Amount must be greater than zero\");\n        IERC20(_token).transfer(_to, _amount);\n    }\n\n    // Function to grant DEVICE_MANAGER_ROLE to an account\n    function grantManagerRole(address _account) external onlyOwner {\n        grantRole(DEVICE_MANAGER_ROLE, _account);\n    }\n\n    // Function to revoke DEVICE_MANAGER_ROLE from an account\n    function revokeManagerRole(address _account) external onlyOwner {\n        revokeRole(DEVICE_MANAGER_ROLE, _account);\n    }\n\n    // Function to grant DATA_CONSUMER_ROLE to an account\n    function grantDataConsumerRole(address _account) external onlyOwner {\n        grantRole(DATA_CONSUMER_ROLE, _account);\n    }\n\n    // Function to revoke DATA_CONSUMER_ROLE from an account\n    function revokeDataConsumerRole(address _account) external onlyOwner {\n        revokeRole(DATA_CONSUMER_ROLE, _account);\n    }\n}",
  "sourcePath": "/Users/elvin3block/Documents/Evire-DePIN-Framework/contracts/IoTDeviceManager.sol",
  "compiler": {
    "name": "solc",
    "version": "0.8.20+commit.a1b79de6.Emscripten.clang"
  },
  "schemaVersion": "3.4.16",
  "updatedAt": "2024-11-07T15:02:22.456Z",
  "devdoc": {
    "errors": {
      "AccessControlBadConfirmation()": [
        {
          "details": "The caller of a function is not the expected one. NOTE: Don't confuse with {AccessControlUnauthorizedAccount}."
        }
      ],
      "AccessControlUnauthorizedAccount(address,bytes32)": [
        {
          "details": "The `account` is missing a role."
        }
      ],
      "OwnableInvalidOwner(address)": [
        {
          "details": "The owner is not a valid owner account. (eg. `address(0)`)"
        }
      ],
      "OwnableUnauthorizedAccount(address)": [
        {
          "details": "The caller account is not authorized to perform an operation."
        }
      ],
      "ReentrancyGuardReentrantCall()": [
        {
          "details": "Unauthorized reentrant call."
        }
      ]
    },
    "events": {
      "RoleAdminChanged(bytes32,bytes32,bytes32)": {
        "details": "Emitted when `newAdminRole` is set as ``role``'s admin role, replacing `previousAdminRole` `DEFAULT_ADMIN_ROLE` is the starting admin for all roles, despite {RoleAdminChanged} not being emitted signaling this."
      },
      "RoleGranted(bytes32,address,address)": {
        "details": "Emitted when `account` is granted `role`. `sender` is the account that originated the contract call. This account bears the admin role (for the granted role). Expected in cases where the role was granted using the internal {AccessControl-_grantRole}."
      },
      "RoleRevoked(bytes32,address,address)": {
        "details": "Emitted when `account` is revoked `role`. `sender` is the account that originated the contract call:   - if using `revokeRole`, it is the admin role bearer   - if using `renounceRole`, it is the role bearer (i.e. `account`)"
      }
    },
    "kind": "dev",
    "methods": {
      "getRoleAdmin(bytes32)": {
        "details": "Returns the admin role that controls `role`. See {grantRole} and {revokeRole}. To change a role's admin, use {_setRoleAdmin}."
      },
      "grantRole(bytes32,address)": {
        "details": "Grants `role` to `account`. If `account` had not been already granted `role`, emits a {RoleGranted} event. Requirements: - the caller must have ``role``'s admin role. May emit a {RoleGranted} event."
      },
      "hasRole(bytes32,address)": {
        "details": "Returns `true` if `account` has been granted `role`."
      },
      "owner()": {
        "details": "Returns the address of the current owner."
      },
      "renounceOwnership()": {
        "details": "Leaves the contract without owner. It will not be possible to call `onlyOwner` functions. Can only be called by the current owner. NOTE: Renouncing ownership will leave the contract without an owner, thereby disabling any functionality that is only available to the owner."
      },
      "renounceRole(bytes32,address)": {
        "details": "Revokes `role` from the calling account. Roles are often managed via {grantRole} and {revokeRole}: this function's purpose is to provide a mechanism for accounts to lose their privileges if they are compromised (such as when a trusted device is misplaced). If the calling account had been revoked `role`, emits a {RoleRevoked} event. Requirements: - the caller must be `callerConfirmation`. May emit a {RoleRevoked} event."
      },
      "revokeRole(bytes32,address)": {
        "details": "Revokes `role` from `account`. If `account` had been granted `role`, emits a {RoleRevoked} event. Requirements: - the caller must have ``role``'s admin role. May emit a {RoleRevoked} event."
      },
      "supportsInterface(bytes4)": {
        "details": "See {IERC165-supportsInterface}."
      },
      "transferOwnership(address)": {
        "details": "Transfers ownership of the contract to a new account (`newOwner`). Can only be called by the current owner."
      }
    },
    "version": 1
  },
  "userdoc": {
    "kind": "user",
    "methods": {},
    "version": 1
  }
}