{
  "contractName": "IoTDeviceManager",
  "abi": [
    {
      "inputs": [],
      "stateMutability": "nonpayable",
      "type": "constructor"
    },
    {
      "anonymous": false,
      "inputs": [
        {
          "indexed": true,
          "internalType": "address",
          "name": "deviceAddress",
          "type": "address"
        },
        {
          "indexed": false,
          "internalType": "string",
          "name": "dataHash",
          "type": "string"
        },
        {
          "indexed": false,
          "internalType": "uint256",
          "name": "timestamp",
          "type": "uint256"
        }
      ],
      "name": "DataSubmitted",
      "type": "event"
    },
    {
      "anonymous": false,
      "inputs": [
        {
          "indexed": true,
          "internalType": "address",
          "name": "deviceAddress",
          "type": "address"
        },
        {
          "indexed": false,
          "internalType": "string",
          "name": "deviceId",
          "type": "string"
        }
      ],
      "name": "DeviceDeactivated",
      "type": "event"
    },
    {
      "anonymous": false,
      "inputs": [
        {
          "indexed": true,
          "internalType": "address",
          "name": "deviceAddress",
          "type": "address"
        },
        {
          "indexed": true,
          "internalType": "address",
          "name": "newOwner",
          "type": "address"
        }
      ],
      "name": "DeviceOwnershipTransferred",
      "type": "event"
    },
    {
      "anonymous": false,
      "inputs": [
        {
          "indexed": true,
          "internalType": "address",
          "name": "deviceAddress",
          "type": "address"
        },
        {
          "indexed": false,
          "internalType": "string",
          "name": "deviceId",
          "type": "string"
        }
      ],
      "name": "DeviceReactivated",
      "type": "event"
    },
    {
      "anonymous": false,
      "inputs": [
        {
          "indexed": true,
          "internalType": "address",
          "name": "deviceAddress",
          "type": "address"
        },
        {
          "indexed": false,
          "internalType": "string",
          "name": "deviceId",
          "type": "string"
        },
        {
          "indexed": false,
          "internalType": "string",
          "name": "metadataURI",
          "type": "string"
        }
      ],
      "name": "DeviceRegistered",
      "type": "event"
    },
    {
      "anonymous": false,
      "inputs": [
        {
          "indexed": true,
          "internalType": "address",
          "name": "previousOwner",
          "type": "address"
        },
        {
          "indexed": true,
          "internalType": "address",
          "name": "newOwner",
          "type": "address"
        }
      ],
      "name": "OwnershipTransferred",
      "type": "event"
    },
    {
      "anonymous": false,
      "inputs": [
        {
          "indexed": true,
          "internalType": "bytes32",
          "name": "role",
          "type": "bytes32"
        },
        {
          "indexed": true,
          "internalType": "bytes32",
          "name": "previousAdminRole",
          "type": "bytes32"
        },
        {
          "indexed": true,
          "internalType": "bytes32",
          "name": "newAdminRole",
          "type": "bytes32"
        }
      ],
      "name": "RoleAdminChanged",
      "type": "event"
    },
    {
      "anonymous": false,
      "inputs": [
        {
          "indexed": true,
          "internalType": "bytes32",
          "name": "role",
          "type": "bytes32"
        },
        {
          "indexed": true,
          "internalType": "address",
          "name": "account",
          "type": "address"
        },
        {
          "indexed": true,
          "internalType": "address",
          "name": "sender",
          "type": "address"
        }
      ],
      "name": "RoleGranted",
      "type": "event"
    },
    {
      "anonymous": false,
      "inputs": [
        {
          "indexed": true,
          "internalType": "bytes32",
          "name": "role",
          "type": "bytes32"
        },
        {
          "indexed": true,
          "internalType": "address",
          "name": "account",
          "type": "address"
        },
        {
          "indexed": true,
          "internalType": "address",
          "name": "sender",
          "type": "address"
        }
      ],
      "name": "RoleRevoked",
      "type": "event"
    },
    {
      "inputs": [],
      "name": "DATA_CONSUMER_ROLE",
      "outputs": [
        {
          "internalType": "bytes32",
          "name": "",
          "type": "bytes32"
        }
      ],
      "stateMutability": "view",
      "type": "function"
    },
    {
      "inputs": [],
      "name": "DEFAULT_ADMIN_ROLE",
      "outputs": [
        {
          "internalType": "bytes32",
          "name": "",
          "type": "bytes32"
        }
      ],
      "stateMutability": "view",
      "type": "function"
    },
    {
      "inputs": [],
      "name": "DEVICE_MANAGER_ROLE",
      "outputs": [
        {
          "internalType": "bytes32",
          "name": "",
          "type": "bytes32"
        }
      ],
      "stateMutability": "view",
      "type": "function"
    },
    {
      "inputs": [
        {
          "internalType": "bytes32",
          "name": "role",
          "type": "bytes32"
        }
      ],
      "name": "getRoleAdmin",
      "outputs": [
        {
          "internalType": "bytes32",
          "name": "",
          "type": "bytes32"
        }
      ],
      "stateMutability": "view",
      "type": "function"
    },
    {
      "inputs": [
        {
          "internalType": "bytes32",
          "name": "role",
          "type": "bytes32"
        },
        {
          "internalType": "address",
          "name": "account",
          "type": "address"
        }
      ],
      "name": "grantRole",
      "outputs": [],
      "stateMutability": "nonpayable",
      "type": "function"
    },
    {
      "inputs": [
        {
          "internalType": "bytes32",
          "name": "role",
          "type": "bytes32"
        },
        {
          "internalType": "address",
          "name": "account",
          "type": "address"
        }
      ],
      "name": "hasRole",
      "outputs": [
        {
          "internalType": "bool",
          "name": "",
          "type": "bool"
        }
      ],
      "stateMutability": "view",
      "type": "function"
    },
    {
      "inputs": [],
      "name": "owner",
      "outputs": [
        {
          "internalType": "address",
          "name": "",
          "type": "address"
        }
      ],
      "stateMutability": "view",
      "type": "function"
    },
    {
      "inputs": [],
      "name": "renounceOwnership",
      "outputs": [],
      "stateMutability": "nonpayable",
      "type": "function"
    },
    {
      "inputs": [
        {
          "internalType": "bytes32",
          "name": "role",
          "type": "bytes32"
        },
        {
          "internalType": "address",
          "name": "account",
          "type": "address"
        }
      ],
      "name": "renounceRole",
      "outputs": [],
      "stateMutability": "nonpayable",
      "type": "function"
    },
    {
      "inputs": [
        {
          "internalType": "bytes32",
          "name": "role",
          "type": "bytes32"
        },
        {
          "internalType": "address",
          "name": "account",
          "type": "address"
        }
      ],
      "name": "revokeRole",
      "outputs": [],
      "stateMutability": "nonpayable",
      "type": "function"
    },
    {
      "inputs": [
        {
          "internalType": "bytes4",
          "name": "interfaceId",
          "type": "bytes4"
        }
      ],
      "name": "supportsInterface",
      "outputs": [
        {
          "internalType": "bool",
          "name": "",
          "type": "bool"
        }
      ],
      "stateMutability": "view",
      "type": "function"
    },
    {
      "inputs": [
        {
          "internalType": "address",
          "name": "newOwner",
          "type": "address"
        }
      ],
      "name": "transferOwnership",
      "outputs": [],
      "stateMutability": "nonpayable",
      "type": "function"
    },
    {
      "inputs": [
        {
          "internalType": "address",
          "name": "_deviceAddress",
          "type": "address"
        },
        {
          "internalType": "string",
          "name": "_deviceId",
          "type": "string"
        },
        {
          "internalType": "string",
          "name": "_metadataURI",
          "type": "string"
        }
      ],
      "name": "registerDevice",
      "outputs": [],
      "stateMutability": "nonpayable",
      "type": "function"
    },
    {
      "inputs": [
        {
          "internalType": "address",
          "name": "_deviceAddress",
          "type": "address"
        }
      ],
      "name": "deactivateDevice",
      "outputs": [],
      "stateMutability": "nonpayable",
      "type": "function"
    },
    {
      "inputs": [
        {
          "internalType": "address",
          "name": "_deviceAddress",
          "type": "address"
        }
      ],
      "name": "reactivateDevice",
      "outputs": [],
      "stateMutability": "nonpayable",
      "type": "function"
    },
    {
      "inputs": [
        {
          "internalType": "string",
          "name": "_dataHash",
          "type": "string"
        }
      ],
      "name": "submitData",
      "outputs": [],
      "stateMutability": "nonpayable",
      "type": "function"
    },
    {
      "inputs": [
        {
          "internalType": "address",
          "name": "_deviceAddress",
          "type": "address"
        },
        {
          "internalType": "uint256",
          "name": "_index",
          "type": "uint256"
        }
      ],
      "name": "getDeviceData",
      "outputs": [
        {
          "internalType": "uint256",
          "name": "",
          "type": "uint256"
        },
        {
          "internalType": "string",
          "name": "",
          "type": "string"
        }
      ],
      "stateMutability": "view",
      "type": "function"
    },
    {
      "inputs": [
        {
          "internalType": "address",
          "name": "_deviceAddress",
          "type": "address"
        }
      ],
      "name": "getDeviceDataLength",
      "outputs": [
        {
          "internalType": "uint256",
          "name": "",
          "type": "uint256"
        }
      ],
      "stateMutability": "view",
      "type": "function"
    },
    {
      "inputs": [
        {
          "internalType": "address",
          "name": "_deviceAddress",
          "type": "address"
        }
      ],
      "name": "getDeviceDetails",
      "outputs": [
        {
          "internalType": "string",
          "name": "",
          "type": "string"
        },
        {
          "internalType": "address",
          "name": "",
          "type": "address"
        },
        {
          "internalType": "bool",
          "name": "",
          "type": "bool"
        },
        {
          "internalType": "string",
          "name": "",
          "type": "string"
        },
        {
          "internalType": "uint256",
          "name": "",
          "type": "uint256"
        }
      ],
      "stateMutability": "view",
      "type": "function"
    },
    {
      "inputs": [
        {
          "internalType": "address",
          "name": "_deviceAddress",
          "type": "address"
        },
        {
          "internalType": "string",
          "name": "_metadataURI",
          "type": "string"
        }
      ],
      "name": "updateDeviceMetadata",
      "outputs": [],
      "stateMutability": "nonpayable",
      "type": "function"
    },
    {
      "inputs": [
        {
          "internalType": "address",
          "name": "_deviceAddress",
          "type": "address"
        },
        {
          "internalType": "address",
          "name": "_newOwner",
          "type": "address"
        }
      ],
      "name": "transferDeviceOwnership",
      "outputs": [],
      "stateMutability": "nonpayable",
      "type": "function"
    },
    {
      "inputs": [],
      "name": "getRegisteredDevices",
      "outputs": [
        {
          "internalType": "address[]",
          "name": "",
          "type": "address[]"
        }
      ],
      "stateMutability": "view",
      "type": "function"
    },
    {
      "inputs": [],
      "name": "totalRegisteredDevices",
      "outputs": [
        {
          "internalType": "uint256",
          "name": "",
          "type": "uint256"
        }
      ],
      "stateMutability": "view",
      "type": "function"
    },
    {
      "inputs": [
        {
          "internalType": "address",
          "name": "_deviceAddress",
          "type": "address"
        }
      ],
      "name": "isDeviceActive",
      "outputs": [
        {
          "internalType": "bool",
          "name": "",
          "type": "bool"
        }
      ],
      "stateMutability": "view",
      "type": "function"
    },
    {
      "inputs": [
        {
          "internalType": "address",
          "name": "_deviceAddress",
          "type": "address"
        }
      ],
      "name": "getLastDataTimestamp",
      "outputs": [
        {
          "internalType": "uint256",
          "name": "",
          "type": "uint256"
        }
      ],
      "stateMutability": "view",
      "type": "function"
    },
    {
      "inputs": [
        {
          "internalType": "address",
          "name": "_token",
          "type": "address"
        },
        {
          "internalType": "address",
          "name": "_to",
          "type": "address"
        },
        {
          "internalType": "uint256",
          "name": "_amount",
          "type": "uint256"
        }
      ],
      "name": "withdrawTokens",
      "outputs": [],
      "stateMutability": "nonpayable",
      "type": "function"
    },
    {
      "inputs": [
        {
          "internalType": "address",
          "name": "_account",
          "type": "address"
        }
      ],
      "name": "grantManagerRole",
      "outputs": [],
      "stateMutability": "nonpayable",
      "type": "function"
    },
    {
      "inputs": [
        {
          "internalType": "address",
          "name": "_account",
          "type": "address"
        }
      ],
      "name": "revokeManagerRole",
      "outputs": [],
      "stateMutability": "nonpayable",
      "type": "function"
    },
    {
      "inputs": [
        {
          "internalType": "address",
          "name": "_account",
          "type": "address"
        }
      ],
      "name": "grantDataConsumerRole",
      "outputs": [],
      "stateMutability": "nonpayable",
      "type": "function"
    },
    {
      "inputs": [
        {
          "internalType": "address",
          "name": "_account",
          "type": "address"
        }
      ],
      "name": "revokeDataConsumerRole",
      "outputs": [],
      "stateMutability": "nonpayable",
      "type": "function"
    }
  ],
  "bytecode": "0x60806040523480156200001157600080fd5b506200003262000026620000b960201b60201c565b620000c160201b60201c565b60016002819055506200004f6000801b336200018560201b60201c565b620000817f20c605fd0c297c12fdef1ea05fc5e693eeeda1f5ffb147a823a0db69c8bbea9e336200018560201b60201c565b620000b37fe30821bead834b2370918c87c533bd6da6cced701b312fae3688e53125b9f842336200018560201b60201c565b620002f7565b600033905090565b60008060009054906101000a900473ffffffffffffffffffffffffffffffffffffffff169050816000806101000a81548173ffffffffffffffffffffffffffffffffffffffff021916908373ffffffffffffffffffffffffffffffffffffffff1602179055508173ffffffffffffffffffffffffffffffffffffffff168173ffffffffffffffffffffffffffffffffffffffff167f8be0079c531659141344cd1fd0a4f28419497f9722a3daafe3b4186f6b6457e060405160405180910390a35050565b6200019782826200019b60201b60201c565b5050565b620001ad82826200028c60201b60201c565b6200028857600180600084815260200190815260200160002060000160008373ffffffffffffffffffffffffffffffffffffffff1673ffffffffffffffffffffffffffffffffffffffff16815260200190815260200160002060006101000a81548160ff0219169083151502179055506200022d620000b960201b60201c565b73ffffffffffffffffffffffffffffffffffffffff168173ffffffffffffffffffffffffffffffffffffffff16837f2f8788117e7eff1d82e926ec794901d17c78024a50270940304540a733656f0d60405160405180910390a45b5050565b60006001600084815260200190815260200160002060000160008373ffffffffffffffffffffffffffffffffffffffff1673ffffffffffffffffffffffffffffffffffffffff16815260200190815260200160002060009054906101000a900460ff16905092915050565b61412680620003076000396000f3fe608060405234801561001057600080fd5b50600436106101da5760003560e01c80638da5cb5b11610104578063be4dc94f116100a2578063d547741f11610071578063d547741f14610552578063ee80d0631461056e578063f2fde38b1461058c578063ff091fda146105a8576101da565b8063be4dc94f146104e0578063cf65952c146104fc578063d147f95c14610518578063d425b84914610536576101da565b80639b57a128116100de5780639b57a1281461045a578063a217fddf1461048a578063a2aac7ab146104a8578063bc6d7298146104c4576101da565b80638da5cb5b146103f05780638ed9f2e51461040e57806391d148541461042a576101da565b80635e35359e1161017c578063715018a61161014b578063715018a61461037c57806375ffeb8b146103865780637a9e784a146103b657806383954288146103d2576101da565b80635e35359e146102e057806367bdd192146102fc578063682715f1146103305780636f6dfeb014610360576101da565b806326e885e3116101b857806326e885e31461025b5780632f2ff15d1461027757806336568abe1461029357806352216d21146102af576101da565b806301ffc9a7146101df578063239407101461020f578063248a9ca31461022b575b600080fd5b6101f960048036038101906101f49190612a6b565b6105c6565b6040516102069190612ab3565b60405180910390f35b61022960048036038101906102249190612b2c565b610640565b005b61024560048036038101906102409190612ba2565b610922565b6040516102529190612bde565b60405180910390f35b61027560048036038101906102709190612bf9565b610942565b005b610291600480360381019061028c9190612c26565b610977565b005b6102ad60048036038101906102a89190612c26565b610998565b005b6102c960048036038101906102c49190612c9c565b610a1b565b6040516102d7929190612d7b565b60405180910390f35b6102fa60048036038101906102f59190612dab565b610c41565b005b61031660048036038101906103119190612bf9565b610dfe565b604051610327959493929190612e0d565b60405180910390f35b61034a60048036038101906103459190612bf9565b611074565b6040516103579190612e6e565b60405180910390f35b61037a60048036038101906103759190612fbe565b611113565b005b6103846113a3565b005b6103a0600480360381019061039b9190612bf9565b6113b7565b6040516103ad9190612e6e565b60405180910390f35b6103d060048036038101906103cb9190612bf9565b611481565b005b6103da6114b6565b6040516103e79190612e6e565b60405180910390f35b6103f86114c7565b6040516104059190613049565b60405180910390f35b61042860048036038101906104239190612bf9565b6114f0565b005b610444600480360381019061043f9190612c26565b611525565b6040516104519190612ab3565b60405180910390f35b610474600480360381019061046f9190612bf9565b611590565b6040516104819190612ab3565b60405180910390f35b6104926115e9565b60405161049f9190612bde565b60405180910390f35b6104c260048036038101906104bd9190613064565b6115f0565b005b6104de60048036038101906104d991906130ad565b611804565b005b6104fa60048036038101906104f59190612bf9565b611a30565b005b61051660048036038101906105119190612bf9565b611a65565b005b610520611cbb565b60405161052d91906131c7565b60405180910390f35b610550600480360381019061054b9190612bf9565b611ccc565b005b61056c60048036038101906105679190612c26565b611f6a565b005b610576611f8b565b6040516105839190612bde565b60405180910390f35b6105a660048036038101906105a19190612bf9565b611faf565b005b6105b0612032565b6040516105bd9190612bde565b60405180910390f35b60007f7965db0b000000000000000000000000000000000000000000000000000000007bffffffffffffffffffffffffffffffffffffffffffffffffffffffff1916827bffffffffffffffffffffffffffffffffffffffffffffffffffffffff19161480610639575061063882612056565b5b9050919050565b81600360008273ffffffffffffffffffffffffffffffffffffffff1673ffffffffffffffffffffffffffffffffffffffff16815260200190815260200160002060010160149054906101000a900460ff166106d0576040517f08c379a00000000000000000000000000000000000000000000000000000000081526004016106c790613235565b60405180910390fd5b826106fb7f20c605fd0c297c12fdef1ea05fc5e693eeeda1f5ffb147a823a0db69c8bbea9e33611525565b8061079357503373ffffffffffffffffffffffffffffffffffffffff16600360008373ffffffffffffffffffffffffffffffffffffffff1673ffffffffffffffffffffffffffffffffffffffff16815260200190815260200160002060010160009054906101000a900473ffffffffffffffffffffffffffffffffffffffff1673ffffffffffffffffffffffffffffffffffffffff16145b6107d2576040517f08c379a00000000000000000000000000000000000000000000000000000000081526004016107c9906132c7565b60405180910390fd5b600073ffffffffffffffffffffffffffffffffffffffff168373ffffffffffffffffffffffffffffffffffffffff1603610841576040517f08c379a000000000000000000000000000000000000000000000000000000000815260040161083890613333565b60405180910390fd5b82600360008673ffffffffffffffffffffffffffffffffffffffff1673ffffffffffffffffffffffffffffffffffffffff16815260200190815260200160002060010160006101000a81548173ffffffffffffffffffffffffffffffffffffffff021916908373ffffffffffffffffffffffffffffffffffffffff1602179055508273ffffffffffffffffffffffffffffffffffffffff168473ffffffffffffffffffffffffffffffffffffffff167f62182c6f6abb79a1e33ffb70dca668de3c12716968155fedacc34935df17f08e60405160405180910390a350505050565b600060016000838152602001908152602001600020600101549050919050565b61094a6120c0565b6109747f20c605fd0c297c12fdef1ea05fc5e693eeeda1f5ffb147a823a0db69c8bbea9e82610977565b50565b61098082610922565b6109898161213e565b6109938383612152565b505050565b6109a0612232565b73ffffffffffffffffffffffffffffffffffffffff168173ffffffffffffffffffffffffffffffffffffffff1614610a0d576040517f08c379a0000000000000000000000000000000000000000000000000000000008152600401610a04906133c5565b60405180910390fd5b610a17828261223a565b5050565b600060607fe30821bead834b2370918c87c533bd6da6cced701b312fae3688e53125b9f842610a498161213e565b610a5d85600561231c90919063ffffffff16565b610a9c576040517f08c379a0000000000000000000000000000000000000000000000000000000008152600401610a9390613431565b60405180910390fd5b600460008673ffffffffffffffffffffffffffffffffffffffff1673ffffffffffffffffffffffffffffffffffffffff168152602001908152602001600020805490508410610b20576040517f08c379a0000000000000000000000000000000000000000000000000000000008152600401610b179061349d565b60405180910390fd5b6000600460008773ffffffffffffffffffffffffffffffffffffffff1673ffffffffffffffffffffffffffffffffffffffff1681526020019081526020016000208581548110610b7357610b726134bd565b5b906000526020600020906002020160405180604001604052908160008201548152602001600182018054610ba69061351b565b80601f0160208091040260200160405190810160405280929190818152602001828054610bd29061351b565b8015610c1f5780601f10610bf457610100808354040283529160200191610c1f565b820191906000526020600020905b815481529060010190602001808311610c0257829003601f168201915b5050505050815250509050806000015181602001519350935050509250929050565b610c496120c0565b610c5161234c565b600073ffffffffffffffffffffffffffffffffffffffff168373ffffffffffffffffffffffffffffffffffffffff1603610cc0576040517f08c379a0000000000000000000000000000000000000000000000000000000008152600401610cb790613598565b60405180910390fd5b600073ffffffffffffffffffffffffffffffffffffffff168273ffffffffffffffffffffffffffffffffffffffff1603610d2f576040517f08c379a0000000000000000000000000000000000000000000000000000000008152600401610d2690613604565b60405180910390fd5b60008111610d72576040517f08c379a0000000000000000000000000000000000000000000000000000000008152600401610d6990613670565b60405180910390fd5b8273ffffffffffffffffffffffffffffffffffffffff1663a9059cbb83836040518363ffffffff1660e01b8152600401610dad929190613690565b6020604051808303816000875af1158015610dcc573d6000803e3d6000fd5b505050506040513d601f19601f82011682018060405250810190610df091906136e5565b50610df9612399565b505050565b606060008060606000610e1b86600561231c90919063ffffffff16565b610e5a576040517f08c379a0000000000000000000000000000000000000000000000000000000008152600401610e5190613431565b60405180910390fd5b6000600360008873ffffffffffffffffffffffffffffffffffffffff1673ffffffffffffffffffffffffffffffffffffffff1681526020019081526020016000206040518060a0016040529081600082018054610eb69061351b565b80601f0160208091040260200160405190810160405280929190818152602001828054610ee29061351b565b8015610f2f5780601f10610f0457610100808354040283529160200191610f2f565b820191906000526020600020905b815481529060010190602001808311610f1257829003601f168201915b505050505081526020016001820160009054906101000a900473ffffffffffffffffffffffffffffffffffffffff1673ffffffffffffffffffffffffffffffffffffffff1673ffffffffffffffffffffffffffffffffffffffff1681526020016001820160149054906101000a900460ff16151515158152602001600282018054610fb99061351b565b80601f0160208091040260200160405190810160405280929190818152602001828054610fe59061351b565b80156110325780601f1061100757610100808354040283529160200191611032565b820191906000526020600020905b81548152906001019060200180831161101557829003601f168201915b50505050508152602001600382015481525050905080600001518160200151826040015183606001518460800151955095509550955095505091939590929450565b600061108a82600561231c90919063ffffffff16565b6110c9576040517f08c379a00000000000000000000000000000000000000000000000000000000081526004016110c090613431565b60405180910390fd5b600360008373ffffffffffffffffffffffffffffffffffffffff1673ffffffffffffffffffffffffffffffffffffffff168152602001908152602001600020600301549050919050565b7f20c605fd0c297c12fdef1ea05fc5e693eeeda1f5ffb147a823a0db69c8bbea9e61113d8161213e565b61115184600561231c90919063ffffffff16565b15611191576040517f08c379a00000000000000000000000000000000000000000000000000000000081526004016111889061375e565b60405180910390fd5b60008351116111d5576040517f08c379a00000000000000000000000000000000000000000000000000000000081526004016111cc906137ca565b60405180910390fd5b6000825111611219576040517f08c379a000000000000000000000000000000000000000000000000000000000815260040161121090613836565b60405180910390fd5b6040518060a001604052808481526020018573ffffffffffffffffffffffffffffffffffffffff16815260200160011515815260200183815260200142815250600360008673ffffffffffffffffffffffffffffffffffffffff1673ffffffffffffffffffffffffffffffffffffffff16815260200190815260200160002060008201518160000190816112ad9190613a02565b5060208201518160010160006101000a81548173ffffffffffffffffffffffffffffffffffffffff021916908373ffffffffffffffffffffffffffffffffffffffff16021790555060408201518160010160146101000a81548160ff021916908315150217905550606082015181600201908161132a9190613a02565b506080820151816003015590505061134c8460056123a390919063ffffffff16565b508373ffffffffffffffffffffffffffffffffffffffff167f25bec5442671a5d594ede63d811665f791f5152b85d1ca34a8c1630a11af352a8484604051611395929190613ad4565b60405180910390a250505050565b6113ab6120c0565b6113b560006123d3565b565b60007fe30821bead834b2370918c87c533bd6da6cced701b312fae3688e53125b9f8426113e38161213e565b6113f783600561231c90919063ffffffff16565b611436576040517f08c379a000000000000000000000000000000000000000000000000000000000815260040161142d90613431565b60405180910390fd5b600460008473ffffffffffffffffffffffffffffffffffffffff1673ffffffffffffffffffffffffffffffffffffffff16815260200190815260200160002080549050915050919050565b6114896120c0565b6114b37fe30821bead834b2370918c87c533bd6da6cced701b312fae3688e53125b9f84282611f6a565b50565b60006114c26005612497565b905090565b60008060009054906101000a900473ffffffffffffffffffffffffffffffffffffffff16905090565b6114f86120c0565b6115227fe30821bead834b2370918c87c533bd6da6cced701b312fae3688e53125b9f84282610977565b50565b60006001600084815260200190815260200160002060000160008373ffffffffffffffffffffffffffffffffffffffff1673ffffffffffffffffffffffffffffffffffffffff16815260200190815260200160002060009054906101000a900460ff16905092915050565b6000600360008373ffffffffffffffffffffffffffffffffffffffff1673ffffffffffffffffffffffffffffffffffffffff16815260200190815260200160002060010160149054906101000a900460ff169050919050565b6000801b81565b33600360008273ffffffffffffffffffffffffffffffffffffffff1673ffffffffffffffffffffffffffffffffffffffff16815260200190815260200160002060010160149054906101000a900460ff16611680576040517f08c379a000000000000000000000000000000000000000000000000000000000815260040161167790613235565b60405180910390fd5b60008251116116c4576040517f08c379a00000000000000000000000000000000000000000000000000000000081526004016116bb90613b57565b60405180910390fd5b60006040518060400160405280428152602001848152509050600460003373ffffffffffffffffffffffffffffffffffffffff1673ffffffffffffffffffffffffffffffffffffffff1681526020019081526020016000208190806001815401808255809150506001900390600052602060002090600202016000909190919091506000820151816000015560208201518160010190816117659190613a02565b50505042600360003373ffffffffffffffffffffffffffffffffffffffff1673ffffffffffffffffffffffffffffffffffffffff168152602001908152602001600020600301819055503373ffffffffffffffffffffffffffffffffffffffff167f3971e098c45f3feb712d60efd8340aa0c84f780238bbb556ad318b18c85b99d284426040516117f7929190613b77565b60405180910390a2505050565b81600360008273ffffffffffffffffffffffffffffffffffffffff1673ffffffffffffffffffffffffffffffffffffffff16815260200190815260200160002060010160149054906101000a900460ff16611894576040517f08c379a000000000000000000000000000000000000000000000000000000000815260040161188b90613235565b60405180910390fd5b826118bf7f20c605fd0c297c12fdef1ea05fc5e693eeeda1f5ffb147a823a0db69c8bbea9e33611525565b8061195757503373ffffffffffffffffffffffffffffffffffffffff16600360008373ffffffffffffffffffffffffffffffffffffffff1673ffffffffffffffffffffffffffffffffffffffff16815260200190815260200160002060010160009054906101000a900473ffffffffffffffffffffffffffffffffffffffff1673ffffffffffffffffffffffffffffffffffffffff16145b611996576040517f08c379a000000000000000000000000000000000000000000000000000000000815260040161198d906132c7565b60405180910390fd5b60008351116119da576040517f08c379a00000000000000000000000000000000000000000000000000000000081526004016119d190613836565b60405180910390fd5b82600360008673ffffffffffffffffffffffffffffffffffffffff1673ffffffffffffffffffffffffffffffffffffffff1681526020019081526020016000206002019081611a299190613a02565b5050505050565b611a386120c0565b611a627f20c605fd0c297c12fdef1ea05fc5e693eeeda1f5ffb147a823a0db69c8bbea9e82611f6a565b50565b611a7981600561231c90919063ffffffff16565b611ab8576040517f08c379a0000000000000000000000000000000000000000000000000000000008152600401611aaf90613431565b60405180910390fd5b611ae27f20c605fd0c297c12fdef1ea05fc5e693eeeda1f5ffb147a823a0db69c8bbea9e33611525565b80611b7a57503373ffffffffffffffffffffffffffffffffffffffff16600360008373ffffffffffffffffffffffffffffffffffffffff1673ffffffffffffffffffffffffffffffffffffffff16815260200190815260200160002060010160009054906101000a900473ffffffffffffffffffffffffffffffffffffffff1673ffffffffffffffffffffffffffffffffffffffff16145b611bb9576040517f08c379a0000000000000000000000000000000000000000000000000000000008152600401611bb0906132c7565b60405180910390fd5b6000600360008373ffffffffffffffffffffffffffffffffffffffff1673ffffffffffffffffffffffffffffffffffffffff16815260200190815260200160002060010160146101000a81548160ff021916908315150217905550611c288160056124ac90919063ffffffff16565b508073ffffffffffffffffffffffffffffffffffffffff167f8bab3a93c9d5adf914f8214378b0762d11930b21014266bf194cf9065863dd6b600360008473ffffffffffffffffffffffffffffffffffffffff1673ffffffffffffffffffffffffffffffffffffffff168152602001908152602001600020600001604051611cb09190613c2b565b60405180910390a250565b6060611cc760056124dc565b905090565b611ce081600561231c90919063ffffffff16565b15611d20576040517f08c379a0000000000000000000000000000000000000000000000000000000008152600401611d1790613c99565b60405180910390fd5b611d4a7f20c605fd0c297c12fdef1ea05fc5e693eeeda1f5ffb147a823a0db69c8bbea9e33611525565b80611de257503373ffffffffffffffffffffffffffffffffffffffff16600360008373ffffffffffffffffffffffffffffffffffffffff1673ffffffffffffffffffffffffffffffffffffffff16815260200190815260200160002060010160009054906101000a900473ffffffffffffffffffffffffffffffffffffffff1673ffffffffffffffffffffffffffffffffffffffff16145b611e21576040517f08c379a0000000000000000000000000000000000000000000000000000000008152600401611e18906132c7565b60405180910390fd5b6001600360008373ffffffffffffffffffffffffffffffffffffffff1673ffffffffffffffffffffffffffffffffffffffff16815260200190815260200160002060010160146101000a81548160ff02191690831515021790555042600360008373ffffffffffffffffffffffffffffffffffffffff1673ffffffffffffffffffffffffffffffffffffffff16815260200190815260200160002060030181905550611ed78160056123a390919063ffffffff16565b508073ffffffffffffffffffffffffffffffffffffffff167f54bd13bdd67b1af23cc23911a813fc81ea6ca6b8cc35f9ced9333907956aa049600360008473ffffffffffffffffffffffffffffffffffffffff1673ffffffffffffffffffffffffffffffffffffffff168152602001908152602001600020600001604051611f5f9190613c2b565b60405180910390a250565b611f7382610922565b611f7c8161213e565b611f86838361223a565b505050565b7fe30821bead834b2370918c87c533bd6da6cced701b312fae3688e53125b9f84281565b611fb76120c0565b600073ffffffffffffffffffffffffffffffffffffffff168173ffffffffffffffffffffffffffffffffffffffff1603612026576040517f08c379a000000000000000000000000000000000000000000000000000000000815260040161201d90613d2b565b60405180910390fd5b61202f816123d3565b50565b7f20c605fd0c297c12fdef1ea05fc5e693eeeda1f5ffb147a823a0db69c8bbea9e81565b60007f01ffc9a7000000000000000000000000000000000000000000000000000000007bffffffffffffffffffffffffffffffffffffffffffffffffffffffff1916827bffffffffffffffffffffffffffffffffffffffffffffffffffffffff1916149050919050565b6120c8612232565b73ffffffffffffffffffffffffffffffffffffffff166120e66114c7565b73ffffffffffffffffffffffffffffffffffffffff161461213c576040517f08c379a000000000000000000000000000000000000000000000000000000000815260040161213390613d97565b60405180910390fd5b565b61214f8161214a612232565b6124fd565b50565b61215c8282611525565b61222e57600180600084815260200190815260200160002060000160008373ffffffffffffffffffffffffffffffffffffffff1673ffffffffffffffffffffffffffffffffffffffff16815260200190815260200160002060006101000a81548160ff0219169083151502179055506121d3612232565b73ffffffffffffffffffffffffffffffffffffffff168173ffffffffffffffffffffffffffffffffffffffff16837f2f8788117e7eff1d82e926ec794901d17c78024a50270940304540a733656f0d60405160405180910390a45b5050565b600033905090565b6122448282611525565b156123185760006001600084815260200190815260200160002060000160008373ffffffffffffffffffffffffffffffffffffffff1673ffffffffffffffffffffffffffffffffffffffff16815260200190815260200160002060006101000a81548160ff0219169083151502179055506122bd612232565b73ffffffffffffffffffffffffffffffffffffffff168173ffffffffffffffffffffffffffffffffffffffff16837ff6391f5c32d9c69d2a47ea670b442974b53935d1edc7fd64eb21e047a839171b60405160405180910390a45b5050565b6000612344836000018373ffffffffffffffffffffffffffffffffffffffff1660001b612582565b905092915050565b6002805403612390576040517f08c379a000000000000000000000000000000000000000000000000000000000815260040161238790613e03565b60405180910390fd5b60028081905550565b6001600281905550565b60006123cb836000018373ffffffffffffffffffffffffffffffffffffffff1660001b6125a5565b905092915050565b60008060009054906101000a900473ffffffffffffffffffffffffffffffffffffffff169050816000806101000a81548173ffffffffffffffffffffffffffffffffffffffff021916908373ffffffffffffffffffffffffffffffffffffffff1602179055508173ffffffffffffffffffffffffffffffffffffffff168173ffffffffffffffffffffffffffffffffffffffff167f8be0079c531659141344cd1fd0a4f28419497f9722a3daafe3b4186f6b6457e060405160405180910390a35050565b60006124a582600001612615565b9050919050565b60006124d4836000018373ffffffffffffffffffffffffffffffffffffffff1660001b612626565b905092915050565b606060006124ec8360000161273a565b905060608190508092505050919050565b6125078282611525565b61257e5761251481612796565b6125228360001c60206127c3565b604051602001612533929190613ef7565b6040516020818303038152906040526040517f08c379a00000000000000000000000000000000000000000000000000000000081526004016125759190613f31565b60405180910390fd5b5050565b600080836001016000848152602001908152602001600020541415905092915050565b60006125b18383612582565b61260a57826000018290806001815401808255809150506001900390600052602060002001600090919091909150558260000180549050836001016000848152602001908152602001600020819055506001905061260f565b600090505b92915050565b600081600001805490509050919050565b6000808360010160008481526020019081526020016000205490506000811461272e5760006001826126589190613f82565b90506000600186600001805490506126709190613f82565b90508181146126df576000866000018281548110612691576126906134bd565b5b90600052602060002001549050808760000184815481106126b5576126b46134bd565b5b90600052602060002001819055508387600101600083815260200190815260200160002081905550505b856000018054806126f3576126f2613fb6565b5b600190038181906000526020600020016000905590558560010160008681526020019081526020016000206000905560019350505050612734565b60009150505b92915050565b60608160000180548060200260200160405190810160405280929190818152602001828054801561278a57602002820191906000526020600020905b815481526020019060010190808311612776575b50505050509050919050565b60606127bc8273ffffffffffffffffffffffffffffffffffffffff16601460ff166127c3565b9050919050565b6060600060028360026127d69190613fe5565b6127e09190614027565b67ffffffffffffffff8111156127f9576127f8612e93565b5b6040519080825280601f01601f19166020018201604052801561282b5781602001600182028036833780820191505090505b5090507f300000000000000000000000000000000000000000000000000000000000000081600081518110612863576128626134bd565b5b60200101907effffffffffffffffffffffffffffffffffffffffffffffffffffffffffffff1916908160001a9053507f7800000000000000000000000000000000000000000000000000000000000000816001815181106128c7576128c66134bd565b5b60200101907effffffffffffffffffffffffffffffffffffffffffffffffffffffffffffff1916908160001a905350600060018460026129079190613fe5565b6129119190614027565b90505b60018111156129b1577f3031323334353637383961626364656600000000000000000000000000000000600f861660108110612953576129526134bd565b5b1a60f81b82828151811061296a576129696134bd565b5b60200101907effffffffffffffffffffffffffffffffffffffffffffffffffffffffffffff1916908160001a905350600485901c9450806129aa9061405b565b9050612914565b50600084146129f5576040517f08c379a00000000000000000000000000000000000000000000000000000000081526004016129ec906140d0565b60405180910390fd5b8091505092915050565b6000604051905090565b600080fd5b600080fd5b60007fffffffff0000000000000000000000000000000000000000000000000000000082169050919050565b612a4881612a13565b8114612a5357600080fd5b50565b600081359050612a6581612a3f565b92915050565b600060208284031215612a8157612a80612a09565b5b6000612a8f84828501612a56565b91505092915050565b60008115159050919050565b612aad81612a98565b82525050565b6000602082019050612ac86000830184612aa4565b92915050565b600073ffffffffffffffffffffffffffffffffffffffff82169050919050565b6000612af982612ace565b9050919050565b612b0981612aee565b8114612b1457600080fd5b50565b600081359050612b2681612b00565b92915050565b60008060408385031215612b4357612b42612a09565b5b6000612b5185828601612b17565b9250506020612b6285828601612b17565b9150509250929050565b6000819050919050565b612b7f81612b6c565b8114612b8a57600080fd5b50565b600081359050612b9c81612b76565b92915050565b600060208284031215612bb857612bb7612a09565b5b6000612bc684828501612b8d565b91505092915050565b612bd881612b6c565b82525050565b6000602082019050612bf36000830184612bcf565b92915050565b600060208284031215612c0f57612c0e612a09565b5b6000612c1d84828501612b17565b91505092915050565b60008060408385031215612c3d57612c3c612a09565b5b6000612c4b85828601612b8d565b9250506020612c5c85828601612b17565b9150509250929050565b6000819050919050565b612c7981612c66565b8114612c8457600080fd5b50565b600081359050612c9681612c70565b92915050565b60008060408385031215612cb357612cb2612a09565b5b6000612cc185828601612b17565b9250506020612cd285828601612c87565b9150509250929050565b612ce581612c66565b82525050565b600081519050919050565b600082825260208201905092915050565b60005b83811015612d25578082015181840152602081019050612d0a565b60008484015250505050565b6000601f19601f8301169050919050565b6000612d4d82612ceb565b612d578185612cf6565b9350612d67818560208601612d07565b612d7081612d31565b840191505092915050565b6000604082019050612d906000830185612cdc565b8181036020830152612da28184612d42565b90509392505050565b600080600060608486031215612dc457612dc3612a09565b5b6000612dd286828701612b17565b9350506020612de386828701612b17565b9250506040612df486828701612c87565b9150509250925092565b612e0781612aee565b82525050565b600060a0820190508181036000830152612e278188612d42565b9050612e366020830187612dfe565b612e436040830186612aa4565b8181036060830152612e558185612d42565b9050612e646080830184612cdc565b9695505050505050565b6000602082019050612e836000830184612cdc565b92915050565b600080fd5b600080fd5b7f4e487b7100000000000000000000000000000000000000000000000000000000600052604160045260246000fd5b612ecb82612d31565b810181811067ffffffffffffffff82111715612eea57612ee9612e93565b5b80604052505050565b6000612efd6129ff565b9050612f098282612ec2565b919050565b600067ffffffffffffffff821115612f2957612f28612e93565b5b612f3282612d31565b9050602081019050919050565b82818337600083830152505050565b6000612f61612f5c84612f0e565b612ef3565b905082815260208101848484011115612f7d57612f7c612e8e565b5b612f88848285612f3f565b509392505050565b600082601f830112612fa557612fa4612e89565b5b8135612fb5848260208601612f4e565b91505092915050565b600080600060608486031215612fd757612fd6612a09565b5b6000612fe586828701612b17565b935050602084013567ffffffffffffffff81111561300657613005612a0e565b5b61301286828701612f90565b925050604084013567ffffffffffffffff81111561303357613032612a0e565b5b61303f86828701612f90565b9150509250925092565b600060208201905061305e6000830184612dfe565b92915050565b60006020828403121561307a57613079612a09565b5b600082013567ffffffffffffffff81111561309857613097612a0e565b5b6130a484828501612f90565b91505092915050565b600080604083850312156130c4576130c3612a09565b5b60006130d285828601612b17565b925050602083013567ffffffffffffffff8111156130f3576130f2612a0e565b5b6130ff85828601612f90565b9150509250929050565b600081519050919050565b600082825260208201905092915050565b6000819050602082019050919050565b61313e81612aee565b82525050565b60006131508383613135565b60208301905092915050565b6000602082019050919050565b600061317482613109565b61317e8185613114565b935061318983613125565b8060005b838110156131ba5781516131a18882613144565b97506131ac8361315c565b92505060018101905061318d565b5085935050505092915050565b600060208201905081810360008301526131e18184613169565b905092915050565b7f446576696365206973206e6f7420616374697665000000000000000000000000600082015250565b600061321f601483612cf6565b915061322a826131e9565b602082019050919050565b6000602082019050818103600083015261324e81613212565b9050919050565b7f43616c6c6572206973206e6f7420646576696365206f776e6572206f72206d6160008201527f6e61676572000000000000000000000000000000000000000000000000000000602082015250565b60006132b1602583612cf6565b91506132bc82613255565b604082019050919050565b600060208201905081810360008301526132e0816132a4565b9050919050565b7f4e6577206f776e65722063616e6e6f74206265207a65726f2061646472657373600082015250565b600061331d602083612cf6565b9150613328826132e7565b602082019050919050565b6000602082019050818103600083015261334c81613310565b9050919050565b7f416363657373436f6e74726f6c3a2063616e206f6e6c792072656e6f756e636560008201527f20726f6c657320666f722073656c660000000000000000000000000000000000602082015250565b60006133af602f83612cf6565b91506133ba82613353565b604082019050919050565b600060208201905081810360008301526133de816133a2565b9050919050565b7f446576696365206e6f7420726567697374657265640000000000000000000000600082015250565b600061341b601583612cf6565b9150613426826133e5565b602082019050919050565b6000602082019050818103600083015261344a8161340e565b9050919050565b7f496e76616c6964206461746120696e6465780000000000000000000000000000600082015250565b6000613487601283612cf6565b915061349282613451565b602082019050919050565b600060208201905081810360008301526134b68161347a565b9050919050565b7f4e487b7100000000000000000000000000000000000000000000000000000000600052603260045260246000fd5b7f4e487b7100000000000000000000000000000000000000000000000000000000600052602260045260246000fd5b6000600282049050600182168061353357607f821691505b602082108103613546576135456134ec565b5b50919050565b7f546f6b656e20616464726573732063616e6e6f74206265207a65726f00000000600082015250565b6000613582601c83612cf6565b915061358d8261354c565b602082019050919050565b600060208201905081810360008301526135b181613575565b9050919050565b7f526563697069656e7420616464726573732063616e6e6f74206265207a65726f600082015250565b60006135ee602083612cf6565b91506135f9826135b8565b602082019050919050565b6000602082019050818103600083015261361d816135e1565b9050919050565b7f416d6f756e74206d7573742062652067726561746572207468616e207a65726f600082015250565b600061365a602083612cf6565b915061366582613624565b602082019050919050565b600060208201905081810360008301526136898161364d565b9050919050565b60006040820190506136a56000830185612dfe565b6136b26020830184612cdc565b9392505050565b6136c281612a98565b81146136cd57600080fd5b50565b6000815190506136df816136b9565b92915050565b6000602082840312156136fb576136fa612a09565b5b6000613709848285016136d0565b91505092915050565b7f44657669636520616c7265616479207265676973746572656400000000000000600082015250565b6000613748601983612cf6565b915061375382613712565b602082019050919050565b600060208201905081810360008301526137778161373b565b9050919050565b7f4465766963652049442063616e6e6f7420626520656d70747900000000000000600082015250565b60006137b4601983612cf6565b91506137bf8261377e565b602082019050919050565b600060208201905081810360008301526137e3816137a7565b9050919050565b7f4d65746164617461205552492063616e6e6f7420626520656d70747900000000600082015250565b6000613820601c83612cf6565b915061382b826137ea565b602082019050919050565b6000602082019050818103600083015261384f81613813565b9050919050565b60008190508160005260206000209050919050565b60006020601f8301049050919050565b600082821b905092915050565b6000600883026138b87fffffffffffffffffffffffffffffffffffffffffffffffffffffffffffffffff8261387b565b6138c2868361387b565b95508019841693508086168417925050509392505050565b6000819050919050565b60006138ff6138fa6138f584612c66565b6138da565b612c66565b9050919050565b6000819050919050565b613919836138e4565b61392d61392582613906565b848454613888565b825550505050565b600090565b613942613935565b61394d818484613910565b505050565b5b818110156139715761396660008261393a565b600181019050613953565b5050565b601f8211156139b65761398781613856565b6139908461386b565b8101602085101561399f578190505b6139b36139ab8561386b565b830182613952565b50505b505050565b600082821c905092915050565b60006139d9600019846008026139bb565b1980831691505092915050565b60006139f283836139c8565b9150826002028217905092915050565b613a0b82612ceb565b67ffffffffffffffff811115613a2457613a23612e93565b5b613a2e825461351b565b613a39828285613975565b600060209050601f831160018114613a6c5760008415613a5a578287015190505b613a6485826139e6565b865550613acc565b601f198416613a7a86613856565b60005b82811015613aa257848901518255600182019150602085019450602081019050613a7d565b86831015613abf5784890151613abb601f8916826139c8565b8355505b6001600288020188555050505b505050505050565b60006040820190508181036000830152613aee8185612d42565b90508181036020830152613b028184612d42565b90509392505050565b7f4461746120686173682063616e6e6f7420626520656d70747900000000000000600082015250565b6000613b41601983612cf6565b9150613b4c82613b0b565b602082019050919050565b60006020820190508181036000830152613b7081613b34565b9050919050565b60006040820190508181036000830152613b918185612d42565b9050613ba06020830184612cdc565b9392505050565b60008154613bb48161351b565b613bbe8186612cf6565b94506001821660008114613bd95760018114613bef57613c22565b60ff198316865281151560200286019350613c22565b613bf885613856565b60005b83811015613c1a57815481890152600182019150602081019050613bfb565b808801955050505b50505092915050565b60006020820190508181036000830152613c458184613ba7565b905092915050565b7f44657669636520697320616c7265616479206163746976650000000000000000600082015250565b6000613c83601883612cf6565b9150613c8e82613c4d565b602082019050919050565b60006020820190508181036000830152613cb281613c76565b9050919050565b7f4f776e61626c653a206e6577206f776e657220697320746865207a65726f206160008201527f6464726573730000000000000000000000000000000000000000000000000000602082015250565b6000613d15602683612cf6565b9150613d2082613cb9565b604082019050919050565b60006020820190508181036000830152613d4481613d08565b9050919050565b7f4f776e61626c653a2063616c6c6572206973206e6f7420746865206f776e6572600082015250565b6000613d81602083612cf6565b9150613d8c82613d4b565b602082019050919050565b60006020820190508181036000830152613db081613d74565b9050919050565b7f5265656e7472616e637947756172643a207265656e7472616e742063616c6c00600082015250565b6000613ded601f83612cf6565b9150613df882613db7565b602082019050919050565b60006020820190508181036000830152613e1c81613de0565b9050919050565b600081905092915050565b7f416363657373436f6e74726f6c3a206163636f756e7420000000000000000000600082015250565b6000613e64601783613e23565b9150613e6f82613e2e565b601782019050919050565b6000613e8582612ceb565b613e8f8185613e23565b9350613e9f818560208601612d07565b80840191505092915050565b7f206973206d697373696e6720726f6c6520000000000000000000000000000000600082015250565b6000613ee1601183613e23565b9150613eec82613eab565b601182019050919050565b6000613f0282613e57565b9150613f0e8285613e7a565b9150613f1982613ed4565b9150613f258284613e7a565b91508190509392505050565b60006020820190508181036000830152613f4b8184612d42565b905092915050565b7f4e487b7100000000000000000000000000000000000000000000000000000000600052601160045260246000fd5b6000613f8d82612c66565b9150613f9883612c66565b9250828203905081811115613fb057613faf613f53565b5b92915050565b7f4e487b7100000000000000000000000000000000000000000000000000000000600052603160045260246000fd5b6000613ff082612c66565b9150613ffb83612c66565b925082820261400981612c66565b915082820484148315176140205761401f613f53565b5b5092915050565b600061403282612c66565b915061403d83612c66565b925082820190508082111561405557614054613f53565b5b92915050565b600061406682612c66565b91506000820361407957614078613f53565b5b600182039050919050565b7f537472696e67733a20686578206c656e67746820696e73756666696369656e74600082015250565b60006140ba602083612cf6565b91506140c582614084565b602082019050919050565b600060208201905081810360008301526140e9816140ad565b905091905056fea26469706673582212201395d1b21e7e47c53551636c6c725a4bcc040a422e6d422a8807f326cc3971c064736f6c63430008130033",
  "immutableReferences": {},
  "source": "// SPDX-License-Identifier: MIT\npragma solidity ^0.8.0;\n\nimport \"@openzeppelin/contracts/access/Ownable.sol\";\nimport \"@openzeppelin/contracts/access/AccessControl.sol\";\nimport \"@openzeppelin/contracts/utils/structs/EnumerableSet.sol\";\nimport \"@openzeppelin/contracts/token/ERC20/IERC20.sol\";\nimport \"@openzeppelin/contracts/security/ReentrancyGuard.sol\";\n\ncontract IoTDeviceManager is Ownable, AccessControl, ReentrancyGuard {\n    using EnumerableSet for EnumerableSet.AddressSet;\n\n    bytes32 public constant DEVICE_MANAGER_ROLE = keccak256(\"DEVICE_MANAGER_ROLE\");\n    bytes32 public constant DATA_CONSUMER_ROLE = keccak256(\"DATA_CONSUMER_ROLE\");\n\n    struct Device {\n        string deviceId;\n        address owner;\n        bool active;\n        string metadataURI;\n        uint256 lastDataTimestamp;\n    }\n\n    struct DataPoint {\n        uint256 timestamp;\n        string dataHash;\n    }\n\n    mapping(address => Device) private devices;\n    mapping(address => DataPoint[]) private deviceData;\n    EnumerableSet.AddressSet private registeredDevices;\n\n    event DeviceRegistered(address indexed deviceAddress, string deviceId, string metadataURI);\n    event DeviceDeactivated(address indexed deviceAddress, string deviceId);\n    event DeviceReactivated(address indexed deviceAddress, string deviceId);\n    event DataSubmitted(address indexed deviceAddress, string dataHash, uint256 timestamp);\n    event DeviceOwnershipTransferred(address indexed deviceAddress, address indexed newOwner);\n\n    modifier onlyActiveDevice(address _deviceAddress) {\n        require(devices[_deviceAddress].active, \"Device is not active\");\n        _;\n    }\n\n    modifier onlyDeviceOwnerOrManager(address _deviceAddress) {\n        require(\n            hasRole(DEVICE_MANAGER_ROLE, msg.sender) || devices[_deviceAddress].owner == msg.sender,\n            \"Caller is not device owner or manager\"\n        );\n        _;\n    }\n\n    constructor() {\n        _setupRole(DEFAULT_ADMIN_ROLE, msg.sender);\n        _setupRole(DEVICE_MANAGER_ROLE, msg.sender);\n        _setupRole(DATA_CONSUMER_ROLE, msg.sender);\n    }\n\n    function registerDevice(\n        address _deviceAddress,\n        string memory _deviceId,\n        string memory _metadataURI\n    ) external onlyRole(DEVICE_MANAGER_ROLE) {\n        require(!registeredDevices.contains(_deviceAddress), \"Device already registered\");\n        require(bytes(_deviceId).length > 0, \"Device ID cannot be empty\");\n        require(bytes(_metadataURI).length > 0, \"Metadata URI cannot be empty\");\n        \n        devices[_deviceAddress] = Device({\n            deviceId: _deviceId,\n            owner: _deviceAddress,\n            active: true,\n            metadataURI: _metadataURI,\n            lastDataTimestamp: block.timestamp\n        });\n\n        registeredDevices.add(_deviceAddress);\n        emit DeviceRegistered(_deviceAddress, _deviceId, _metadataURI);\n    }\n\n    function deactivateDevice(address _deviceAddress) external {\n        require(registeredDevices.contains(_deviceAddress), \"Device not registered\");\n        require(\n            hasRole(DEVICE_MANAGER_ROLE, msg.sender) || devices[_deviceAddress].owner == msg.sender,\n            \"Caller is not device owner or manager\"\n        );\n\n        devices[_deviceAddress].active = false;\n        registeredDevices.remove(_deviceAddress);\n\n        emit DeviceDeactivated(_deviceAddress, devices[_deviceAddress].deviceId);\n    }\n\n    function reactivateDevice(address _deviceAddress) external {\n        require(!registeredDevices.contains(_deviceAddress), \"Device is already active\");\n        require(\n            hasRole(DEVICE_MANAGER_ROLE, msg.sender) || devices[_deviceAddress].owner == msg.sender,\n            \"Caller is not device owner or manager\"\n        );\n\n        devices[_deviceAddress].active = true;\n        devices[_deviceAddress].lastDataTimestamp = block.timestamp;\n        registeredDevices.add(_deviceAddress);\n\n        emit DeviceReactivated(_deviceAddress, devices[_deviceAddress].deviceId);\n    }\n\n    function submitData(string memory _dataHash) external onlyActiveDevice(msg.sender) {\n        require(bytes(_dataHash).length > 0, \"Data hash cannot be empty\");\n\n        DataPoint memory newDataPoint = DataPoint({\n            timestamp: block.timestamp,\n            dataHash: _dataHash\n        });\n\n        deviceData[msg.sender].push(newDataPoint);\n        devices[msg.sender].lastDataTimestamp = block.timestamp;\n\n        emit DataSubmitted(msg.sender, _dataHash, block.timestamp);\n    }\n\n    function getDeviceData(address _deviceAddress, uint256 _index)\n        external\n        view\n        onlyRole(DATA_CONSUMER_ROLE)\n        returns (uint256, string memory)\n    {\n        require(registeredDevices.contains(_deviceAddress), \"Device not registered\");\n        require(_index < deviceData[_deviceAddress].length, \"Invalid data index\");\n\n        DataPoint memory dataPoint = deviceData[_deviceAddress][_index];\n        return (dataPoint.timestamp, dataPoint.dataHash);\n    }\n\n    function getDeviceDataLength(address _deviceAddress)\n        external\n        view\n        onlyRole(DATA_CONSUMER_ROLE)\n        returns (uint256)\n    {\n        require(registeredDevices.contains(_deviceAddress), \"Device not registered\");\n        return deviceData[_deviceAddress].length;\n    }\n\n    function getDeviceDetails(address _deviceAddress)\n        external\n        view\n        returns (string memory, address, bool, string memory, uint256)\n    {\n        require(registeredDevices.contains(_deviceAddress), \"Device not registered\");\n\n        Device memory device = devices[_deviceAddress];\n        return (\n            device.deviceId,\n            device.owner,\n            device.active,\n            device.metadataURI,\n            device.lastDataTimestamp\n        );\n    }\n\n    function updateDeviceMetadata(address _deviceAddress, string memory _metadataURI)\n        external\n        onlyActiveDevice(_deviceAddress)\n        onlyDeviceOwnerOrManager(_deviceAddress)\n    {\n        require(bytes(_metadataURI).length > 0, \"Metadata URI cannot be empty\");\n\n        devices[_deviceAddress].metadataURI = _metadataURI;\n    }\n\n    function transferDeviceOwnership(address _deviceAddress, address _newOwner)\n        external\n        onlyActiveDevice(_deviceAddress)\n        onlyDeviceOwnerOrManager(_deviceAddress)\n    {\n        require(_newOwner != address(0), \"New owner cannot be zero address\");\n\n        devices[_deviceAddress].owner = _newOwner;\n        emit DeviceOwnershipTransferred(_deviceAddress, _newOwner);\n    }\n\n    function getRegisteredDevices() external view returns (address[] memory) {\n        return registeredDevices.values();\n    }\n\n    function totalRegisteredDevices() external view returns (uint256) {\n        return registeredDevices.length();\n    }\n\n    function isDeviceActive(address _deviceAddress) external view returns (bool) {\n        return devices[_deviceAddress].active;\n    }\n\n    function getLastDataTimestamp(address _deviceAddress) external view returns (uint256) {\n        require(registeredDevices.contains(_deviceAddress), \"Device not registered\");\n        return devices[_deviceAddress].lastDataTimestamp;\n    }\n\n    function withdrawTokens(address _token, address _to, uint256 _amount) external onlyOwner nonReentrant {\n        require(_token != address(0), \"Token address cannot be zero\");\n        require(_to != address(0), \"Recipient address cannot be zero\");\n        require(_amount > 0, \"Amount must be greater than zero\");\n        IERC20(_token).transfer(_to, _amount);\n    }\n\n    function grantManagerRole(address _account) external onlyOwner {\n        grantRole(DEVICE_MANAGER_ROLE, _account);\n    }\n\n    function revokeManagerRole(address _account) external onlyOwner {\n        revokeRole(DEVICE_MANAGER_ROLE, _account);\n    }\n\n    function grantDataConsumerRole(address _account) external onlyOwner {\n        grantRole(DATA_CONSUMER_ROLE, _account);\n    }\n\n    function revokeDataConsumerRole(address _account) external onlyOwner {\n        revokeRole(DATA_CONSUMER_ROLE, _account);\n    }\n}\n",
  "sourcePath": "/Users/elvin3block/Documents/Evire/Evire-DePin/contracts/IoTDeviceManager.sol",
  "compiler": {
    "name": "solc",
    "version": "0.8.19+commit.7dd6d404.Emscripten.clang"
  },
  "schemaVersion": "3.4.16",
  "updatedAt": "2024-10-22T11:12:27.799Z",
  "devdoc": {
    "events": {
      "RoleAdminChanged(bytes32,bytes32,bytes32)": {
        "details": "Emitted when `newAdminRole` is set as ``role``'s admin role, replacing `previousAdminRole` `DEFAULT_ADMIN_ROLE` is the starting admin for all roles, despite {RoleAdminChanged} not being emitted signaling this. _Available since v3.1._"
      },
      "RoleGranted(bytes32,address,address)": {
        "details": "Emitted when `account` is granted `role`. `sender` is the account that originated the contract call, an admin role bearer except when using {AccessControl-_setupRole}."
      },
      "RoleRevoked(bytes32,address,address)": {
        "details": "Emitted when `account` is revoked `role`. `sender` is the account that originated the contract call:   - if using `revokeRole`, it is the admin role bearer   - if using `renounceRole`, it is the role bearer (i.e. `account`)"
      }
    },
    "kind": "dev",
    "methods": {
      "getRoleAdmin(bytes32)": {
        "details": "Returns the admin role that controls `role`. See {grantRole} and {revokeRole}. To change a role's admin, use {_setRoleAdmin}."
      },
      "grantRole(bytes32,address)": {
        "details": "Grants `role` to `account`. If `account` had not been already granted `role`, emits a {RoleGranted} event. Requirements: - the caller must have ``role``'s admin role. May emit a {RoleGranted} event."
      },
      "hasRole(bytes32,address)": {
        "details": "Returns `true` if `account` has been granted `role`."
      },
      "owner()": {
        "details": "Returns the address of the current owner."
      },
      "renounceOwnership()": {
        "details": "Leaves the contract without owner. It will not be possible to call `onlyOwner` functions. Can only be called by the current owner. NOTE: Renouncing ownership will leave the contract without an owner, thereby disabling any functionality that is only available to the owner."
      },
      "renounceRole(bytes32,address)": {
        "details": "Revokes `role` from the calling account. Roles are often managed via {grantRole} and {revokeRole}: this function's purpose is to provide a mechanism for accounts to lose their privileges if they are compromised (such as when a trusted device is misplaced). If the calling account had been revoked `role`, emits a {RoleRevoked} event. Requirements: - the caller must be `account`. May emit a {RoleRevoked} event."
      },
      "revokeRole(bytes32,address)": {
        "details": "Revokes `role` from `account`. If `account` had been granted `role`, emits a {RoleRevoked} event. Requirements: - the caller must have ``role``'s admin role. May emit a {RoleRevoked} event."
      },
      "supportsInterface(bytes4)": {
        "details": "See {IERC165-supportsInterface}."
      },
      "transferOwnership(address)": {
        "details": "Transfers ownership of the contract to a new account (`newOwner`). Can only be called by the current owner."
      }
    },
    "version": 1
  },
  "userdoc": {
    "kind": "user",
    "methods": {},
    "version": 1
  }
}