{
  "contractName": "MaintenanceTracking",
  "abi": [
    {
      "inputs": [],
      "name": "EnforcedPause",
      "type": "error"
    },
    {
      "inputs": [],
      "name": "ExpectedPause",
      "type": "error"
    },
    {
      "inputs": [
        {
          "internalType": "address",
          "name": "owner",
          "type": "address"
        }
      ],
      "name": "OwnableInvalidOwner",
      "type": "error"
    },
    {
      "inputs": [
        {
          "internalType": "address",
          "name": "account",
          "type": "address"
        }
      ],
      "name": "OwnableUnauthorizedAccount",
      "type": "error"
    },
    {
      "inputs": [],
      "name": "ReentrancyGuardReentrantCall",
      "type": "error"
    },
    {
      "anonymous": false,
      "inputs": [
        {
          "indexed": true,
          "internalType": "address",
          "name": "from",
          "type": "address"
        },
        {
          "indexed": false,
          "internalType": "uint256",
          "name": "amount",
          "type": "uint256"
        }
      ],
      "name": "FundsReceived",
      "type": "event"
    },
    {
      "anonymous": false,
      "inputs": [
        {
          "indexed": true,
          "internalType": "address",
          "name": "to",
          "type": "address"
        },
        {
          "indexed": false,
          "internalType": "uint256",
          "name": "amount",
          "type": "uint256"
        }
      ],
      "name": "FundsWithdrawn",
      "type": "event"
    },
    {
      "anonymous": false,
      "inputs": [
        {
          "indexed": true,
          "internalType": "uint256",
          "name": "requestId",
          "type": "uint256"
        },
        {
          "indexed": true,
          "internalType": "address",
          "name": "approvedBy",
          "type": "address"
        },
        {
          "indexed": false,
          "internalType": "uint256",
          "name": "cost",
          "type": "uint256"
        },
        {
          "indexed": false,
          "internalType": "address",
          "name": "serviceProvider",
          "type": "address"
        }
      ],
      "name": "MaintenanceApproved",
      "type": "event"
    },
    {
      "anonymous": false,
      "inputs": [
        {
          "indexed": true,
          "internalType": "uint256",
          "name": "requestId",
          "type": "uint256"
        },
        {
          "indexed": true,
          "internalType": "address",
          "name": "requester",
          "type": "address"
        }
      ],
      "name": "MaintenanceCanceled",
      "type": "event"
    },
    {
      "anonymous": false,
      "inputs": [
        {
          "indexed": true,
          "internalType": "uint256",
          "name": "requestId",
          "type": "uint256"
        },
        {
          "indexed": false,
          "internalType": "uint256",
          "name": "cost",
          "type": "uint256"
        },
        {
          "indexed": true,
          "internalType": "address",
          "name": "serviceProvider",
          "type": "address"
        }
      ],
      "name": "MaintenanceCompleted",
      "type": "event"
    },
    {
      "anonymous": false,
      "inputs": [
        {
          "indexed": true,
          "internalType": "uint256",
          "name": "requestId",
          "type": "uint256"
        },
        {
          "indexed": true,
          "internalType": "address",
          "name": "rejectedBy",
          "type": "address"
        }
      ],
      "name": "MaintenanceRejected",
      "type": "event"
    },
    {
      "anonymous": false,
      "inputs": [
        {
          "indexed": true,
          "internalType": "uint256",
          "name": "requestId",
          "type": "uint256"
        },
        {
          "indexed": true,
          "internalType": "uint256",
          "name": "assetId",
          "type": "uint256"
        },
        {
          "indexed": true,
          "internalType": "address",
          "name": "requester",
          "type": "address"
        },
        {
          "indexed": false,
          "internalType": "string",
          "name": "description",
          "type": "string"
        }
      ],
      "name": "MaintenanceRequested",
      "type": "event"
    },
    {
      "anonymous": false,
      "inputs": [
        {
          "indexed": true,
          "internalType": "uint256",
          "name": "requestId",
          "type": "uint256"
        },
        {
          "indexed": true,
          "internalType": "address",
          "name": "serviceProvider",
          "type": "address"
        }
      ],
      "name": "MaintenanceStarted",
      "type": "event"
    },
    {
      "anonymous": false,
      "inputs": [
        {
          "indexed": true,
          "internalType": "address",
          "name": "previousOwner",
          "type": "address"
        },
        {
          "indexed": true,
          "internalType": "address",
          "name": "newOwner",
          "type": "address"
        }
      ],
      "name": "OwnershipTransferred",
      "type": "event"
    },
    {
      "anonymous": false,
      "inputs": [
        {
          "indexed": false,
          "internalType": "address",
          "name": "account",
          "type": "address"
        }
      ],
      "name": "Paused",
      "type": "event"
    },
    {
      "anonymous": false,
      "inputs": [
        {
          "indexed": false,
          "internalType": "address",
          "name": "account",
          "type": "address"
        }
      ],
      "name": "Unpaused",
      "type": "event"
    },
    {
      "stateMutability": "payable",
      "type": "fallback"
    },
    {
      "inputs": [],
      "name": "owner",
      "outputs": [
        {
          "internalType": "address",
          "name": "",
          "type": "address"
        }
      ],
      "stateMutability": "view",
      "type": "function"
    },
    {
      "inputs": [],
      "name": "paused",
      "outputs": [
        {
          "internalType": "bool",
          "name": "",
          "type": "bool"
        }
      ],
      "stateMutability": "view",
      "type": "function"
    },
    {
      "inputs": [],
      "name": "renounceOwnership",
      "outputs": [],
      "stateMutability": "nonpayable",
      "type": "function"
    },
    {
      "inputs": [
        {
          "internalType": "address",
          "name": "newOwner",
          "type": "address"
        }
      ],
      "name": "transferOwnership",
      "outputs": [],
      "stateMutability": "nonpayable",
      "type": "function"
    },
    {
      "stateMutability": "payable",
      "type": "receive"
    },
    {
      "inputs": [
        {
          "internalType": "uint256",
          "name": "assetId",
          "type": "uint256"
        },
        {
          "internalType": "string",
          "name": "description",
          "type": "string"
        }
      ],
      "name": "requestMaintenance",
      "outputs": [
        {
          "internalType": "uint256",
          "name": "",
          "type": "uint256"
        }
      ],
      "stateMutability": "nonpayable",
      "type": "function"
    },
    {
      "inputs": [
        {
          "internalType": "uint256",
          "name": "requestId",
          "type": "uint256"
        },
        {
          "internalType": "uint256",
          "name": "cost",
          "type": "uint256"
        },
        {
          "internalType": "address",
          "name": "serviceProvider",
          "type": "address"
        }
      ],
      "name": "approveMaintenance",
      "outputs": [],
      "stateMutability": "nonpayable",
      "type": "function"
    },
    {
      "inputs": [
        {
          "internalType": "uint256",
          "name": "requestId",
          "type": "uint256"
        }
      ],
      "name": "startMaintenance",
      "outputs": [],
      "stateMutability": "nonpayable",
      "type": "function"
    },
    {
      "inputs": [
        {
          "internalType": "uint256",
          "name": "requestId",
          "type": "uint256"
        }
      ],
      "name": "completeMaintenance",
      "outputs": [],
      "stateMutability": "nonpayable",
      "type": "function"
    },
    {
      "inputs": [
        {
          "internalType": "uint256",
          "name": "requestId",
          "type": "uint256"
        }
      ],
      "name": "cancelMaintenance",
      "outputs": [],
      "stateMutability": "nonpayable",
      "type": "function"
    },
    {
      "inputs": [
        {
          "internalType": "uint256",
          "name": "requestId",
          "type": "uint256"
        }
      ],
      "name": "rejectMaintenance",
      "outputs": [],
      "stateMutability": "nonpayable",
      "type": "function"
    },
    {
      "inputs": [
        {
          "internalType": "uint256",
          "name": "requestId",
          "type": "uint256"
        }
      ],
      "name": "getMaintenanceRequest",
      "outputs": [
        {
          "components": [
            {
              "internalType": "uint256",
              "name": "id",
              "type": "uint256"
            },
            {
              "internalType": "uint256",
              "name": "assetId",
              "type": "uint256"
            },
            {
              "internalType": "string",
              "name": "description",
              "type": "string"
            },
            {
              "internalType": "address",
              "name": "requester",
              "type": "address"
            },
            {
              "internalType": "uint256",
              "name": "timestamp",
              "type": "uint256"
            },
            {
              "internalType": "uint256",
              "name": "cost",
              "type": "uint256"
            },
            {
              "internalType": "address",
              "name": "approvedBy",
              "type": "address"
            },
            {
              "internalType": "address",
              "name": "serviceProvider",
              "type": "address"
            },
            {
              "internalType": "enum MaintenanceTracking.RequestStatus",
              "name": "status",
              "type": "uint8"
            }
          ],
          "internalType": "struct MaintenanceTracking.MaintenanceRequest",
          "name": "",
          "type": "tuple"
        }
      ],
      "stateMutability": "view",
      "type": "function"
    },
    {
      "inputs": [
        {
          "internalType": "uint256",
          "name": "assetId",
          "type": "uint256"
        }
      ],
      "name": "getActiveRequestsForAsset",
      "outputs": [
        {
          "internalType": "uint256[]",
          "name": "",
          "type": "uint256[]"
        }
      ],
      "stateMutability": "view",
      "type": "function"
    },
    {
      "inputs": [],
      "name": "totalRequests",
      "outputs": [
        {
          "internalType": "uint256",
          "name": "",
          "type": "uint256"
        }
      ],
      "stateMutability": "view",
      "type": "function"
    },
    {
      "inputs": [],
      "name": "pause",
      "outputs": [],
      "stateMutability": "nonpayable",
      "type": "function"
    },
    {
      "inputs": [],
      "name": "unpause",
      "outputs": [],
      "stateMutability": "nonpayable",
      "type": "function"
    },
    {
      "inputs": [
        {
          "internalType": "address",
          "name": "to",
          "type": "address"
        },
        {
          "internalType": "uint256",
          "name": "amount",
          "type": "uint256"
        }
      ],
      "name": "withdrawFunds",
      "outputs": [],
      "stateMutability": "nonpayable",
      "type": "function"
    }
  ],
  "bytecode": "0x608060405234801562000010575f80fd5b50335f73ffffffffffffffffffffffffffffffffffffffff168173ffffffffffffffffffffffffffffffffffffffff160362000085575f6040517f1e4fbdf70000000000000000000000000000000000000000000000000000000081526004016200007c9190620001c1565b60405180910390fd5b6200009681620000bd60201b60201c565b505f8060146101000a81548160ff02191690831515021790555060018081905550620001dc565b5f805f9054906101000a900473ffffffffffffffffffffffffffffffffffffffff169050815f806101000a81548173ffffffffffffffffffffffffffffffffffffffff021916908373ffffffffffffffffffffffffffffffffffffffff1602179055508173ffffffffffffffffffffffffffffffffffffffff168173ffffffffffffffffffffffffffffffffffffffff167f8be0079c531659141344cd1fd0a4f28419497f9722a3daafe3b4186f6b6457e060405160405180910390a35050565b5f73ffffffffffffffffffffffffffffffffffffffff82169050919050565b5f620001a9826200017e565b9050919050565b620001bb816200019d565b82525050565b5f602082019050620001d65f830184620001b0565b92915050565b612f1980620001ea5f395ff3fe6080604052600436106100f6575f3560e01c80638aea61dc11610089578063c107532911610058578063c107532914610387578063ccab1697146103af578063e11afb6b146103d7578063f2fde38b146103ff5761014b565b80638aea61dc146102cf5780638da5cb5b146102f9578063a092489114610323578063a948fbbf1461034b5761014b565b80636ce2a509116100c55780636ce2a5091461022b578063715018a61461026757806379f4ffb91461027d5780638456cb59146102b95761014b565b8063214110d61461019b5780633f4ba83a146101c35780634ad1d941146101d95780635c975abb146102015761014b565b3661014b573373ffffffffffffffffffffffffffffffffffffffff167f8e47b87b0ef542cdfa1659c551d88bad38aa7f452d2bbb349ab7530dfec8be8f346040516101419190611bed565b60405180910390a2005b3373ffffffffffffffffffffffffffffffffffffffff167f8e47b87b0ef542cdfa1659c551d88bad38aa7f452d2bbb349ab7530dfec8be8f346040516101919190611bed565b60405180910390a2005b3480156101a6575f80fd5b506101c160048036038101906101bc9190611c38565b610427565b005b3480156101ce575f80fd5b506101d761072c565b005b3480156101e4575f80fd5b506101ff60048036038101906101fa9190611cbd565b61073e565b005b34801561020c575f80fd5b50610215610958565b6040516102229190611d27565b60405180910390f35b348015610236575f80fd5b50610251600480360381019061024c9190611c38565b61096d565b60405161025e9190611f1d565b60405180910390f35b348015610272575f80fd5b5061027b610b8a565b005b348015610288575f80fd5b506102a3600480360381019061029e9190611f9e565b610b9d565b6040516102b09190611bed565b60405180910390f35b3480156102c4575f80fd5b506102cd610eb3565b005b3480156102da575f80fd5b506102e3610ec5565b6040516102f09190611bed565b60405180910390f35b348015610304575f80fd5b5061030d610ece565b60405161031a919061200a565b60405180910390f35b34801561032e575f80fd5b5061034960048036038101906103449190611c38565b610ef5565b005b348015610356575f80fd5b50610371600480360381019061036c9190611c38565b61108f565b60405161037e91906120cb565b60405180910390f35b348015610392575f80fd5b506103ad60048036038101906103a891906120eb565b6110b1565b005b3480156103ba575f80fd5b506103d560048036038101906103d09190611c38565b611275565b005b3480156103e2575f80fd5b506103fd60048036038101906103f89190611c38565b6113ad565b005b34801561040a575f80fd5b5061042560048036038101906104209190612129565b6115ae565b005b61042f611632565b610437611673565b5f60035f8381526020019081526020015f2090506002600481111561045f5761045e611de8565b5b8160070160149054906101000a900460ff16600481111561048357610482611de8565b5b146104c3576040517f08c379a00000000000000000000000000000000000000000000000000000000081526004016104ba906121d4565b60405180910390fd5b3373ffffffffffffffffffffffffffffffffffffffff16816007015f9054906101000a900473ffffffffffffffffffffffffffffffffffffffff1673ffffffffffffffffffffffffffffffffffffffff1614610554576040517f08c379a000000000000000000000000000000000000000000000000000000000815260040161054b90612288565b60405180910390fd5b60038160070160146101000a81548160ff0219169083600481111561057c5761057b611de8565b5b02179055506105a88260045f846001015481526020019081526020015f206116b990919063ffffffff16565b505f816005015411156106cd5780600501544710156105fc576040517f08c379a00000000000000000000000000000000000000000000000000000000081526004016105f390612316565b60405180910390fd5b5f816007015f9054906101000a900473ffffffffffffffffffffffffffffffffffffffff1673ffffffffffffffffffffffffffffffffffffffff16826005015460405161064890612361565b5f6040518083038185875af1925050503d805f8114610682576040519150601f19603f3d011682016040523d82523d5f602084013e610687565b606091505b50509050806106cb576040517f08c379a00000000000000000000000000000000000000000000000000000000081526004016106c2906123e5565b60405180910390fd5b505b3373ffffffffffffffffffffffffffffffffffffffff16827f280cedcfeaa086530db10e67b54ca3c746a31522b8a6ae169d3a883739fa418583600501546040516107189190611bed565b60405180910390a3506107296116d0565b50565b6107346116d9565b61073c611760565b565b6107466116d9565b61074e611632565b5f73ffffffffffffffffffffffffffffffffffffffff168173ffffffffffffffffffffffffffffffffffffffff16036107bc576040517f08c379a00000000000000000000000000000000000000000000000000000000081526004016107b390612473565b60405180910390fd5b5f60035f8581526020019081526020015f2090505f60048111156107e3576107e2611de8565b5b8160070160149054906101000a900460ff16600481111561080757610806611de8565b5b14610847576040517f08c379a000000000000000000000000000000000000000000000000000000000815260040161083e90612501565b60405180910390fd5b82816005018190555033816006015f6101000a81548173ffffffffffffffffffffffffffffffffffffffff021916908373ffffffffffffffffffffffffffffffffffffffff16021790555081816007015f6101000a81548173ffffffffffffffffffffffffffffffffffffffff021916908373ffffffffffffffffffffffffffffffffffffffff16021790555060018160070160146101000a81548160ff021916908360048111156108fc576108fb611de8565b5b02179055503373ffffffffffffffffffffffffffffffffffffffff16847f18f8bd1296bb22ec8e96cb8ed0e63a86d8ebe6fcbd8919bfd26c13b6f6c5494b858560405161094a92919061251f565b60405180910390a350505050565b5f8060149054906101000a900460ff16905090565b610975611b3d565b60035f8381526020019081526020015f20604051806101200160405290815f8201548152602001600182015481526020016002820180546109b590612573565b80601f01602080910402602001604051908101604052809291908181526020018280546109e190612573565b8015610a2c5780601f10610a0357610100808354040283529160200191610a2c565b820191905f5260205f20905b815481529060010190602001808311610a0f57829003601f168201915b50505050508152602001600382015f9054906101000a900473ffffffffffffffffffffffffffffffffffffffff1673ffffffffffffffffffffffffffffffffffffffff1673ffffffffffffffffffffffffffffffffffffffff1681526020016004820154815260200160058201548152602001600682015f9054906101000a900473ffffffffffffffffffffffffffffffffffffffff1673ffffffffffffffffffffffffffffffffffffffff1673ffffffffffffffffffffffffffffffffffffffff168152602001600782015f9054906101000a900473ffffffffffffffffffffffffffffffffffffffff1673ffffffffffffffffffffffffffffffffffffffff1673ffffffffffffffffffffffffffffffffffffffff1681526020016007820160149054906101000a900460ff166004811115610b6d57610b6c611de8565b5b6004811115610b7f57610b7e611de8565b5b815250509050919050565b610b926116d9565b610b9b5f6117c1565b565b5f610ba6611632565b5f8383905011610beb576040517f08c379a0000000000000000000000000000000000000000000000000000000008152600401610be290612613565b60405180910390fd5b60025f815480929190610bfd9061265e565b91905055505f600254905060405180610120016040528082815260200186815260200185858080601f0160208091040260200160405190810160405280939291908181526020018383808284375f81840152601f19601f8201169050808301925050505050505081526020013373ffffffffffffffffffffffffffffffffffffffff1681526020014281526020015f81526020015f73ffffffffffffffffffffffffffffffffffffffff1681526020015f73ffffffffffffffffffffffffffffffffffffffff1681526020015f6004811115610cdc57610cdb611de8565b5b81525060035f8381526020019081526020015f205f820151815f0155602082015181600101556040820151816002019081610d17919061286f565b506060820151816003015f6101000a81548173ffffffffffffffffffffffffffffffffffffffff021916908373ffffffffffffffffffffffffffffffffffffffff1602179055506080820151816004015560a0820151816005015560c0820151816006015f6101000a81548173ffffffffffffffffffffffffffffffffffffffff021916908373ffffffffffffffffffffffffffffffffffffffff16021790555060e0820151816007015f6101000a81548173ffffffffffffffffffffffffffffffffffffffff021916908373ffffffffffffffffffffffffffffffffffffffff1602179055506101008201518160070160146101000a81548160ff02191690836004811115610e2a57610e29611de8565b5b0217905550905050610e558160045f8881526020019081526020015f2061188290919063ffffffff16565b503373ffffffffffffffffffffffffffffffffffffffff1685827f8eaaf0a2ddf72aac30554a31bef09a2a3730435187b13483c8f03b707520b06b8787604051610ea0929190612978565b60405180910390a4809150509392505050565b610ebb6116d9565b610ec3611899565b565b5f600254905090565b5f805f9054906101000a900473ffffffffffffffffffffffffffffffffffffffff16905090565b610efd611632565b5f60035f8381526020019081526020015f2090503373ffffffffffffffffffffffffffffffffffffffff16816007015f9054906101000a900473ffffffffffffffffffffffffffffffffffffffff1673ffffffffffffffffffffffffffffffffffffffff1614610fa2576040517f08c379a0000000000000000000000000000000000000000000000000000000008152600401610f9990612a30565b60405180910390fd5b60016004811115610fb657610fb5611de8565b5b8160070160149054906101000a900460ff166004811115610fda57610fd9611de8565b5b1461101a576040517f08c379a000000000000000000000000000000000000000000000000000000000815260040161101190612abe565b60405180910390fd5b60028160070160146101000a81548160ff0219169083600481111561104257611041611de8565b5b02179055503373ffffffffffffffffffffffffffffffffffffffff16827f12c6212a092000a772623f99abfca127c5c25c966686a610aac238c570c8c92160405160405180910390a35050565b60606110aa60045f8481526020019081526020015f206118fb565b9050919050565b6110b96116d9565b6110c1611673565b5f73ffffffffffffffffffffffffffffffffffffffff168273ffffffffffffffffffffffffffffffffffffffff160361112f576040517f08c379a000000000000000000000000000000000000000000000000000000000815260040161112690612b4c565b60405180910390fd5b80471015611172576040517f08c379a000000000000000000000000000000000000000000000000000000000815260040161116990612bda565b60405180910390fd5b5f8273ffffffffffffffffffffffffffffffffffffffff168260405161119790612361565b5f6040518083038185875af1925050503d805f81146111d1576040519150601f19603f3d011682016040523d82523d5f602084013e6111d6565b606091505b505090508061121a576040517f08c379a000000000000000000000000000000000000000000000000000000000815260040161121190612c68565b60405180910390fd5b8273ffffffffffffffffffffffffffffffffffffffff167feaff4b37086828766ad3268786972c0cd24259d4c87a80f9d3963a3c3d999b0d836040516112609190611bed565b60405180910390a2506112716116d0565b5050565b61127d6116d9565b611285611632565b5f60035f8381526020019081526020015f2090505f60048111156112ac576112ab611de8565b5b8160070160149054906101000a900460ff1660048111156112d0576112cf611de8565b5b14611310576040517f08c379a000000000000000000000000000000000000000000000000000000000815260040161130790612cf6565b60405180910390fd5b60048160070160146101000a81548160ff0219169083600481111561133857611337611de8565b5b02179055506113648260045f846001015481526020019081526020015f206116b990919063ffffffff16565b503373ffffffffffffffffffffffffffffffffffffffff16827faddbebb004a31e4024eb4414cb64b3fab8ebf998ea739d0c1654831684a927e260405160405180910390a35050565b6113b5611632565b5f60035f8381526020019081526020015f2090503373ffffffffffffffffffffffffffffffffffffffff16816003015f9054906101000a900473ffffffffffffffffffffffffffffffffffffffff1673ffffffffffffffffffffffffffffffffffffffff161461145a576040517f08c379a000000000000000000000000000000000000000000000000000000000815260040161145190612d84565b60405180910390fd5b5f600481111561146d5761146c611de8565b5b8160070160149054906101000a900460ff16600481111561149157611490611de8565b5b14806114d25750600160048111156114ac576114ab611de8565b5b8160070160149054906101000a900460ff1660048111156114d0576114cf611de8565b5b145b611511576040517f08c379a000000000000000000000000000000000000000000000000000000000815260040161150890612e38565b60405180910390fd5b60048160070160146101000a81548160ff0219169083600481111561153957611538611de8565b5b02179055506115658260045f846001015481526020019081526020015f206116b990919063ffffffff16565b503373ffffffffffffffffffffffffffffffffffffffff16827f9ccdd10cd6a3832cbd2198d5295c699a66ea41d956e33d751de5e9ed9c62711360405160405180910390a35050565b6115b66116d9565b5f73ffffffffffffffffffffffffffffffffffffffff168173ffffffffffffffffffffffffffffffffffffffff1603611626575f6040517f1e4fbdf700000000000000000000000000000000000000000000000000000000815260040161161d919061200a565b60405180910390fd5b61162f816117c1565b50565b61163a610958565b15611671576040517fd93c066500000000000000000000000000000000000000000000000000000000815260040160405180910390fd5b565b6002600154036116af576040517f3ee5aeb500000000000000000000000000000000000000000000000000000000815260040160405180910390fd5b6002600181905550565b5f6116c8835f01835f1b61191a565b905092915050565b60018081905550565b6116e1611a16565b73ffffffffffffffffffffffffffffffffffffffff166116ff610ece565b73ffffffffffffffffffffffffffffffffffffffff161461175e57611722611a16565b6040517f118cdaa7000000000000000000000000000000000000000000000000000000008152600401611755919061200a565b60405180910390fd5b565b611768611a1d565b5f8060146101000a81548160ff0219169083151502179055507f5db9ee0a495bf2e6ff9c91a7834c1ba4fdd244a5e8aa4e537bd38aeae4b073aa6117aa611a16565b6040516117b7919061200a565b60405180910390a1565b5f805f9054906101000a900473ffffffffffffffffffffffffffffffffffffffff169050815f806101000a81548173ffffffffffffffffffffffffffffffffffffffff021916908373ffffffffffffffffffffffffffffffffffffffff1602179055508173ffffffffffffffffffffffffffffffffffffffff168173ffffffffffffffffffffffffffffffffffffffff167f8be0079c531659141344cd1fd0a4f28419497f9722a3daafe3b4186f6b6457e060405160405180910390a35050565b5f611891835f01835f1b611a5d565b905092915050565b6118a1611632565b60015f60146101000a81548160ff0219169083151502179055507f62e78cea01bee320cd4e420270b5ea74000d11b0c9f74754ebdbfc544b05a2586118e4611a16565b6040516118f1919061200a565b60405180910390a1565b60605f611909835f01611ac4565b905060608190508092505050919050565b5f80836001015f8481526020019081526020015f205490505f8114611a0b575f6001826119479190612e56565b90505f6001865f018054905061195d9190612e56565b90508082146119c3575f865f01828154811061197c5761197b612e89565b5b905f5260205f200154905080875f01848154811061199d5761199c612e89565b5b905f5260205f20018190555083876001015f8381526020019081526020015f2081905550505b855f018054806119d6576119d5612eb6565b5b600190038181905f5260205f20015f90559055856001015f8681526020019081526020015f205f905560019350505050611a10565b5f9150505b92915050565b5f33905090565b611a25610958565b611a5b576040517f8dfc202b00000000000000000000000000000000000000000000000000000000815260040160405180910390fd5b565b5f611a688383611b1d565b611aba57825f0182908060018154018082558091505060019003905f5260205f20015f9091909190915055825f0180549050836001015f8481526020019081526020015f208190555060019050611abe565b5f90505b92915050565b6060815f01805480602002602001604051908101604052809291908181526020018280548015611b1157602002820191905f5260205f20905b815481526020019060010190808311611afd575b50505050509050919050565b5f80836001015f8481526020019081526020015f20541415905092915050565b6040518061012001604052805f81526020015f8152602001606081526020015f73ffffffffffffffffffffffffffffffffffffffff1681526020015f81526020015f81526020015f73ffffffffffffffffffffffffffffffffffffffff1681526020015f73ffffffffffffffffffffffffffffffffffffffff1681526020015f6004811115611bcf57611bce611de8565b5b81525090565b5f819050919050565b611be781611bd5565b82525050565b5f602082019050611c005f830184611bde565b92915050565b5f80fd5b5f80fd5b611c1781611bd5565b8114611c21575f80fd5b50565b5f81359050611c3281611c0e565b92915050565b5f60208284031215611c4d57611c4c611c06565b5b5f611c5a84828501611c24565b91505092915050565b5f73ffffffffffffffffffffffffffffffffffffffff82169050919050565b5f611c8c82611c63565b9050919050565b611c9c81611c82565b8114611ca6575f80fd5b50565b5f81359050611cb781611c93565b92915050565b5f805f60608486031215611cd457611cd3611c06565b5b5f611ce186828701611c24565b9350506020611cf286828701611c24565b9250506040611d0386828701611ca9565b9150509250925092565b5f8115159050919050565b611d2181611d0d565b82525050565b5f602082019050611d3a5f830184611d18565b92915050565b611d4981611bd5565b82525050565b5f81519050919050565b5f82825260208201905092915050565b5f5b83811015611d86578082015181840152602081019050611d6b565b5f8484015250505050565b5f601f19601f8301169050919050565b5f611dab82611d4f565b611db58185611d59565b9350611dc5818560208601611d69565b611dce81611d91565b840191505092915050565b611de281611c82565b82525050565b7f4e487b71000000000000000000000000000000000000000000000000000000005f52602160045260245ffd5b60058110611e2657611e25611de8565b5b50565b5f819050611e3682611e15565b919050565b5f611e4582611e29565b9050919050565b611e5581611e3b565b82525050565b5f61012083015f830151611e715f860182611d40565b506020830151611e846020860182611d40565b5060408301518482036040860152611e9c8282611da1565b9150506060830151611eb16060860182611dd9565b506080830151611ec46080860182611d40565b5060a0830151611ed760a0860182611d40565b5060c0830151611eea60c0860182611dd9565b5060e0830151611efd60e0860182611dd9565b50610100830151611f12610100860182611e4c565b508091505092915050565b5f6020820190508181035f830152611f358184611e5b565b905092915050565b5f80fd5b5f80fd5b5f80fd5b5f8083601f840112611f5e57611f5d611f3d565b5b8235905067ffffffffffffffff811115611f7b57611f7a611f41565b5b602083019150836001820283011115611f9757611f96611f45565b5b9250929050565b5f805f60408486031215611fb557611fb4611c06565b5b5f611fc286828701611c24565b935050602084013567ffffffffffffffff811115611fe357611fe2611c0a565b5b611fef86828701611f49565b92509250509250925092565b61200481611c82565b82525050565b5f60208201905061201d5f830184611ffb565b92915050565b5f81519050919050565b5f82825260208201905092915050565b5f819050602082019050919050565b5f6120578383611d40565b60208301905092915050565b5f602082019050919050565b5f61207982612023565b612083818561202d565b935061208e8361203d565b805f5b838110156120be5781516120a5888261204c565b97506120b083612063565b925050600181019050612091565b5085935050505092915050565b5f6020820190508181035f8301526120e3818461206f565b905092915050565b5f806040838503121561210157612100611c06565b5b5f61210e85828601611ca9565b925050602061211f85828601611c24565b9150509250929050565b5f6020828403121561213e5761213d611c06565b5b5f61214b84828501611ca9565b91505092915050565b5f82825260208201905092915050565b7f4d61696e74656e616e6365547261636b696e673a204d61696e74656e616e63655f8201527f206e6f7420696e2070726f677265737300000000000000000000000000000000602082015250565b5f6121be603083612154565b91506121c982612164565b604082019050919050565b5f6020820190508181035f8301526121eb816121b2565b9050919050565b7f4d61696e74656e616e6365547261636b696e673a204f6e6c792061737369676e5f8201527f656420736572766963652070726f76696465722063616e20636f6d706c65746560208201527f206d61696e74656e616e63650000000000000000000000000000000000000000604082015250565b5f612272604c83612154565b915061227d826121f2565b606082019050919050565b5f6020820190508181035f83015261229f81612266565b9050919050565b7f4d61696e74656e616e6365547261636b696e673a20496e73756666696369656e5f8201527f7420636f6e74726163742062616c616e63650000000000000000000000000000602082015250565b5f612300603283612154565b915061230b826122a6565b604082019050919050565b5f6020820190508181035f83015261232d816122f4565b9050919050565b5f81905092915050565b50565b5f61234c5f83612334565b91506123578261233e565b5f82019050919050565b5f61236b82612341565b9150819050919050565b7f4d61696e74656e616e6365547261636b696e673a205472616e736665722066615f8201527f696c656400000000000000000000000000000000000000000000000000000000602082015250565b5f6123cf602483612154565b91506123da82612375565b604082019050919050565b5f6020820190508181035f8301526123fc816123c3565b9050919050565b7f4d61696e74656e616e6365547261636b696e673a20536572766963652070726f5f8201527f76696465722063616e6e6f74206265207a65726f206164647265737300000000602082015250565b5f61245d603c83612154565b915061246882612403565b604082019050919050565b5f6020820190508181035f83015261248a81612451565b9050919050565b7f4d61696e74656e616e6365547261636b696e673a2052657175657374206e6f745f8201527f2070656e64696e67206f7220616c726561647920617070726f76656400000000602082015250565b5f6124eb603c83612154565b91506124f682612491565b604082019050919050565b5f6020820190508181035f830152612518816124df565b9050919050565b5f6040820190506125325f830185611bde565b61253f6020830184611ffb565b9392505050565b7f4e487b71000000000000000000000000000000000000000000000000000000005f52602260045260245ffd5b5f600282049050600182168061258a57607f821691505b60208210810361259d5761259c612546565b5b50919050565b7f4d61696e74656e616e6365547261636b696e673a204465736372697074696f6e5f8201527f2063616e6e6f7420626520656d70747900000000000000000000000000000000602082015250565b5f6125fd603083612154565b9150612608826125a3565b604082019050919050565b5f6020820190508181035f83015261262a816125f1565b9050919050565b7f4e487b71000000000000000000000000000000000000000000000000000000005f52601160045260245ffd5b5f61266882611bd5565b91507fffffffffffffffffffffffffffffffffffffffffffffffffffffffffffffffff820361269a57612699612631565b5b600182019050919050565b7f4e487b71000000000000000000000000000000000000000000000000000000005f52604160045260245ffd5b5f819050815f5260205f209050919050565b5f6020601f8301049050919050565b5f82821b905092915050565b5f6008830261272e7fffffffffffffffffffffffffffffffffffffffffffffffffffffffffffffffff826126f3565b61273886836126f3565b95508019841693508086168417925050509392505050565b5f819050919050565b5f61277361276e61276984611bd5565b612750565b611bd5565b9050919050565b5f819050919050565b61278c83612759565b6127a06127988261277a565b8484546126ff565b825550505050565b5f90565b6127b46127a8565b6127bf818484612783565b505050565b5b818110156127e2576127d75f826127ac565b6001810190506127c5565b5050565b601f821115612827576127f8816126d2565b612801846126e4565b81016020851015612810578190505b61282461281c856126e4565b8301826127c4565b50505b505050565b5f82821c905092915050565b5f6128475f198460080261282c565b1980831691505092915050565b5f61285f8383612838565b9150826002028217905092915050565b61287882611d4f565b67ffffffffffffffff811115612891576128906126a5565b5b61289b8254612573565b6128a68282856127e6565b5f60209050601f8311600181146128d7575f84156128c5578287015190505b6128cf8582612854565b865550612936565b601f1984166128e5866126d2565b5f5b8281101561290c578489015182556001820191506020850194506020810190506128e7565b868310156129295784890151612925601f891682612838565b8355505b6001600288020188555050505b505050505050565b828183375f83830152505050565b5f6129578385612154565b935061296483858461293e565b61296d83611d91565b840190509392505050565b5f6020820190508181035f83015261299181848661294c565b90509392505050565b7f4d61696e74656e616e6365547261636b696e673a204f6e6c792061737369676e5f8201527f656420736572766963652070726f76696465722063616e207374617274206d6160208201527f696e74656e616e63650000000000000000000000000000000000000000000000604082015250565b5f612a1a604983612154565b9150612a258261299a565b606082019050919050565b5f6020820190508181035f830152612a4781612a0e565b9050919050565b7f4d61696e74656e616e6365547261636b696e673a2052657175657374206e6f745f8201527f20617070726f766564206f7220616c7265616479207374617274656400000000602082015250565b5f612aa8603c83612154565b9150612ab382612a4e565b604082019050919050565b5f6020820190508181035f830152612ad581612a9c565b9050919050565b7f4d61696e74656e616e6365547261636b696e673a20526563697069656e7420635f8201527f616e6e6f74206265207a65726f20616464726573730000000000000000000000602082015250565b5f612b36603583612154565b9150612b4182612adc565b604082019050919050565b5f6020820190508181035f830152612b6381612b2a565b9050919050565b7f4d61696e74656e616e6365547261636b696e673a20496e73756666696369656e5f8201527f742062616c616e63650000000000000000000000000000000000000000000000602082015250565b5f612bc4602983612154565b9150612bcf82612b6a565b604082019050919050565b5f6020820190508181035f830152612bf181612bb8565b9050919050565b7f4d61696e74656e616e6365547261636b696e673a205769746864726177616c205f8201527f6661696c65640000000000000000000000000000000000000000000000000000602082015250565b5f612c52602683612154565b9150612c5d82612bf8565b604082019050919050565b5f6020820190508181035f830152612c7f81612c46565b9050919050565b7f4d61696e74656e616e6365547261636b696e673a2043616e206f6e6c792072655f8201527f6a6563742070656e64696e672072657175657374730000000000000000000000602082015250565b5f612ce0603583612154565b9150612ceb82612c86565b604082019050919050565b5f6020820190508181035f830152612d0d81612cd4565b9050919050565b7f4d61696e74656e616e6365547261636b696e673a204f6e6c79207265717565735f8201527f7465722063616e2063616e63656c000000000000000000000000000000000000602082015250565b5f612d6e602e83612154565b9150612d7982612d14565b604082019050919050565b5f6020820190508181035f830152612d9b81612d62565b9050919050565b7f4d61696e74656e616e6365547261636b696e673a2043616e6e6f742063616e635f8201527f656c20612072657175657374207468617420697320696e2070726f677265737360208201527f206f7220636f6d706c6574656400000000000000000000000000000000000000604082015250565b5f612e22604d83612154565b9150612e2d82612da2565b606082019050919050565b5f6020820190508181035f830152612e4f81612e16565b9050919050565b5f612e6082611bd5565b9150612e6b83611bd5565b9250828203905081811115612e8357612e82612631565b5b92915050565b7f4e487b71000000000000000000000000000000000000000000000000000000005f52603260045260245ffd5b7f4e487b71000000000000000000000000000000000000000000000000000000005f52603160045260245ffdfea2646970667358221220af87b35e1e7329c5052e87cb7fe9306f5ecf152e18d7cc5fca44498570f90d8964736f6c63430008140033",
  "immutableReferences": {},
  "source": "// SPDX-License-Identifier: MIT\npragma solidity ^0.8.20;\n\nimport \"@openzeppelin/contracts/access/Ownable.sol\";\nimport \"@openzeppelin/contracts/utils/structs/EnumerableSet.sol\";\nimport \"@openzeppelin/contracts/utils/Pausable.sol\";\nimport \"@openzeppelin/contracts/utils/ReentrancyGuard.sol\";\n\ncontract MaintenanceTracking is Ownable(msg.sender), Pausable, ReentrancyGuard {\n    using EnumerableSet for EnumerableSet.UintSet;\n\n    // Enum to represent the status of a maintenance request\n    enum RequestStatus { Pending, Approved, InProgress, Completed, Canceled }\n\n    // Struct to represent a maintenance request\n    struct MaintenanceRequest {\n        uint256 id;\n        uint256 assetId;\n        string description;\n        address requester;\n        uint256 timestamp;\n        uint256 cost;\n        address approvedBy;\n        address serviceProvider;\n        RequestStatus status;\n    }\n\n    // Events\n    event MaintenanceRequested(uint256 indexed requestId, uint256 indexed assetId, address indexed requester, string description);\n    event MaintenanceApproved(uint256 indexed requestId, address indexed approvedBy, uint256 cost, address serviceProvider);\n    event MaintenanceStarted(uint256 indexed requestId, address indexed serviceProvider);\n    event MaintenanceCompleted(uint256 indexed requestId, uint256 cost, address indexed serviceProvider);\n    event MaintenanceCanceled(uint256 indexed requestId, address indexed requester);\n    event MaintenanceRejected(uint256 indexed requestId, address indexed rejectedBy);\n    event FundsWithdrawn(address indexed to, uint256 amount);\n    event FundsReceived(address indexed from, uint256 amount);\n    \n    // Counter for request IDs\n    uint256 private _requestCounter;\n    \n    // Maintenance requests by their ID\n    mapping(uint256 => MaintenanceRequest) private _requests;\n\n    // Active requests for an asset\n    mapping(uint256 => EnumerableSet.UintSet) private _activeRequestsByAsset;\n\n    // Function to request maintenance for an asset\n    function requestMaintenance(uint256 assetId, string calldata description) external whenNotPaused returns (uint256) {\n        require(bytes(description).length > 0, \"MaintenanceTracking: Description cannot be empty\");\n\n        _requestCounter++;\n        uint256 requestId = _requestCounter;\n\n        _requests[requestId] = MaintenanceRequest({\n            id: requestId,\n            assetId: assetId,\n            description: description,\n            requester: msg.sender,\n            timestamp: block.timestamp,\n            cost: 0,\n            approvedBy: address(0),\n            serviceProvider: address(0),\n            status: RequestStatus.Pending\n        });\n\n        _activeRequestsByAsset[assetId].add(requestId);\n\n        emit MaintenanceRequested(requestId, assetId, msg.sender, description);\n        return requestId;\n    }\n\n    // Function to approve a maintenance request\n    function approveMaintenance(uint256 requestId, uint256 cost, address serviceProvider) external onlyOwner whenNotPaused {\n        require(serviceProvider != address(0), \"MaintenanceTracking: Service provider cannot be zero address\");\n\n        MaintenanceRequest storage request = _requests[requestId];\n        require(request.status == RequestStatus.Pending, \"MaintenanceTracking: Request not pending or already approved\");\n\n        request.cost = cost;\n        request.approvedBy = msg.sender;\n        request.serviceProvider = serviceProvider;\n        request.status = RequestStatus.Approved;\n\n        emit MaintenanceApproved(requestId, msg.sender, cost, serviceProvider);\n    }\n\n    // Function for service provider to start maintenance\n    function startMaintenance(uint256 requestId) external whenNotPaused {\n        MaintenanceRequest storage request = _requests[requestId];\n        require(request.serviceProvider == msg.sender, \"MaintenanceTracking: Only assigned service provider can start maintenance\");\n        require(request.status == RequestStatus.Approved, \"MaintenanceTracking: Request not approved or already started\");\n\n        request.status = RequestStatus.InProgress;\n\n        emit MaintenanceStarted(requestId, msg.sender);\n    }\n\n    // Function for service provider to mark maintenance as completed and receive payment\n    function completeMaintenance(uint256 requestId) external whenNotPaused nonReentrant {\n        MaintenanceRequest storage request = _requests[requestId];\n        require(request.status == RequestStatus.InProgress, \"MaintenanceTracking: Maintenance not in progress\");\n        require(request.serviceProvider == msg.sender, \"MaintenanceTracking: Only assigned service provider can complete maintenance\");\n\n        // Update state before external call\n        request.status = RequestStatus.Completed;\n        _activeRequestsByAsset[request.assetId].remove(requestId);\n\n        // Transfer funds to serviceProvider\n        if (request.cost > 0) {\n            require(address(this).balance >= request.cost, \"MaintenanceTracking: Insufficient contract balance\");\n            (bool success, ) = request.serviceProvider.call{value: request.cost}(\"\");\n            require(success, \"MaintenanceTracking: Transfer failed\");\n        }\n\n        emit MaintenanceCompleted(requestId, request.cost, msg.sender);\n    }\n\n    // Function to cancel a maintenance request\n    function cancelMaintenance(uint256 requestId) external whenNotPaused {\n        MaintenanceRequest storage request = _requests[requestId];\n        require(request.requester == msg.sender, \"MaintenanceTracking: Only requester can cancel\");\n        require(\n            request.status == RequestStatus.Pending || request.status == RequestStatus.Approved,\n            \"MaintenanceTracking: Cannot cancel a request that is in progress or completed\"\n        );\n\n        request.status = RequestStatus.Canceled;\n        _activeRequestsByAsset[request.assetId].remove(requestId);\n\n        emit MaintenanceCanceled(requestId, msg.sender);\n    }\n\n    // Function to reject a maintenance request\n    function rejectMaintenance(uint256 requestId) external onlyOwner whenNotPaused {\n        MaintenanceRequest storage request = _requests[requestId];\n        require(request.status == RequestStatus.Pending, \"MaintenanceTracking: Can only reject pending requests\");\n\n        request.status = RequestStatus.Canceled;\n        _activeRequestsByAsset[request.assetId].remove(requestId);\n\n        emit MaintenanceRejected(requestId, msg.sender);\n    }\n\n    // Function to get the details of a maintenance request\n    function getMaintenanceRequest(uint256 requestId) external view returns (MaintenanceRequest memory) {\n        return _requests[requestId];\n    }\n\n    // Function to get all active maintenance requests for an asset\n    function getActiveRequestsForAsset(uint256 assetId) external view returns (uint256[] memory) {\n        return _activeRequestsByAsset[assetId].values();\n    }\n\n    // Function to get the total number of maintenance requests\n    function totalRequests() external view returns (uint256) {\n        return _requestCounter;\n    }\n\n    // Function to pause the contract (onlyOwner)\n    function pause() external onlyOwner {\n        _pause();\n    }\n\n    // Function to unpause the contract (onlyOwner)\n    function unpause() external onlyOwner {\n        _unpause();\n    }\n\n    // Function to withdraw funds (onlyOwner)\n    function withdrawFunds(address to, uint256 amount) external onlyOwner nonReentrant {\n        require(to != address(0), \"MaintenanceTracking: Recipient cannot be zero address\");\n        require(address(this).balance >= amount, \"MaintenanceTracking: Insufficient balance\");\n        (bool success, ) = to.call{value: amount}(\"\");\n        require(success, \"MaintenanceTracking: Withdrawal failed\");\n\n        emit FundsWithdrawn(to, amount);\n    }\n\n    // Fallback function to receive Ether\n    receive() external payable {\n        emit FundsReceived(msg.sender, msg.value);\n    }\n\n    fallback() external payable {\n        emit FundsReceived(msg.sender, msg.value);\n    }\n}",
  "sourcePath": "/Users/elvin3block/Documents/Evire-DePIN-Framework/contracts/MaintenanceTracking.sol",
  "compiler": {
    "name": "solc",
    "version": "0.8.20+commit.a1b79de6.Emscripten.clang"
  },
  "schemaVersion": "3.4.16",
  "updatedAt": "2024-11-07T15:02:22.460Z",
  "devdoc": {
    "errors": {
      "EnforcedPause()": [
        {
          "details": "The operation failed because the contract is paused."
        }
      ],
      "ExpectedPause()": [
        {
          "details": "The operation failed because the contract is not paused."
        }
      ],
      "OwnableInvalidOwner(address)": [
        {
          "details": "The owner is not a valid owner account. (eg. `address(0)`)"
        }
      ],
      "OwnableUnauthorizedAccount(address)": [
        {
          "details": "The caller account is not authorized to perform an operation."
        }
      ],
      "ReentrancyGuardReentrantCall()": [
        {
          "details": "Unauthorized reentrant call."
        }
      ]
    },
    "events": {
      "Paused(address)": {
        "details": "Emitted when the pause is triggered by `account`."
      },
      "Unpaused(address)": {
        "details": "Emitted when the pause is lifted by `account`."
      }
    },
    "kind": "dev",
    "methods": {
      "owner()": {
        "details": "Returns the address of the current owner."
      },
      "paused()": {
        "details": "Returns true if the contract is paused, and false otherwise."
      },
      "renounceOwnership()": {
        "details": "Leaves the contract without owner. It will not be possible to call `onlyOwner` functions. Can only be called by the current owner. NOTE: Renouncing ownership will leave the contract without an owner, thereby disabling any functionality that is only available to the owner."
      },
      "transferOwnership(address)": {
        "details": "Transfers ownership of the contract to a new account (`newOwner`). Can only be called by the current owner."
      }
    },
    "version": 1
  },
  "userdoc": {
    "kind": "user",
    "methods": {},
    "version": 1
  }
}