{
  "contractName": "MaintenanceTracking",
  "abi": [
    {
      "anonymous": false,
      "inputs": [
        {
          "indexed": true,
          "internalType": "uint256",
          "name": "requestId",
          "type": "uint256"
        },
        {
          "indexed": true,
          "internalType": "address",
          "name": "approvedBy",
          "type": "address"
        },
        {
          "indexed": false,
          "internalType": "uint256",
          "name": "cost",
          "type": "uint256"
        },
        {
          "indexed": false,
          "internalType": "address",
          "name": "serviceProvider",
          "type": "address"
        }
      ],
      "name": "MaintenanceApproved",
      "type": "event"
    },
    {
      "anonymous": false,
      "inputs": [
        {
          "indexed": true,
          "internalType": "uint256",
          "name": "requestId",
          "type": "uint256"
        },
        {
          "indexed": true,
          "internalType": "address",
          "name": "requester",
          "type": "address"
        }
      ],
      "name": "MaintenanceCanceled",
      "type": "event"
    },
    {
      "anonymous": false,
      "inputs": [
        {
          "indexed": true,
          "internalType": "uint256",
          "name": "requestId",
          "type": "uint256"
        },
        {
          "indexed": false,
          "internalType": "uint256",
          "name": "cost",
          "type": "uint256"
        },
        {
          "indexed": true,
          "internalType": "address",
          "name": "approvedBy",
          "type": "address"
        },
        {
          "indexed": true,
          "internalType": "address",
          "name": "serviceProvider",
          "type": "address"
        }
      ],
      "name": "MaintenanceCompleted",
      "type": "event"
    },
    {
      "anonymous": false,
      "inputs": [
        {
          "indexed": true,
          "internalType": "uint256",
          "name": "requestId",
          "type": "uint256"
        },
        {
          "indexed": true,
          "internalType": "address",
          "name": "rejectedBy",
          "type": "address"
        }
      ],
      "name": "MaintenanceRejected",
      "type": "event"
    },
    {
      "anonymous": false,
      "inputs": [
        {
          "indexed": true,
          "internalType": "uint256",
          "name": "requestId",
          "type": "uint256"
        },
        {
          "indexed": true,
          "internalType": "uint256",
          "name": "assetId",
          "type": "uint256"
        },
        {
          "indexed": true,
          "internalType": "address",
          "name": "requester",
          "type": "address"
        },
        {
          "indexed": false,
          "internalType": "string",
          "name": "description",
          "type": "string"
        }
      ],
      "name": "MaintenanceRequested",
      "type": "event"
    },
    {
      "anonymous": false,
      "inputs": [
        {
          "indexed": true,
          "internalType": "uint256",
          "name": "requestId",
          "type": "uint256"
        },
        {
          "indexed": true,
          "internalType": "address",
          "name": "serviceProvider",
          "type": "address"
        }
      ],
      "name": "MaintenanceStarted",
      "type": "event"
    },
    {
      "anonymous": false,
      "inputs": [
        {
          "indexed": true,
          "internalType": "address",
          "name": "previousOwner",
          "type": "address"
        },
        {
          "indexed": true,
          "internalType": "address",
          "name": "newOwner",
          "type": "address"
        }
      ],
      "name": "OwnershipTransferred",
      "type": "event"
    },
    {
      "anonymous": false,
      "inputs": [
        {
          "indexed": false,
          "internalType": "address",
          "name": "account",
          "type": "address"
        }
      ],
      "name": "Paused",
      "type": "event"
    },
    {
      "anonymous": false,
      "inputs": [
        {
          "indexed": false,
          "internalType": "address",
          "name": "account",
          "type": "address"
        }
      ],
      "name": "Unpaused",
      "type": "event"
    },
    {
      "stateMutability": "payable",
      "type": "fallback"
    },
    {
      "inputs": [],
      "name": "owner",
      "outputs": [
        {
          "internalType": "address",
          "name": "",
          "type": "address"
        }
      ],
      "stateMutability": "view",
      "type": "function"
    },
    {
      "inputs": [],
      "name": "paused",
      "outputs": [
        {
          "internalType": "bool",
          "name": "",
          "type": "bool"
        }
      ],
      "stateMutability": "view",
      "type": "function"
    },
    {
      "inputs": [],
      "name": "renounceOwnership",
      "outputs": [],
      "stateMutability": "nonpayable",
      "type": "function"
    },
    {
      "inputs": [
        {
          "internalType": "address",
          "name": "newOwner",
          "type": "address"
        }
      ],
      "name": "transferOwnership",
      "outputs": [],
      "stateMutability": "nonpayable",
      "type": "function"
    },
    {
      "stateMutability": "payable",
      "type": "receive"
    },
    {
      "inputs": [
        {
          "internalType": "uint256",
          "name": "assetId",
          "type": "uint256"
        },
        {
          "internalType": "string",
          "name": "description",
          "type": "string"
        }
      ],
      "name": "requestMaintenance",
      "outputs": [
        {
          "internalType": "uint256",
          "name": "",
          "type": "uint256"
        }
      ],
      "stateMutability": "nonpayable",
      "type": "function"
    },
    {
      "inputs": [
        {
          "internalType": "uint256",
          "name": "requestId",
          "type": "uint256"
        },
        {
          "internalType": "uint256",
          "name": "cost",
          "type": "uint256"
        },
        {
          "internalType": "address",
          "name": "serviceProvider",
          "type": "address"
        }
      ],
      "name": "approveMaintenance",
      "outputs": [],
      "stateMutability": "nonpayable",
      "type": "function"
    },
    {
      "inputs": [
        {
          "internalType": "uint256",
          "name": "requestId",
          "type": "uint256"
        }
      ],
      "name": "startMaintenance",
      "outputs": [],
      "stateMutability": "nonpayable",
      "type": "function"
    },
    {
      "inputs": [
        {
          "internalType": "uint256",
          "name": "requestId",
          "type": "uint256"
        }
      ],
      "name": "completeMaintenance",
      "outputs": [],
      "stateMutability": "nonpayable",
      "type": "function"
    },
    {
      "inputs": [
        {
          "internalType": "uint256",
          "name": "requestId",
          "type": "uint256"
        }
      ],
      "name": "cancelMaintenance",
      "outputs": [],
      "stateMutability": "nonpayable",
      "type": "function"
    },
    {
      "inputs": [
        {
          "internalType": "uint256",
          "name": "requestId",
          "type": "uint256"
        }
      ],
      "name": "rejectMaintenance",
      "outputs": [],
      "stateMutability": "nonpayable",
      "type": "function"
    },
    {
      "inputs": [
        {
          "internalType": "uint256",
          "name": "requestId",
          "type": "uint256"
        }
      ],
      "name": "getMaintenanceRequest",
      "outputs": [
        {
          "components": [
            {
              "internalType": "uint256",
              "name": "id",
              "type": "uint256"
            },
            {
              "internalType": "uint256",
              "name": "assetId",
              "type": "uint256"
            },
            {
              "internalType": "string",
              "name": "description",
              "type": "string"
            },
            {
              "internalType": "address",
              "name": "requester",
              "type": "address"
            },
            {
              "internalType": "uint256",
              "name": "timestamp",
              "type": "uint256"
            },
            {
              "internalType": "uint256",
              "name": "cost",
              "type": "uint256"
            },
            {
              "internalType": "address",
              "name": "approvedBy",
              "type": "address"
            },
            {
              "internalType": "address",
              "name": "serviceProvider",
              "type": "address"
            },
            {
              "internalType": "enum MaintenanceTracking.RequestStatus",
              "name": "status",
              "type": "uint8"
            }
          ],
          "internalType": "struct MaintenanceTracking.MaintenanceRequest",
          "name": "",
          "type": "tuple"
        }
      ],
      "stateMutability": "view",
      "type": "function"
    },
    {
      "inputs": [
        {
          "internalType": "uint256",
          "name": "assetId",
          "type": "uint256"
        }
      ],
      "name": "getActiveRequestsForAsset",
      "outputs": [
        {
          "internalType": "uint256[]",
          "name": "",
          "type": "uint256[]"
        }
      ],
      "stateMutability": "view",
      "type": "function"
    },
    {
      "inputs": [],
      "name": "totalRequests",
      "outputs": [
        {
          "internalType": "uint256",
          "name": "",
          "type": "uint256"
        }
      ],
      "stateMutability": "view",
      "type": "function"
    },
    {
      "inputs": [],
      "name": "pause",
      "outputs": [],
      "stateMutability": "nonpayable",
      "type": "function"
    },
    {
      "inputs": [],
      "name": "unpause",
      "outputs": [],
      "stateMutability": "nonpayable",
      "type": "function"
    },
    {
      "inputs": [
        {
          "internalType": "address",
          "name": "to",
          "type": "address"
        },
        {
          "internalType": "uint256",
          "name": "amount",
          "type": "uint256"
        }
      ],
      "name": "withdrawFunds",
      "outputs": [],
      "stateMutability": "nonpayable",
      "type": "function"
    }
  ],
  "bytecode": "0x60806040523480156200001157600080fd5b5062000032620000266200005960201b60201c565b6200006160201b60201c565b60008060146101000a81548160ff0219169083151502179055506001808190555062000125565b600033905090565b60008060009054906101000a900473ffffffffffffffffffffffffffffffffffffffff169050816000806101000a81548173ffffffffffffffffffffffffffffffffffffffff021916908373ffffffffffffffffffffffffffffffffffffffff1602179055508173ffffffffffffffffffffffffffffffffffffffff168173ffffffffffffffffffffffffffffffffffffffff167f8be0079c531659141344cd1fd0a4f28419497f9722a3daafe3b4186f6b6457e060405160405180910390a35050565b612ce480620001356000396000f3fe6080604052600436106100f75760003560e01c80638aea61dc1161008a578063c107532911610059578063c1075329146102f8578063ccab169714610321578063e11afb6b1461034a578063f2fde38b14610373576100fe565b80638aea61dc1461023c5780638da5cb5b14610267578063a092489114610292578063a948fbbf146102bb576100fe565b80636ce2a509116100c65780636ce2a50914610194578063715018a6146101d157806379f4ffb9146101e85780638456cb5914610225576100fe565b8063214110d6146101005780633f4ba83a146101295780634ad1d941146101405780635c975abb14610169576100fe565b366100fe57005b005b34801561010c57600080fd5b5061012760048036038101906101229190611a1f565b61039c565b005b34801561013557600080fd5b5061013e610682565b005b34801561014c57600080fd5b5061016760048036038101906101629190611aaa565b610694565b005b34801561017557600080fd5b5061017e610846565b60405161018b9190611b18565b60405180910390f35b3480156101a057600080fd5b506101bb60048036038101906101b69190611a1f565b61085c565b6040516101c89190611d1d565b60405180910390f35b3480156101dd57600080fd5b506101e6610a81565b005b3480156101f457600080fd5b5061020f600480360381019061020a9190611da4565b610a95565b60405161021c9190611e13565b60405180910390f35b34801561023157600080fd5b5061023a610d77565b005b34801561024857600080fd5b50610251610d89565b60405161025e9190611e13565b60405180910390f35b34801561027357600080fd5b5061027c610d93565b6040516102899190611e3d565b60405180910390f35b34801561029e57600080fd5b506102b960048036038101906102b49190611a1f565b610dbc565b005b3480156102c757600080fd5b506102e260048036038101906102dd9190611a1f565b610f5a565b6040516102ef9190611f07565b60405180910390f35b34801561030457600080fd5b5061031f600480360381019061031a9190611f29565b610f7e565b005b34801561032d57600080fd5b5061034860048036038101906103439190611a1f565b611024565b005b34801561035657600080fd5b50610371600480360381019061036c9190611a1f565b611162565b005b34801561037f57600080fd5b5061039a60048036038101906103959190611f69565b61136a565b005b6103a46113ed565b6103ac611437565b6000600360008381526020019081526020016000209050600260048111156103d7576103d6611be1565b5b8160070160149054906101000a900460ff1660048111156103fb576103fa611be1565b5b1461043b576040517f08c379a000000000000000000000000000000000000000000000000000000000815260040161043290612019565b60405180910390fd5b3373ffffffffffffffffffffffffffffffffffffffff168160070160009054906101000a900473ffffffffffffffffffffffffffffffffffffffff1673ffffffffffffffffffffffffffffffffffffffff16146104cd576040517f08c379a00000000000000000000000000000000000000000000000000000000081526004016104c4906120d1565b60405180910390fd5b60038160070160146101000a81548160ff021916908360048111156104f5576104f4611be1565b5b021790555061052382600460008460010154815260200190815260200160002061148690919063ffffffff16565b506000816005015411156105e8578060050154471015610578576040517f08c379a000000000000000000000000000000000000000000000000000000000815260040161056f90612163565b60405180910390fd5b8060070160009054906101000a900473ffffffffffffffffffffffffffffffffffffffff1673ffffffffffffffffffffffffffffffffffffffff166108fc82600501549081150290604051600060405180830381858888f193505050501580156105e6573d6000803e3d6000fd5b505b3373ffffffffffffffffffffffffffffffffffffffff168160060160009054906101000a900473ffffffffffffffffffffffffffffffffffffffff1673ffffffffffffffffffffffffffffffffffffffff16837f344b7455d70215ab1ad3364ca452ae49cfc05195af9cd47c541d28288dbccbad846005015460405161066e9190611e13565b60405180910390a45061067f6114a0565b50565b61068a6114a9565b610692611527565b565b61069c6114a9565b6106a46113ed565b6000600360008581526020019081526020016000209050600060048111156106cf576106ce611be1565b5b8160070160149054906101000a900460ff1660048111156106f3576106f2611be1565b5b14610733576040517f08c379a000000000000000000000000000000000000000000000000000000000815260040161072a906121f5565b60405180910390fd5b828160050181905550338160060160006101000a81548173ffffffffffffffffffffffffffffffffffffffff021916908373ffffffffffffffffffffffffffffffffffffffff160217905550818160070160006101000a81548173ffffffffffffffffffffffffffffffffffffffff021916908373ffffffffffffffffffffffffffffffffffffffff16021790555060018160070160146101000a81548160ff021916908360048111156107ea576107e9611be1565b5b02179055503373ffffffffffffffffffffffffffffffffffffffff16847f18f8bd1296bb22ec8e96cb8ed0e63a86d8ebe6fcbd8919bfd26c13b6f6c5494b8585604051610838929190612215565b60405180910390a350505050565b60008060149054906101000a900460ff16905090565b61086461193f565b600360008381526020019081526020016000206040518061012001604052908160008201548152602001600182015481526020016002820180546108a79061226d565b80601f01602080910402602001604051908101604052809291908181526020018280546108d39061226d565b80156109205780601f106108f557610100808354040283529160200191610920565b820191906000526020600020905b81548152906001019060200180831161090357829003601f168201915b505050505081526020016003820160009054906101000a900473ffffffffffffffffffffffffffffffffffffffff1673ffffffffffffffffffffffffffffffffffffffff1673ffffffffffffffffffffffffffffffffffffffff16815260200160048201548152602001600582015481526020016006820160009054906101000a900473ffffffffffffffffffffffffffffffffffffffff1673ffffffffffffffffffffffffffffffffffffffff1673ffffffffffffffffffffffffffffffffffffffff1681526020016007820160009054906101000a900473ffffffffffffffffffffffffffffffffffffffff1673ffffffffffffffffffffffffffffffffffffffff1673ffffffffffffffffffffffffffffffffffffffff1681526020016007820160149054906101000a900460ff166004811115610a6457610a63611be1565b5b6004811115610a7657610a75611be1565b5b815250509050919050565b610a896114a9565b610a936000611589565b565b6000610a9f6113ed565b60026000815480929190610ab2906122cd565b91905055506000600254905060405180610120016040528082815260200186815260200185858080601f016020809104026020016040519081016040528093929190818152602001838380828437600081840152601f19601f8201169050808301925050505050505081526020013373ffffffffffffffffffffffffffffffffffffffff16815260200142815260200160008152602001600073ffffffffffffffffffffffffffffffffffffffff168152602001600073ffffffffffffffffffffffffffffffffffffffff16815260200160006004811115610b9757610b96611be1565b5b8152506003600083815260200190815260200160002060008201518160000155602082015181600101556040820151816002019081610bd691906124f0565b5060608201518160030160006101000a81548173ffffffffffffffffffffffffffffffffffffffff021916908373ffffffffffffffffffffffffffffffffffffffff1602179055506080820151816004015560a0820151816005015560c08201518160060160006101000a81548173ffffffffffffffffffffffffffffffffffffffff021916908373ffffffffffffffffffffffffffffffffffffffff16021790555060e08201518160070160006101000a81548173ffffffffffffffffffffffffffffffffffffffff021916908373ffffffffffffffffffffffffffffffffffffffff1602179055506101008201518160070160146101000a81548160ff02191690836004811115610cec57610ceb611be1565b5b0217905550905050610d19816004600088815260200190815260200160002061164d90919063ffffffff16565b503373ffffffffffffffffffffffffffffffffffffffff1685827f8eaaf0a2ddf72aac30554a31bef09a2a3730435187b13483c8f03b707520b06b8787604051610d649291906125fe565b60405180910390a4809150509392505050565b610d7f6114a9565b610d87611667565b565b6000600254905090565b60008060009054906101000a900473ffffffffffffffffffffffffffffffffffffffff16905090565b610dc46113ed565b60006003600083815260200190815260200160002090503373ffffffffffffffffffffffffffffffffffffffff168160070160009054906101000a900473ffffffffffffffffffffffffffffffffffffffff1673ffffffffffffffffffffffffffffffffffffffff1614610e6d576040517f08c379a0000000000000000000000000000000000000000000000000000000008152600401610e64906126ba565b60405180910390fd5b60016004811115610e8157610e80611be1565b5b8160070160149054906101000a900460ff166004811115610ea557610ea4611be1565b5b14610ee5576040517f08c379a0000000000000000000000000000000000000000000000000000000008152600401610edc9061274c565b60405180910390fd5b60028160070160146101000a81548160ff02191690836004811115610f0d57610f0c611be1565b5b02179055503373ffffffffffffffffffffffffffffffffffffffff16827f12c6212a092000a772623f99abfca127c5c25c966686a610aac238c570c8c92160405160405180910390a35050565b6060610f77600460008481526020019081526020016000206116ca565b9050919050565b610f866114a9565b610f8e611437565b80471015610fd1576040517f08c379a0000000000000000000000000000000000000000000000000000000008152600401610fc8906127de565b60405180910390fd5b8173ffffffffffffffffffffffffffffffffffffffff166108fc829081150290604051600060405180830381858888f19350505050158015611017573d6000803e3d6000fd5b506110206114a0565b5050565b61102c6114a9565b6110346113ed565b60006003600083815260200190815260200160002090506000600481111561105f5761105e611be1565b5b8160070160149054906101000a900460ff16600481111561108357611082611be1565b5b146110c3576040517f08c379a00000000000000000000000000000000000000000000000000000000081526004016110ba90612870565b60405180910390fd5b60048160070160146101000a81548160ff021916908360048111156110eb576110ea611be1565b5b021790555061111982600460008460010154815260200190815260200160002061148690919063ffffffff16565b503373ffffffffffffffffffffffffffffffffffffffff16827faddbebb004a31e4024eb4414cb64b3fab8ebf998ea739d0c1654831684a927e260405160405180910390a35050565b61116a6113ed565b60006003600083815260200190815260200160002090503373ffffffffffffffffffffffffffffffffffffffff168160030160009054906101000a900473ffffffffffffffffffffffffffffffffffffffff1673ffffffffffffffffffffffffffffffffffffffff1614611213576040517f08c379a000000000000000000000000000000000000000000000000000000000815260040161120a90612902565b60405180910390fd5b6000600481111561122757611226611be1565b5b8160070160149054906101000a900460ff16600481111561124b5761124a611be1565b5b148061128c57506001600481111561126657611265611be1565b5b8160070160149054906101000a900460ff16600481111561128a57611289611be1565b5b145b6112cb576040517f08c379a00000000000000000000000000000000000000000000000000000000081526004016112c2906129ba565b60405180910390fd5b60048160070160146101000a81548160ff021916908360048111156112f3576112f2611be1565b5b021790555061132182600460008460010154815260200190815260200160002061148690919063ffffffff16565b503373ffffffffffffffffffffffffffffffffffffffff16827f9ccdd10cd6a3832cbd2198d5295c699a66ea41d956e33d751de5e9ed9c62711360405160405180910390a35050565b6113726114a9565b600073ffffffffffffffffffffffffffffffffffffffff168173ffffffffffffffffffffffffffffffffffffffff16036113e1576040517f08c379a00000000000000000000000000000000000000000000000000000000081526004016113d890612a4c565b60405180910390fd5b6113ea81611589565b50565b6113f5610846565b15611435576040517f08c379a000000000000000000000000000000000000000000000000000000000815260040161142c90612ab8565b60405180910390fd5b565b60026001540361147c576040517f08c379a000000000000000000000000000000000000000000000000000000000815260040161147390612b24565b60405180910390fd5b6002600181905550565b6000611498836000018360001b6116eb565b905092915050565b60018081905550565b6114b16117ff565b73ffffffffffffffffffffffffffffffffffffffff166114cf610d93565b73ffffffffffffffffffffffffffffffffffffffff1614611525576040517f08c379a000000000000000000000000000000000000000000000000000000000815260040161151c90612b90565b60405180910390fd5b565b61152f611807565b60008060146101000a81548160ff0219169083151502179055507f5db9ee0a495bf2e6ff9c91a7834c1ba4fdd244a5e8aa4e537bd38aeae4b073aa6115726117ff565b60405161157f9190611e3d565b60405180910390a1565b60008060009054906101000a900473ffffffffffffffffffffffffffffffffffffffff169050816000806101000a81548173ffffffffffffffffffffffffffffffffffffffff021916908373ffffffffffffffffffffffffffffffffffffffff1602179055508173ffffffffffffffffffffffffffffffffffffffff168173ffffffffffffffffffffffffffffffffffffffff167f8be0079c531659141344cd1fd0a4f28419497f9722a3daafe3b4186f6b6457e060405160405180910390a35050565b600061165f836000018360001b611850565b905092915050565b61166f6113ed565b6001600060146101000a81548160ff0219169083151502179055507f62e78cea01bee320cd4e420270b5ea74000d11b0c9f74754ebdbfc544b05a2586116b36117ff565b6040516116c09190611e3d565b60405180910390a1565b606060006116da836000016118c0565b905060608190508092505050919050565b600080836001016000848152602001908152602001600020549050600081146117f357600060018261171d9190612bb0565b90506000600186600001805490506117359190612bb0565b90508181146117a457600086600001828154811061175657611755612be4565b5b906000526020600020015490508087600001848154811061177a57611779612be4565b5b90600052602060002001819055508387600101600083815260200190815260200160002081905550505b856000018054806117b8576117b7612c13565b5b6001900381819060005260206000200160009055905585600101600086815260200190815260200160002060009055600193505050506117f9565b60009150505b92915050565b600033905090565b61180f610846565b61184e576040517f08c379a000000000000000000000000000000000000000000000000000000000815260040161184590612c8e565b60405180910390fd5b565b600061185c838361191c565b6118b55782600001829080600181540180825580915050600190039060005260206000200160009091909190915055826000018054905083600101600084815260200190815260200160002081905550600190506118ba565b600090505b92915050565b60608160000180548060200260200160405190810160405280929190818152602001828054801561191057602002820191906000526020600020905b8154815260200190600101908083116118fc575b50505050509050919050565b600080836001016000848152602001908152602001600020541415905092915050565b604051806101200160405280600081526020016000815260200160608152602001600073ffffffffffffffffffffffffffffffffffffffff1681526020016000815260200160008152602001600073ffffffffffffffffffffffffffffffffffffffff168152602001600073ffffffffffffffffffffffffffffffffffffffff168152602001600060048111156119d9576119d8611be1565b5b81525090565b600080fd5b600080fd5b6000819050919050565b6119fc816119e9565b8114611a0757600080fd5b50565b600081359050611a19816119f3565b92915050565b600060208284031215611a3557611a346119df565b5b6000611a4384828501611a0a565b91505092915050565b600073ffffffffffffffffffffffffffffffffffffffff82169050919050565b6000611a7782611a4c565b9050919050565b611a8781611a6c565b8114611a9257600080fd5b50565b600081359050611aa481611a7e565b92915050565b600080600060608486031215611ac357611ac26119df565b5b6000611ad186828701611a0a565b9350506020611ae286828701611a0a565b9250506040611af386828701611a95565b9150509250925092565b60008115159050919050565b611b1281611afd565b82525050565b6000602082019050611b2d6000830184611b09565b92915050565b611b3c816119e9565b82525050565b600081519050919050565b600082825260208201905092915050565b60005b83811015611b7c578082015181840152602081019050611b61565b60008484015250505050565b6000601f19601f8301169050919050565b6000611ba482611b42565b611bae8185611b4d565b9350611bbe818560208601611b5e565b611bc781611b88565b840191505092915050565b611bdb81611a6c565b82525050565b7f4e487b7100000000000000000000000000000000000000000000000000000000600052602160045260246000fd5b60058110611c2157611c20611be1565b5b50565b6000819050611c3282611c10565b919050565b6000611c4282611c24565b9050919050565b611c5281611c37565b82525050565b600061012083016000830151611c716000860182611b33565b506020830151611c846020860182611b33565b5060408301518482036040860152611c9c8282611b99565b9150506060830151611cb16060860182611bd2565b506080830151611cc46080860182611b33565b5060a0830151611cd760a0860182611b33565b5060c0830151611cea60c0860182611bd2565b5060e0830151611cfd60e0860182611bd2565b50610100830151611d12610100860182611c49565b508091505092915050565b60006020820190508181036000830152611d378184611c58565b905092915050565b600080fd5b600080fd5b600080fd5b60008083601f840112611d6457611d63611d3f565b5b8235905067ffffffffffffffff811115611d8157611d80611d44565b5b602083019150836001820283011115611d9d57611d9c611d49565b5b9250929050565b600080600060408486031215611dbd57611dbc6119df565b5b6000611dcb86828701611a0a565b935050602084013567ffffffffffffffff811115611dec57611deb6119e4565b5b611df886828701611d4e565b92509250509250925092565b611e0d816119e9565b82525050565b6000602082019050611e286000830184611e04565b92915050565b611e3781611a6c565b82525050565b6000602082019050611e526000830184611e2e565b92915050565b600081519050919050565b600082825260208201905092915050565b6000819050602082019050919050565b6000611e908383611b33565b60208301905092915050565b6000602082019050919050565b6000611eb482611e58565b611ebe8185611e63565b9350611ec983611e74565b8060005b83811015611efa578151611ee18882611e84565b9750611eec83611e9c565b925050600181019050611ecd565b5085935050505092915050565b60006020820190508181036000830152611f218184611ea9565b905092915050565b60008060408385031215611f4057611f3f6119df565b5b6000611f4e85828601611a95565b9250506020611f5f85828601611a0a565b9150509250929050565b600060208284031215611f7f57611f7e6119df565b5b6000611f8d84828501611a95565b91505092915050565b600082825260208201905092915050565b7f4d61696e74656e616e6365547261636b696e673a204d61696e74656e616e636560008201527f206e6f7420696e2070726f677265737300000000000000000000000000000000602082015250565b6000612003603083611f96565b915061200e82611fa7565b604082019050919050565b6000602082019050818103600083015261203281611ff6565b9050919050565b7f4d61696e74656e616e6365547261636b696e673a204f6e6c792061737369676e60008201527f656420736572766963652070726f76696465722063616e20636f6d706c65746560208201527f206d61696e74656e616e63650000000000000000000000000000000000000000604082015250565b60006120bb604c83611f96565b91506120c682612039565b606082019050919050565b600060208201905081810360008301526120ea816120ae565b9050919050565b7f4d61696e74656e616e6365547261636b696e673a20496e73756666696369656e60008201527f7420636f6e74726163742062616c616e63650000000000000000000000000000602082015250565b600061214d603283611f96565b9150612158826120f1565b604082019050919050565b6000602082019050818103600083015261217c81612140565b9050919050565b7f4d61696e74656e616e6365547261636b696e673a2052657175657374206e6f7460008201527f2070656e64696e67206f7220616c726561647920617070726f76656400000000602082015250565b60006121df603c83611f96565b91506121ea82612183565b604082019050919050565b6000602082019050818103600083015261220e816121d2565b9050919050565b600060408201905061222a6000830185611e04565b6122376020830184611e2e565b9392505050565b7f4e487b7100000000000000000000000000000000000000000000000000000000600052602260045260246000fd5b6000600282049050600182168061228557607f821691505b6020821081036122985761229761223e565b5b50919050565b7f4e487b7100000000000000000000000000000000000000000000000000000000600052601160045260246000fd5b60006122d8826119e9565b91507fffffffffffffffffffffffffffffffffffffffffffffffffffffffffffffffff820361230a5761230961229e565b5b600182019050919050565b7f4e487b7100000000000000000000000000000000000000000000000000000000600052604160045260246000fd5b60008190508160005260206000209050919050565b60006020601f8301049050919050565b600082821b905092915050565b6000600883026123a67fffffffffffffffffffffffffffffffffffffffffffffffffffffffffffffffff82612369565b6123b08683612369565b95508019841693508086168417925050509392505050565b6000819050919050565b60006123ed6123e86123e3846119e9565b6123c8565b6119e9565b9050919050565b6000819050919050565b612407836123d2565b61241b612413826123f4565b848454612376565b825550505050565b600090565b612430612423565b61243b8184846123fe565b505050565b5b8181101561245f57612454600082612428565b600181019050612441565b5050565b601f8211156124a45761247581612344565b61247e84612359565b8101602085101561248d578190505b6124a161249985612359565b830182612440565b50505b505050565b600082821c905092915050565b60006124c7600019846008026124a9565b1980831691505092915050565b60006124e083836124b6565b9150826002028217905092915050565b6124f982611b42565b67ffffffffffffffff81111561251257612511612315565b5b61251c825461226d565b612527828285612463565b600060209050601f83116001811461255a5760008415612548578287015190505b61255285826124d4565b8655506125ba565b601f19841661256886612344565b60005b828110156125905784890151825560018201915060208501945060208101905061256b565b868310156125ad57848901516125a9601f8916826124b6565b8355505b6001600288020188555050505b505050505050565b82818337600083830152505050565b60006125dd8385611f96565b93506125ea8385846125c2565b6125f383611b88565b840190509392505050565b600060208201905081810360008301526126198184866125d1565b90509392505050565b7f4d61696e74656e616e6365547261636b696e673a204f6e6c792061737369676e60008201527f656420736572766963652070726f76696465722063616e207374617274206d6160208201527f696e74656e616e63650000000000000000000000000000000000000000000000604082015250565b60006126a4604983611f96565b91506126af82612622565b606082019050919050565b600060208201905081810360008301526126d381612697565b9050919050565b7f4d61696e74656e616e6365547261636b696e673a2052657175657374206e6f7460008201527f20617070726f766564206f7220616c7265616479207374617274656400000000602082015250565b6000612736603c83611f96565b9150612741826126da565b604082019050919050565b6000602082019050818103600083015261276581612729565b9050919050565b7f4d61696e74656e616e6365547261636b696e673a20496e73756666696369656e60008201527f742062616c616e63650000000000000000000000000000000000000000000000602082015250565b60006127c8602983611f96565b91506127d38261276c565b604082019050919050565b600060208201905081810360008301526127f7816127bb565b9050919050565b7f4d61696e74656e616e6365547261636b696e673a2043616e206f6e6c7920726560008201527f6a6563742070656e64696e672072657175657374730000000000000000000000602082015250565b600061285a603583611f96565b9150612865826127fe565b604082019050919050565b600060208201905081810360008301526128898161284d565b9050919050565b7f4d61696e74656e616e6365547261636b696e673a204f6e6c792072657175657360008201527f7465722063616e2063616e63656c000000000000000000000000000000000000602082015250565b60006128ec602e83611f96565b91506128f782612890565b604082019050919050565b6000602082019050818103600083015261291b816128df565b9050919050565b7f4d61696e74656e616e6365547261636b696e673a2043616e6e6f742063616e6360008201527f656c20612072657175657374207468617420697320696e2070726f677265737360208201527f206f7220636f6d706c6574656400000000000000000000000000000000000000604082015250565b60006129a4604d83611f96565b91506129af82612922565b606082019050919050565b600060208201905081810360008301526129d381612997565b9050919050565b7f4f776e61626c653a206e6577206f776e657220697320746865207a65726f206160008201527f6464726573730000000000000000000000000000000000000000000000000000602082015250565b6000612a36602683611f96565b9150612a41826129da565b604082019050919050565b60006020820190508181036000830152612a6581612a29565b9050919050565b7f5061757361626c653a2070617573656400000000000000000000000000000000600082015250565b6000612aa2601083611f96565b9150612aad82612a6c565b602082019050919050565b60006020820190508181036000830152612ad181612a95565b9050919050565b7f5265656e7472616e637947756172643a207265656e7472616e742063616c6c00600082015250565b6000612b0e601f83611f96565b9150612b1982612ad8565b602082019050919050565b60006020820190508181036000830152612b3d81612b01565b9050919050565b7f4f776e61626c653a2063616c6c6572206973206e6f7420746865206f776e6572600082015250565b6000612b7a602083611f96565b9150612b8582612b44565b602082019050919050565b60006020820190508181036000830152612ba981612b6d565b9050919050565b6000612bbb826119e9565b9150612bc6836119e9565b9250828203905081811115612bde57612bdd61229e565b5b92915050565b7f4e487b7100000000000000000000000000000000000000000000000000000000600052603260045260246000fd5b7f4e487b7100000000000000000000000000000000000000000000000000000000600052603160045260246000fd5b7f5061757361626c653a206e6f7420706175736564000000000000000000000000600082015250565b6000612c78601483611f96565b9150612c8382612c42565b602082019050919050565b60006020820190508181036000830152612ca781612c6b565b905091905056fea2646970667358221220a86fb518c6d3f939541908e5198619118a22d4f1b45f97d93e57d251777ba94164736f6c63430008130033",
  "immutableReferences": {},
  "source": "// SPDX-License-Identifier: MIT\npragma solidity ^0.8.17;\n\nimport \"@openzeppelin/contracts/access/Ownable.sol\";\nimport \"@openzeppelin/contracts/utils/structs/EnumerableSet.sol\";\nimport \"@openzeppelin/contracts/security/Pausable.sol\";\nimport \"@openzeppelin/contracts/security/ReentrancyGuard.sol\";\n\ncontract MaintenanceTracking is Ownable, Pausable, ReentrancyGuard {\n    using EnumerableSet for EnumerableSet.UintSet;\n\n    // Enum to represent the status of a maintenance request\n    enum RequestStatus { Pending, Approved, InProgress, Completed, Canceled }\n\n    // Struct to represent a maintenance request\n    struct MaintenanceRequest {\n        uint256 id;\n        uint256 assetId;\n        string description;\n        address requester;\n        uint256 timestamp;\n        uint256 cost;\n        address approvedBy;\n        address serviceProvider;\n        RequestStatus status;\n    }\n\n    // Events\n    event MaintenanceRequested(uint256 indexed requestId, uint256 indexed assetId, address indexed requester, string description);\n    event MaintenanceApproved(uint256 indexed requestId, address indexed approvedBy, uint256 cost, address serviceProvider);\n    event MaintenanceStarted(uint256 indexed requestId, address indexed serviceProvider);\n    event MaintenanceCompleted(uint256 indexed requestId, uint256 cost, address indexed approvedBy, address indexed serviceProvider);\n    event MaintenanceCanceled(uint256 indexed requestId, address indexed requester);\n    event MaintenanceRejected(uint256 indexed requestId, address indexed rejectedBy);\n    \n    // Counter for request IDs\n    uint256 private _requestCounter;\n    \n    // Maintenance requests by their ID\n    mapping(uint256 => MaintenanceRequest) private _requests;\n\n    // Active requests for an asset\n    mapping(uint256 => EnumerableSet.UintSet) private _activeRequestsByAsset;\n\n    // Function to request maintenance for an asset\n    function requestMaintenance(uint256 assetId, string calldata description) external whenNotPaused returns (uint256) {\n        _requestCounter++;\n        uint256 requestId = _requestCounter;\n\n        _requests[requestId] = MaintenanceRequest({\n            id: requestId,\n            assetId: assetId,\n            description: description,\n            requester: msg.sender,\n            timestamp: block.timestamp,\n            cost: 0,\n            approvedBy: address(0),\n            serviceProvider: address(0),\n            status: RequestStatus.Pending\n        });\n\n        _activeRequestsByAsset[assetId].add(requestId);\n\n        emit MaintenanceRequested(requestId, assetId, msg.sender, description);\n        return requestId;\n    }\n\n    // Function to approve a maintenance request\n    function approveMaintenance(uint256 requestId, uint256 cost, address serviceProvider) external onlyOwner whenNotPaused {\n        MaintenanceRequest storage request = _requests[requestId];\n        require(request.status == RequestStatus.Pending, \"MaintenanceTracking: Request not pending or already approved\");\n\n        request.cost = cost;\n        request.approvedBy = msg.sender;\n        request.serviceProvider = serviceProvider;\n        request.status = RequestStatus.Approved;\n\n        emit MaintenanceApproved(requestId, msg.sender, cost, serviceProvider);\n    }\n\n    // Function for service provider to start maintenance\n    function startMaintenance(uint256 requestId) external whenNotPaused {\n        MaintenanceRequest storage request = _requests[requestId];\n        require(request.serviceProvider == msg.sender, \"MaintenanceTracking: Only assigned service provider can start maintenance\");\n        require(request.status == RequestStatus.Approved, \"MaintenanceTracking: Request not approved or already started\");\n\n        request.status = RequestStatus.InProgress;\n\n        emit MaintenanceStarted(requestId, msg.sender);\n    }\n\n    // Function for service provider to mark maintenance as completed and receive payment\n    function completeMaintenance(uint256 requestId) external whenNotPaused nonReentrant {\n        MaintenanceRequest storage request = _requests[requestId];\n        require(request.status == RequestStatus.InProgress, \"MaintenanceTracking: Maintenance not in progress\");\n        require(request.serviceProvider == msg.sender, \"MaintenanceTracking: Only assigned service provider can complete maintenance\");\n\n        request.status = RequestStatus.Completed;\n        _activeRequestsByAsset[request.assetId].remove(requestId);\n\n        // Transfer funds to serviceProvider\n        if (request.cost > 0) {\n            require(address(this).balance >= request.cost, \"MaintenanceTracking: Insufficient contract balance\");\n            payable(request.serviceProvider).transfer(request.cost);\n        }\n\n        emit MaintenanceCompleted(requestId, request.cost, request.approvedBy, msg.sender);\n    }\n\n    // Function to cancel a maintenance request\n    function cancelMaintenance(uint256 requestId) external whenNotPaused {\n        MaintenanceRequest storage request = _requests[requestId];\n        require(request.requester == msg.sender, \"MaintenanceTracking: Only requester can cancel\");\n        require(request.status == RequestStatus.Pending || request.status == RequestStatus.Approved, \"MaintenanceTracking: Cannot cancel a request that is in progress or completed\");\n\n        request.status = RequestStatus.Canceled;\n        _activeRequestsByAsset[request.assetId].remove(requestId);\n\n        emit MaintenanceCanceled(requestId, msg.sender);\n    }\n\n    // Function to reject a maintenance request\n    function rejectMaintenance(uint256 requestId) external onlyOwner whenNotPaused {\n        MaintenanceRequest storage request = _requests[requestId];\n        require(request.status == RequestStatus.Pending, \"MaintenanceTracking: Can only reject pending requests\");\n\n        request.status = RequestStatus.Canceled;\n        _activeRequestsByAsset[request.assetId].remove(requestId);\n\n        emit MaintenanceRejected(requestId, msg.sender);\n    }\n\n    // Function to get the details of a maintenance request\n    function getMaintenanceRequest(uint256 requestId) external view returns (MaintenanceRequest memory) {\n        return _requests[requestId];\n    }\n\n    // Function to get all active maintenance requests for an asset\n    function getActiveRequestsForAsset(uint256 assetId) external view returns (uint256[] memory) {\n        return _activeRequestsByAsset[assetId].values();\n    }\n\n    // Function to get the total number of maintenance requests\n    function totalRequests() external view returns (uint256) {\n        return _requestCounter;\n    }\n\n    // Function to pause the contract (onlyOwner)\n    function pause() external onlyOwner {\n        _pause();\n    }\n\n    // Function to unpause the contract (onlyOwner)\n    function unpause() external onlyOwner {\n        _unpause();\n    }\n\n    // Function to withdraw funds (onlyOwner)\n    function withdrawFunds(address to, uint256 amount) external onlyOwner nonReentrant {\n        require(address(this).balance >= amount, \"MaintenanceTracking: Insufficient balance\");\n        payable(to).transfer(amount);\n    }\n\n    // Fallback function to receive Ether\n    receive() external payable {}\n    fallback() external payable {}\n}\n",
  "sourcePath": "/Users/elvin3block/Documents/Evire/Evire-DePin/contracts/MaintenanceTracking.sol",
  "compiler": {
    "name": "solc",
    "version": "0.8.19+commit.7dd6d404.Emscripten.clang"
  },
  "schemaVersion": "3.4.16",
  "updatedAt": "2024-10-22T11:12:27.811Z",
  "devdoc": {
    "events": {
      "Paused(address)": {
        "details": "Emitted when the pause is triggered by `account`."
      },
      "Unpaused(address)": {
        "details": "Emitted when the pause is lifted by `account`."
      }
    },
    "kind": "dev",
    "methods": {
      "owner()": {
        "details": "Returns the address of the current owner."
      },
      "paused()": {
        "details": "Returns true if the contract is paused, and false otherwise."
      },
      "renounceOwnership()": {
        "details": "Leaves the contract without owner. It will not be possible to call `onlyOwner` functions. Can only be called by the current owner. NOTE: Renouncing ownership will leave the contract without an owner, thereby disabling any functionality that is only available to the owner."
      },
      "transferOwnership(address)": {
        "details": "Transfers ownership of the contract to a new account (`newOwner`). Can only be called by the current owner."
      }
    },
    "version": 1
  },
  "userdoc": {
    "kind": "user",
    "methods": {},
    "version": 1
  }
}