{
  "contractName": "OracleIntegration",
  "abi": [
    {
      "inputs": [
        {
          "internalType": "uint256",
          "name": "_updateInterval",
          "type": "uint256"
        },
        {
          "internalType": "uint256",
          "name": "_tolerance",
          "type": "uint256"
        }
      ],
      "stateMutability": "nonpayable",
      "type": "constructor"
    },
    {
      "inputs": [
        {
          "internalType": "address",
          "name": "owner",
          "type": "address"
        }
      ],
      "name": "OwnableInvalidOwner",
      "type": "error"
    },
    {
      "inputs": [
        {
          "internalType": "address",
          "name": "account",
          "type": "address"
        }
      ],
      "name": "OwnableUnauthorizedAccount",
      "type": "error"
    },
    {
      "inputs": [],
      "name": "ReentrancyGuardReentrantCall",
      "type": "error"
    },
    {
      "anonymous": false,
      "inputs": [
        {
          "indexed": false,
          "internalType": "int256",
          "name": "currentValue",
          "type": "int256"
        },
        {
          "indexed": false,
          "internalType": "int256",
          "name": "newValue",
          "type": "int256"
        }
      ],
      "name": "DataOutOfTolerance",
      "type": "event"
    },
    {
      "anonymous": false,
      "inputs": [
        {
          "indexed": false,
          "internalType": "int256",
          "name": "newValue",
          "type": "int256"
        }
      ],
      "name": "DataUpdated",
      "type": "event"
    },
    {
      "anonymous": false,
      "inputs": [
        {
          "indexed": false,
          "internalType": "address",
          "name": "oracleAddress",
          "type": "address"
        },
        {
          "indexed": false,
          "internalType": "address",
          "name": "aggregator",
          "type": "address"
        },
        {
          "indexed": false,
          "internalType": "uint8",
          "name": "decimals",
          "type": "uint8"
        }
      ],
      "name": "OracleAdded",
      "type": "event"
    },
    {
      "anonymous": false,
      "inputs": [
        {
          "indexed": false,
          "internalType": "address",
          "name": "oracleAddress",
          "type": "address"
        }
      ],
      "name": "OracleRemoved",
      "type": "event"
    },
    {
      "anonymous": false,
      "inputs": [
        {
          "indexed": false,
          "internalType": "address",
          "name": "oracleAddress",
          "type": "address"
        },
        {
          "indexed": false,
          "internalType": "address",
          "name": "newAggregator",
          "type": "address"
        },
        {
          "indexed": false,
          "internalType": "uint8",
          "name": "newDecimals",
          "type": "uint8"
        }
      ],
      "name": "OracleUpdated",
      "type": "event"
    },
    {
      "anonymous": false,
      "inputs": [
        {
          "indexed": true,
          "internalType": "address",
          "name": "previousOwner",
          "type": "address"
        },
        {
          "indexed": true,
          "internalType": "address",
          "name": "newOwner",
          "type": "address"
        }
      ],
      "name": "OwnershipTransferred",
      "type": "event"
    },
    {
      "anonymous": false,
      "inputs": [
        {
          "indexed": false,
          "internalType": "uint256",
          "name": "newTolerance",
          "type": "uint256"
        }
      ],
      "name": "ToleranceChanged",
      "type": "event"
    },
    {
      "anonymous": false,
      "inputs": [
        {
          "indexed": false,
          "internalType": "uint256",
          "name": "newInterval",
          "type": "uint256"
        }
      ],
      "name": "UpdateIntervalChanged",
      "type": "event"
    },
    {
      "inputs": [],
      "name": "currentValue",
      "outputs": [
        {
          "internalType": "int256",
          "name": "",
          "type": "int256"
        }
      ],
      "stateMutability": "view",
      "type": "function"
    },
    {
      "inputs": [],
      "name": "decimals",
      "outputs": [
        {
          "internalType": "uint8",
          "name": "",
          "type": "uint8"
        }
      ],
      "stateMutability": "view",
      "type": "function"
    },
    {
      "inputs": [],
      "name": "lastUpdateTime",
      "outputs": [
        {
          "internalType": "uint256",
          "name": "",
          "type": "uint256"
        }
      ],
      "stateMutability": "view",
      "type": "function"
    },
    {
      "inputs": [],
      "name": "owner",
      "outputs": [
        {
          "internalType": "address",
          "name": "",
          "type": "address"
        }
      ],
      "stateMutability": "view",
      "type": "function"
    },
    {
      "inputs": [],
      "name": "renounceOwnership",
      "outputs": [],
      "stateMutability": "nonpayable",
      "type": "function"
    },
    {
      "inputs": [],
      "name": "tolerance",
      "outputs": [
        {
          "internalType": "uint256",
          "name": "",
          "type": "uint256"
        }
      ],
      "stateMutability": "view",
      "type": "function"
    },
    {
      "inputs": [
        {
          "internalType": "address",
          "name": "newOwner",
          "type": "address"
        }
      ],
      "name": "transferOwnership",
      "outputs": [],
      "stateMutability": "nonpayable",
      "type": "function"
    },
    {
      "inputs": [],
      "name": "updateInterval",
      "outputs": [
        {
          "internalType": "uint256",
          "name": "",
          "type": "uint256"
        }
      ],
      "stateMutability": "view",
      "type": "function"
    },
    {
      "inputs": [
        {
          "internalType": "address",
          "name": "oracleAddress",
          "type": "address"
        },
        {
          "internalType": "address",
          "name": "aggregator",
          "type": "address"
        },
        {
          "internalType": "uint8",
          "name": "_decimals",
          "type": "uint8"
        }
      ],
      "name": "addOracle",
      "outputs": [],
      "stateMutability": "nonpayable",
      "type": "function"
    },
    {
      "inputs": [
        {
          "internalType": "address",
          "name": "oracleAddress",
          "type": "address"
        }
      ],
      "name": "removeOracle",
      "outputs": [],
      "stateMutability": "nonpayable",
      "type": "function"
    },
    {
      "inputs": [
        {
          "internalType": "address",
          "name": "oracleAddress",
          "type": "address"
        },
        {
          "internalType": "address",
          "name": "newAggregator",
          "type": "address"
        },
        {
          "internalType": "uint8",
          "name": "newDecimals",
          "type": "uint8"
        }
      ],
      "name": "updateOracle",
      "outputs": [],
      "stateMutability": "nonpayable",
      "type": "function"
    },
    {
      "inputs": [
        {
          "internalType": "uint256",
          "name": "newInterval",
          "type": "uint256"
        }
      ],
      "name": "setUpdateInterval",
      "outputs": [],
      "stateMutability": "nonpayable",
      "type": "function"
    },
    {
      "inputs": [
        {
          "internalType": "uint256",
          "name": "newTolerance",
          "type": "uint256"
        }
      ],
      "name": "setTolerance",
      "outputs": [],
      "stateMutability": "nonpayable",
      "type": "function"
    },
    {
      "inputs": [],
      "name": "getLatestData",
      "outputs": [
        {
          "internalType": "int256",
          "name": "",
          "type": "int256"
        }
      ],
      "stateMutability": "view",
      "type": "function"
    },
    {
      "inputs": [],
      "name": "updateData",
      "outputs": [],
      "stateMutability": "nonpayable",
      "type": "function"
    },
    {
      "inputs": [
        {
          "internalType": "address",
          "name": "oracleAddress",
          "type": "address"
        }
      ],
      "name": "isOracle",
      "outputs": [
        {
          "internalType": "bool",
          "name": "",
          "type": "bool"
        }
      ],
      "stateMutability": "view",
      "type": "function"
    },
    {
      "inputs": [],
      "name": "oracleCount",
      "outputs": [
        {
          "internalType": "uint256",
          "name": "",
          "type": "uint256"
        }
      ],
      "stateMutability": "view",
      "type": "function"
    },
    {
      "inputs": [
        {
          "internalType": "address",
          "name": "oracleAddress",
          "type": "address"
        }
      ],
      "name": "getOracleDetails",
      "outputs": [
        {
          "internalType": "address",
          "name": "aggregator",
          "type": "address"
        },
        {
          "internalType": "uint8",
          "name": "_decimals",
          "type": "uint8"
        },
        {
          "internalType": "bool",
          "name": "isActive",
          "type": "bool"
        }
      ],
      "stateMutability": "view",
      "type": "function"
    },
    {
      "inputs": [],
      "name": "getAggregatedOracleData",
      "outputs": [
        {
          "internalType": "int256",
          "name": "",
          "type": "int256"
        }
      ],
      "stateMutability": "view",
      "type": "function"
    },
    {
      "inputs": [],
      "name": "getOracleAddresses",
      "outputs": [
        {
          "internalType": "address[]",
          "name": "",
          "type": "address[]"
        }
      ],
      "stateMutability": "view",
      "type": "function"
    }
  ],
  "bytecode": "0x6080604052601260095f6101000a81548160ff021916908360ff1602179055503480156200002b575f80fd5b50604051620027de380380620027de83398181016040528101906200005191906200025e565b335f73ffffffffffffffffffffffffffffffffffffffff168173ffffffffffffffffffffffffffffffffffffffff1603620000c5575f6040517f1e4fbdf7000000000000000000000000000000000000000000000000000000008152600401620000bc9190620002e6565b60405180910390fd5b620000d6816200016160201b60201c565b50600180819055507f7fffffffffffffffffffffffffffffffffffffffffffffffffffffffffffffff81111562000144576040517f08c379a00000000000000000000000000000000000000000000000000000000081526004016200013b906200035f565b60405180910390fd5b81600581905550806007819055504260068190555050506200037f565b5f805f9054906101000a900473ffffffffffffffffffffffffffffffffffffffff169050815f806101000a81548173ffffffffffffffffffffffffffffffffffffffff021916908373ffffffffffffffffffffffffffffffffffffffff1602179055508173ffffffffffffffffffffffffffffffffffffffff168173ffffffffffffffffffffffffffffffffffffffff167f8be0079c531659141344cd1fd0a4f28419497f9722a3daafe3b4186f6b6457e060405160405180910390a35050565b5f80fd5b5f819050919050565b6200023a8162000226565b811462000245575f80fd5b50565b5f8151905062000258816200022f565b92915050565b5f806040838503121562000277576200027662000222565b5b5f620002868582860162000248565b9250506020620002998582860162000248565b9150509250929050565b5f73ffffffffffffffffffffffffffffffffffffffff82169050919050565b5f620002ce82620002a3565b9050919050565b620002e081620002c2565b82525050565b5f602082019050620002fb5f830184620002d5565b92915050565b5f82825260208201905092915050565b7f546f6c6572616e636520746f6f206869676800000000000000000000000000005f82015250565b5f6200034760128362000301565b9150620003548262000311565b602082019050919050565b5f6020820190508181035f830152620003788162000339565b9050919050565b612451806200038d5f395ff3fe608060405234801561000f575f80fd5b506004361061012a575f3560e01c80638e00a2bb116100ab578063c93260321161006f578063c9326032146102e6578063dce52dfa14610304578063f2fde38b14610322578063fd2c80ae1461033e578063fdc85fc41461035c5761012a565b80638e00a2bb14610254578063a97e5c931461025e578063ab757d611461028e578063acf00109146102ac578063c8f33c91146102c85761012a565b80637124c683116100f25780637124c683146101c0578063715018a6146101dc5780637330aba2146101e65780638da5cb5b146102045780638dacb3f0146102225761012a565b80631b9a5b761461012e578063313ce5671461014a5780633c5fd98214610168578063613d8fcc14610184578063698996f8146101a2575b5f80fd5b61014860048036038101906101439190611661565b610378565b005b610152610567565b60405161015f91906116c0565b60405180910390f35b610182600480360381019061017d919061170c565b610579565b005b61018c610667565b6040516101999190611746565b60405180910390f35b6101aa610677565b6040516101b79190611777565b60405180910390f35b6101da60048036038101906101d5919061170c565b61067d565b005b6101e4610708565b005b6101ee61071b565b6040516101fb9190611847565b60405180910390f35b61020c61072c565b6040516102199190611876565b60405180910390f35b61023c6004803603810190610237919061188f565b610753565b60405161024b939291906118d4565b60405180910390f35b61025c6107e9565b005b6102786004803603810190610273919061188f565b6109eb565b6040516102859190611909565b60405180910390f35b610296610a3f565b6040516102a39190611777565b60405180910390f35b6102c660048036038101906102c19190611661565b610c59565b005b6102d0610f27565b6040516102dd9190611746565b60405180910390f35b6102ee610f2d565b6040516102fb9190611777565b60405180910390f35b61030c610f3b565b6040516103199190611746565b60405180910390f35b61033c6004803603810190610337919061188f565b610f41565b005b610346610fc5565b6040516103539190611746565b60405180910390f35b6103766004803603810190610371919061188f565b610fcb565b005b6103806110cb565b61039483600361115290919063ffffffff16565b6103d3576040517f08c379a00000000000000000000000000000000000000000000000000000000081526004016103ca9061197c565b60405180910390fd5b5f73ffffffffffffffffffffffffffffffffffffffff168273ffffffffffffffffffffffffffffffffffffffff1603610441576040517f08c379a0000000000000000000000000000000000000000000000000000000008152600401610438906119e4565b60405180910390fd5b604d8160ff161115610488576040517f08c379a000000000000000000000000000000000000000000000000000000000815260040161047f90611a4c565b60405180910390fd5b5f60025f8573ffffffffffffffffffffffffffffffffffffffff1673ffffffffffffffffffffffffffffffffffffffff1681526020019081526020015f20905082815f0160016101000a81548173ffffffffffffffffffffffffffffffffffffffff021916908373ffffffffffffffffffffffffffffffffffffffff16021790555081815f0160156101000a81548160ff021916908360ff1602179055507fb64b6f1993369dd36ff10ca3bf2c989bb3aa3cffbd77f635bf2d959867b523f984848460405161055993929190611a6a565b60405180910390a150505050565b60095f9054906101000a900460ff1681565b6105816110cb565b5f81116105c3576040517f08c379a00000000000000000000000000000000000000000000000000000000081526004016105ba90611b0f565b60405180910390fd5b7f7fffffffffffffffffffffffffffffffffffffffffffffffffffffffffffffff811115610626576040517f08c379a000000000000000000000000000000000000000000000000000000000815260040161061d90611b77565b60405180910390fd5b806007819055507f4b1fa253bb634d674241471ce32ec8adcc021f2f9207b8966aad0f84d862369f8160405161065c9190611746565b60405180910390a150565b5f610672600361117f565b905090565b60085481565b6106856110cb565b5f81116106c7576040517f08c379a00000000000000000000000000000000000000000000000000000000081526004016106be90611c05565b60405180910390fd5b806005819055507f3c92f1fa50ded8b547b287740f6a6d6e4e9ef8fa96cdcb614be52daa117f784c816040516106fd9190611746565b60405180910390a150565b6107106110cb565b6107195f611192565b565b60606107276003611253565b905090565b5f805f9054906101000a900473ffffffffffffffffffffffffffffffffffffffff16905090565b5f805f8060025f8673ffffffffffffffffffffffffffffffffffffffff1673ffffffffffffffffffffffffffffffffffffffff1681526020019081526020015f209050805f0160019054906101000a900473ffffffffffffffffffffffffffffffffffffffff16815f0160159054906101000a900460ff16825f015f9054906101000a900460ff16935093509350509193909250565b60025f3373ffffffffffffffffffffffffffffffffffffffff1673ffffffffffffffffffffffffffffffffffffffff1681526020019081526020015f205f015f9054906101000a900460ff16610874576040517f08c379a000000000000000000000000000000000000000000000000000000000815260040161086b90611c6d565b60405180910390fd5b61087c611272565b60055460065461088c9190611cb8565b4210156108ce576040517f08c379a00000000000000000000000000000000000000000000000000000000081526004016108c590611d35565b60405180910390fd5b5f6108d7610a3f565b90505f6008540361092757806008819055507fa6cf9aaed861a9a558264b26cae0c69a4a13cb50340656bc87251b6fcca759e160085460405161091a9190611777565b60405180910390a16109d9565b6007546008546109379190611d53565b811280610952575060075460085461094f9190611d93565b81135b15610997577f13b25bf5902e7c50a8d86d7c4a6753a0093ceb3e82df94bc384c3d5ef6b10e616008548260405161098a929190611dd4565b60405180910390a16109d8565b806008819055507fa6cf9aaed861a9a558264b26cae0c69a4a13cb50340656bc87251b6fcca759e16008546040516109cf9190611777565b60405180910390a15b5b42600681905550506109e96112b8565b565b5f60025f8373ffffffffffffffffffffffffffffffffffffffff1673ffffffffffffffffffffffffffffffffffffffff1681526020019081526020015f205f015f9054906101000a900460ff169050919050565b5f80610a4b600361117f565b11610a8b576040517f08c379a0000000000000000000000000000000000000000000000000000000008152600401610a8290611e45565b60405180910390fd5b5f805f5b610a99600361117f565b811015610bfe575f60025f610ab88460036112c190919063ffffffff16565b73ffffffffffffffffffffffffffffffffffffffff1673ffffffffffffffffffffffffffffffffffffffff1681526020019081526020015f209050805f015f9054906101000a900460ff1615610bea575f815f0160019054906101000a900473ffffffffffffffffffffffffffffffffffffffff1673ffffffffffffffffffffffffffffffffffffffff1663feaf968c6040518163ffffffff1660e01b815260040160a060405180830381865afa158015610b75573d5f803e3d5ffd5b505050506040513d601f19601f82011682018060405250810190610b999190611ee0565b5050509150505f610bc982845f0160159054906101000a900460ff1660095f9054906101000a900460ff166112d8565b90508086610bd79190611d93565b95508480610be490611f57565b95505050505b508080610bf690611f57565b915050610a8f565b505f8111610c41576040517f08c379a0000000000000000000000000000000000000000000000000000000008152600401610c3890611fe8565b60405180910390fd5b5f8183610c4e9190612033565b905080935050505090565b610c616110cb565b5f73ffffffffffffffffffffffffffffffffffffffff168373ffffffffffffffffffffffffffffffffffffffff1603610ccf576040517f08c379a0000000000000000000000000000000000000000000000000000000008152600401610cc6906120e5565b60405180910390fd5b5f73ffffffffffffffffffffffffffffffffffffffff168273ffffffffffffffffffffffffffffffffffffffff1603610d3d576040517f08c379a0000000000000000000000000000000000000000000000000000000008152600401610d34906119e4565b60405180910390fd5b610d5183600361115290919063ffffffff16565b15610d91576040517f08c379a0000000000000000000000000000000000000000000000000000000008152600401610d889061214d565b60405180910390fd5b604d8160ff161115610dd8576040517f08c379a0000000000000000000000000000000000000000000000000000000008152600401610dcf90611a4c565b60405180910390fd5b60405180606001604052806001151581526020018373ffffffffffffffffffffffffffffffffffffffff1681526020018260ff1681525060025f8573ffffffffffffffffffffffffffffffffffffffff1673ffffffffffffffffffffffffffffffffffffffff1681526020019081526020015f205f820151815f015f6101000a81548160ff0219169083151502179055506020820151815f0160016101000a81548173ffffffffffffffffffffffffffffffffffffffff021916908373ffffffffffffffffffffffffffffffffffffffff1602179055506040820151815f0160156101000a81548160ff021916908360ff160217905550905050610ee683600361135a90919063ffffffff16565b507f4bd3b025a0b5acc7d7647c690707372c4800529eed51a0df89ba15223d9f865e838383604051610f1a93929190611a6a565b60405180910390a1505050565b60065481565b5f610f36610a3f565b905090565b60075481565b610f496110cb565b5f73ffffffffffffffffffffffffffffffffffffffff168173ffffffffffffffffffffffffffffffffffffffff1603610fb9575f6040517f1e4fbdf7000000000000000000000000000000000000000000000000000000008152600401610fb09190611876565b60405180910390fd5b610fc281611192565b50565b60055481565b610fd36110cb565b610fe781600361115290919063ffffffff16565b611026576040517f08c379a000000000000000000000000000000000000000000000000000000000815260040161101d9061197c565b60405180910390fd5b5f60025f8373ffffffffffffffffffffffffffffffffffffffff1673ffffffffffffffffffffffffffffffffffffffff1681526020019081526020015f205f015f6101000a81548160ff02191690831515021790555061109081600361138790919063ffffffff16565b507f9c8e7d83025bef8a04c664b2f753f64b8814bdb7e27291d7e50935f18cc3c712816040516110c09190611876565b60405180910390a150565b6110d36113b4565b73ffffffffffffffffffffffffffffffffffffffff166110f161072c565b73ffffffffffffffffffffffffffffffffffffffff1614611150576111146113b4565b6040517f118cdaa70000000000000000000000000000000000000000000000000000000081526004016111479190611876565b60405180910390fd5b565b5f611177835f018373ffffffffffffffffffffffffffffffffffffffff165f1b6113bb565b905092915050565b5f61118b825f016113db565b9050919050565b5f805f9054906101000a900473ffffffffffffffffffffffffffffffffffffffff169050815f806101000a81548173ffffffffffffffffffffffffffffffffffffffff021916908373ffffffffffffffffffffffffffffffffffffffff1602179055508173ffffffffffffffffffffffffffffffffffffffff168173ffffffffffffffffffffffffffffffffffffffff167f8be0079c531659141344cd1fd0a4f28419497f9722a3daafe3b4186f6b6457e060405160405180910390a35050565b60605f611261835f016113ea565b905060608190508092505050919050565b6002600154036112ae576040517f3ee5aeb500000000000000000000000000000000000000000000000000000000815260040160405180910390fd5b6002600181905550565b60018081905550565b5f6112ce835f0183611443565b5f1c905092915050565b5f8160ff168360ff1610156113145782826112f3919061216b565b60ff16600a61130291906122ce565b8461130d9190612318565b9050611353565b8160ff168360ff16111561134f57818361132e919061216b565b60ff16600a61133d91906122ce565b846113489190612033565b9050611353565b8390505b9392505050565b5f61137f835f018373ffffffffffffffffffffffffffffffffffffffff165f1b61146a565b905092915050565b5f6113ac835f018373ffffffffffffffffffffffffffffffffffffffff165f1b6114d1565b905092915050565b5f33905090565b5f80836001015f8481526020019081526020015f20541415905092915050565b5f815f01805490509050919050565b6060815f0180548060200260200160405190810160405280929190818152602001828054801561143757602002820191905f5260205f20905b815481526020019060010190808311611423575b50505050509050919050565b5f825f0182815481106114595761145861238e565b5b905f5260205f200154905092915050565b5f61147583836113bb565b6114c757825f0182908060018154018082558091505060019003905f5260205f20015f9091909190915055825f0180549050836001015f8481526020019081526020015f2081905550600190506114cb565b5f90505b92915050565b5f80836001015f8481526020019081526020015f205490505f81146115c2575f6001826114fe91906123bb565b90505f6001865f018054905061151491906123bb565b905080821461157a575f865f0182815481106115335761153261238e565b5b905f5260205f200154905080875f0184815481106115545761155361238e565b5b905f5260205f20018190555083876001015f8381526020019081526020015f2081905550505b855f0180548061158d5761158c6123ee565b5b600190038181905f5260205f20015f90559055856001015f8681526020019081526020015f205f9055600193505050506115c7565b5f9150505b92915050565b5f80fd5b5f73ffffffffffffffffffffffffffffffffffffffff82169050919050565b5f6115fa826115d1565b9050919050565b61160a816115f0565b8114611614575f80fd5b50565b5f8135905061162581611601565b92915050565b5f60ff82169050919050565b6116408161162b565b811461164a575f80fd5b50565b5f8135905061165b81611637565b92915050565b5f805f60608486031215611678576116776115cd565b5b5f61168586828701611617565b935050602061169686828701611617565b92505060406116a78682870161164d565b9150509250925092565b6116ba8161162b565b82525050565b5f6020820190506116d35f8301846116b1565b92915050565b5f819050919050565b6116eb816116d9565b81146116f5575f80fd5b50565b5f81359050611706816116e2565b92915050565b5f60208284031215611721576117206115cd565b5b5f61172e848285016116f8565b91505092915050565b611740816116d9565b82525050565b5f6020820190506117595f830184611737565b92915050565b5f819050919050565b6117718161175f565b82525050565b5f60208201905061178a5f830184611768565b92915050565b5f81519050919050565b5f82825260208201905092915050565b5f819050602082019050919050565b6117c2816115f0565b82525050565b5f6117d383836117b9565b60208301905092915050565b5f602082019050919050565b5f6117f582611790565b6117ff818561179a565b935061180a836117aa565b805f5b8381101561183a57815161182188826117c8565b975061182c836117df565b92505060018101905061180d565b5085935050505092915050565b5f6020820190508181035f83015261185f81846117eb565b905092915050565b611870816115f0565b82525050565b5f6020820190506118895f830184611867565b92915050565b5f602082840312156118a4576118a36115cd565b5b5f6118b184828501611617565b91505092915050565b5f8115159050919050565b6118ce816118ba565b82525050565b5f6060820190506118e75f830186611867565b6118f460208301856116b1565b61190160408301846118c5565b949350505050565b5f60208201905061191c5f8301846118c5565b92915050565b5f82825260208201905092915050565b7f4f7261636c6520646f6573206e6f7420657869737400000000000000000000005f82015250565b5f611966601583611922565b915061197182611932565b602082019050919050565b5f6020820190508181035f8301526119938161195a565b9050919050565b7f496e76616c69642061676772656761746f7220616464726573730000000000005f82015250565b5f6119ce601a83611922565b91506119d98261199a565b602082019050919050565b5f6020820190508181035f8301526119fb816119c2565b9050919050565b7f446563696d616c7320746f6f20686967680000000000000000000000000000005f82015250565b5f611a36601183611922565b9150611a4182611a02565b602082019050919050565b5f6020820190508181035f830152611a6381611a2a565b9050919050565b5f606082019050611a7d5f830186611867565b611a8a6020830185611867565b611a9760408301846116b1565b949350505050565b7f546f6c6572616e6365206d7573742062652067726561746572207468616e207a5f8201527f65726f0000000000000000000000000000000000000000000000000000000000602082015250565b5f611af9602383611922565b9150611b0482611a9f565b604082019050919050565b5f6020820190508181035f830152611b2681611aed565b9050919050565b7f546f6c6572616e636520746f6f206869676800000000000000000000000000005f82015250565b5f611b61601283611922565b9150611b6c82611b2d565b602082019050919050565b5f6020820190508181035f830152611b8e81611b55565b9050919050565b7f55706461746520696e74657276616c206d7573742062652067726561746572205f8201527f7468616e207a65726f0000000000000000000000000000000000000000000000602082015250565b5f611bef602983611922565b9150611bfa82611b95565b604082019050919050565b5f6020820190508181035f830152611c1c81611be3565b9050919050565b7f43616c6c6572206973206e6f7420616e20616374697665206f7261636c6500005f82015250565b5f611c57601e83611922565b9150611c6282611c23565b602082019050919050565b5f6020820190508181035f830152611c8481611c4b565b9050919050565b7f4e487b71000000000000000000000000000000000000000000000000000000005f52601160045260245ffd5b5f611cc2826116d9565b9150611ccd836116d9565b9250828201905080821115611ce557611ce4611c8b565b5b92915050565b7f55706461746520696e74657276616c206e6f74207265616368656400000000005f82015250565b5f611d1f601b83611922565b9150611d2a82611ceb565b602082019050919050565b5f6020820190508181035f830152611d4c81611d13565b9050919050565b5f611d5d8261175f565b9150611d688361175f565b925082820390508181125f8412168282135f851215161715611d8d57611d8c611c8b565b5b92915050565b5f611d9d8261175f565b9150611da88361175f565b92508282019050828112155f8312168382125f841215161715611dce57611dcd611c8b565b5b92915050565b5f604082019050611de75f830185611768565b611df46020830184611768565b9392505050565b7f4e6f206f7261636c657320617661696c61626c650000000000000000000000005f82015250565b5f611e2f601483611922565b9150611e3a82611dfb565b602082019050919050565b5f6020820190508181035f830152611e5c81611e23565b9050919050565b5f69ffffffffffffffffffff82169050919050565b611e8181611e63565b8114611e8b575f80fd5b50565b5f81519050611e9c81611e78565b92915050565b611eab8161175f565b8114611eb5575f80fd5b50565b5f81519050611ec681611ea2565b92915050565b5f81519050611eda816116e2565b92915050565b5f805f805f60a08688031215611ef957611ef86115cd565b5b5f611f0688828901611e8e565b9550506020611f1788828901611eb8565b9450506040611f2888828901611ecc565b9350506060611f3988828901611ecc565b9250506080611f4a88828901611e8e565b9150509295509295909350565b5f611f61826116d9565b91507fffffffffffffffffffffffffffffffffffffffffffffffffffffffffffffffff8203611f9357611f92611c8b565b5b600182019050919050565b7f4e6f20616374697665206f7261636c657320666f756e640000000000000000005f82015250565b5f611fd2601783611922565b9150611fdd82611f9e565b602082019050919050565b5f6020820190508181035f830152611fff81611fc6565b9050919050565b7f4e487b71000000000000000000000000000000000000000000000000000000005f52601260045260245ffd5b5f61203d8261175f565b91506120488361175f565b92508261205857612057612006565b5b60015f0383147f8000000000000000000000000000000000000000000000000000000000000000831416156120905761208f611c8b565b5b828205905092915050565b7f496e76616c6964206f7261636c652061646472657373000000000000000000005f82015250565b5f6120cf601683611922565b91506120da8261209b565b602082019050919050565b5f6020820190508181035f8301526120fc816120c3565b9050919050565b7f4f7261636c6520616c72656164792065786973747300000000000000000000005f82015250565b5f612137601583611922565b915061214282612103565b602082019050919050565b5f6020820190508181035f8301526121648161212b565b9050919050565b5f6121758261162b565b91506121808361162b565b9250828203905060ff81111561219957612198611c8b565b5b92915050565b5f8160011c9050919050565b5f808291508390505b60018511156121f4578086048111156121d0576121cf611c8b565b5b60018516156121df5780820291505b80810290506121ed8561219f565b94506121b4565b94509492505050565b5f8261220c57600190506122c7565b81612219575f90506122c7565b816001811461222f576002811461223957612268565b60019150506122c7565b60ff84111561224b5761224a611c8b565b5b8360020a91508482111561226257612261611c8b565b5b506122c7565b5060208310610133831016604e8410600b841016171561229d5782820a90508381111561229857612297611c8b565b5b6122c7565b6122aa84848460016121ab565b925090508184048111156122c1576122c0611c8b565b5b81810290505b9392505050565b5f6122d8826116d9565b91506122e3836116d9565b92506123107fffffffffffffffffffffffffffffffffffffffffffffffffffffffffffffffff84846121fd565b905092915050565b5f6123228261175f565b915061232d8361175f565b925082820261233b8161175f565b91507f800000000000000000000000000000000000000000000000000000000000000084145f8412161561237257612371611c8b565b5b828205841483151761238757612386611c8b565b5b5092915050565b7f4e487b71000000000000000000000000000000000000000000000000000000005f52603260045260245ffd5b5f6123c5826116d9565b91506123d0836116d9565b92508282039050818111156123e8576123e7611c8b565b5b92915050565b7f4e487b71000000000000000000000000000000000000000000000000000000005f52603160045260245ffdfea26469706673582212209a84a362339f7c608ebc4303660cca449fa63396f4634ab96a3f19d4970b6ccc64736f6c63430008140033",
  "immutableReferences": {},
  "source": "// SPDX-License-Identifier: MIT\npragma solidity ^0.8.20;\n\nimport \"@openzeppelin/contracts/access/Ownable.sol\";\nimport \"@openzeppelin/contracts/utils/structs/EnumerableSet.sol\";\nimport \"@chainlink/contracts/src/v0.8/interfaces/AggregatorV3Interface.sol\";\nimport \"@openzeppelin/contracts/utils/ReentrancyGuard.sol\";\n\ncontract OracleIntegration is Ownable(msg.sender), ReentrancyGuard {\n    using EnumerableSet for EnumerableSet.AddressSet;\n\n    struct OracleData {\n        bool isActive;\n        AggregatorV3Interface aggregator;\n        uint8 decimals;\n    }\n\n    mapping(address => OracleData) private oracles;\n    EnumerableSet.AddressSet private oracleAddresses;\n    uint256 public updateInterval;\n    uint256 public lastUpdateTime;\n    uint256 public tolerance;\n    int256 public currentValue;\n    uint8 public decimals = 18; // Standard decimals for normalization\n\n    event OracleAdded(address oracleAddress, address aggregator, uint8 decimals);\n    event OracleRemoved(address oracleAddress);\n    event OracleUpdated(address oracleAddress, address newAggregator, uint8 newDecimals);\n    event UpdateIntervalChanged(uint256 newInterval);\n    event ToleranceChanged(uint256 newTolerance);\n    event DataUpdated(int256 newValue);\n    event DataOutOfTolerance(int256 currentValue, int256 newValue);\n\n    constructor(uint256 _updateInterval, uint256 _tolerance) {\n        require(_tolerance <= uint256(type(int256).max), \"Tolerance too high\");\n        updateInterval = _updateInterval;\n        tolerance = _tolerance;\n        lastUpdateTime = block.timestamp;\n    }\n\n    modifier onlyOracle() {\n        require(oracles[msg.sender].isActive, \"Caller is not an active oracle\");\n        _;\n    }\n\n    function addOracle(address oracleAddress, address aggregator, uint8 _decimals) external onlyOwner {\n        require(oracleAddress != address(0), \"Invalid oracle address\");\n        require(aggregator != address(0), \"Invalid aggregator address\");\n        require(!oracleAddresses.contains(oracleAddress), \"Oracle already exists\");\n        require(_decimals <= 77, \"Decimals too high\");\n\n        oracles[oracleAddress] = OracleData({\n            isActive: true,\n            aggregator: AggregatorV3Interface(aggregator),\n            decimals: _decimals\n        });\n\n        oracleAddresses.add(oracleAddress);\n\n        emit OracleAdded(oracleAddress, aggregator, _decimals);\n    }\n\n    function removeOracle(address oracleAddress) external onlyOwner {\n        require(oracleAddresses.contains(oracleAddress), \"Oracle does not exist\");\n\n        oracles[oracleAddress].isActive = false;\n        oracleAddresses.remove(oracleAddress);\n\n        emit OracleRemoved(oracleAddress);\n    }\n\n    function updateOracle(address oracleAddress, address newAggregator, uint8 newDecimals) external onlyOwner {\n        require(oracleAddresses.contains(oracleAddress), \"Oracle does not exist\");\n        require(newAggregator != address(0), \"Invalid aggregator address\");\n        require(newDecimals <= 77, \"Decimals too high\");\n\n        OracleData storage oracle = oracles[oracleAddress];\n        oracle.aggregator = AggregatorV3Interface(newAggregator);\n        oracle.decimals = newDecimals;\n\n        emit OracleUpdated(oracleAddress, newAggregator, newDecimals);\n    }\n\n    function setUpdateInterval(uint256 newInterval) external onlyOwner {\n        require(newInterval > 0, \"Update interval must be greater than zero\");\n        updateInterval = newInterval;\n        emit UpdateIntervalChanged(newInterval);\n    }\n\n    function setTolerance(uint256 newTolerance) external onlyOwner {\n        require(newTolerance > 0, \"Tolerance must be greater than zero\");\n        require(newTolerance <= uint256(type(int256).max), \"Tolerance too high\");\n        tolerance = newTolerance;\n        emit ToleranceChanged(newTolerance);\n    }\n\n    function getLatestData() public view returns (int256) {\n        require(oracleAddresses.length() > 0, \"No oracles available\");\n\n        int256 aggregatedValue = 0;\n        uint256 activeOracles = 0;\n\n        for (uint256 i = 0; i < oracleAddresses.length(); i++) {\n            OracleData storage oracle = oracles[oracleAddresses.at(i)];\n            if (oracle.isActive) {\n                (, int256 price, , , ) = oracle.aggregator.latestRoundData();\n                int256 adjustedPrice = scalePrice(price, oracle.decimals, decimals);\n                aggregatedValue += adjustedPrice;\n                activeOracles++;\n            }\n        }\n\n        require(activeOracles > 0, \"No active oracles found\");\n        int256 averagePrice = aggregatedValue / int256(activeOracles);\n        return averagePrice;\n    }\n\n    function scalePrice(int256 _price, uint8 _priceDecimals, uint8 _decimals) internal pure returns (int256) {\n        if (_priceDecimals < _decimals) {\n            return _price * int256(10 ** uint256(_decimals - _priceDecimals));\n        } else if (_priceDecimals > _decimals) {\n            return _price / int256(10 ** uint256(_priceDecimals - _decimals));\n        } else {\n            return _price;\n        }\n    }\n\n    function updateData() external onlyOracle nonReentrant {\n        require(block.timestamp >= lastUpdateTime + updateInterval, \"Update interval not reached\");\n\n        int256 latestValue = getLatestData();\n\n        if (currentValue == 0) {\n            // Initialize currentValue if not set\n            currentValue = latestValue;\n            emit DataUpdated(currentValue);\n        } else if (latestValue < currentValue - int256(tolerance) || latestValue > currentValue + int256(tolerance)) {\n            // Data is outside tolerance range\n            emit DataOutOfTolerance(currentValue, latestValue);\n            // You might decide to reject the update or accept it; here we choose to reject\n        } else {\n            // Data is within tolerance range\n            currentValue = latestValue;\n            emit DataUpdated(currentValue);\n        }\n\n        lastUpdateTime = block.timestamp;\n    }\n\n    function isOracle(address oracleAddress) public view returns (bool) {\n        return oracles[oracleAddress].isActive;\n    }\n\n    function oracleCount() public view returns (uint256) {\n        return oracleAddresses.length();\n    }\n\n    function getOracleDetails(address oracleAddress) public view returns (address aggregator, uint8 _decimals, bool isActive) {\n        OracleData storage oracle = oracles[oracleAddress];\n        return (address(oracle.aggregator), oracle.decimals, oracle.isActive);\n    }\n\n    function getAggregatedOracleData() external view returns (int256) {\n        return getLatestData();\n    }\n\n    function getOracleAddresses() external view returns (address[] memory) {\n        return oracleAddresses.values();\n    }\n}\n",
  "sourcePath": "/Users/elvin3block/Documents/Evire-DePIN-Framework/contracts/OracleIntegration.sol",
  "compiler": {
    "name": "solc",
    "version": "0.8.20+commit.a1b79de6.Emscripten.clang"
  },
  "schemaVersion": "3.4.16",
  "updatedAt": "2024-11-07T15:02:22.464Z",
  "devdoc": {
    "errors": {
      "OwnableInvalidOwner(address)": [
        {
          "details": "The owner is not a valid owner account. (eg. `address(0)`)"
        }
      ],
      "OwnableUnauthorizedAccount(address)": [
        {
          "details": "The caller account is not authorized to perform an operation."
        }
      ],
      "ReentrancyGuardReentrantCall()": [
        {
          "details": "Unauthorized reentrant call."
        }
      ]
    },
    "kind": "dev",
    "methods": {
      "owner()": {
        "details": "Returns the address of the current owner."
      },
      "renounceOwnership()": {
        "details": "Leaves the contract without owner. It will not be possible to call `onlyOwner` functions. Can only be called by the current owner. NOTE: Renouncing ownership will leave the contract without an owner, thereby disabling any functionality that is only available to the owner."
      },
      "transferOwnership(address)": {
        "details": "Transfers ownership of the contract to a new account (`newOwner`). Can only be called by the current owner."
      }
    },
    "version": 1
  },
  "userdoc": {
    "kind": "user",
    "methods": {},
    "version": 1
  }
}