{
  "contractName": "OracleIntegration",
  "abi": [
    {
      "inputs": [
        {
          "internalType": "uint256",
          "name": "_updateInterval",
          "type": "uint256"
        },
        {
          "internalType": "uint256",
          "name": "_tolerance",
          "type": "uint256"
        }
      ],
      "stateMutability": "nonpayable",
      "type": "constructor"
    },
    {
      "anonymous": false,
      "inputs": [
        {
          "indexed": false,
          "internalType": "int256",
          "name": "currentValue",
          "type": "int256"
        },
        {
          "indexed": false,
          "internalType": "int256",
          "name": "newValue",
          "type": "int256"
        }
      ],
      "name": "DataOutOfTolerance",
      "type": "event"
    },
    {
      "anonymous": false,
      "inputs": [
        {
          "indexed": false,
          "internalType": "int256",
          "name": "newValue",
          "type": "int256"
        }
      ],
      "name": "DataUpdated",
      "type": "event"
    },
    {
      "anonymous": false,
      "inputs": [
        {
          "indexed": false,
          "internalType": "address",
          "name": "oracleAddress",
          "type": "address"
        },
        {
          "indexed": false,
          "internalType": "address",
          "name": "aggregator",
          "type": "address"
        },
        {
          "indexed": false,
          "internalType": "uint8",
          "name": "decimals",
          "type": "uint8"
        }
      ],
      "name": "OracleAdded",
      "type": "event"
    },
    {
      "anonymous": false,
      "inputs": [
        {
          "indexed": false,
          "internalType": "address",
          "name": "oracleAddress",
          "type": "address"
        }
      ],
      "name": "OracleRemoved",
      "type": "event"
    },
    {
      "anonymous": false,
      "inputs": [
        {
          "indexed": false,
          "internalType": "address",
          "name": "oracleAddress",
          "type": "address"
        },
        {
          "indexed": false,
          "internalType": "address",
          "name": "newAggregator",
          "type": "address"
        },
        {
          "indexed": false,
          "internalType": "uint8",
          "name": "newDecimals",
          "type": "uint8"
        }
      ],
      "name": "OracleUpdated",
      "type": "event"
    },
    {
      "anonymous": false,
      "inputs": [
        {
          "indexed": true,
          "internalType": "address",
          "name": "previousOwner",
          "type": "address"
        },
        {
          "indexed": true,
          "internalType": "address",
          "name": "newOwner",
          "type": "address"
        }
      ],
      "name": "OwnershipTransferred",
      "type": "event"
    },
    {
      "anonymous": false,
      "inputs": [
        {
          "indexed": false,
          "internalType": "uint256",
          "name": "newTolerance",
          "type": "uint256"
        }
      ],
      "name": "ToleranceChanged",
      "type": "event"
    },
    {
      "anonymous": false,
      "inputs": [
        {
          "indexed": false,
          "internalType": "uint256",
          "name": "newInterval",
          "type": "uint256"
        }
      ],
      "name": "UpdateIntervalChanged",
      "type": "event"
    },
    {
      "inputs": [],
      "name": "currentValue",
      "outputs": [
        {
          "internalType": "int256",
          "name": "",
          "type": "int256"
        }
      ],
      "stateMutability": "view",
      "type": "function"
    },
    {
      "inputs": [],
      "name": "decimals",
      "outputs": [
        {
          "internalType": "uint8",
          "name": "",
          "type": "uint8"
        }
      ],
      "stateMutability": "view",
      "type": "function"
    },
    {
      "inputs": [],
      "name": "lastUpdateTime",
      "outputs": [
        {
          "internalType": "uint256",
          "name": "",
          "type": "uint256"
        }
      ],
      "stateMutability": "view",
      "type": "function"
    },
    {
      "inputs": [],
      "name": "owner",
      "outputs": [
        {
          "internalType": "address",
          "name": "",
          "type": "address"
        }
      ],
      "stateMutability": "view",
      "type": "function"
    },
    {
      "inputs": [],
      "name": "renounceOwnership",
      "outputs": [],
      "stateMutability": "nonpayable",
      "type": "function"
    },
    {
      "inputs": [],
      "name": "tolerance",
      "outputs": [
        {
          "internalType": "uint256",
          "name": "",
          "type": "uint256"
        }
      ],
      "stateMutability": "view",
      "type": "function"
    },
    {
      "inputs": [
        {
          "internalType": "address",
          "name": "newOwner",
          "type": "address"
        }
      ],
      "name": "transferOwnership",
      "outputs": [],
      "stateMutability": "nonpayable",
      "type": "function"
    },
    {
      "inputs": [],
      "name": "updateInterval",
      "outputs": [
        {
          "internalType": "uint256",
          "name": "",
          "type": "uint256"
        }
      ],
      "stateMutability": "view",
      "type": "function"
    },
    {
      "inputs": [
        {
          "internalType": "address",
          "name": "oracleAddress",
          "type": "address"
        },
        {
          "internalType": "address",
          "name": "aggregator",
          "type": "address"
        },
        {
          "internalType": "uint8",
          "name": "_decimals",
          "type": "uint8"
        }
      ],
      "name": "addOracle",
      "outputs": [],
      "stateMutability": "nonpayable",
      "type": "function"
    },
    {
      "inputs": [
        {
          "internalType": "address",
          "name": "oracleAddress",
          "type": "address"
        }
      ],
      "name": "removeOracle",
      "outputs": [],
      "stateMutability": "nonpayable",
      "type": "function"
    },
    {
      "inputs": [
        {
          "internalType": "address",
          "name": "oracleAddress",
          "type": "address"
        },
        {
          "internalType": "address",
          "name": "newAggregator",
          "type": "address"
        },
        {
          "internalType": "uint8",
          "name": "newDecimals",
          "type": "uint8"
        }
      ],
      "name": "updateOracle",
      "outputs": [],
      "stateMutability": "nonpayable",
      "type": "function"
    },
    {
      "inputs": [
        {
          "internalType": "uint256",
          "name": "newInterval",
          "type": "uint256"
        }
      ],
      "name": "setUpdateInterval",
      "outputs": [],
      "stateMutability": "nonpayable",
      "type": "function"
    },
    {
      "inputs": [
        {
          "internalType": "uint256",
          "name": "newTolerance",
          "type": "uint256"
        }
      ],
      "name": "setTolerance",
      "outputs": [],
      "stateMutability": "nonpayable",
      "type": "function"
    },
    {
      "inputs": [],
      "name": "getLatestData",
      "outputs": [
        {
          "internalType": "int256",
          "name": "",
          "type": "int256"
        }
      ],
      "stateMutability": "view",
      "type": "function"
    },
    {
      "inputs": [],
      "name": "updateData",
      "outputs": [],
      "stateMutability": "nonpayable",
      "type": "function"
    },
    {
      "inputs": [
        {
          "internalType": "address",
          "name": "oracleAddress",
          "type": "address"
        }
      ],
      "name": "isOracle",
      "outputs": [
        {
          "internalType": "bool",
          "name": "",
          "type": "bool"
        }
      ],
      "stateMutability": "view",
      "type": "function"
    },
    {
      "inputs": [],
      "name": "oracleCount",
      "outputs": [
        {
          "internalType": "uint256",
          "name": "",
          "type": "uint256"
        }
      ],
      "stateMutability": "view",
      "type": "function"
    },
    {
      "inputs": [
        {
          "internalType": "address",
          "name": "oracleAddress",
          "type": "address"
        }
      ],
      "name": "getOracleDetails",
      "outputs": [
        {
          "internalType": "address",
          "name": "aggregator",
          "type": "address"
        },
        {
          "internalType": "uint8",
          "name": "_decimals",
          "type": "uint8"
        },
        {
          "internalType": "bool",
          "name": "isActive",
          "type": "bool"
        }
      ],
      "stateMutability": "view",
      "type": "function"
    },
    {
      "inputs": [],
      "name": "getAggregatedOracleData",
      "outputs": [
        {
          "internalType": "int256",
          "name": "",
          "type": "int256"
        }
      ],
      "stateMutability": "view",
      "type": "function"
    },
    {
      "inputs": [],
      "name": "getOracleAddresses",
      "outputs": [
        {
          "internalType": "address[]",
          "name": "",
          "type": "address[]"
        }
      ],
      "stateMutability": "view",
      "type": "function"
    }
  ],
  "bytecode": "0x60806040526012600960006101000a81548160ff021916908360ff1602179055503480156200002d57600080fd5b50604051620029a5380380620029a5833981810160405281019062000053919062000209565b6200007362000067620000fd60201b60201c565b6200010560201b60201c565b600180819055507f7fffffffffffffffffffffffffffffffffffffffffffffffffffffffffffffff811115620000e0576040517f08c379a0000000000000000000000000000000000000000000000000000000008152600401620000d790620002b1565b60405180910390fd5b8160058190555080600781905550426006819055505050620002d3565b600033905090565b60008060009054906101000a900473ffffffffffffffffffffffffffffffffffffffff169050816000806101000a81548173ffffffffffffffffffffffffffffffffffffffff021916908373ffffffffffffffffffffffffffffffffffffffff1602179055508173ffffffffffffffffffffffffffffffffffffffff168173ffffffffffffffffffffffffffffffffffffffff167f8be0079c531659141344cd1fd0a4f28419497f9722a3daafe3b4186f6b6457e060405160405180910390a35050565b600080fd5b6000819050919050565b620001e381620001ce565b8114620001ef57600080fd5b50565b6000815190506200020381620001d8565b92915050565b60008060408385031215620002235762000222620001c9565b5b60006200023385828601620001f2565b92505060206200024685828601620001f2565b9150509250929050565b600082825260208201905092915050565b7f546f6c6572616e636520746f6f20686967680000000000000000000000000000600082015250565b60006200029960128362000250565b9150620002a68262000261565b602082019050919050565b60006020820190508181036000830152620002cc816200028a565b9050919050565b6126c280620002e36000396000f3fe608060405234801561001057600080fd5b506004361061012c5760003560e01c80638e00a2bb116100ad578063c932603211610071578063c9326032146102e9578063dce52dfa14610307578063f2fde38b14610325578063fd2c80ae14610341578063fdc85fc41461035f5761012c565b80638e00a2bb14610257578063a97e5c9314610261578063ab757d6114610291578063acf00109146102af578063c8f33c91146102cb5761012c565b80637124c683116100f45780637124c683146101c3578063715018a6146101df5780637330aba2146101e95780638da5cb5b146102075780638dacb3f0146102255761012c565b80631b9a5b7614610131578063313ce5671461014d5780633c5fd9821461016b578063613d8fcc14610187578063698996f8146101a5575b600080fd5b61014b600480360381019061014691906116ed565b61037b565b005b610155610570565b604051610162919061174f565b60405180910390f35b610185600480360381019061018091906117a0565b610583565b005b61018f610672565b60405161019c91906117dc565b60405180910390f35b6101ad610683565b6040516101ba9190611810565b60405180910390f35b6101dd60048036038101906101d891906117a0565b610689565b005b6101e7610715565b005b6101f1610729565b6040516101fe91906118e9565b60405180910390f35b61020f61073a565b60405161021c919061191a565b60405180910390f35b61023f600480360381019061023a9190611935565b610763565b60405161024e9392919061197d565b60405180910390f35b61025f610801565b005b61027b60048036038101906102769190611935565b610a09565b60405161028891906119b4565b60405180910390f35b610299610a62565b6040516102a69190611810565b60405180910390f35b6102c960048036038101906102c491906116ed565b610c8d565b005b6102d3610f64565b6040516102e091906117dc565b60405180910390f35b6102f1610f6a565b6040516102fe9190611810565b60405180910390f35b61030f610f79565b60405161031c91906117dc565b60405180910390f35b61033f600480360381019061033a9190611935565b610f7f565b005b610349611002565b60405161035691906117dc565b60405180910390f35b61037960048036038101906103749190611935565b611008565b005b61038361110d565b61039783600361118b90919063ffffffff16565b6103d6576040517f08c379a00000000000000000000000000000000000000000000000000000000081526004016103cd90611a2c565b60405180910390fd5b600073ffffffffffffffffffffffffffffffffffffffff168273ffffffffffffffffffffffffffffffffffffffff1603610445576040517f08c379a000000000000000000000000000000000000000000000000000000000815260040161043c90611a98565b60405180910390fd5b604d8160ff16111561048c576040517f08c379a000000000000000000000000000000000000000000000000000000000815260040161048390611b04565b60405180910390fd5b6000600260008573ffffffffffffffffffffffffffffffffffffffff1673ffffffffffffffffffffffffffffffffffffffff1681526020019081526020016000209050828160000160016101000a81548173ffffffffffffffffffffffffffffffffffffffff021916908373ffffffffffffffffffffffffffffffffffffffff160217905550818160000160156101000a81548160ff021916908360ff1602179055507fb64b6f1993369dd36ff10ca3bf2c989bb3aa3cffbd77f635bf2d959867b523f984848460405161056293929190611b24565b60405180910390a150505050565b600960009054906101000a900460ff1681565b61058b61110d565b600081116105ce576040517f08c379a00000000000000000000000000000000000000000000000000000000081526004016105c590611bcd565b60405180910390fd5b7f7fffffffffffffffffffffffffffffffffffffffffffffffffffffffffffffff811115610631576040517f08c379a000000000000000000000000000000000000000000000000000000000815260040161062890611c39565b60405180910390fd5b806007819055507f4b1fa253bb634d674241471ce32ec8adcc021f2f9207b8966aad0f84d862369f8160405161066791906117dc565b60405180910390a150565b600061067e60036111bb565b905090565b60085481565b61069161110d565b600081116106d4576040517f08c379a00000000000000000000000000000000000000000000000000000000081526004016106cb90611ccb565b60405180910390fd5b806005819055507f3c92f1fa50ded8b547b287740f6a6d6e4e9ef8fa96cdcb614be52daa117f784c8160405161070a91906117dc565b60405180910390a150565b61071d61110d565b61072760006111d0565b565b60606107356003611294565b905090565b60008060009054906101000a900473ffffffffffffffffffffffffffffffffffffffff16905090565b600080600080600260008673ffffffffffffffffffffffffffffffffffffffff1673ffffffffffffffffffffffffffffffffffffffff16815260200190815260200160002090508060000160019054906101000a900473ffffffffffffffffffffffffffffffffffffffff168160000160159054906101000a900460ff168260000160009054906101000a900460ff16935093509350509193909250565b600260003373ffffffffffffffffffffffffffffffffffffffff1673ffffffffffffffffffffffffffffffffffffffff16815260200190815260200160002060000160009054906101000a900460ff16610890576040517f08c379a000000000000000000000000000000000000000000000000000000000815260040161088790611d37565b60405180910390fd5b6108986112b5565b6005546006546108a89190611d86565b4210156108ea576040517f08c379a00000000000000000000000000000000000000000000000000000000081526004016108e190611e06565b60405180910390fd5b60006108f4610a62565b905060006008540361094557806008819055507fa6cf9aaed861a9a558264b26cae0c69a4a13cb50340656bc87251b6fcca759e16008546040516109389190611810565b60405180910390a16109f7565b6007546008546109559190611e26565b811280610970575060075460085461096d9190611e69565b81135b156109b5577f13b25bf5902e7c50a8d86d7c4a6753a0093ceb3e82df94bc384c3d5ef6b10e61600854826040516109a8929190611ead565b60405180910390a16109f6565b806008819055507fa6cf9aaed861a9a558264b26cae0c69a4a13cb50340656bc87251b6fcca759e16008546040516109ed9190611810565b60405180910390a15b5b4260068190555050610a07611304565b565b6000600260008373ffffffffffffffffffffffffffffffffffffffff1673ffffffffffffffffffffffffffffffffffffffff16815260200190815260200160002060000160009054906101000a900460ff169050919050565b600080610a6f60036111bb565b11610aaf576040517f08c379a0000000000000000000000000000000000000000000000000000000008152600401610aa690611f22565b60405180910390fd5b60008060005b610abf60036111bb565b811015610c3057600060026000610ae084600361130d90919063ffffffff16565b73ffffffffffffffffffffffffffffffffffffffff1673ffffffffffffffffffffffffffffffffffffffff16815260200190815260200160002090508060000160009054906101000a900460ff1615610c1c5760008160000160019054906101000a900473ffffffffffffffffffffffffffffffffffffffff1673ffffffffffffffffffffffffffffffffffffffff1663feaf968c6040518163ffffffff1660e01b815260040160a060405180830381865afa158015610ba4573d6000803e3d6000fd5b505050506040513d601f19601f82011682018060405250810190610bc89190611fc5565b5050509150506000610bfb828460000160159054906101000a900460ff16600960009054906101000a900460ff16611327565b90508086610c099190611e69565b95508480610c1690612040565b95505050505b508080610c2890612040565b915050610ab5565b5060008111610c74576040517f08c379a0000000000000000000000000000000000000000000000000000000008152600401610c6b906120d4565b60405180910390fd5b60008183610c829190612123565b905080935050505090565b610c9561110d565b600073ffffffffffffffffffffffffffffffffffffffff168373ffffffffffffffffffffffffffffffffffffffff1603610d04576040517f08c379a0000000000000000000000000000000000000000000000000000000008152600401610cfb906121d9565b60405180910390fd5b600073ffffffffffffffffffffffffffffffffffffffff168273ffffffffffffffffffffffffffffffffffffffff1603610d73576040517f08c379a0000000000000000000000000000000000000000000000000000000008152600401610d6a90611a98565b60405180910390fd5b610d8783600361118b90919063ffffffff16565b15610dc7576040517f08c379a0000000000000000000000000000000000000000000000000000000008152600401610dbe90612245565b60405180910390fd5b604d8160ff161115610e0e576040517f08c379a0000000000000000000000000000000000000000000000000000000008152600401610e0590611b04565b60405180910390fd5b60405180606001604052806001151581526020018373ffffffffffffffffffffffffffffffffffffffff1681526020018260ff16815250600260008573ffffffffffffffffffffffffffffffffffffffff1673ffffffffffffffffffffffffffffffffffffffff16815260200190815260200160002060008201518160000160006101000a81548160ff02191690831515021790555060208201518160000160016101000a81548173ffffffffffffffffffffffffffffffffffffffff021916908373ffffffffffffffffffffffffffffffffffffffff16021790555060408201518160000160156101000a81548160ff021916908360ff160217905550905050610f238360036113aa90919063ffffffff16565b507f4bd3b025a0b5acc7d7647c690707372c4800529eed51a0df89ba15223d9f865e838383604051610f5793929190611b24565b60405180910390a1505050565b60065481565b6000610f74610a62565b905090565b60075481565b610f8761110d565b600073ffffffffffffffffffffffffffffffffffffffff168173ffffffffffffffffffffffffffffffffffffffff1603610ff6576040517f08c379a0000000000000000000000000000000000000000000000000000000008152600401610fed906122d7565b60405180910390fd5b610fff816111d0565b50565b60055481565b61101061110d565b61102481600361118b90919063ffffffff16565b611063576040517f08c379a000000000000000000000000000000000000000000000000000000000815260040161105a90611a2c565b60405180910390fd5b6000600260008373ffffffffffffffffffffffffffffffffffffffff1673ffffffffffffffffffffffffffffffffffffffff16815260200190815260200160002060000160006101000a81548160ff0219169083151502179055506110d28160036113da90919063ffffffff16565b507f9c8e7d83025bef8a04c664b2f753f64b8814bdb7e27291d7e50935f18cc3c71281604051611102919061191a565b60405180910390a150565b61111561140a565b73ffffffffffffffffffffffffffffffffffffffff1661113361073a565b73ffffffffffffffffffffffffffffffffffffffff1614611189576040517f08c379a000000000000000000000000000000000000000000000000000000000815260040161118090612343565b60405180910390fd5b565b60006111b3836000018373ffffffffffffffffffffffffffffffffffffffff1660001b611412565b905092915050565b60006111c982600001611435565b9050919050565b60008060009054906101000a900473ffffffffffffffffffffffffffffffffffffffff169050816000806101000a81548173ffffffffffffffffffffffffffffffffffffffff021916908373ffffffffffffffffffffffffffffffffffffffff1602179055508173ffffffffffffffffffffffffffffffffffffffff168173ffffffffffffffffffffffffffffffffffffffff167f8be0079c531659141344cd1fd0a4f28419497f9722a3daafe3b4186f6b6457e060405160405180910390a35050565b606060006112a483600001611446565b905060608190508092505050919050565b6002600154036112fa576040517f08c379a00000000000000000000000000000000000000000000000000000000081526004016112f1906123af565b60405180910390fd5b6002600181905550565b60018081905550565b600061131c83600001836114a2565b60001c905092915050565b60008160ff168360ff16101561136457828261134391906123cf565b60ff16600a6113529190612537565b8461135d9190612582565b90506113a3565b8160ff168360ff16111561139f57818361137e91906123cf565b60ff16600a61138d9190612537565b846113989190612123565b90506113a3565b8390505b9392505050565b60006113d2836000018373ffffffffffffffffffffffffffffffffffffffff1660001b6114cd565b905092915050565b6000611402836000018373ffffffffffffffffffffffffffffffffffffffff1660001b61153d565b905092915050565b600033905090565b600080836001016000848152602001908152602001600020541415905092915050565b600081600001805490509050919050565b60608160000180548060200260200160405190810160405280929190818152602001828054801561149657602002820191906000526020600020905b815481526020019060010190808311611482575b50505050509050919050565b60008260000182815481106114ba576114b96125fa565b5b9060005260206000200154905092915050565b60006114d98383611412565b611532578260000182908060018154018082558091505060019003906000526020600020016000909190919091505582600001805490508360010160008481526020019081526020016000208190555060019050611537565b600090505b92915050565b6000808360010160008481526020019081526020016000205490506000811461164557600060018261156f9190612629565b90506000600186600001805490506115879190612629565b90508181146115f65760008660000182815481106115a8576115a76125fa565b5b90600052602060002001549050808760000184815481106115cc576115cb6125fa565b5b90600052602060002001819055508387600101600083815260200190815260200160002081905550505b8560000180548061160a5761160961265d565b5b60019003818190600052602060002001600090559055856001016000868152602001908152602001600020600090556001935050505061164b565b60009150505b92915050565b600080fd5b600073ffffffffffffffffffffffffffffffffffffffff82169050919050565b600061168182611656565b9050919050565b61169181611676565b811461169c57600080fd5b50565b6000813590506116ae81611688565b92915050565b600060ff82169050919050565b6116ca816116b4565b81146116d557600080fd5b50565b6000813590506116e7816116c1565b92915050565b60008060006060848603121561170657611705611651565b5b60006117148682870161169f565b93505060206117258682870161169f565b9250506040611736868287016116d8565b9150509250925092565b611749816116b4565b82525050565b60006020820190506117646000830184611740565b92915050565b6000819050919050565b61177d8161176a565b811461178857600080fd5b50565b60008135905061179a81611774565b92915050565b6000602082840312156117b6576117b5611651565b5b60006117c48482850161178b565b91505092915050565b6117d68161176a565b82525050565b60006020820190506117f160008301846117cd565b92915050565b6000819050919050565b61180a816117f7565b82525050565b60006020820190506118256000830184611801565b92915050565b600081519050919050565b600082825260208201905092915050565b6000819050602082019050919050565b61186081611676565b82525050565b60006118728383611857565b60208301905092915050565b6000602082019050919050565b60006118968261182b565b6118a08185611836565b93506118ab83611847565b8060005b838110156118dc5781516118c38882611866565b97506118ce8361187e565b9250506001810190506118af565b5085935050505092915050565b60006020820190508181036000830152611903818461188b565b905092915050565b61191481611676565b82525050565b600060208201905061192f600083018461190b565b92915050565b60006020828403121561194b5761194a611651565b5b60006119598482850161169f565b91505092915050565b60008115159050919050565b61197781611962565b82525050565b6000606082019050611992600083018661190b565b61199f6020830185611740565b6119ac604083018461196e565b949350505050565b60006020820190506119c9600083018461196e565b92915050565b600082825260208201905092915050565b7f4f7261636c6520646f6573206e6f742065786973740000000000000000000000600082015250565b6000611a166015836119cf565b9150611a21826119e0565b602082019050919050565b60006020820190508181036000830152611a4581611a09565b9050919050565b7f496e76616c69642061676772656761746f722061646472657373000000000000600082015250565b6000611a82601a836119cf565b9150611a8d82611a4c565b602082019050919050565b60006020820190508181036000830152611ab181611a75565b9050919050565b7f446563696d616c7320746f6f2068696768000000000000000000000000000000600082015250565b6000611aee6011836119cf565b9150611af982611ab8565b602082019050919050565b60006020820190508181036000830152611b1d81611ae1565b9050919050565b6000606082019050611b39600083018661190b565b611b46602083018561190b565b611b536040830184611740565b949350505050565b7f546f6c6572616e6365206d7573742062652067726561746572207468616e207a60008201527f65726f0000000000000000000000000000000000000000000000000000000000602082015250565b6000611bb76023836119cf565b9150611bc282611b5b565b604082019050919050565b60006020820190508181036000830152611be681611baa565b9050919050565b7f546f6c6572616e636520746f6f20686967680000000000000000000000000000600082015250565b6000611c236012836119cf565b9150611c2e82611bed565b602082019050919050565b60006020820190508181036000830152611c5281611c16565b9050919050565b7f55706461746520696e74657276616c206d75737420626520677265617465722060008201527f7468616e207a65726f0000000000000000000000000000000000000000000000602082015250565b6000611cb56029836119cf565b9150611cc082611c59565b604082019050919050565b60006020820190508181036000830152611ce481611ca8565b9050919050565b7f43616c6c6572206973206e6f7420616e20616374697665206f7261636c650000600082015250565b6000611d21601e836119cf565b9150611d2c82611ceb565b602082019050919050565b60006020820190508181036000830152611d5081611d14565b9050919050565b7f4e487b7100000000000000000000000000000000000000000000000000000000600052601160045260246000fd5b6000611d918261176a565b9150611d9c8361176a565b9250828201905080821115611db457611db3611d57565b5b92915050565b7f55706461746520696e74657276616c206e6f7420726561636865640000000000600082015250565b6000611df0601b836119cf565b9150611dfb82611dba565b602082019050919050565b60006020820190508181036000830152611e1f81611de3565b9050919050565b6000611e31826117f7565b9150611e3c836117f7565b9250828203905081811260008412168282136000851215161715611e6357611e62611d57565b5b92915050565b6000611e74826117f7565b9150611e7f836117f7565b925082820190508281121560008312168382126000841215161715611ea757611ea6611d57565b5b92915050565b6000604082019050611ec26000830185611801565b611ecf6020830184611801565b9392505050565b7f4e6f206f7261636c657320617661696c61626c65000000000000000000000000600082015250565b6000611f0c6014836119cf565b9150611f1782611ed6565b602082019050919050565b60006020820190508181036000830152611f3b81611eff565b9050919050565b600069ffffffffffffffffffff82169050919050565b611f6181611f42565b8114611f6c57600080fd5b50565b600081519050611f7e81611f58565b92915050565b611f8d816117f7565b8114611f9857600080fd5b50565b600081519050611faa81611f84565b92915050565b600081519050611fbf81611774565b92915050565b600080600080600060a08688031215611fe157611fe0611651565b5b6000611fef88828901611f6f565b955050602061200088828901611f9b565b945050604061201188828901611fb0565b935050606061202288828901611fb0565b925050608061203388828901611f6f565b9150509295509295909350565b600061204b8261176a565b91507fffffffffffffffffffffffffffffffffffffffffffffffffffffffffffffffff820361207d5761207c611d57565b5b600182019050919050565b7f4e6f20616374697665206f7261636c657320666f756e64000000000000000000600082015250565b60006120be6017836119cf565b91506120c982612088565b602082019050919050565b600060208201905081810360008301526120ed816120b1565b9050919050565b7f4e487b7100000000000000000000000000000000000000000000000000000000600052601260045260246000fd5b600061212e826117f7565b9150612139836117f7565b925082612149576121486120f4565b5b600160000383147f80000000000000000000000000000000000000000000000000000000000000008314161561218257612181611d57565b5b828205905092915050565b7f496e76616c6964206f7261636c65206164647265737300000000000000000000600082015250565b60006121c36016836119cf565b91506121ce8261218d565b602082019050919050565b600060208201905081810360008301526121f2816121b6565b9050919050565b7f4f7261636c6520616c7265616479206578697374730000000000000000000000600082015250565b600061222f6015836119cf565b915061223a826121f9565b602082019050919050565b6000602082019050818103600083015261225e81612222565b9050919050565b7f4f776e61626c653a206e6577206f776e657220697320746865207a65726f206160008201527f6464726573730000000000000000000000000000000000000000000000000000602082015250565b60006122c16026836119cf565b91506122cc82612265565b604082019050919050565b600060208201905081810360008301526122f0816122b4565b9050919050565b7f4f776e61626c653a2063616c6c6572206973206e6f7420746865206f776e6572600082015250565b600061232d6020836119cf565b9150612338826122f7565b602082019050919050565b6000602082019050818103600083015261235c81612320565b9050919050565b7f5265656e7472616e637947756172643a207265656e7472616e742063616c6c00600082015250565b6000612399601f836119cf565b91506123a482612363565b602082019050919050565b600060208201905081810360008301526123c88161238c565b9050919050565b60006123da826116b4565b91506123e5836116b4565b9250828203905060ff8111156123fe576123fd611d57565b5b92915050565b60008160011c9050919050565b6000808291508390505b600185111561245b5780860481111561243757612436611d57565b5b60018516156124465780820291505b808102905061245485612404565b945061241b565b94509492505050565b6000826124745760019050612530565b816124825760009050612530565b816001811461249857600281146124a2576124d1565b6001915050612530565b60ff8411156124b4576124b3611d57565b5b8360020a9150848211156124cb576124ca611d57565b5b50612530565b5060208310610133831016604e8410600b84101617156125065782820a90508381111561250157612500611d57565b5b612530565b6125138484846001612411565b9250905081840481111561252a57612529611d57565b5b81810290505b9392505050565b60006125428261176a565b915061254d8361176a565b925061257a7fffffffffffffffffffffffffffffffffffffffffffffffffffffffffffffffff8484612464565b905092915050565b600061258d826117f7565b9150612598836117f7565b92508282026125a6816117f7565b91507f800000000000000000000000000000000000000000000000000000000000000084146000841216156125de576125dd611d57565b5b82820584148315176125f3576125f2611d57565b5b5092915050565b7f4e487b7100000000000000000000000000000000000000000000000000000000600052603260045260246000fd5b60006126348261176a565b915061263f8361176a565b925082820390508181111561265757612656611d57565b5b92915050565b7f4e487b7100000000000000000000000000000000000000000000000000000000600052603160045260246000fdfea2646970667358221220dc8e6e8768174fd14e4100d9076db883a8f77e44a605f785088c94866c0e020064736f6c63430008130033",
  "immutableReferences": {},
  "source": "// SPDX-License-Identifier: MIT\npragma solidity ^0.8.0; // You could update to a more recent version if desired\n\nimport \"@openzeppelin/contracts/access/Ownable.sol\";\nimport \"@openzeppelin/contracts/utils/structs/EnumerableSet.sol\";\nimport \"@chainlink/contracts/src/v0.8/interfaces/AggregatorV3Interface.sol\";\nimport \"@openzeppelin/contracts/security/ReentrancyGuard.sol\";\n\ncontract OracleIntegration is Ownable, ReentrancyGuard {\n    using EnumerableSet for EnumerableSet.AddressSet;\n\n    struct OracleData {\n        bool isActive;\n        AggregatorV3Interface aggregator;\n        uint8 decimals;\n    }\n\n    mapping(address => OracleData) private oracles;\n    EnumerableSet.AddressSet private oracleAddresses;\n    uint256 public updateInterval;\n    uint256 public lastUpdateTime;\n    uint256 public tolerance;\n    int256 public currentValue;\n    uint8 public decimals = 18; // Standard decimals for normalization\n\n    event OracleAdded(address oracleAddress, address aggregator, uint8 decimals);\n    event OracleRemoved(address oracleAddress);\n    event OracleUpdated(address oracleAddress, address newAggregator, uint8 newDecimals);\n    event UpdateIntervalChanged(uint256 newInterval);\n    event ToleranceChanged(uint256 newTolerance);\n    event DataUpdated(int256 newValue);\n    event DataOutOfTolerance(int256 currentValue, int256 newValue);\n\n    constructor(uint256 _updateInterval, uint256 _tolerance) {\n        require(_tolerance <= uint256(type(int256).max), \"Tolerance too high\");\n        updateInterval = _updateInterval;\n        tolerance = _tolerance;\n        lastUpdateTime = block.timestamp;\n    }\n\n    modifier onlyOracle() {\n        require(oracles[msg.sender].isActive, \"Caller is not an active oracle\");\n        _;\n    }\n\n    function addOracle(address oracleAddress, address aggregator, uint8 _decimals) external onlyOwner {\n        require(oracleAddress != address(0), \"Invalid oracle address\");\n        require(aggregator != address(0), \"Invalid aggregator address\");\n        require(!oracleAddresses.contains(oracleAddress), \"Oracle already exists\");\n        require(_decimals <= 77, \"Decimals too high\");\n\n        oracles[oracleAddress] = OracleData({\n            isActive: true,\n            aggregator: AggregatorV3Interface(aggregator),\n            decimals: _decimals\n        });\n\n        oracleAddresses.add(oracleAddress);\n\n        emit OracleAdded(oracleAddress, aggregator, _decimals);\n    }\n\n    function removeOracle(address oracleAddress) external onlyOwner {\n        require(oracleAddresses.contains(oracleAddress), \"Oracle does not exist\");\n\n        oracles[oracleAddress].isActive = false;\n        oracleAddresses.remove(oracleAddress);\n\n        emit OracleRemoved(oracleAddress);\n    }\n\n    function updateOracle(address oracleAddress, address newAggregator, uint8 newDecimals) external onlyOwner {\n        require(oracleAddresses.contains(oracleAddress), \"Oracle does not exist\");\n        require(newAggregator != address(0), \"Invalid aggregator address\");\n        require(newDecimals <= 77, \"Decimals too high\");\n\n        OracleData storage oracle = oracles[oracleAddress];\n        oracle.aggregator = AggregatorV3Interface(newAggregator);\n        oracle.decimals = newDecimals;\n\n        emit OracleUpdated(oracleAddress, newAggregator, newDecimals);\n    }\n\n    function setUpdateInterval(uint256 newInterval) external onlyOwner {\n        require(newInterval > 0, \"Update interval must be greater than zero\");\n        updateInterval = newInterval;\n        emit UpdateIntervalChanged(newInterval);\n    }\n\n    function setTolerance(uint256 newTolerance) external onlyOwner {\n        require(newTolerance > 0, \"Tolerance must be greater than zero\");\n        require(newTolerance <= uint256(type(int256).max), \"Tolerance too high\");\n        tolerance = newTolerance;\n        emit ToleranceChanged(newTolerance);\n    }\n\n    function getLatestData() public view returns (int256) {\n        require(oracleAddresses.length() > 0, \"No oracles available\");\n\n        int256 aggregatedValue = 0;\n        uint256 activeOracles = 0;\n\n        for (uint256 i = 0; i < oracleAddresses.length(); i++) {\n            OracleData storage oracle = oracles[oracleAddresses.at(i)];\n            if (oracle.isActive) {\n                (, int256 price, , , ) = oracle.aggregator.latestRoundData();\n                int256 adjustedPrice = scalePrice(price, oracle.decimals, decimals);\n                aggregatedValue += adjustedPrice;\n                activeOracles++;\n            }\n        }\n\n        require(activeOracles > 0, \"No active oracles found\");\n        int256 averagePrice = aggregatedValue / int256(activeOracles);\n        return averagePrice;\n    }\n\n    function scalePrice(int256 _price, uint8 _priceDecimals, uint8 _decimals) internal pure returns (int256) {\n        if (_priceDecimals < _decimals) {\n            return _price * int256(10 ** uint256(_decimals - _priceDecimals));\n        } else if (_priceDecimals > _decimals) {\n            return _price / int256(10 ** uint256(_priceDecimals - _decimals));\n        } else {\n            return _price;\n        }\n    }\n\n    function updateData() external onlyOracle nonReentrant {\n        require(block.timestamp >= lastUpdateTime + updateInterval, \"Update interval not reached\");\n\n        int256 latestValue = getLatestData();\n\n        if (currentValue == 0) {\n            // Initialize currentValue if not set\n            currentValue = latestValue;\n            emit DataUpdated(currentValue);\n        } else if (latestValue < currentValue - int256(tolerance) || latestValue > currentValue + int256(tolerance)) {\n            // Data is outside tolerance range\n            emit DataOutOfTolerance(currentValue, latestValue);\n            // You might decide to reject the update or accept it; here we choose to reject\n        } else {\n            // Data is within tolerance range\n            currentValue = latestValue;\n            emit DataUpdated(currentValue);\n        }\n\n        lastUpdateTime = block.timestamp;\n    }\n\n    function isOracle(address oracleAddress) public view returns (bool) {\n        return oracles[oracleAddress].isActive;\n    }\n\n    function oracleCount() public view returns (uint256) {\n        return oracleAddresses.length();\n    }\n\n    function getOracleDetails(address oracleAddress) public view returns (address aggregator, uint8 _decimals, bool isActive) {\n        OracleData storage oracle = oracles[oracleAddress];\n        return (address(oracle.aggregator), oracle.decimals, oracle.isActive);\n    }\n\n    function getAggregatedOracleData() external view returns (int256) {\n        return getLatestData();\n    }\n\n    function getOracleAddresses() external view returns (address[] memory) {\n        return oracleAddresses.values();\n    }\n}\n",
  "sourcePath": "/Users/elvin3block/Documents/Evire/Evire-DePin/contracts/OracleIntegration.sol",
  "compiler": {
    "name": "solc",
    "version": "0.8.19+commit.7dd6d404.Emscripten.clang"
  },
  "schemaVersion": "3.4.16",
  "updatedAt": "2024-10-22T11:12:27.816Z",
  "devdoc": {
    "kind": "dev",
    "methods": {
      "owner()": {
        "details": "Returns the address of the current owner."
      },
      "renounceOwnership()": {
        "details": "Leaves the contract without owner. It will not be possible to call `onlyOwner` functions. Can only be called by the current owner. NOTE: Renouncing ownership will leave the contract without an owner, thereby disabling any functionality that is only available to the owner."
      },
      "transferOwnership(address)": {
        "details": "Transfers ownership of the contract to a new account (`newOwner`). Can only be called by the current owner."
      }
    },
    "version": 1
  },
  "userdoc": {
    "kind": "user",
    "methods": {},
    "version": 1
  }
}