{
  "contractName": "ResourceAllocation",
  "abi": [
    {
      "anonymous": false,
      "inputs": [
        {
          "indexed": true,
          "internalType": "address",
          "name": "manager",
          "type": "address"
        },
        {
          "indexed": false,
          "internalType": "bool",
          "name": "isAuthorized",
          "type": "bool"
        }
      ],
      "name": "ManagerAuthorized",
      "type": "event"
    },
    {
      "anonymous": false,
      "inputs": [
        {
          "indexed": true,
          "internalType": "address",
          "name": "previousOwner",
          "type": "address"
        },
        {
          "indexed": true,
          "internalType": "address",
          "name": "newOwner",
          "type": "address"
        }
      ],
      "name": "OwnershipTransferred",
      "type": "event"
    },
    {
      "anonymous": false,
      "inputs": [
        {
          "indexed": true,
          "internalType": "address",
          "name": "resource",
          "type": "address"
        },
        {
          "indexed": true,
          "internalType": "address",
          "name": "user",
          "type": "address"
        },
        {
          "indexed": false,
          "internalType": "uint256",
          "name": "amount",
          "type": "uint256"
        }
      ],
      "name": "ResourceAllocated",
      "type": "event"
    },
    {
      "anonymous": false,
      "inputs": [
        {
          "indexed": true,
          "internalType": "address",
          "name": "resource",
          "type": "address"
        }
      ],
      "name": "ResourceCreated",
      "type": "event"
    },
    {
      "anonymous": false,
      "inputs": [
        {
          "indexed": true,
          "internalType": "address",
          "name": "resource",
          "type": "address"
        },
        {
          "indexed": true,
          "internalType": "address",
          "name": "user",
          "type": "address"
        },
        {
          "indexed": false,
          "internalType": "uint256",
          "name": "amount",
          "type": "uint256"
        }
      ],
      "name": "ResourceDeallocated",
      "type": "event"
    },
    {
      "anonymous": false,
      "inputs": [
        {
          "indexed": true,
          "internalType": "address",
          "name": "resource",
          "type": "address"
        },
        {
          "indexed": true,
          "internalType": "address",
          "name": "depositor",
          "type": "address"
        },
        {
          "indexed": false,
          "internalType": "uint256",
          "name": "amount",
          "type": "uint256"
        }
      ],
      "name": "ResourceDeposited",
      "type": "event"
    },
    {
      "anonymous": false,
      "inputs": [
        {
          "indexed": true,
          "internalType": "address",
          "name": "resource",
          "type": "address"
        },
        {
          "indexed": true,
          "internalType": "address",
          "name": "user",
          "type": "address"
        },
        {
          "indexed": false,
          "internalType": "uint256",
          "name": "amount",
          "type": "uint256"
        }
      ],
      "name": "ResourceWithdrawn",
      "type": "event"
    },
    {
      "anonymous": false,
      "inputs": [
        {
          "indexed": true,
          "internalType": "address",
          "name": "resource",
          "type": "address"
        },
        {
          "indexed": false,
          "internalType": "uint256",
          "name": "amount",
          "type": "uint256"
        }
      ],
      "name": "UnallocatedWithdrawn",
      "type": "event"
    },
    {
      "inputs": [],
      "name": "owner",
      "outputs": [
        {
          "internalType": "address",
          "name": "",
          "type": "address"
        }
      ],
      "stateMutability": "view",
      "type": "function"
    },
    {
      "inputs": [],
      "name": "renounceOwnership",
      "outputs": [],
      "stateMutability": "nonpayable",
      "type": "function"
    },
    {
      "inputs": [
        {
          "internalType": "address",
          "name": "newOwner",
          "type": "address"
        }
      ],
      "name": "transferOwnership",
      "outputs": [],
      "stateMutability": "nonpayable",
      "type": "function"
    },
    {
      "inputs": [
        {
          "internalType": "address",
          "name": "resource",
          "type": "address"
        }
      ],
      "name": "createResource",
      "outputs": [],
      "stateMutability": "nonpayable",
      "type": "function"
    },
    {
      "inputs": [
        {
          "internalType": "address",
          "name": "resource",
          "type": "address"
        },
        {
          "internalType": "uint256",
          "name": "amount",
          "type": "uint256"
        }
      ],
      "name": "depositResource",
      "outputs": [],
      "stateMutability": "nonpayable",
      "type": "function"
    },
    {
      "inputs": [
        {
          "internalType": "address",
          "name": "resource",
          "type": "address"
        },
        {
          "internalType": "address",
          "name": "user",
          "type": "address"
        },
        {
          "internalType": "uint256",
          "name": "amount",
          "type": "uint256"
        }
      ],
      "name": "allocateResource",
      "outputs": [],
      "stateMutability": "nonpayable",
      "type": "function"
    },
    {
      "inputs": [
        {
          "internalType": "address",
          "name": "resource",
          "type": "address"
        },
        {
          "internalType": "address",
          "name": "user",
          "type": "address"
        },
        {
          "internalType": "uint256",
          "name": "amount",
          "type": "uint256"
        }
      ],
      "name": "deallocateResource",
      "outputs": [],
      "stateMutability": "nonpayable",
      "type": "function"
    },
    {
      "inputs": [
        {
          "internalType": "address",
          "name": "resource",
          "type": "address"
        },
        {
          "internalType": "uint256",
          "name": "amount",
          "type": "uint256"
        }
      ],
      "name": "withdrawResource",
      "outputs": [],
      "stateMutability": "nonpayable",
      "type": "function"
    },
    {
      "inputs": [
        {
          "internalType": "address",
          "name": "manager",
          "type": "address"
        },
        {
          "internalType": "bool",
          "name": "isAuthorized",
          "type": "bool"
        }
      ],
      "name": "authorizeManager",
      "outputs": [],
      "stateMutability": "nonpayable",
      "type": "function"
    },
    {
      "inputs": [
        {
          "internalType": "address",
          "name": "manager",
          "type": "address"
        }
      ],
      "name": "isAuthorizedManager",
      "outputs": [
        {
          "internalType": "bool",
          "name": "",
          "type": "bool"
        }
      ],
      "stateMutability": "view",
      "type": "function"
    },
    {
      "inputs": [
        {
          "internalType": "address",
          "name": "resource",
          "type": "address"
        }
      ],
      "name": "getAvailableResources",
      "outputs": [
        {
          "internalType": "uint256",
          "name": "",
          "type": "uint256"
        }
      ],
      "stateMutability": "view",
      "type": "function"
    },
    {
      "inputs": [
        {
          "internalType": "address",
          "name": "resource",
          "type": "address"
        },
        {
          "internalType": "address",
          "name": "user",
          "type": "address"
        }
      ],
      "name": "getAllocation",
      "outputs": [
        {
          "internalType": "uint256",
          "name": "",
          "type": "uint256"
        }
      ],
      "stateMutability": "view",
      "type": "function"
    },
    {
      "inputs": [
        {
          "internalType": "address",
          "name": "user",
          "type": "address"
        }
      ],
      "name": "getTotalAllocation",
      "outputs": [
        {
          "internalType": "uint256",
          "name": "",
          "type": "uint256"
        }
      ],
      "stateMutability": "view",
      "type": "function"
    },
    {
      "inputs": [],
      "name": "getResources",
      "outputs": [
        {
          "internalType": "address[]",
          "name": "",
          "type": "address[]"
        }
      ],
      "stateMutability": "view",
      "type": "function"
    },
    {
      "inputs": [
        {
          "internalType": "address",
          "name": "resource",
          "type": "address"
        },
        {
          "internalType": "uint256",
          "name": "amount",
          "type": "uint256"
        }
      ],
      "name": "withdrawUnallocated",
      "outputs": [],
      "stateMutability": "nonpayable",
      "type": "function"
    }
  ],
  "bytecode": "0x60806040523480156200001157600080fd5b5062000032620000266200003f60201b60201c565b6200004760201b60201c565b600180819055506200010b565b600033905090565b60008060009054906101000a900473ffffffffffffffffffffffffffffffffffffffff169050816000806101000a81548173ffffffffffffffffffffffffffffffffffffffff021916908373ffffffffffffffffffffffffffffffffffffffff1602179055508173ffffffffffffffffffffffffffffffffffffffff168173ffffffffffffffffffffffffffffffffffffffff167f8be0079c531659141344cd1fd0a4f28419497f9722a3daafe3b4186f6b6457e060405160405180910390a35050565b6129e3806200011b6000396000f3fe608060405234801561001057600080fd5b50600436106100f55760003560e01c80638da5cb5b11610097578063c49a153e11610066578063c49a153e1461025c578063d78d8f671461028c578063df7df5b0146102a8578063f2fde38b146102c4576100f5565b80638da5cb5b146101d4578063a6d945cc146101f2578063befe7fde14610222578063c1cc57b01461023e576100f5565b806335fc1abc116100d357806335fc1abc1461016257806344e6fafb1461017e578063715018a61461019a578063860435a3146101a4576100f5565b806316f7a705146100fa5780631b75a4081461011657806328af2ae414610146575b600080fd5b610114600480360381019061010f9190611dee565b6102e0565b005b610130600480360381019061012b9190611e2e565b6104e7565b60405161013d9190611e6a565b60405180910390f35b610160600480360381019061015b9190611e85565b610651565b005b61017c60048036038101906101779190611dee565b6109ff565b005b61019860048036038101906101939190611e85565b610c8c565b005b6101a261108a565b005b6101be60048036038101906101b99190611e2e565b61109e565b6040516101cb9190611ef3565b60405180910390f35b6101dc6110f4565b6040516101e99190611f1d565b60405180910390f35b61020c60048036038101906102079190611f38565b61111d565b6040516102199190611e6a565b60405180910390f35b61023c60048036038101906102379190611e2e565b611232565b005b610246611493565b6040516102539190612036565b60405180910390f35b61027660048036038101906102719190611e2e565b611521565b6040516102839190611e6a565b60405180910390f35b6102a660048036038101906102a19190612084565b611623565b005b6102c260048036038101906102bd9190611dee565b611743565b005b6102de60048036038101906102d99190611e2e565b611b30565b005b6102e8611bb3565b600560008373ffffffffffffffffffffffffffffffffffffffff1673ffffffffffffffffffffffffffffffffffffffff16815260200190815260200160002060009054906101000a900460ff16610374576040517f08c379a000000000000000000000000000000000000000000000000000000000815260040161036b90612121565b60405180910390fd5b600081116103b7576040517f08c379a00000000000000000000000000000000000000000000000000000000081526004016103ae9061218d565b60405180910390fd5b8173ffffffffffffffffffffffffffffffffffffffff166323b872dd3330846040518463ffffffff1660e01b81526004016103f4939291906121ad565b6020604051808303816000875af1158015610413573d6000803e3d6000fd5b505050506040513d601f19601f8201168201806040525081019061043791906121f9565b610476576040517f08c379a000000000000000000000000000000000000000000000000000000000815260040161046d90612272565b60405180910390fd5b3373ffffffffffffffffffffffffffffffffffffffff168273ffffffffffffffffffffffffffffffffffffffff167f733d861ee23857f5a9d8af215aea71267aa52d7f9bf83691f3f1a7af67b5b0f9836040516104d39190611e6a565b60405180910390a36104e3611c02565b5050565b600081600560008273ffffffffffffffffffffffffffffffffffffffff1673ffffffffffffffffffffffffffffffffffffffff16815260200190815260200160002060009054906101000a900460ff16610576576040517f08c379a000000000000000000000000000000000000000000000000000000000815260040161056d90612121565b60405180910390fd5b60008373ffffffffffffffffffffffffffffffffffffffff166370a08231306040518263ffffffff1660e01b81526004016105b19190611f1d565b602060405180830381865afa1580156105ce573d6000803e3d6000fd5b505050506040513d601f19601f820116820180604052508101906105f291906122a7565b90506000600260008673ffffffffffffffffffffffffffffffffffffffff1673ffffffffffffffffffffffffffffffffffffffff16815260200190815260200160002060000154826106449190612303565b9050809350505050919050565b600460003373ffffffffffffffffffffffffffffffffffffffff1673ffffffffffffffffffffffffffffffffffffffff16815260200190815260200160002060009054906101000a900460ff166106dd576040517f08c379a00000000000000000000000000000000000000000000000000000000081526004016106d490612383565b60405180910390fd5b82600560008273ffffffffffffffffffffffffffffffffffffffff1673ffffffffffffffffffffffffffffffffffffffff16815260200190815260200160002060009054906101000a900460ff1661076a576040517f08c379a000000000000000000000000000000000000000000000000000000000815260040161076190612121565b60405180910390fd5b610772611bb3565b600073ffffffffffffffffffffffffffffffffffffffff168373ffffffffffffffffffffffffffffffffffffffff16036107e1576040517f08c379a00000000000000000000000000000000000000000000000000000000081526004016107d8906123ef565b60405180910390fd5b81600360008573ffffffffffffffffffffffffffffffffffffffff1673ffffffffffffffffffffffffffffffffffffffff16815260200190815260200160002060008673ffffffffffffffffffffffffffffffffffffffff1673ffffffffffffffffffffffffffffffffffffffff1681526020019081526020016000205410156108a0576040517f08c379a00000000000000000000000000000000000000000000000000000000081526004016108979061245b565b60405180910390fd5b81600260008673ffffffffffffffffffffffffffffffffffffffff1673ffffffffffffffffffffffffffffffffffffffff16815260200190815260200160002060000160008282546108f29190612303565b9250508190555081600360008573ffffffffffffffffffffffffffffffffffffffff1673ffffffffffffffffffffffffffffffffffffffff16815260200190815260200160002060008673ffffffffffffffffffffffffffffffffffffffff1673ffffffffffffffffffffffffffffffffffffffff16815260200190815260200160002060008282546109859190612303565b925050819055508273ffffffffffffffffffffffffffffffffffffffff168473ffffffffffffffffffffffffffffffffffffffff167ffe969ab3230883f2b0e6ab2b857e9a8f9b0d66afd2328ca590da207cf19eb6d6846040516109e99190611e6a565b60405180910390a36109f9611c02565b50505050565b610a07611c0b565b81600560008273ffffffffffffffffffffffffffffffffffffffff1673ffffffffffffffffffffffffffffffffffffffff16815260200190815260200160002060009054906101000a900460ff16610a94576040517f08c379a0000000000000000000000000000000000000000000000000000000008152600401610a8b90612121565b60405180910390fd5b610a9c611bb3565b6000600260008573ffffffffffffffffffffffffffffffffffffffff1673ffffffffffffffffffffffffffffffffffffffff168152602001908152602001600020600001548473ffffffffffffffffffffffffffffffffffffffff166370a08231306040518263ffffffff1660e01b8152600401610b1a9190611f1d565b602060405180830381865afa158015610b37573d6000803e3d6000fd5b505050506040513d601f19601f82011682018060405250810190610b5b91906122a7565b610b659190612303565b905082811015610baa576040517f08c379a0000000000000000000000000000000000000000000000000000000008152600401610ba1906124c7565b60405180910390fd5b8373ffffffffffffffffffffffffffffffffffffffff1663a9059cbb610bce6110f4565b856040518363ffffffff1660e01b8152600401610bec9291906124e7565b6020604051808303816000875af1158015610c0b573d6000803e3d6000fd5b505050506040513d601f19601f82011682018060405250810190610c2f91906121f9565b508373ffffffffffffffffffffffffffffffffffffffff167f3d1ba4dd8653665dacb4e2ace5ddb689de17dbf3b68949e86a4e818d8e979deb84604051610c769190611e6a565b60405180910390a250610c87611c02565b505050565b600460003373ffffffffffffffffffffffffffffffffffffffff1673ffffffffffffffffffffffffffffffffffffffff16815260200190815260200160002060009054906101000a900460ff16610d18576040517f08c379a0000000000000000000000000000000000000000000000000000000008152600401610d0f90612383565b60405180910390fd5b82600560008273ffffffffffffffffffffffffffffffffffffffff1673ffffffffffffffffffffffffffffffffffffffff16815260200190815260200160002060009054906101000a900460ff16610da5576040517f08c379a0000000000000000000000000000000000000000000000000000000008152600401610d9c90612121565b60405180910390fd5b610dad611bb3565b600073ffffffffffffffffffffffffffffffffffffffff168373ffffffffffffffffffffffffffffffffffffffff1603610e1c576040517f08c379a0000000000000000000000000000000000000000000000000000000008152600401610e13906123ef565b60405180910390fd5b6000600260008673ffffffffffffffffffffffffffffffffffffffff1673ffffffffffffffffffffffffffffffffffffffff168152602001908152602001600020600001548573ffffffffffffffffffffffffffffffffffffffff166370a08231306040518263ffffffff1660e01b8152600401610e9a9190611f1d565b602060405180830381865afa158015610eb7573d6000803e3d6000fd5b505050506040513d601f19601f82011682018060405250810190610edb91906122a7565b610ee59190612303565b905082811015610f2a576040517f08c379a0000000000000000000000000000000000000000000000000000000008152600401610f219061255c565b60405180910390fd5b82600260008773ffffffffffffffffffffffffffffffffffffffff1673ffffffffffffffffffffffffffffffffffffffff1681526020019081526020016000206000016000828254610f7c919061257c565b9250508190555082600360008673ffffffffffffffffffffffffffffffffffffffff1673ffffffffffffffffffffffffffffffffffffffff16815260200190815260200160002060008773ffffffffffffffffffffffffffffffffffffffff1673ffffffffffffffffffffffffffffffffffffffff168152602001908152602001600020600082825461100f919061257c565b925050819055508373ffffffffffffffffffffffffffffffffffffffff168573ffffffffffffffffffffffffffffffffffffffff167f98e20a187e110adf2eb13b73ae9eda87405ddef96efb325444b00111407b5faa856040516110739190611e6a565b60405180910390a350611084611c02565b50505050565b611092611c0b565b61109c6000611c89565b565b6000600460008373ffffffffffffffffffffffffffffffffffffffff1673ffffffffffffffffffffffffffffffffffffffff16815260200190815260200160002060009054906101000a900460ff169050919050565b60008060009054906101000a900473ffffffffffffffffffffffffffffffffffffffff16905090565b600082600560008273ffffffffffffffffffffffffffffffffffffffff1673ffffffffffffffffffffffffffffffffffffffff16815260200190815260200160002060009054906101000a900460ff166111ac576040517f08c379a00000000000000000000000000000000000000000000000000000000081526004016111a390612121565b60405180910390fd5b600360008473ffffffffffffffffffffffffffffffffffffffff1673ffffffffffffffffffffffffffffffffffffffff16815260200190815260200160002060008573ffffffffffffffffffffffffffffffffffffffff1673ffffffffffffffffffffffffffffffffffffffff1681526020019081526020016000205491505092915050565b61123a611c0b565b600073ffffffffffffffffffffffffffffffffffffffff168173ffffffffffffffffffffffffffffffffffffffff16036112a9576040517f08c379a00000000000000000000000000000000000000000000000000000000081526004016112a0906125fc565b60405180910390fd5b600560008273ffffffffffffffffffffffffffffffffffffffff1673ffffffffffffffffffffffffffffffffffffffff16815260200190815260200160002060009054906101000a900460ff1615611336576040517f08c379a000000000000000000000000000000000000000000000000000000000815260040161132d90612668565b60405180910390fd5b60405180602001604052806000815250600260008373ffffffffffffffffffffffffffffffffffffffff1673ffffffffffffffffffffffffffffffffffffffff168152602001908152602001600020600082015181600001559050506001600560008373ffffffffffffffffffffffffffffffffffffffff1673ffffffffffffffffffffffffffffffffffffffff16815260200190815260200160002060006101000a81548160ff0219169083151502179055506006819080600181540180825580915050600190039060005260206000200160009091909190916101000a81548173ffffffffffffffffffffffffffffffffffffffff021916908373ffffffffffffffffffffffffffffffffffffffff1602179055508073ffffffffffffffffffffffffffffffffffffffff167fa13b48061767bbcb26046cd14c85b6abfdd04e697bedae7633d97b75fc47a3e560405160405180910390a250565b6060600680548060200260200160405190810160405280929190818152602001828054801561151757602002820191906000526020600020905b8160009054906101000a900473ffffffffffffffffffffffffffffffffffffffff1673ffffffffffffffffffffffffffffffffffffffff16815260200190600101908083116114cd575b5050505050905090565b6000806000905060005b6006805490508110156116195760006006828154811061154e5761154d612688565b5b9060005260206000200160009054906101000a900473ffffffffffffffffffffffffffffffffffffffff169050600360008673ffffffffffffffffffffffffffffffffffffffff1673ffffffffffffffffffffffffffffffffffffffff16815260200190815260200160002060008273ffffffffffffffffffffffffffffffffffffffff1673ffffffffffffffffffffffffffffffffffffffff1681526020019081526020016000205483611603919061257c565b9250508080611611906126b7565b91505061152b565b5080915050919050565b61162b611c0b565b600073ffffffffffffffffffffffffffffffffffffffff168273ffffffffffffffffffffffffffffffffffffffff160361169a576040517f08c379a00000000000000000000000000000000000000000000000000000000081526004016116919061274b565b60405180910390fd5b80600460008473ffffffffffffffffffffffffffffffffffffffff1673ffffffffffffffffffffffffffffffffffffffff16815260200190815260200160002060006101000a81548160ff0219169083151502179055508173ffffffffffffffffffffffffffffffffffffffff167fde2879b38430cbc20b1709e6fa4a18f45793cfb37baa97f594b183021eca6d7d826040516117379190611ef3565b60405180910390a25050565b81600560008273ffffffffffffffffffffffffffffffffffffffff1673ffffffffffffffffffffffffffffffffffffffff16815260200190815260200160002060009054906101000a900460ff166117d0576040517f08c379a00000000000000000000000000000000000000000000000000000000081526004016117c790612121565b60405180910390fd5b6117d8611bb3565b81600360003373ffffffffffffffffffffffffffffffffffffffff1673ffffffffffffffffffffffffffffffffffffffff16815260200190815260200160002060008573ffffffffffffffffffffffffffffffffffffffff1673ffffffffffffffffffffffffffffffffffffffff168152602001908152602001600020541015611897576040517f08c379a000000000000000000000000000000000000000000000000000000000815260040161188e906127b7565b60405180910390fd5b818373ffffffffffffffffffffffffffffffffffffffff166370a08231306040518263ffffffff1660e01b81526004016118d19190611f1d565b602060405180830381865afa1580156118ee573d6000803e3d6000fd5b505050506040513d601f19601f8201168201806040525081019061191291906122a7565b1015611953576040517f08c379a000000000000000000000000000000000000000000000000000000000815260040161194a90612823565b60405180910390fd5b81600360003373ffffffffffffffffffffffffffffffffffffffff1673ffffffffffffffffffffffffffffffffffffffff16815260200190815260200160002060008573ffffffffffffffffffffffffffffffffffffffff1673ffffffffffffffffffffffffffffffffffffffff16815260200190815260200160002060008282546119df9190612303565b9250508190555081600260008573ffffffffffffffffffffffffffffffffffffffff1673ffffffffffffffffffffffffffffffffffffffff1681526020019081526020016000206000016000828254611a389190612303565b925050819055508273ffffffffffffffffffffffffffffffffffffffff1663a9059cbb33846040518363ffffffff1660e01b8152600401611a7a9291906124e7565b6020604051808303816000875af1158015611a99573d6000803e3d6000fd5b505050506040513d601f19601f82011682018060405250810190611abd91906121f9565b503373ffffffffffffffffffffffffffffffffffffffff168373ffffffffffffffffffffffffffffffffffffffff167f6333744f9510d2cc7b562d6cd853440cb404fde9243d8f1b3761d449987437fb84604051611b1b9190611e6a565b60405180910390a3611b2b611c02565b505050565b611b38611c0b565b600073ffffffffffffffffffffffffffffffffffffffff168173ffffffffffffffffffffffffffffffffffffffff1603611ba7576040517f08c379a0000000000000000000000000000000000000000000000000000000008152600401611b9e906128b5565b60405180910390fd5b611bb081611c89565b50565b600260015403611bf8576040517f08c379a0000000000000000000000000000000000000000000000000000000008152600401611bef90612921565b60405180910390fd5b6002600181905550565b60018081905550565b611c13611d4d565b73ffffffffffffffffffffffffffffffffffffffff16611c316110f4565b73ffffffffffffffffffffffffffffffffffffffff1614611c87576040517f08c379a0000000000000000000000000000000000000000000000000000000008152600401611c7e9061298d565b60405180910390fd5b565b60008060009054906101000a900473ffffffffffffffffffffffffffffffffffffffff169050816000806101000a81548173ffffffffffffffffffffffffffffffffffffffff021916908373ffffffffffffffffffffffffffffffffffffffff1602179055508173ffffffffffffffffffffffffffffffffffffffff168173ffffffffffffffffffffffffffffffffffffffff167f8be0079c531659141344cd1fd0a4f28419497f9722a3daafe3b4186f6b6457e060405160405180910390a35050565b600033905090565b600080fd5b600073ffffffffffffffffffffffffffffffffffffffff82169050919050565b6000611d8582611d5a565b9050919050565b611d9581611d7a565b8114611da057600080fd5b50565b600081359050611db281611d8c565b92915050565b6000819050919050565b611dcb81611db8565b8114611dd657600080fd5b50565b600081359050611de881611dc2565b92915050565b60008060408385031215611e0557611e04611d55565b5b6000611e1385828601611da3565b9250506020611e2485828601611dd9565b9150509250929050565b600060208284031215611e4457611e43611d55565b5b6000611e5284828501611da3565b91505092915050565b611e6481611db8565b82525050565b6000602082019050611e7f6000830184611e5b565b92915050565b600080600060608486031215611e9e57611e9d611d55565b5b6000611eac86828701611da3565b9350506020611ebd86828701611da3565b9250506040611ece86828701611dd9565b9150509250925092565b60008115159050919050565b611eed81611ed8565b82525050565b6000602082019050611f086000830184611ee4565b92915050565b611f1781611d7a565b82525050565b6000602082019050611f326000830184611f0e565b92915050565b60008060408385031215611f4f57611f4e611d55565b5b6000611f5d85828601611da3565b9250506020611f6e85828601611da3565b9150509250929050565b600081519050919050565b600082825260208201905092915050565b6000819050602082019050919050565b611fad81611d7a565b82525050565b6000611fbf8383611fa4565b60208301905092915050565b6000602082019050919050565b6000611fe382611f78565b611fed8185611f83565b9350611ff883611f94565b8060005b838110156120295781516120108882611fb3565b975061201b83611fcb565b925050600181019050611ffc565b5085935050505092915050565b600060208201905081810360008301526120508184611fd8565b905092915050565b61206181611ed8565b811461206c57600080fd5b50565b60008135905061207e81612058565b92915050565b6000806040838503121561209b5761209a611d55565b5b60006120a985828601611da3565b92505060206120ba8582860161206f565b9150509250929050565b600082825260208201905092915050565b7f5265736f7572636520646f6573206e6f74206578697374000000000000000000600082015250565b600061210b6017836120c4565b9150612116826120d5565b602082019050919050565b6000602082019050818103600083015261213a816120fe565b9050919050565b7f416d6f756e74206d7573742062652067726561746572207468616e207a65726f600082015250565b60006121776020836120c4565b915061218282612141565b602082019050919050565b600060208201905081810360008301526121a68161216a565b9050919050565b60006060820190506121c26000830186611f0e565b6121cf6020830185611f0e565b6121dc6040830184611e5b565b949350505050565b6000815190506121f381612058565b92915050565b60006020828403121561220f5761220e611d55565b5b600061221d848285016121e4565b91505092915050565b7f5472616e73666572206661696c65640000000000000000000000000000000000600082015250565b600061225c600f836120c4565b915061226782612226565b602082019050919050565b6000602082019050818103600083015261228b8161224f565b9050919050565b6000815190506122a181611dc2565b92915050565b6000602082840312156122bd576122bc611d55565b5b60006122cb84828501612292565b91505092915050565b7f4e487b7100000000000000000000000000000000000000000000000000000000600052601160045260246000fd5b600061230e82611db8565b915061231983611db8565b9250828203905081811115612331576123306122d4565b5b92915050565b7f4e6f7420616e20617574686f72697a6564206d616e6167657200000000000000600082015250565b600061236d6019836120c4565b915061237882612337565b602082019050919050565b6000602082019050818103600083015261239c81612360565b9050919050565b7f496e76616c696420757365722061646472657373000000000000000000000000600082015250565b60006123d96014836120c4565b91506123e4826123a3565b602082019050919050565b60006020820190508181036000830152612408816123cc565b9050919050565b7f496e73756666696369656e7420616c6c6f6361746564207265736f7572636573600082015250565b60006124456020836120c4565b91506124508261240f565b602082019050919050565b6000602082019050818103600083015261247481612438565b9050919050565b7f496e73756666696369656e7420756e616c6c6f636174656420616d6f756e7400600082015250565b60006124b1601f836120c4565b91506124bc8261247b565b602082019050919050565b600060208201905081810360008301526124e0816124a4565b9050919050565b60006040820190506124fc6000830185611f0e565b6125096020830184611e5b565b9392505050565b7f4e6f7420656e6f756768207265736f757263657320617661696c61626c650000600082015250565b6000612546601e836120c4565b915061255182612510565b602082019050919050565b6000602082019050818103600083015261257581612539565b9050919050565b600061258782611db8565b915061259283611db8565b92508282019050808211156125aa576125a96122d4565b5b92915050565b7f496e76616c6964207265736f7572636520616464726573730000000000000000600082015250565b60006125e66018836120c4565b91506125f1826125b0565b602082019050919050565b60006020820190508181036000830152612615816125d9565b9050919050565b7f5265736f7572636520616c726561647920657869737473000000000000000000600082015250565b60006126526017836120c4565b915061265d8261261c565b602082019050919050565b6000602082019050818103600083015261268181612645565b9050919050565b7f4e487b7100000000000000000000000000000000000000000000000000000000600052603260045260246000fd5b60006126c282611db8565b91507fffffffffffffffffffffffffffffffffffffffffffffffffffffffffffffffff82036126f4576126f36122d4565b5b600182019050919050565b7f496e76616c6964206d616e616765722061646472657373000000000000000000600082015250565b60006127356017836120c4565b9150612740826126ff565b602082019050919050565b6000602082019050818103600083015261276481612728565b9050919050565b7f496e73756666696369656e7420616c6c6f636174656420616d6f756e74000000600082015250565b60006127a1601d836120c4565b91506127ac8261276b565b602082019050919050565b600060208201905081810360008301526127d081612794565b9050919050565b7f496e73756666696369656e74207265736f757263652062616c616e6365000000600082015250565b600061280d601d836120c4565b9150612818826127d7565b602082019050919050565b6000602082019050818103600083015261283c81612800565b9050919050565b7f4f776e61626c653a206e6577206f776e657220697320746865207a65726f206160008201527f6464726573730000000000000000000000000000000000000000000000000000602082015250565b600061289f6026836120c4565b91506128aa82612843565b604082019050919050565b600060208201905081810360008301526128ce81612892565b9050919050565b7f5265656e7472616e637947756172643a207265656e7472616e742063616c6c00600082015250565b600061290b601f836120c4565b9150612916826128d5565b602082019050919050565b6000602082019050818103600083015261293a816128fe565b9050919050565b7f4f776e61626c653a2063616c6c6572206973206e6f7420746865206f776e6572600082015250565b60006129776020836120c4565b915061298282612941565b602082019050919050565b600060208201905081810360008301526129a68161296a565b905091905056fea26469706673582212200162f35ceb17ec203bf624d7675ad24356bcc4f986ed560e9559f3579849840f64736f6c63430008130033",
  "immutableReferences": {},
  "source": "// SPDX-License-Identifier: MIT\npragma solidity ^0.8.17;\n\nimport \"@openzeppelin/contracts/access/Ownable.sol\";\nimport \"@openzeppelin/contracts/token/ERC20/IERC20.sol\";\nimport \"@openzeppelin/contracts/security/ReentrancyGuard.sol\";\n\ncontract ResourceAllocation is Ownable, ReentrancyGuard {\n    struct Resource {\n        uint256 allocatedAmount;\n    }\n\n    mapping(address => Resource) private resources;\n    mapping(address => mapping(address => uint256)) private allocations; // user => resource => amount\n    mapping(address => bool) private authorizedManagers;\n    mapping(address => bool) private resourceExistsMapping;\n    address[] private resourcesList;\n\n    event ResourceCreated(address indexed resource);\n    event ResourceAllocated(address indexed resource, address indexed user, uint256 amount);\n    event ResourceDeallocated(address indexed resource, address indexed user, uint256 amount);\n    event ResourceWithdrawn(address indexed resource, address indexed user, uint256 amount);\n    event ResourceDeposited(address indexed resource, address indexed depositor, uint256 amount);\n    event ManagerAuthorized(address indexed manager, bool isAuthorized);\n    event UnallocatedWithdrawn(address indexed resource, uint256 amount);\n\n    modifier onlyAuthorizedManager() {\n        require(authorizedManagers[msg.sender], \"Not an authorized manager\");\n        _;\n    }\n\n    modifier resourceExists(address resource) {\n        require(resourceExistsMapping[resource], \"Resource does not exist\");\n        _;\n    }\n\n    function createResource(address resource) external onlyOwner {\n        require(resource != address(0), \"Invalid resource address\");\n        require(!resourceExistsMapping[resource], \"Resource already exists\");\n        resources[resource] = Resource({\n            allocatedAmount: 0\n        });\n        resourceExistsMapping[resource] = true;\n        resourcesList.push(resource);\n        emit ResourceCreated(resource);\n    }\n\n    function depositResource(address resource, uint256 amount) external nonReentrant {\n        require(resourceExistsMapping[resource], \"Resource does not exist\");\n        require(amount > 0, \"Amount must be greater than zero\");\n        require(IERC20(resource).transferFrom(msg.sender, address(this), amount), \"Transfer failed\");\n        emit ResourceDeposited(resource, msg.sender, amount);\n    }\n\n    function allocateResource(address resource, address user, uint256 amount) external onlyAuthorizedManager resourceExists(resource) nonReentrant {\n        require(user != address(0), \"Invalid user address\");\n        uint256 availableAmount = IERC20(resource).balanceOf(address(this)) - resources[resource].allocatedAmount;\n        require(availableAmount >= amount, \"Not enough resources available\");\n\n        resources[resource].allocatedAmount += amount;\n        allocations[user][resource] += amount;\n\n        emit ResourceAllocated(resource, user, amount);\n    }\n\n    function deallocateResource(address resource, address user, uint256 amount) external onlyAuthorizedManager resourceExists(resource) nonReentrant {\n        require(user != address(0), \"Invalid user address\");\n        require(allocations[user][resource] >= amount, \"Insufficient allocated resources\");\n\n        resources[resource].allocatedAmount -= amount;\n        allocations[user][resource] -= amount;\n\n        emit ResourceDeallocated(resource, user, amount);\n    }\n\n    function withdrawResource(address resource, uint256 amount) external resourceExists(resource) nonReentrant {\n        require(allocations[msg.sender][resource] >= amount, \"Insufficient allocated amount\");\n        require(IERC20(resource).balanceOf(address(this)) >= amount, \"Insufficient resource balance\");\n\n        allocations[msg.sender][resource] -= amount;\n        resources[resource].allocatedAmount -= amount;\n        \n        IERC20(resource).transfer(msg.sender, amount);\n\n        emit ResourceWithdrawn(resource, msg.sender, amount);\n    }\n\n    function authorizeManager(address manager, bool isAuthorized) external onlyOwner {\n        require(manager != address(0), \"Invalid manager address\");\n        authorizedManagers[manager] = isAuthorized;\n        emit ManagerAuthorized(manager, isAuthorized);\n    }\n\n    function isAuthorizedManager(address manager) external view returns (bool) {\n        return authorizedManagers[manager];\n    }\n\n    function getAvailableResources(address resource) external view resourceExists(resource) returns (uint256) {\n        uint256 totalBalance = IERC20(resource).balanceOf(address(this));\n        uint256 availableAmount = totalBalance - resources[resource].allocatedAmount;\n        return availableAmount;\n    }\n\n    function getAllocation(address resource, address user) external view resourceExists(resource) returns (uint256) {\n        return allocations[user][resource];\n    }\n\n    function getTotalAllocation(address user) external view returns (uint256) {\n        uint256 totalAllocation = 0;\n        for (uint i = 0; i < resourcesList.length; i++) {\n            address resource = resourcesList[i];\n            totalAllocation += allocations[user][resource];\n        }\n        return totalAllocation;\n    }\n\n    function getResources() external view returns (address[] memory) {\n        return resourcesList;\n    }\n\n    function withdrawUnallocated(address resource, uint256 amount) external onlyOwner resourceExists(resource) nonReentrant {\n        uint256 unallocatedAmount = IERC20(resource).balanceOf(address(this)) - resources[resource].allocatedAmount;\n        require(unallocatedAmount >= amount, \"Insufficient unallocated amount\");\n        IERC20(resource).transfer(owner(), amount);\n        emit UnallocatedWithdrawn(resource, amount);\n    }\n}\n",
  "sourcePath": "/Users/elvin3block/Documents/Evire/Evire-DePin/contracts/ResourceAllocation.sol",
  "compiler": {
    "name": "solc",
    "version": "0.8.19+commit.7dd6d404.Emscripten.clang"
  },
  "schemaVersion": "3.4.16",
  "updatedAt": "2024-10-22T11:12:27.821Z",
  "devdoc": {
    "kind": "dev",
    "methods": {
      "owner()": {
        "details": "Returns the address of the current owner."
      },
      "renounceOwnership()": {
        "details": "Leaves the contract without owner. It will not be possible to call `onlyOwner` functions. Can only be called by the current owner. NOTE: Renouncing ownership will leave the contract without an owner, thereby disabling any functionality that is only available to the owner."
      },
      "transferOwnership(address)": {
        "details": "Transfers ownership of the contract to a new account (`newOwner`). Can only be called by the current owner."
      }
    },
    "version": 1
  },
  "userdoc": {
    "kind": "user",
    "methods": {},
    "version": 1
  }
}