{
  "contractName": "ResourceAllocation",
  "abi": [
    {
      "inputs": [
        {
          "internalType": "address",
          "name": "owner",
          "type": "address"
        }
      ],
      "name": "OwnableInvalidOwner",
      "type": "error"
    },
    {
      "inputs": [
        {
          "internalType": "address",
          "name": "account",
          "type": "address"
        }
      ],
      "name": "OwnableUnauthorizedAccount",
      "type": "error"
    },
    {
      "inputs": [],
      "name": "ReentrancyGuardReentrantCall",
      "type": "error"
    },
    {
      "anonymous": false,
      "inputs": [
        {
          "indexed": true,
          "internalType": "address",
          "name": "manager",
          "type": "address"
        },
        {
          "indexed": false,
          "internalType": "bool",
          "name": "isAuthorized",
          "type": "bool"
        }
      ],
      "name": "ManagerAuthorized",
      "type": "event"
    },
    {
      "anonymous": false,
      "inputs": [
        {
          "indexed": true,
          "internalType": "address",
          "name": "previousOwner",
          "type": "address"
        },
        {
          "indexed": true,
          "internalType": "address",
          "name": "newOwner",
          "type": "address"
        }
      ],
      "name": "OwnershipTransferred",
      "type": "event"
    },
    {
      "anonymous": false,
      "inputs": [
        {
          "indexed": true,
          "internalType": "address",
          "name": "resource",
          "type": "address"
        },
        {
          "indexed": true,
          "internalType": "address",
          "name": "user",
          "type": "address"
        },
        {
          "indexed": false,
          "internalType": "uint256",
          "name": "amount",
          "type": "uint256"
        }
      ],
      "name": "ResourceAllocated",
      "type": "event"
    },
    {
      "anonymous": false,
      "inputs": [
        {
          "indexed": true,
          "internalType": "address",
          "name": "resource",
          "type": "address"
        }
      ],
      "name": "ResourceCreated",
      "type": "event"
    },
    {
      "anonymous": false,
      "inputs": [
        {
          "indexed": true,
          "internalType": "address",
          "name": "resource",
          "type": "address"
        },
        {
          "indexed": true,
          "internalType": "address",
          "name": "user",
          "type": "address"
        },
        {
          "indexed": false,
          "internalType": "uint256",
          "name": "amount",
          "type": "uint256"
        }
      ],
      "name": "ResourceDeallocated",
      "type": "event"
    },
    {
      "anonymous": false,
      "inputs": [
        {
          "indexed": true,
          "internalType": "address",
          "name": "resource",
          "type": "address"
        },
        {
          "indexed": true,
          "internalType": "address",
          "name": "depositor",
          "type": "address"
        },
        {
          "indexed": false,
          "internalType": "uint256",
          "name": "amount",
          "type": "uint256"
        }
      ],
      "name": "ResourceDeposited",
      "type": "event"
    },
    {
      "anonymous": false,
      "inputs": [
        {
          "indexed": true,
          "internalType": "address",
          "name": "resource",
          "type": "address"
        },
        {
          "indexed": true,
          "internalType": "address",
          "name": "user",
          "type": "address"
        },
        {
          "indexed": false,
          "internalType": "uint256",
          "name": "amount",
          "type": "uint256"
        }
      ],
      "name": "ResourceWithdrawn",
      "type": "event"
    },
    {
      "anonymous": false,
      "inputs": [
        {
          "indexed": true,
          "internalType": "address",
          "name": "resource",
          "type": "address"
        },
        {
          "indexed": false,
          "internalType": "uint256",
          "name": "amount",
          "type": "uint256"
        }
      ],
      "name": "UnallocatedWithdrawn",
      "type": "event"
    },
    {
      "inputs": [],
      "name": "owner",
      "outputs": [
        {
          "internalType": "address",
          "name": "",
          "type": "address"
        }
      ],
      "stateMutability": "view",
      "type": "function"
    },
    {
      "inputs": [],
      "name": "renounceOwnership",
      "outputs": [],
      "stateMutability": "nonpayable",
      "type": "function"
    },
    {
      "inputs": [
        {
          "internalType": "address",
          "name": "newOwner",
          "type": "address"
        }
      ],
      "name": "transferOwnership",
      "outputs": [],
      "stateMutability": "nonpayable",
      "type": "function"
    },
    {
      "inputs": [
        {
          "internalType": "address",
          "name": "resource",
          "type": "address"
        }
      ],
      "name": "createResource",
      "outputs": [],
      "stateMutability": "nonpayable",
      "type": "function"
    },
    {
      "inputs": [
        {
          "internalType": "address",
          "name": "resource",
          "type": "address"
        },
        {
          "internalType": "uint256",
          "name": "amount",
          "type": "uint256"
        }
      ],
      "name": "depositResource",
      "outputs": [],
      "stateMutability": "nonpayable",
      "type": "function"
    },
    {
      "inputs": [
        {
          "internalType": "address",
          "name": "resource",
          "type": "address"
        },
        {
          "internalType": "address",
          "name": "user",
          "type": "address"
        },
        {
          "internalType": "uint256",
          "name": "amount",
          "type": "uint256"
        }
      ],
      "name": "allocateResource",
      "outputs": [],
      "stateMutability": "nonpayable",
      "type": "function"
    },
    {
      "inputs": [
        {
          "internalType": "address",
          "name": "resource",
          "type": "address"
        },
        {
          "internalType": "address",
          "name": "user",
          "type": "address"
        },
        {
          "internalType": "uint256",
          "name": "amount",
          "type": "uint256"
        }
      ],
      "name": "deallocateResource",
      "outputs": [],
      "stateMutability": "nonpayable",
      "type": "function"
    },
    {
      "inputs": [
        {
          "internalType": "address",
          "name": "resource",
          "type": "address"
        },
        {
          "internalType": "uint256",
          "name": "amount",
          "type": "uint256"
        }
      ],
      "name": "withdrawResource",
      "outputs": [],
      "stateMutability": "nonpayable",
      "type": "function"
    },
    {
      "inputs": [
        {
          "internalType": "address",
          "name": "manager",
          "type": "address"
        },
        {
          "internalType": "bool",
          "name": "isAuthorized",
          "type": "bool"
        }
      ],
      "name": "authorizeManager",
      "outputs": [],
      "stateMutability": "nonpayable",
      "type": "function"
    },
    {
      "inputs": [
        {
          "internalType": "address",
          "name": "manager",
          "type": "address"
        }
      ],
      "name": "isAuthorizedManager",
      "outputs": [
        {
          "internalType": "bool",
          "name": "",
          "type": "bool"
        }
      ],
      "stateMutability": "view",
      "type": "function"
    },
    {
      "inputs": [
        {
          "internalType": "address",
          "name": "resource",
          "type": "address"
        }
      ],
      "name": "getAvailableResources",
      "outputs": [
        {
          "internalType": "uint256",
          "name": "",
          "type": "uint256"
        }
      ],
      "stateMutability": "view",
      "type": "function"
    },
    {
      "inputs": [
        {
          "internalType": "address",
          "name": "resource",
          "type": "address"
        },
        {
          "internalType": "address",
          "name": "user",
          "type": "address"
        }
      ],
      "name": "getAllocation",
      "outputs": [
        {
          "internalType": "uint256",
          "name": "",
          "type": "uint256"
        }
      ],
      "stateMutability": "view",
      "type": "function"
    },
    {
      "inputs": [
        {
          "internalType": "address",
          "name": "user",
          "type": "address"
        }
      ],
      "name": "getTotalAllocation",
      "outputs": [
        {
          "internalType": "uint256",
          "name": "",
          "type": "uint256"
        }
      ],
      "stateMutability": "view",
      "type": "function"
    },
    {
      "inputs": [],
      "name": "getResources",
      "outputs": [
        {
          "internalType": "address[]",
          "name": "",
          "type": "address[]"
        }
      ],
      "stateMutability": "view",
      "type": "function"
    },
    {
      "inputs": [
        {
          "internalType": "address",
          "name": "resource",
          "type": "address"
        },
        {
          "internalType": "uint256",
          "name": "amount",
          "type": "uint256"
        }
      ],
      "name": "withdrawUnallocated",
      "outputs": [],
      "stateMutability": "nonpayable",
      "type": "function"
    }
  ],
  "bytecode": "0x608060405234801562000010575f80fd5b50335f73ffffffffffffffffffffffffffffffffffffffff168173ffffffffffffffffffffffffffffffffffffffff160362000085575f6040517f1e4fbdf70000000000000000000000000000000000000000000000000000000081526004016200007c9190620001a8565b60405180910390fd5b6200009681620000a460201b60201c565b5060018081905550620001c3565b5f805f9054906101000a900473ffffffffffffffffffffffffffffffffffffffff169050815f806101000a81548173ffffffffffffffffffffffffffffffffffffffff021916908373ffffffffffffffffffffffffffffffffffffffff1602179055508173ffffffffffffffffffffffffffffffffffffffff168173ffffffffffffffffffffffffffffffffffffffff167f8be0079c531659141344cd1fd0a4f28419497f9722a3daafe3b4186f6b6457e060405160405180910390a35050565b5f73ffffffffffffffffffffffffffffffffffffffff82169050919050565b5f620001908262000165565b9050919050565b620001a28162000184565b82525050565b5f602082019050620001bd5f83018462000197565b92915050565b61277b80620001d15f395ff3fe608060405234801561000f575f80fd5b50600436106100f3575f3560e01c80638da5cb5b11610095578063c49a153e11610064578063c49a153e14610259578063d78d8f6714610289578063df7df5b0146102a5578063f2fde38b146102c1576100f3565b80638da5cb5b146101d1578063a6d945cc146101ef578063befe7fde1461021f578063c1cc57b01461023b576100f3565b806335fc1abc116100d157806335fc1abc1461015f57806344e6fafb1461017b578063715018a614610197578063860435a3146101a1576100f3565b806316f7a705146100f75780631b75a4081461011357806328af2ae414610143575b5f80fd5b610111600480360381019061010c9190611d53565b6102dd565b005b61012d60048036038101906101289190611d91565b6104dd565b60405161013a9190611dcb565b60405180910390f35b61015d60048036038101906101589190611de4565b61063c565b005b61017960048036038101906101749190611d53565b6109d6565b005b61019560048036038101906101909190611de4565b610c57565b005b61019f61103f565b005b6101bb60048036038101906101b69190611d91565b611052565b6040516101c89190611e4e565b60405180910390f35b6101d96110a4565b6040516101e69190611e76565b60405180910390f35b61020960048036038101906102049190611e8f565b6110cb565b6040516102169190611dcb565b60405180910390f35b61023960048036038101906102349190611d91565b6111d8565b005b61024361142a565b6040516102509190611f84565b60405180910390f35b610273600480360381019061026e9190611d91565b6114b5565b6040516102809190611dcb565b60405180910390f35b6102a3600480360381019061029e9190611fce565b6115ac565b005b6102bf60048036038101906102ba9190611d53565b6116c8565b005b6102db60048036038101906102d69190611d91565b611aa0565b005b6102e5611b24565b60055f8373ffffffffffffffffffffffffffffffffffffffff1673ffffffffffffffffffffffffffffffffffffffff1681526020019081526020015f205f9054906101000a900460ff1661036e576040517f08c379a000000000000000000000000000000000000000000000000000000000815260040161036590612066565b60405180910390fd5b5f81116103b0576040517f08c379a00000000000000000000000000000000000000000000000000000000081526004016103a7906120ce565b60405180910390fd5b8173ffffffffffffffffffffffffffffffffffffffff166323b872dd3330846040518463ffffffff1660e01b81526004016103ed939291906120ec565b6020604051808303815f875af1158015610409573d5f803e3d5ffd5b505050506040513d601f19601f8201168201806040525081019061042d9190612135565b61046c576040517f08c379a0000000000000000000000000000000000000000000000000000000008152600401610463906121aa565b60405180910390fd5b3373ffffffffffffffffffffffffffffffffffffffff168273ffffffffffffffffffffffffffffffffffffffff167f733d861ee23857f5a9d8af215aea71267aa52d7f9bf83691f3f1a7af67b5b0f9836040516104c99190611dcb565b60405180910390a36104d9611b6a565b5050565b5f8160055f8273ffffffffffffffffffffffffffffffffffffffff1673ffffffffffffffffffffffffffffffffffffffff1681526020019081526020015f205f9054906101000a900460ff16610568576040517f08c379a000000000000000000000000000000000000000000000000000000000815260040161055f90612066565b60405180910390fd5b5f8373ffffffffffffffffffffffffffffffffffffffff166370a08231306040518263ffffffff1660e01b81526004016105a29190611e76565b602060405180830381865afa1580156105bd573d5f803e3d5ffd5b505050506040513d601f19601f820116820180604052508101906105e191906121dc565b90505f60025f8673ffffffffffffffffffffffffffffffffffffffff1673ffffffffffffffffffffffffffffffffffffffff1681526020019081526020015f205f01548261062f9190612234565b9050809350505050919050565b60045f3373ffffffffffffffffffffffffffffffffffffffff1673ffffffffffffffffffffffffffffffffffffffff1681526020019081526020015f205f9054906101000a900460ff166106c5576040517f08c379a00000000000000000000000000000000000000000000000000000000081526004016106bc906122b1565b60405180910390fd5b8260055f8273ffffffffffffffffffffffffffffffffffffffff1673ffffffffffffffffffffffffffffffffffffffff1681526020019081526020015f205f9054906101000a900460ff1661074f576040517f08c379a000000000000000000000000000000000000000000000000000000000815260040161074690612066565b60405180910390fd5b610757611b24565b5f73ffffffffffffffffffffffffffffffffffffffff168373ffffffffffffffffffffffffffffffffffffffff16036107c5576040517f08c379a00000000000000000000000000000000000000000000000000000000081526004016107bc90612319565b60405180910390fd5b8160035f8573ffffffffffffffffffffffffffffffffffffffff1673ffffffffffffffffffffffffffffffffffffffff1681526020019081526020015f205f8673ffffffffffffffffffffffffffffffffffffffff1673ffffffffffffffffffffffffffffffffffffffff1681526020019081526020015f20541015610880576040517f08c379a000000000000000000000000000000000000000000000000000000000815260040161087790612381565b60405180910390fd5b8160025f8673ffffffffffffffffffffffffffffffffffffffff1673ffffffffffffffffffffffffffffffffffffffff1681526020019081526020015f205f015f8282546108ce9190612234565b925050819055508160035f8573ffffffffffffffffffffffffffffffffffffffff1673ffffffffffffffffffffffffffffffffffffffff1681526020019081526020015f205f8673ffffffffffffffffffffffffffffffffffffffff1673ffffffffffffffffffffffffffffffffffffffff1681526020019081526020015f205f82825461095c9190612234565b925050819055508273ffffffffffffffffffffffffffffffffffffffff168473ffffffffffffffffffffffffffffffffffffffff167ffe969ab3230883f2b0e6ab2b857e9a8f9b0d66afd2328ca590da207cf19eb6d6846040516109c09190611dcb565b60405180910390a36109d0611b6a565b50505050565b6109de611b73565b8160055f8273ffffffffffffffffffffffffffffffffffffffff1673ffffffffffffffffffffffffffffffffffffffff1681526020019081526020015f205f9054906101000a900460ff16610a68576040517f08c379a0000000000000000000000000000000000000000000000000000000008152600401610a5f90612066565b60405180910390fd5b610a70611b24565b5f60025f8573ffffffffffffffffffffffffffffffffffffffff1673ffffffffffffffffffffffffffffffffffffffff1681526020019081526020015f205f01548473ffffffffffffffffffffffffffffffffffffffff166370a08231306040518263ffffffff1660e01b8152600401610aea9190611e76565b602060405180830381865afa158015610b05573d5f803e3d5ffd5b505050506040513d601f19601f82011682018060405250810190610b2991906121dc565b610b339190612234565b905082811015610b78576040517f08c379a0000000000000000000000000000000000000000000000000000000008152600401610b6f906123e9565b60405180910390fd5b8373ffffffffffffffffffffffffffffffffffffffff1663a9059cbb610b9c6110a4565b856040518363ffffffff1660e01b8152600401610bba929190612407565b6020604051808303815f875af1158015610bd6573d5f803e3d5ffd5b505050506040513d601f19601f82011682018060405250810190610bfa9190612135565b508373ffffffffffffffffffffffffffffffffffffffff167f3d1ba4dd8653665dacb4e2ace5ddb689de17dbf3b68949e86a4e818d8e979deb84604051610c419190611dcb565b60405180910390a250610c52611b6a565b505050565b60045f3373ffffffffffffffffffffffffffffffffffffffff1673ffffffffffffffffffffffffffffffffffffffff1681526020019081526020015f205f9054906101000a900460ff16610ce0576040517f08c379a0000000000000000000000000000000000000000000000000000000008152600401610cd7906122b1565b60405180910390fd5b8260055f8273ffffffffffffffffffffffffffffffffffffffff1673ffffffffffffffffffffffffffffffffffffffff1681526020019081526020015f205f9054906101000a900460ff16610d6a576040517f08c379a0000000000000000000000000000000000000000000000000000000008152600401610d6190612066565b60405180910390fd5b610d72611b24565b5f73ffffffffffffffffffffffffffffffffffffffff168373ffffffffffffffffffffffffffffffffffffffff1603610de0576040517f08c379a0000000000000000000000000000000000000000000000000000000008152600401610dd790612319565b60405180910390fd5b5f60025f8673ffffffffffffffffffffffffffffffffffffffff1673ffffffffffffffffffffffffffffffffffffffff1681526020019081526020015f205f01548573ffffffffffffffffffffffffffffffffffffffff166370a08231306040518263ffffffff1660e01b8152600401610e5a9190611e76565b602060405180830381865afa158015610e75573d5f803e3d5ffd5b505050506040513d601f19601f82011682018060405250810190610e9991906121dc565b610ea39190612234565b905082811015610ee8576040517f08c379a0000000000000000000000000000000000000000000000000000000008152600401610edf90612478565b60405180910390fd5b8260025f8773ffffffffffffffffffffffffffffffffffffffff1673ffffffffffffffffffffffffffffffffffffffff1681526020019081526020015f205f015f828254610f369190612496565b925050819055508260035f8673ffffffffffffffffffffffffffffffffffffffff1673ffffffffffffffffffffffffffffffffffffffff1681526020019081526020015f205f8773ffffffffffffffffffffffffffffffffffffffff1673ffffffffffffffffffffffffffffffffffffffff1681526020019081526020015f205f828254610fc49190612496565b925050819055508373ffffffffffffffffffffffffffffffffffffffff168573ffffffffffffffffffffffffffffffffffffffff167f98e20a187e110adf2eb13b73ae9eda87405ddef96efb325444b00111407b5faa856040516110289190611dcb565b60405180910390a350611039611b6a565b50505050565b611047611b73565b6110505f611bfa565b565b5f60045f8373ffffffffffffffffffffffffffffffffffffffff1673ffffffffffffffffffffffffffffffffffffffff1681526020019081526020015f205f9054906101000a900460ff169050919050565b5f805f9054906101000a900473ffffffffffffffffffffffffffffffffffffffff16905090565b5f8260055f8273ffffffffffffffffffffffffffffffffffffffff1673ffffffffffffffffffffffffffffffffffffffff1681526020019081526020015f205f9054906101000a900460ff16611156576040517f08c379a000000000000000000000000000000000000000000000000000000000815260040161114d90612066565b60405180910390fd5b60035f8473ffffffffffffffffffffffffffffffffffffffff1673ffffffffffffffffffffffffffffffffffffffff1681526020019081526020015f205f8573ffffffffffffffffffffffffffffffffffffffff1673ffffffffffffffffffffffffffffffffffffffff1681526020019081526020015f205491505092915050565b6111e0611b73565b5f73ffffffffffffffffffffffffffffffffffffffff168173ffffffffffffffffffffffffffffffffffffffff160361124e576040517f08c379a000000000000000000000000000000000000000000000000000000000815260040161124590612513565b60405180910390fd5b60055f8273ffffffffffffffffffffffffffffffffffffffff1673ffffffffffffffffffffffffffffffffffffffff1681526020019081526020015f205f9054906101000a900460ff16156112d8576040517f08c379a00000000000000000000000000000000000000000000000000000000081526004016112cf9061257b565b60405180910390fd5b60405180602001604052805f81525060025f8373ffffffffffffffffffffffffffffffffffffffff1673ffffffffffffffffffffffffffffffffffffffff1681526020019081526020015f205f820151815f0155905050600160055f8373ffffffffffffffffffffffffffffffffffffffff1673ffffffffffffffffffffffffffffffffffffffff1681526020019081526020015f205f6101000a81548160ff021916908315150217905550600681908060018154018082558091505060019003905f5260205f20015f9091909190916101000a81548173ffffffffffffffffffffffffffffffffffffffff021916908373ffffffffffffffffffffffffffffffffffffffff1602179055508073ffffffffffffffffffffffffffffffffffffffff167fa13b48061767bbcb26046cd14c85b6abfdd04e697bedae7633d97b75fc47a3e560405160405180910390a250565b606060068054806020026020016040519081016040528092919081815260200182805480156114ab57602002820191905f5260205f20905b815f9054906101000a900473ffffffffffffffffffffffffffffffffffffffff1673ffffffffffffffffffffffffffffffffffffffff1681526020019060010190808311611462575b5050505050905090565b5f805f90505f5b6006805490508110156115a2575f600682815481106114de576114dd612599565b5b905f5260205f20015f9054906101000a900473ffffffffffffffffffffffffffffffffffffffff16905060035f8673ffffffffffffffffffffffffffffffffffffffff1673ffffffffffffffffffffffffffffffffffffffff1681526020019081526020015f205f8273ffffffffffffffffffffffffffffffffffffffff1673ffffffffffffffffffffffffffffffffffffffff1681526020019081526020015f20548361158c9190612496565b925050808061159a906125c6565b9150506114bc565b5080915050919050565b6115b4611b73565b5f73ffffffffffffffffffffffffffffffffffffffff168273ffffffffffffffffffffffffffffffffffffffff1603611622576040517f08c379a000000000000000000000000000000000000000000000000000000000815260040161161990612657565b60405180910390fd5b8060045f8473ffffffffffffffffffffffffffffffffffffffff1673ffffffffffffffffffffffffffffffffffffffff1681526020019081526020015f205f6101000a81548160ff0219169083151502179055508173ffffffffffffffffffffffffffffffffffffffff167fde2879b38430cbc20b1709e6fa4a18f45793cfb37baa97f594b183021eca6d7d826040516116bc9190611e4e565b60405180910390a25050565b8160055f8273ffffffffffffffffffffffffffffffffffffffff1673ffffffffffffffffffffffffffffffffffffffff1681526020019081526020015f205f9054906101000a900460ff16611752576040517f08c379a000000000000000000000000000000000000000000000000000000000815260040161174990612066565b60405180910390fd5b61175a611b24565b8160035f3373ffffffffffffffffffffffffffffffffffffffff1673ffffffffffffffffffffffffffffffffffffffff1681526020019081526020015f205f8573ffffffffffffffffffffffffffffffffffffffff1673ffffffffffffffffffffffffffffffffffffffff1681526020019081526020015f20541015611815576040517f08c379a000000000000000000000000000000000000000000000000000000000815260040161180c906126bf565b60405180910390fd5b818373ffffffffffffffffffffffffffffffffffffffff166370a08231306040518263ffffffff1660e01b815260040161184f9190611e76565b602060405180830381865afa15801561186a573d5f803e3d5ffd5b505050506040513d601f19601f8201168201806040525081019061188e91906121dc565b10156118cf576040517f08c379a00000000000000000000000000000000000000000000000000000000081526004016118c690612727565b60405180910390fd5b8160035f3373ffffffffffffffffffffffffffffffffffffffff1673ffffffffffffffffffffffffffffffffffffffff1681526020019081526020015f205f8573ffffffffffffffffffffffffffffffffffffffff1673ffffffffffffffffffffffffffffffffffffffff1681526020019081526020015f205f8282546119569190612234565b925050819055508160025f8573ffffffffffffffffffffffffffffffffffffffff1673ffffffffffffffffffffffffffffffffffffffff1681526020019081526020015f205f015f8282546119ab9190612234565b925050819055508273ffffffffffffffffffffffffffffffffffffffff1663a9059cbb33846040518363ffffffff1660e01b81526004016119ed929190612407565b6020604051808303815f875af1158015611a09573d5f803e3d5ffd5b505050506040513d601f19601f82011682018060405250810190611a2d9190612135565b503373ffffffffffffffffffffffffffffffffffffffff168373ffffffffffffffffffffffffffffffffffffffff167f6333744f9510d2cc7b562d6cd853440cb404fde9243d8f1b3761d449987437fb84604051611a8b9190611dcb565b60405180910390a3611a9b611b6a565b505050565b611aa8611b73565b5f73ffffffffffffffffffffffffffffffffffffffff168173ffffffffffffffffffffffffffffffffffffffff1603611b18575f6040517f1e4fbdf7000000000000000000000000000000000000000000000000000000008152600401611b0f9190611e76565b60405180910390fd5b611b2181611bfa565b50565b600260015403611b60576040517f3ee5aeb500000000000000000000000000000000000000000000000000000000815260040160405180910390fd5b6002600181905550565b60018081905550565b611b7b611cbb565b73ffffffffffffffffffffffffffffffffffffffff16611b996110a4565b73ffffffffffffffffffffffffffffffffffffffff1614611bf857611bbc611cbb565b6040517f118cdaa7000000000000000000000000000000000000000000000000000000008152600401611bef9190611e76565b60405180910390fd5b565b5f805f9054906101000a900473ffffffffffffffffffffffffffffffffffffffff169050815f806101000a81548173ffffffffffffffffffffffffffffffffffffffff021916908373ffffffffffffffffffffffffffffffffffffffff1602179055508173ffffffffffffffffffffffffffffffffffffffff168173ffffffffffffffffffffffffffffffffffffffff167f8be0079c531659141344cd1fd0a4f28419497f9722a3daafe3b4186f6b6457e060405160405180910390a35050565b5f33905090565b5f80fd5b5f73ffffffffffffffffffffffffffffffffffffffff82169050919050565b5f611cef82611cc6565b9050919050565b611cff81611ce5565b8114611d09575f80fd5b50565b5f81359050611d1a81611cf6565b92915050565b5f819050919050565b611d3281611d20565b8114611d3c575f80fd5b50565b5f81359050611d4d81611d29565b92915050565b5f8060408385031215611d6957611d68611cc2565b5b5f611d7685828601611d0c565b9250506020611d8785828601611d3f565b9150509250929050565b5f60208284031215611da657611da5611cc2565b5b5f611db384828501611d0c565b91505092915050565b611dc581611d20565b82525050565b5f602082019050611dde5f830184611dbc565b92915050565b5f805f60608486031215611dfb57611dfa611cc2565b5b5f611e0886828701611d0c565b9350506020611e1986828701611d0c565b9250506040611e2a86828701611d3f565b9150509250925092565b5f8115159050919050565b611e4881611e34565b82525050565b5f602082019050611e615f830184611e3f565b92915050565b611e7081611ce5565b82525050565b5f602082019050611e895f830184611e67565b92915050565b5f8060408385031215611ea557611ea4611cc2565b5b5f611eb285828601611d0c565b9250506020611ec385828601611d0c565b9150509250929050565b5f81519050919050565b5f82825260208201905092915050565b5f819050602082019050919050565b611eff81611ce5565b82525050565b5f611f108383611ef6565b60208301905092915050565b5f602082019050919050565b5f611f3282611ecd565b611f3c8185611ed7565b9350611f4783611ee7565b805f5b83811015611f77578151611f5e8882611f05565b9750611f6983611f1c565b925050600181019050611f4a565b5085935050505092915050565b5f6020820190508181035f830152611f9c8184611f28565b905092915050565b611fad81611e34565b8114611fb7575f80fd5b50565b5f81359050611fc881611fa4565b92915050565b5f8060408385031215611fe457611fe3611cc2565b5b5f611ff185828601611d0c565b925050602061200285828601611fba565b9150509250929050565b5f82825260208201905092915050565b7f5265736f7572636520646f6573206e6f742065786973740000000000000000005f82015250565b5f61205060178361200c565b915061205b8261201c565b602082019050919050565b5f6020820190508181035f83015261207d81612044565b9050919050565b7f416d6f756e74206d7573742062652067726561746572207468616e207a65726f5f82015250565b5f6120b860208361200c565b91506120c382612084565b602082019050919050565b5f6020820190508181035f8301526120e5816120ac565b9050919050565b5f6060820190506120ff5f830186611e67565b61210c6020830185611e67565b6121196040830184611dbc565b949350505050565b5f8151905061212f81611fa4565b92915050565b5f6020828403121561214a57612149611cc2565b5b5f61215784828501612121565b91505092915050565b7f5472616e73666572206661696c656400000000000000000000000000000000005f82015250565b5f612194600f8361200c565b915061219f82612160565b602082019050919050565b5f6020820190508181035f8301526121c181612188565b9050919050565b5f815190506121d681611d29565b92915050565b5f602082840312156121f1576121f0611cc2565b5b5f6121fe848285016121c8565b91505092915050565b7f4e487b71000000000000000000000000000000000000000000000000000000005f52601160045260245ffd5b5f61223e82611d20565b915061224983611d20565b925082820390508181111561226157612260612207565b5b92915050565b7f4e6f7420616e20617574686f72697a6564206d616e61676572000000000000005f82015250565b5f61229b60198361200c565b91506122a682612267565b602082019050919050565b5f6020820190508181035f8301526122c88161228f565b9050919050565b7f496e76616c6964207573657220616464726573730000000000000000000000005f82015250565b5f61230360148361200c565b915061230e826122cf565b602082019050919050565b5f6020820190508181035f830152612330816122f7565b9050919050565b7f496e73756666696369656e7420616c6c6f6361746564207265736f75726365735f82015250565b5f61236b60208361200c565b915061237682612337565b602082019050919050565b5f6020820190508181035f8301526123988161235f565b9050919050565b7f496e73756666696369656e7420756e616c6c6f636174656420616d6f756e74005f82015250565b5f6123d3601f8361200c565b91506123de8261239f565b602082019050919050565b5f6020820190508181035f830152612400816123c7565b9050919050565b5f60408201905061241a5f830185611e67565b6124276020830184611dbc565b9392505050565b7f4e6f7420656e6f756768207265736f757263657320617661696c61626c6500005f82015250565b5f612462601e8361200c565b915061246d8261242e565b602082019050919050565b5f6020820190508181035f83015261248f81612456565b9050919050565b5f6124a082611d20565b91506124ab83611d20565b92508282019050808211156124c3576124c2612207565b5b92915050565b7f496e76616c6964207265736f75726365206164647265737300000000000000005f82015250565b5f6124fd60188361200c565b9150612508826124c9565b602082019050919050565b5f6020820190508181035f83015261252a816124f1565b9050919050565b7f5265736f7572636520616c7265616479206578697374730000000000000000005f82015250565b5f61256560178361200c565b915061257082612531565b602082019050919050565b5f6020820190508181035f83015261259281612559565b9050919050565b7f4e487b71000000000000000000000000000000000000000000000000000000005f52603260045260245ffd5b5f6125d082611d20565b91507fffffffffffffffffffffffffffffffffffffffffffffffffffffffffffffffff820361260257612601612207565b5b600182019050919050565b7f496e76616c6964206d616e6167657220616464726573730000000000000000005f82015250565b5f61264160178361200c565b915061264c8261260d565b602082019050919050565b5f6020820190508181035f83015261266e81612635565b9050919050565b7f496e73756666696369656e7420616c6c6f636174656420616d6f756e740000005f82015250565b5f6126a9601d8361200c565b91506126b482612675565b602082019050919050565b5f6020820190508181035f8301526126d68161269d565b9050919050565b7f496e73756666696369656e74207265736f757263652062616c616e63650000005f82015250565b5f612711601d8361200c565b915061271c826126dd565b602082019050919050565b5f6020820190508181035f83015261273e81612705565b905091905056fea2646970667358221220750de17e55f9b19366600f9949755775a88b9639bf9ea26339feb17c8859135f64736f6c63430008140033",
  "immutableReferences": {},
  "source": "// SPDX-License-Identifier: MIT\npragma solidity ^0.8.20;\n\nimport \"@openzeppelin/contracts/access/Ownable.sol\";\nimport \"@openzeppelin/contracts/token/ERC20/IERC20.sol\";\nimport \"@openzeppelin/contracts/utils/ReentrancyGuard.sol\";\n\ncontract ResourceAllocation is Ownable(msg.sender), ReentrancyGuard {\n    struct Resource {\n        uint256 allocatedAmount;\n    }\n\n    mapping(address => Resource) private resources;\n    mapping(address => mapping(address => uint256)) private allocations; // user => resource => amount\n    mapping(address => bool) private authorizedManagers;\n    mapping(address => bool) private resourceExistsMapping;\n    address[] private resourcesList;\n\n    event ResourceCreated(address indexed resource);\n    event ResourceAllocated(address indexed resource, address indexed user, uint256 amount);\n    event ResourceDeallocated(address indexed resource, address indexed user, uint256 amount);\n    event ResourceWithdrawn(address indexed resource, address indexed user, uint256 amount);\n    event ResourceDeposited(address indexed resource, address indexed depositor, uint256 amount);\n    event ManagerAuthorized(address indexed manager, bool isAuthorized);\n    event UnallocatedWithdrawn(address indexed resource, uint256 amount);\n\n    modifier onlyAuthorizedManager() {\n        require(authorizedManagers[msg.sender], \"Not an authorized manager\");\n        _;\n    }\n\n    modifier resourceExists(address resource) {\n        require(resourceExistsMapping[resource], \"Resource does not exist\");\n        _;\n    }\n\n    function createResource(address resource) external onlyOwner {\n        require(resource != address(0), \"Invalid resource address\");\n        require(!resourceExistsMapping[resource], \"Resource already exists\");\n        resources[resource] = Resource({\n            allocatedAmount: 0\n        });\n        resourceExistsMapping[resource] = true;\n        resourcesList.push(resource);\n        emit ResourceCreated(resource);\n    }\n\n    function depositResource(address resource, uint256 amount) external nonReentrant {\n        require(resourceExistsMapping[resource], \"Resource does not exist\");\n        require(amount > 0, \"Amount must be greater than zero\");\n        require(IERC20(resource).transferFrom(msg.sender, address(this), amount), \"Transfer failed\");\n        emit ResourceDeposited(resource, msg.sender, amount);\n    }\n\n    function allocateResource(address resource, address user, uint256 amount) external onlyAuthorizedManager resourceExists(resource) nonReentrant {\n        require(user != address(0), \"Invalid user address\");\n        uint256 availableAmount = IERC20(resource).balanceOf(address(this)) - resources[resource].allocatedAmount;\n        require(availableAmount >= amount, \"Not enough resources available\");\n\n        resources[resource].allocatedAmount += amount;\n        allocations[user][resource] += amount;\n\n        emit ResourceAllocated(resource, user, amount);\n    }\n\n    function deallocateResource(address resource, address user, uint256 amount) external onlyAuthorizedManager resourceExists(resource) nonReentrant {\n        require(user != address(0), \"Invalid user address\");\n        require(allocations[user][resource] >= amount, \"Insufficient allocated resources\");\n\n        resources[resource].allocatedAmount -= amount;\n        allocations[user][resource] -= amount;\n\n        emit ResourceDeallocated(resource, user, amount);\n    }\n\n    function withdrawResource(address resource, uint256 amount) external resourceExists(resource) nonReentrant {\n        require(allocations[msg.sender][resource] >= amount, \"Insufficient allocated amount\");\n        require(IERC20(resource).balanceOf(address(this)) >= amount, \"Insufficient resource balance\");\n\n        allocations[msg.sender][resource] -= amount;\n        resources[resource].allocatedAmount -= amount;\n        \n        IERC20(resource).transfer(msg.sender, amount);\n\n        emit ResourceWithdrawn(resource, msg.sender, amount);\n    }\n\n    function authorizeManager(address manager, bool isAuthorized) external onlyOwner {\n        require(manager != address(0), \"Invalid manager address\");\n        authorizedManagers[manager] = isAuthorized;\n        emit ManagerAuthorized(manager, isAuthorized);\n    }\n\n    function isAuthorizedManager(address manager) external view returns (bool) {\n        return authorizedManagers[manager];\n    }\n\n    function getAvailableResources(address resource) external view resourceExists(resource) returns (uint256) {\n        uint256 totalBalance = IERC20(resource).balanceOf(address(this));\n        uint256 availableAmount = totalBalance - resources[resource].allocatedAmount;\n        return availableAmount;\n    }\n\n    function getAllocation(address resource, address user) external view resourceExists(resource) returns (uint256) {\n        return allocations[user][resource];\n    }\n\n    function getTotalAllocation(address user) external view returns (uint256) {\n        uint256 totalAllocation = 0;\n        for (uint i = 0; i < resourcesList.length; i++) {\n            address resource = resourcesList[i];\n            totalAllocation += allocations[user][resource];\n        }\n        return totalAllocation;\n    }\n\n    function getResources() external view returns (address[] memory) {\n        return resourcesList;\n    }\n\n    function withdrawUnallocated(address resource, uint256 amount) external onlyOwner resourceExists(resource) nonReentrant {\n        uint256 unallocatedAmount = IERC20(resource).balanceOf(address(this)) - resources[resource].allocatedAmount;\n        require(unallocatedAmount >= amount, \"Insufficient unallocated amount\");\n        IERC20(resource).transfer(owner(), amount);\n        emit UnallocatedWithdrawn(resource, amount);\n    }\n}\n",
  "sourcePath": "/Users/elvin3block/Documents/Evire-DePIN-Framework/contracts/ResourceAllocation.sol",
  "compiler": {
    "name": "solc",
    "version": "0.8.20+commit.a1b79de6.Emscripten.clang"
  },
  "schemaVersion": "3.4.16",
  "updatedAt": "2024-11-07T15:02:22.467Z",
  "devdoc": {
    "errors": {
      "OwnableInvalidOwner(address)": [
        {
          "details": "The owner is not a valid owner account. (eg. `address(0)`)"
        }
      ],
      "OwnableUnauthorizedAccount(address)": [
        {
          "details": "The caller account is not authorized to perform an operation."
        }
      ],
      "ReentrancyGuardReentrantCall()": [
        {
          "details": "Unauthorized reentrant call."
        }
      ]
    },
    "kind": "dev",
    "methods": {
      "owner()": {
        "details": "Returns the address of the current owner."
      },
      "renounceOwnership()": {
        "details": "Leaves the contract without owner. It will not be possible to call `onlyOwner` functions. Can only be called by the current owner. NOTE: Renouncing ownership will leave the contract without an owner, thereby disabling any functionality that is only available to the owner."
      },
      "transferOwnership(address)": {
        "details": "Transfers ownership of the contract to a new account (`newOwner`). Can only be called by the current owner."
      }
    },
    "version": 1
  },
  "userdoc": {
    "kind": "user",
    "methods": {},
    "version": 1
  }
}